:020000040800F2
:10000000381900244D030008737B0008614D000877
:10001000717B000865090008ED9B000800000000E6
:10002000000000000000000000000000F98A000845
:100030006709000800000000757B0008FB8A0008C3
:1000400067030008670300086703000867030008E8
:1000500067030008670300086909000867030008D0
:1000600067030008670300086703000867030008C8
:1000700067030008670300086703000867030008B8
:1000800067030008670300086703000867030008A8
:100090006703000867030008670300086703000898
:1000A0006703000867030008670300086703000888
:1000B0006703000867030008670300086703000878
:1000C00067030008714D0008654D000867030008CC
:1000D00067030008E19B0008670300086703000846
:1000E00067030008670300080000000067030008BA
:1000F0006703000867030008670300086703000838
:10010000C90900086D80000867030008670300083C
:1001100067030008670300080995000867030008E3
:100120006703000867030008670300086703000807
:1001300067030008670300086703000867030008F7
:1001400000000000000000000000000000000000AF
:1001500067030008670300086703000867030008D7
:1001600067030008670300086703000867030008C7
:100170006703000867030008670300080000000029
:1001800067030008670300086703000867030008A7
:100190006703000867030008670300086703000897
:1001A0006703000867030008670300086703000887
:1001B000217E000867030008670300086703000842
:1001C0006703000867030008670300086703000867
:1001D0006703000867030008670300086703000857
:1001E0006703000867030008670300086703000847
:1001F0006703000867030008670300086703000837
:100200006703000867030008670300086703000826
:100210006703000867030008670300086703000816
:100220006703000867030008670300080000000078
:100230006703000867030008000000006703000868
:1002400067030008670300086703000867030008E6
:1002500067030008670300086703000867030008D6
:1002600067030008670300086703000867030008C6
:100270006703000867030008670300080000000028
:100280006703000867030008670300080000000018
:10029000000000006703000800F002F800F047F8D3
:1002A0000AA090E8000C82448344AAF10107DA45D1
:1002B00001D100F03CF8AFF2090EBAE80F0013F0DC
:1002C000010F18BFFB1A43F001031847CCEB0000E5
:1002D000ECEB0000103A24BF78C878C1FAD8520776
:1002E00024BF30C830C144BF04680C6070470000B0
:1002F0000023002400250026103A28BF78C1FBD82F
:10030000520728BF30C148BF0B607047642900F016
:100310002581782900F05E81732900F0D6820020C3
:1003200070471FB50AF0CCF91FBD10B510BD00F025
:10033000E7FA1146FFF7F5FF09F0CEFE00F005FBE6
:1003400003B4FFF7F2FF03BC09F036FE094880470B
:1003500009480047FEE7FEE7FEE7FEE7FEE7FEE7A7
:10036000FEE7FEE7FEE7FEE704480549054A064BBF
:1003700070470000A58B000899020008381300247C
:10038000381900243815002438150024704753EA22
:10039000020C00F069802DE9F04B4FF00006002BB5
:1003A0001FBFB3FA83F503FA05F424FA05F65E409D
:1003B00012BF1643B2FA82F502FA05F4C5F1200520
:1003C0001EBF22FA05FC44EA0C04203556EA044C10
:1003D0004FEA144418BF641C4FF000084FF00009A6
:1003E000904271EB030C39D3002919BFB1FA81F7A0
:1003F00001FA07F6B0FA80F700FA07F6C7F120070E
:100400001EBF20FA07FC46EA0C062037B6FBF4FCB8
:10041000A7EB0507103F07F01F0BCBF120060CFAE6
:100420000BFB2CFA06F644BFB3460026202FA4BFD0
:100430005E464FF0000B5BEA060C08BF4FF0010B65
:1004400019EB0B09ABFB027C48EB0608C01B06FB53
:1004500002CC0BFB03CC71EB0C01C1E70B4602464F
:1004600041464846BDE8F08B13B54FF000004FF011
:100470000001AFF30080BDE81C4070470FB4044991
:1004800010B503AA029800F025FA10BC5DF814FB21
:10049000080000240FB41CB5074B06AA7B4469462C
:1004A0000090059800F0E7F90020694600F0F6F9A1
:1004B0001CBC5DF814FB0000FD03000070B5044691
:1004C00085690068C10601D5302600E02026C007F6
:1004D00007D070BDD4E9012130469047206A401C06
:1004E00020626D1EF6D570BD70B504468569007832
:1004F000C00707D170BDD4E9012120209047206AB0
:10050000401C20626D1EF6D570BD70B50C460546C8
:10051000012A05D02878800600D5EA69002302E088
:10052000012305E05B1C934202D2E05C0028F9D174
:10053000A869E618C01AA861286A184428622846E3
:10054000FFF7BCFF04E0D5E9012114F8010B904747
:10055000B442F8D32846FFF7C7FF70BD2DE9F0413C
:100560000646002410687529314616A510D0AFF351
:100570000080002802DA404213A507E031688A07AC
:1005800001D512A502E0490704D511A5012401E017
:10059000AFF3008000210A2206F1240709E0B0FB36
:1005A000F2FCB0FBF2F302FB1C003030785418462A
:1005B000491C0028F3D123462A463046BDE8F041C5
:1005C00000F0FBB8000000002D0000002B00000030
:1005D0002000000070B504460D4621461068AFF3B8
:1005E00000802188090502D50F4A7A4402E00E4AAC
:1005F0007A440E32002104F1240305E000F00F06D6
:100600000009965D5E54491C0028F7D1207800232C
:10061000000704D5702D02D009B102231132204603
:10062000BDE8704000F0C9B86EE800002DE9F05F49
:10063000894604464FF0000ADFF824B1FB44C0F8B5
:1006400020A02046E168884700287DD0252806D0D4
:10065000D4E901219047206A401C2062F1E700257F
:100660005F462046E16888472028064607DB312E92
:1006700005D2B81910F8200C08B10543F1E7A80716
:1006800001D525F00405C4F81CA00027C4F818A063
:100690002A2E09D0304609F088FC38B304EB8708CD
:1006A000303EC8F8186019E059F8041B204604EBE6
:1006B00087029161E1688847012F064618D1E069F9
:1006C000002820DA25F020051DE0D8F8180000EBFE
:1006D000800006EB40003038C8F818002046E1687A
:1006E0008847064609F061FC0028EED1012F0AD0A8
:1006F0002E2E08D12046E16888477F1C0646022F2F
:1007000045F02005C4DBA069002803DA404245F02B
:100710000105A061E80701D025F01005A6B1A6F1FA
:100720004100192802D8203645F400654A46314672
:10073000204625604D46FFF7E9FD60B1012807D04E
:10074000ED1D25F0070000E007E000F1080978E75B
:1007500005F1040975E730467AE7206ABDE8F09FA5
:1007600044E800004FF0000200B513469446964658
:10077000203922BFA0E80C50A0E80C50B1F12001B4
:10078000BFF4F7AF090728BFA0E80C5048BF0CC062
:100790005DF804EB890028BF40F8042B08BF7047C0
:1007A00048BF20F8022B11F0804F18BF00F8012B32
:1007B000704770477047704770472DE9F0470D4606
:1007C00099469246044600F124080168880604D53B
:1007D000E06921F01001216000E00120A84201DD64
:1007E000471B00E00027A1697A1902EB0900081AEB
:1007F000A0612078C00602D42046FFF75FFE0026E5
:1008000008E0D4E901211AF806009047206A401C4C
:10081000761C20624E45F4DB2078C0060AD52046BF
:10082000FFF74CFE06E0D4E9012130209047206A12
:10083000401C2062381EA7F10107F4DC07E0D4E970
:10084000012118F805009047206A401C2062281EEC
:10085000A5F10105F3DC2046FFF746FE20780006EF
:1008600002D50220BDE8F0870120FBE701694A1CA0
:1008700002610878704700B58FB0CDE901310021E1
:10088000059105497944CDE9031011466846FFF703
:10089000CDFE0FB000BD0000E5FFFFFF0A6802F8C3
:1008A000010B0A60704710B5436913B1AFF30080C4
:1008B00001E0FFF72AFE012010BD127800F12401AB
:1008C0000A7000224A700122EDE711684FF0FF32F2
:1008D000E9E70000074B70B50D467B44FFF7CBFFFF
:1008E0000446284600F008F810B14FF0FF3070BD04
:1008F000204670BD0B970000007B00F08000704721
:10090000754600F02BF8AE4605006946534620F0C8
:100910000700854618B020B5FFF726FDBDE820404A
:100920004FF000064FF000074FF000084FF0000BAB
:1009300021F00701AC46ACE8C009ACE8C009ACE85E
:10094000C009ACE8C0098D46704710B50446AFF346
:1009500000802046BDE81040FFF7F2BC0048704719
:10096000D8120024FEE770471CB5012000F013FDEB
:1009700008F0C4F80A2000F06DFC09A0FFF77EFD26
:1009800048F2304008F080F90AA120204FF4967216
:100990000346CDE900010A21084608F035FD1CBDDB
:1009A000CFB5CDB3D6D8D0C2C6F4B6AFA3A10D0A89
:1009B0000000000053797374656D2052657365748F
:1009C0002100000072B6FEE7014803F0A5B8000060
:1009D000A0000024F0B5B3F5804F05D06FF0704152
:1009E00040F822100020F0BD91E838008F898E6910
:1009F00050F8221024013343054E44EA05242343D2
:100A0000314043EA07430B4340F82230EAE7000055
:100A10000000F0CFF0B50A6850F8223023F001034F
:100A200040F822308C68082C2CD000264A68D1E986
:100A300003CE22434CEA060C01F1140342EA0C02F5
:100A400042EA0E0293E8F8501A4322430C682A4304
:100A5000D1E90C35324350F824603A4342EA0C02A3
:100A6000DFF840C042EA0E028F6B13431D432F4351
:100A700026EA0C063E4340F824600A6BB2F5801F5C
:100A800002D007E04026D1E70A684AB1026842F482
:100A9000801202600A681AB10268496B0A43026058
:100AA0000020F0BD7FFB3F00F0B58C6800EB8202B8
:100AB000D1E90036B1F80CE04FEA042C134C0D8A52
:100AC00043EA06130E7D67014CEA0E4C43EA0C0321
:100AD00004EB05552B438D6907EB066657683343D6
:100AE0002B4307F040452B4353600268D2020BD5DD
:100AF000098A4268436804EB015122F470021143F1
:100B000023F470030B4343600020F0BD0000F0FFAE
:100B1000F0B5D1E90843CD690A68C2B1026825433E
:100B200022F4F84213431D430560D1E90125D1E9C0
:100B300003364C692A434568334389691A43EB0BF2
:100B40002243DB030A431A4342600020F0BDD1E98F
:100B5000012ED1E9036CD1E9057142EA0E0246EAA1
:100B60000C0632433A430A4301682A4322431A439C
:100B70006FF30E010A430260E7E7426943F6FE7332
:100B80009A4342EA410141610020704770B591E803
:100B90001C00C9686FF01F0506691A4305EB441471
:100BA00044EA41210A4306EA45431A430261002010
:100BB00070BD00002DE9F04F8B8A6FF00F05264CB9
:100BC0004FF07F4BD1F80C9004EB03536FF0FF0410
:100BD0004FEA042A1AB386684FEA09321F4FA2F57A
:100BE00080521A433E4032438260D1E900278E682A
:100BF000521E05EB07150F8A2A43C56804EB06242D
:100C00000E7E0AEB074322431A430BEB06610A43AD
:100C100005F070431A43C2600020BDE8F08F91E8F0
:100C200004110F4E521E0F8A05EB08152A4304EBE0
:100C30000C2C06EB09350E7E42EA0C022A4385682D
:100C40000AEB074422431A430BEB06610A4305F003
:100C500070431A438260DFE70000F0FFFF0F0FFFD1
:100C600000F0FFFF2DE9F84F044600F0D1FC002C06
:100C7000009008D094F83500022805D080216165E5
:100C8000002084F83400E3E0C84DC84EC749183549
:100C900020683036DFF81883DFF818938842DFF8D1
:100CA00018A3DFF818B32ED0A8422CD0B0422AD017
:100CB000404528D0484526D0504524D0584522D01C
:100CC000BE4A183290421ED0BD4A90421BD0BC4A48
:100CD0001832904217D0BA4A3032904213D0B84AF4
:100CE000483290420FD0B64A603290420BD0B44A9C
:100CF0007832904207D0B24A9032904203D0B04A44
:100D0000A832904209D1026822F01E0202602068D7
:100D1000426922F08002426103E0026822F00E0282
:100D2000026027688F4238464DD0A8424BD0B0426F
:100D300049D0404547D0484545D0504543D0584517
:100D400041D09E4A183290423DD09D4A90423AD0BE
:100D50009B4A1832904236D0994A3032904232D073
:100D6000974A483290422ED0954A603290422AD01B
:100D7000934A7832904226D0914A9032904222D0C3
:100D80008F4AA83290421ED08E4A90421BD08D4A84
:100D90001432904217D08B4A2832904213D0894A9D
:100DA0003C3290420FD0874A503290420BD0854A55
:100DB0006432904207D0834A7832904203D0814A0D
:100DC0008C32974204D1206E026822F48072026055
:100DD00076492068884228D0A84226D0B04224D044
:100DE000404522D0484520D050451ED058451CD003
:100DF00072491831884218D07149884215D070491B
:100E00001831884211D06E49303188420DD06C497A
:100E10004831884209D06A496031884205D0684922
:100E20007831884201D066499031016821F0010192
:100E3000016010E000F0ECFB0099401A05280AD987
:100E4000202262650020032184F8340084F83510E4
:100E50000120BDE8F88F3868C007EBD1534A012163
:100E6000206890422ED0A8422CD0B0422AD04045D3
:100E700028D0484526D0504524D0584522D04F4B45
:100E8000183398421ED04E4B98421BD04C4B18330F
:100E9000984217D04A4B3033984213D0484B4833CE
:100EA00098420FD0464B603398420BD0444B783376
:100EB000984207D0424B9033984203D0404BA8331E
:100EC000984208D194F85C703F23A06D07F01F078B
:100ED000BB40836007E094F85C30A06D03F01F0313
:100EE00001FA03F34360206890424DD0A8424BD0F2
:100EF000B04249D0404547D0484545D0504543D001
:100F0000584541D02D4A183290423DD02C4A90424B
:100F10003AD02B4A1832904236D0294A3032904289
:100F200032D0274A483290422ED0254A6032904231
:100F30002AD0234A7832904226D0214A90329042D9
:100F400022D01F4AA83290421ED01E4A90421BD087
:100F50001C4A1432904217D01A4A2832904213D0B9
:100F6000184A3C3290420FD0164A503290420BD071
:100F7000144A6432904207D0124A7832904203D029
:100F8000104A8C3290420BD1D4E919024260E06ED3
:100F900030B1026822F480720260D4E91C0242601F
:100FA000002084F8340084F8351052E71000024025
:100FB000580002407000024088000240A000024039
:100FC00010040240085402582DE9F05F28B190F84F
:100FD0003510022904D0802141650120BDE8F09F31
:100FE000904C904B0168183C18338E4ADFF83C92C5
:100FF000A1428D4CDFF838E28E4FDFF83CB2DFF8CB
:101000003CA28F4D8F4E31D091422FD099422DD09E
:10101000A1422BD0494529D0714527D0B94225D0CE
:10102000DFF810C20CF1180C61451FD0DFF808C2C0
:10103000ACF1600C614519D0DFF8FCC1ACF1480C93
:10104000614513D0DFF8F0C1ACF1300C61450DD033
:10105000DFF8E4C1ACF1180C614507D0594505D063
:10106000514503D0A94201D0B1422CD1DFF8B4C11F
:101070004FF0040880F83580ACF1180C61451DD0A4
:1010800091421BD0994219D0A14217D0494515D0A1
:10109000714513D0B94211D06648183081420DD045
:1010A00065486038814209D063484838814205D09C
:1010B00061483038814201D05F481838086820F014
:1010C00001000860ABE0D1F800C02CF00E08DFF89A
:1010D00054C1C1F80080ACF1180C0168614527D0FB
:1010E000914225D0994223D0A14221D049451FD019
:1010F00071451DD0B9421BD0DFF838C10CF1180C76
:10110000614515D0DFF830C1ACF1600C61450FD0FE
:10111000DFF824C1ACF1480C614509D0DFF818C1F3
:10112000ACF1300C614503D0DFF80CC1ACF1180C08
:10113000D1F800C02CF0010CC1F800C0DFF8E48049
:101140004FF0010C0168A8F11808414546D09142C2
:1011500044D0994242D0A14240D049453ED0714549
:101160003CD0B9423AD0334A1832914236D0324A52
:10117000603A914232D0304A483A91422ED02E4ABB
:10118000303A91422AD02C4A183A914226D05945F9
:1011900024D0514522D0A94220D0B1421ED02A4AA3
:1011A00091421BD0284A1432914217D0264A283245
:1011B000914213D0244A3C3291420FD0224A5032FD
:1011C00091420BD0204A6432914207D01E4A7832B5
:1011D000914203D01C4A8C32914218D1016E0A68A8
:1011E00022F480720A6090F85C20816D02F01F0288
:1011F0000CFA02F24A60D0E919124A60C16E31B1AC
:101200000A6822F480720A60D0E91C124A60002247
:10121000016D80F8342080F835C001B18847002086
:10122000DCE6000028000240580002407000024046
:1012300088000240A000024070040240880402407E
:10124000A0040240B80402400854025890F8350047
:101250007047000070B5044600F0DAF90546601CDE
:1012600002D004480078044400F0D2F9401BA042A8
:10127000FAD370BD0C00002410B5044602F0E2F869
:101280000849B0FBF1F003F047F92046FFF7E2FF11
:1012900002F0D8F84FF47A71B0FBF1F0BDE81040DD
:1012A00003F03AB940420F00F0B5B5B014212FA8B1
:1012B000FFF758FA3048016800295AD1012101602E
:1012C000BC216846FFF74EFA4FF080700090002472
:1012D0006846119401F0F0FA08B1FFF773FB274854
:1012E000016841F4805101600068022531AA00F4D0
:1012F000805034904FF63F00CDE92F05032620485B
:101300000C2782E8D0002FA900F052F80D2031AA56
:10131000CDE92F051B482FA982E8D00000F048F83E
:1013200031AA48F23710CDE92F0517482FA982E8D6
:10133000D00000F03DF831AA4FF68070CDE92F05BE
:1013400012482FA982E8D00000F032F831AA4EF2FC
:10135000B370CDE92F050E482FA982E8D00000F028
:1013600027F800220221302000F02AFC302000F073
:1013700019FC35B0F0BD000000000024D444025830
:1013800000140258000802580018025800100258B1
:10139000000C025870474FF0B04110B5D1F88820CA
:1013A000024203D0C1F88800FFF7F4FF10BD00002F
:1013B0002DE9FC4F01257E4C00234FF0030A4FF02E
:1013C000B04E4FF00F0BEBE005FA03F637403A0052
:1013D00077D04F68012F05D0022F03D0112F01D0F5
:1013E000122F1AD187684FEA4308D1F80CC00AFAC5
:1013F00008F927EA09070CFA08FC4CEA070CC0F8C0
:1014000008C0476891F804C0B743CCF3001C0CFA3D
:1014100003FC4CEA070CC0F804C0C6684FEA430C52
:10142000D1F80880E1460AFA0CF7BE43019708FAA2
:1014300009F848EA0608C0F80C804E68022E01D070
:10144000122E12D1DE084FEA437C00EB860600968E
:101450000F69366A4FEADC6C0BFA0CF807FA0CF7E6
:1014600026EA08063743009E37620E790768DDF8E2
:1014700004C006F0030606FA09F627EA0C073E4305
:1014800006604E68F6001CD54A4E376847F00207E2
:10149000376036689F0706F00206009623F00306C1
:1014A00006F1B046B1463F0FD6F80864DFF8088170
:1014B0000BFA07FC404526EA0C0603D14FF0000C5E
:1014C00041E06CE0DFF8F4C0604502D14FF0010C60
:1014D00039E0DFF8ECC0604502D14FF0020C32E099
:1014E000DFF8E0C0604502D14FF0030C2BE0DFF8DD
:1014F000D8C0604502D14FF0040C24E0DFF8CCC026
:10150000604502D14FF0050C1DE0DFF8C4C0604516
:1015100002D14FF0060C16E0DFF8B8C0604502D1EA
:101520004FF0070C0FE0DFF8B0C0604502D14FF07C
:10153000080C08E0DFF8A4C0604502D14FF0090CA8
:1015400001E04FF00A0C0CFA07FC4CEA060CC9F853
:1015500008C426684F6826EA0206FF0300D5164332
:10156000266066684F6826EA0206BF0300D5164368
:101570006660D1F804C07646DEF800705FEACC2CD5
:1015800027EA020700D517433760D1F804C077680F
:101590005FEA8C2C27EA020700D5174377605B1CB3
:1015A0000A681746DA407FF40FAFBDE8FC8F0000F1
:1015B00080000058F4440258000002580004025809
:1015C00000080258000C025800100258001402587B
:1015D00000180258001C025800200258002402582B
:1015E0000069084000D001207047426921EA0203E7
:1015F0000A4043EA0241816170470AB18161704744
:101600000904FBE701480068000C70470010005C0B
:1016100001488068704700000C00002430B590F845
:101620004120202A24D190F84020012A20D00123F3
:1016300080F84030242280F84120202300240268D2
:10164000156825F0010515600268156825F48055B8
:101650001560026815680D43156001680A6842F05C
:1016600001020A6080F8413080F84040002030BD1F
:10167000022030BD30B590F84120202A22D190F8C8
:101680004020012A1ED0012380F84030242280F817
:101690004120202400250268136823F00103136011
:1016A0000268136823F4706343EA01211160016842
:1016B0000A6842F001020A6080F8414080F8405018
:1016C000002030BD022030BD7047704730B4036841
:1016D0009A691968D243D40509D4CC43240606D4A8
:1016E000456C4FF4807445F001054564DC61530599
:1016F0000AD4CB431B0607D4446C4FF4806344F0F8
:10170000080444640468E36192050AD4C9430906E5
:1017100007D4426C4FF4007142F002024264026846
:10172000D161416C11F00B0F02D030BC03F0BCBB97
:1017300030BC70470268436B91691268002B00D07F
:10174000184770477047000070B5040004D094F843
:101750004100002510B106E0012070BD204684F84C
:10176000405000F0E1F8242084F84100206801682E
:1017700021F001010160D4E9001020F070600861DF
:101780002068816821F400418160E06821680128B7
:10179000A06806D040F404408860E068022803D0C6
:1017A00006E040F40040F7E721684FF4006048602D
:1017B00020212068114A4368134343602068C268AF
:1017C00022F40042C26054F8106B0DCC104340EA82
:1017D0000320F06054F81C3CD4E900021043186068
:1017E00054F81C0D026842F001020260656484F83E
:1017F0004110256384F84250002070BD0080000233
:10180000704700002DE9F84F044690F841001F464C
:101810009046DDF828A08B4620287ED194F8400021
:1018200001287AD0012084F84000FFF7F1FE012260
:10183000064619230090D103204603F002FEE0BBC8
:101840000025212184F84110102084F842006564AD
:101850006785618DFF2732484FF00079C4F82480F6
:10186000FF294FF08078656303D927853A460090B9
:1018700039E0618D218500903AE05946204603F019
:10188000B5FD13E003F031FEB8B9606A2168007855
:101890008862606A401C6062608D401E6085208D99
:1018A000401E80B22085618D01B168B1608D3246E5
:1018B000514600282046E5D100E002E003F0EEFDAD
:1018C000D0B10120BDE8F88F002253468021204688
:1018D000009603F0B6FD0028F3D1608DFF2804D9EF
:1018E00027853A4600954346C7E7608D20850095D9
:1018F0004B4694F82820C0E720682021094AC1619E
:10190000206843681340436084F8411084F84250D3
:10191000002084F84050D5E7FFE70220D2E700001E
:101920000020008000E800FE10B5B6B00446142187
:101930002FA8FEF717FFBC216846FEF713FF1F49CB
:101940002068884238D108200090002468462094FE
:1019500000F0B2FF08B1FFF735F81948016841F00F
:101960008001016000682FAB122100F080003490EC
:101970003020042283E8130012482FA9CDE9324217
:10198000FFF716FD0E480830016841F48001016040
:1019900000680022012100F480003490212000F032
:1019A0000FF9212000F0FEF800220121222000F092
:1019B00007F9222000F0F6F836B010BD00580040BC
:1019C000E0440258001C0258704770470248816882
:1019D00002781144816070470C000024032010B588
:1019E00000F00EF901F074FD0F4A104914681368F5
:1019F000C4F3032203F00F038A5CC95C02F01F02E8
:101A000001F01F01D0400A4A20FA01F11160094992
:101A10000860002000F010F808B1012010BD00F0AF
:101A2000B3F8002010BD0000184402580CA70008AD
:101A30001C0000241800002410B5102804468AB0A9
:101A40002CD200220146362000F0BAF8362000F0F1
:101A5000A9F8174804601748016841F010010160B7
:101A6000006809A900F010000890684601F0BCFC6D
:101A70000598B0B101F008FD40000F4900220F4C5D
:101A8000B0FBF1F10E4840F2E7330460C0E90332E5
:101A9000491EC0E9011202F055FD28B101200AB02B
:101AA00010BD01F0F1FCE8E7054802F07DFDF6E726
:101AB00010000024E844025840420F00001000408B
:101AC0007C02002428B190F83D10022903D0802127
:101AD000816601207047042180F83D100068C168CC
:101AE00021F00101C160002070470000F0B5154CE5
:101AF0004378211D0A1D23600378F3B143680B600E
:101B0000057BC67A817A437B2D07847B45EA06658F
:101B1000C77B90F809C0067A90F800E045EAC1401A
:101B200040EA834040EA444040EA074040EA0C2053
:101B300040EA460040EA0E0001E000200860106024
:101B4000F0BD000098ED00E0BFF35F8F0448002176
:101B50000368034A23F480330360703211607047D6
:101B600024ED00E0074A40F00100064970321060A1
:101B7000086840F480300860BFF34F8FBFF36F8F69
:101B80007047000024ED00E0054808B5016841F009
:101B900002010160006800F00200009008BD000032
:101BA000F4440258002809DB410900F01F028900B3
:101BB000012001F1E0219040C1F8000170470000D0
:101BC0000E4BF0B41B680D46C3F30223C3F10706A6
:101BD000042E00D90426191D072901D2002300E094
:101BE000DB1E012404FA06F19C40491E2940641EB4
:101BF000994014402143F0BC08F0C6B90CED00E058
:101C0000064900F0070210B54FF6FF040868044BC0
:101C1000204040EA02201843086010BD0CED00E0AF
:101C20000000FA05134970B50A68D243520705D57A
:101C3000096801F00701814213D118E00A6822F017
:101C4000070202430A60FFF7E3FC0A4D4FF47A767D
:101C50000446083D07E000BFFFF7DAFC001BB04276
:101C600001D9012070BD2868C0438004F4D400204D
:101C700070BD00000C48025830B5114C104B1033A9
:101C80002568104A25F0010505432560186820F0F5
:101C900005001860186820F002001860106840F015
:101CA00004001060BFF34F8FBFF36F8F012905D081
:101CB00020BF106820F00400106030BD30BFF8E78E
:101CC0000048025810ED00E0704770472DE9F84FCA
:101CD00017468B460446FFF79BFC824694F840006B
:101CE00001280ED001264FF0000884F8406094F8D7
:101CF0004100012807D0022584F840802846BDE82D
:101D0000F88F0220FBE74FF00209C4F8448084F802
:101D100041900022202153462046009706F05CF8AF
:101D20000500E9D100225946204605F024FFDBF8E2
:101D3000240058B90122534602212046009706F09C
:101D40004BF80500D8D12168C1F80C9084F84160A7
:101D5000D2E770477047000070B50446006882689B
:101D60000168530734D54B0332D594F84110203025
:101D700012290FD094F8411022291BD01EE0E16AED
:101D800001B3616A09780170616A491C6162E16AA4
:101D9000491EE162216889684907F0D40EE0A16B11
:101DA00081B10178226B1170216B491C2163A16BF9
:101DB000491EA163216889684907F0D42046FFF7CE
:101DC000C9FF70BD2068016821F480210160F5E73A
:101DD00093074FF001056CD58B036AD50221C160D2
:101DE0002068016821F4E021016094F84100122884
:101DF00015D094F84100222825D094F841000228FB
:101E000049D094F841000828DBD12068416921F0CD
:101E10004061416184F84150606CD8B345E020686E
:101E20000168490709D5016821F004010160E06BF0
:101E30000068C16821F00101C16084F8415020466A
:101E400000F009FA70BD2068016849070AD50168E9
:101E500021F004010160E06B0068C16821F001011C
:101E6000C16011E020300AE0A16B69B10178226BFA
:101E70001170216B491C2163A16B491EA16321686C
:101E8000896811F47C5FEFD184F84150204600F05E
:101E900084F970BD05E084F841502046FFF715FF36
:101EA000F7E72046FFF710FFF3E72046FFF751FF63
:101EB000EFE7130711D50B030FD50821C160206888
:101EC0000168490205D5016821F41021016084F8F8
:101ED0004150204600F062F9DBE7D30722D0CB0364
:101EE00020D5C5602068016821F470210160606C14
:101EF00040F0020060642068016849070FD501685E
:101F000021F004010160E16B0B488865E06BFFF78D
:101F1000D9FD0028BDD0606C40F00400606484F8F6
:101F20004150C2E7D206B4D5C902B2D51021C16072
:101F3000204600F034F9ACE71F7D0008F8B50446F0
:101F4000FFF766FB05461CB194F8410010B107E0AD
:101F50000120F8BD204600F047F841F28830A06427
:101F600020686FF0FF02A168036802EB012223F4EE
:101F7000706111430160A06C002220212B4600906B
:101F8000204605F029FF0028E3D12268D4E907356F
:101F90002679E168176845EA0665DFF844C0194309
:101FA000104B29430025012607EA0C07394311602D
:101FB0002268D4E90517B4F810C0D2F804E0394318
:101FC0000EEA030E4EEA0C431943516021680A6879
:101FD00042F001020A60656484F84160F8BD0000C7
:101FE0002FFFFF00FEF8E0FF2DE9F043B5B00446F7
:101FF00014212FA8FEF7B6FBBC216846FEF7B2FB02
:102000003249206888425ED14FF000700090002471
:102010006846129400F050FC08B1FEF7D3FC2C483F
:10202000016841F480410160006800F48040349010
:1020300027480C30016841F020010160016801F07F
:1020400020013491016841F002010160006802251D
:1020500031AADFF8809000F002003490C020CDE972
:102060002F0503264846092782E8D0002FA9FFF74D
:102070009FF931024FF00A0831AA4846CDE92F15E1
:102080002FA982E85001FFF793F931AA0124042017
:1020900082E8D000104F2FA9CDE92F053846FFF771
:1020A00087F94021384631AACDE92F152FA982E8BA
:1020B0005001FFF77DF9002201215C20FFF780FD30
:1020C0005C20FFF76FFD35B0BDE8F0830050005293
:1020D000D444025800140258000402582DE9F84F65
:1020E00015460E460446FFF793FA8246206881693A
:1020F00094F8403000F12009012B0DD001274FF05A
:10210000000884F8407094F84120012A06D002208B
:1021100084F84080BDE8F88F0220FBE7C4F84480D3
:10212000A6B3222284F841200269521CA2630269EC
:10213000521C62632663426922F0406242F0806270
:102140004261206881610EE00621204605F044FED0
:10215000C8B999F80000216B0870206B401C2063FF
:10216000A06B401EA063A06B53464FF00102009588
:102170000028E9D14FF00201204605F02DFE10B9EC
:1021800022680221D16084F84170C1E7FFE7616CE9
:10219000012041F008016164BAE770477047704759
:1021A0002DE9F84F15460E460446FFF731FA94F82C
:1021B000401082462068012900F120090ED0012735
:1021C0004FF0000884F8407094F84110012907D0BE
:1021D0005FF0020084F84080BDE8F88F0220FBE742
:1021E000C4F8448086B3122184F841100169491C67
:1021F000E1620169491CA1626662416921F04061A6
:1022000041610EE00421204605F0E6FDC8B9606A90
:10221000017889F80010606A401C6062E06A401E24
:10222000E062E06A53464FF0010200950028E9D1D0
:102230004FF00201204605F0CFFD10B922680221BF
:10224000D16084F84170C5E7FFE7616C012041F07F
:1022500008016164BEE7704710B501F0F3F8054965
:102260000968054AC1F30211515C01F01F01C84021
:1022700010BD0000204402580CA700084A4930B5A0
:10228000494C0B1D0A680C3409681D68246802F06B
:10229000030305F00102C1F30511C4F3CC040029C6
:1022A00014FB02F200EE102AF8EE400A76D0414A02
:1022B0009FED3E1ADFED3E1AB7EE000A23B1012B67
:1022C0005AD0022B18D15CE0374C283C23689B067F
:1022D00012D5394B246801EE901A1168C4F3C10479
:1022E000F8EE612AE34001EE903AC1F30801F8EEFE
:1022F000611A81EEA22A07E002EE101A1168F8EEC8
:10230000422A81EEA22A45E001EE901A1168F8EE09
:10231000611A40EE811A71EE800A62EE200AC1F362
:10232000462101EE101AB8EE411A31EE001AC0EE45
:10233000811ABCEEE11A80ED001A1168C1F3064162
:1023400001EE101AB8EE411A31EE001AC0EE811AF1
:10235000BCEEE11A80ED011A1168C1F3066101EECD
:10236000101AB8EE411A31EE000A80EE801ABCEE67
:10237000C10A80ED020A30BD01EE901ADFED0F2A8E
:1023800003E001EE901ADFED0E2A1168F8EE611AF3
:1023900082EEA12AC1F30801B6E7FFE70021016040
:1023A0004160816030BD00002844025800000039BF
:1023B0000024744C304402580090D0030024744A26
:1023C00020BCBE4B494930B5484C0B1D0A6814343B
:1023D00009681D68246802F00303C5F30012C1F305
:1023E0000531C4F3CC04002914FB02F200EE102ADC
:1023F000F8EE400A75D03F4A9FED3D1AB7EE000A4D
:102400006BB1DFED3D1A012B01D0022B64D002EE3F
:10241000101A1168F8EE422A81EEA22A21E0334C0C
:10242000283C23689B0612D5344B246801EE901A91
:102430001168C4F3C104F8EE612AE34001EE903A5A
:10244000C1F30801F8EE611A81EEA22A0BE001EE59
:10245000901ADFED2B2A00BFF8EE611A116882EEA8
:10246000A12AC1F3080101EE901A1168F8EE611A71
:1024700040EE811A71EE800A62EE200AC1F3462115
:1024800001EE101AB8EE411A31EE001AC0EE811AB0
:10249000BCEEE11A80ED001A1168C1F3064101EEAD
:1024A000101AB8EE411A31EE001AC0EE811ABCEED5
:1024B000E11A80ED011A1168C1F3066101EE101AEC
:1024C000B8EE411A31EE000A80EE801ABCEEC10A65
:1024D00080ED020A30BD04E001EE901ADFED092A1A
:1024E000BAE70021016041608160F3E728440258A7
:1024F00000000039384402580024744A0090D00388
:102500000024744C20BCBE4B494930B5484C0B1DCF
:102510000A681C3409681D68246802F00303C5F3C7
:102520000022C1F30551C4F3CC04002914FB02F2CC
:1025300000EE102AF8EE400A75D03F4A9FED3D1A92
:10254000B7EE000A6BB1DFED3D1A012B01D0022B73
:1025500064D002EE101A1168F8EE422A81EEA22A27
:1025600021E0334C283C23689B0612D5344B246869
:1025700001EE901A1168C4F3C104F8EE612AE34039
:1025800001EE903AC1F30801F8EE611A81EEA22A39
:102590000BE001EE901ADFED2B2A00BFF8EE611A76
:1025A000116882EEA12AC1F3080101EE901A1168A8
:1025B000F8EE611A40EE811A71EE800A62EE200A8E
:1025C000C1F3462101EE101AB8EE411A31EE001A9D
:1025D000C0EE811ABCEEE11A80ED001A1168C1F359
:1025E000064101EE101AB8EE411A31EE001AC0EEA3
:1025F000811ABCEEE11A80ED011A1168C1F306617F
:1026000001EE101AB8EE411A31EE000A80EE801A7F
:10261000BCEEC10A80ED020A30BD04E001EE901A62
:10262000DFED092ABAE70021016041608160F3E72C
:102630002844025800000039404402580024744ADB
:102640000090D0030024744C20BCBE4B2DE9F04F09
:10265000944A4FF48079DFF848824845924B89B01C
:10266000924EA8F1040592494FF080574FEA221488
:102670004FF0005C2ED1D8F8000000F007000528CC
:1026800024D2DFE800F09BB58425AA0003A8FFF759
:10269000F5FD049809B0BDE8F08F6846FFF792FE9B
:1026A0000098F7E706A8FFF72FFF0698F2E70868FB
:1026B000C0F3C10022FA00F0ECE70A68D2057CD52D
:1026C000B8427AD12046E5E71846E3E70020E1E783
:1026D0003046DFE7B0F5007F1AD0DFF8D891B0F5CB
:1026E000806F26D0B0F5006F37D04FF4805A504538
:1026F0004FF4804B4FD1D8F8000000F4E040B0F523
:10270000005F44D03DDC002858D05045DED16FE05A
:10271000D8F8000000F4E070802838D004DC0028ED
:102720004CD04028D2D163E0C028D1D04845CDD18B
:1027300053E0D9F8000000F46000B0F5800F26D017
:1027400004DCD8B3B0F5001FC0D151E0B0F5C00F24
:10275000BED0B0F5000FB9D13FE0D9F8000000F0CD
:10276000E060B0F1007F12D004DC38B3B0F1807FBC
:10277000ACD13DE0B0F1407FAAD0B0F1806FA5D1DF
:102780002BE0B0F5405FA3D058459FD125E0086805
:1027900080009BD586E7B0F5002F4FF4803612D02D
:1027A000B04237D1286810F4803075D0B0428DD156
:1027B000086800018AD5684601E025E06CE0FFF773
:1027C00001FE029866E7D9F8000010F440300FD0FF
:1027D000B04211D0B0F5003F98D128680D6800F0E4
:1027E00040506D077FF569AF00287FF466AF5EE764
:1027F00008680001CDD550E708688000C9D506A853
:10280000FFF782FE089845E709688903C1D560454E
:1028100088D159E758452BD1D9F8000000F0E040A5
:10282000B0F1405F1CD00CDC90B1B8422CD06045B8
:102830008AD108688000ACD506A8FFF765FE079826
:1028400028E7B0F1804F0FD0B0F1A04F90D11FE03A
:10285000FFF702FD1EE76846FFF7B4FD019819E790
:102860000868400795D522E70868C00591D529E793
:10287000B0F5004F89D1D8F8000010F0405007D0D3
:10288000B84209D0604592D108680001E3D41DE741
:1028900008688003FBD517E708688001F7D5F5E6DF
:1028A000504402580090D00340787D010080BB0066
:1028B00000440258584402582DE9FC5F044650F881
:1028C000241B002500902E460801FE4FDFF8F883F8
:1028D0001DD5606E50B1B0F5801F0CD0B0F5001F53
:1028E0000ED0B0F5401F1DD001250FE0386840F430
:1028F0000030386016E00221201D05F097FA03E051
:102900000098022105F022FB05000BD02E462088FE
:10291000C00523D5606D05281ED2DFE800F00C113C
:10292000161B1B00626ED8F8001021F440111143F1
:10293000C8F80010EBE7386840F40030386009E070
:102940000021201D05F072FA03E00098002105F037
:10295000FDFA05466DB100E001252E462088800570
:1029600028D5A06D80281ED00CDC90B140280ED157
:1029700014E0626DD8F8001021F007011143C8F887
:102980000010EBE7C02813D0B0F5807F10D00125F0
:102990000FE0386840F40030386009E00021201D65
:1029A00005F044FA03E00098002105F0CFFA05464F
:1029B00095B12E462088DFF81093400509F10809EB
:1029C0002CD5D4F8A400B0F5800F20D00DDCA0B138
:1029D000B0F5001F0FD115E0A26DD8F8001021F45A
:1029E000E0711143C8F80010E4E7B0F5C00F13D050
:1029F000B0F5000F10D001250FE0386840F400302A
:102A0000386009E00021201D05F010FA03E000986D
:102A1000002105F09BFA054675B12E462088000579
:102A20002DD5D4F8A800B0F1007F21D00EDCA8B1DC
:102A3000B0F1807F10D116E0D4F8A420D9F80010AE
:102A400021F460011143C9F80010E7E7B0F1407FBD
:102A500013D0B0F1806F10D001250FE0386840F43A
:102A60000030386009E00021201D05F0DFF903E0A7
:102A70000098002105F06AFA05466DB12E462068DF
:102A800080011FD5A06CD8B110280FD0202812D0FB
:102A9000302815D0012514E0D4F8A820D9F800106A
:102AA00021F0E0611143C9F80010E8E7386840F40C
:102AB0000030386004E00221201D05F0B7F905461A
:102AC0006DB12E462088C0042BD5E06DB0F5005FB7
:102AD00020D00DDCA0B1B0F5805F0FD115E07A48B1
:102AE000A26C001F016821F0300111430160E9E789
:102AF000B0F5405F13D0B0F5804F10D001250FE046
:102B0000386840F40030386009E00021201D05F0ED
:102B10008DF903E00098002105F018FA054685B10B
:102B20002E462088800429D5206EB0F5403F23D062
:102B300010DC08B3B0F5803F14D0B0F5003F0FD1E2
:102B400015E0E26DD8F8001021F4E0411143C8F817
:102B50000010E6E7B0F5802F0ED0B0F5A02F0BD017
:102B600001250AE00121201D05F060F903E000982D
:102B7000012105F0EBF905468DB12E462088400471
:102B80002AD5D4F8AC00B0F1405F23D010DC08B3F4
:102B9000B0F1805F14D0B0F1005F0FD115E0226E6C
:102BA000D8F8001021F4E0211143C8F80010E5E73F
:102BB000B0F1804F0ED0B0F1A04F0BD001250AE04C
:102BC0000121201D05F032F903E00098012105F0F4
:102BD000BDF905466DB12E46208800041FD5E06E74
:102BE000D8B1B0F1805F0ED0B0F1005F10D00125F8
:102BF00014E0D4F8AC20D9F8001021F0E0411143E2
:102C0000C9F80010E8E7386840F40030386004E0A4
:102C10000121201D05F00AF905466DB12E462068F8
:102C2000C0011ED5606CD0B101280ED0022811D091
:102C3000032814D0012513E0E26ED8F8001021F02B
:102C400040511143C8F80010E9E7386840F40030FB
:102C5000386004E00221201D05F0E8F8054685B142
:102C60002E462068DFF85CB04002ABF11C0B57D554
:102C70001648016841F480710160FEF7C9FC824684
:102C80000EE01148626C001F016821F0030111433E
:102C90000160E6E7FEF7BCFCA0EB0A0064283DD823
:102CA0000A480068C005F5D57DBBDFF81CA0B4F864
:102CB000B0200AF1200ADAF8001002F4407001F4A2
:102CC000407105E02C440258504402580048025814
:102CD000814211D0DAF80010DAF8002021F44071B6
:102CE00042F48032CAF80020DAF8002022F4803260
:102CF000CAF80020CAF80010D4F8B000B0F5807F00
:102D000021D1FEF785FC019019E008E0FEF780FC78
:102D10000199411A41F28830814210D903252E468B
:102D20002078DFF844A4C0073DD0A06F182838D021
:102D300026DC80B3082829D0102825D12CE0DAF829
:102D400000008007E2D5D4F8B010C1F301200328B9
:102D500058460DD0016821F47C510160B4F8B020D0
:102D6000DAF80010C2F30B021143CAF80010D7E7DB
:102D7000FE4A036802EA111223F47C511143ECE786
:102D800020280ED028280CD001250BE00121201D81
:102D900005F04CF804E004E00098012105F0D6F8B5
:102DA00005465DB12E46207880071ED5606F062847
:102DB00019D2DFE800F0160C11161616A26FDAF819
:102DC000001021F038011143CAF80010EBE701218F
:102DD000201D05F02BF803E00098012105F0B6F85E
:102DE000054675B100E001252E46207840071FD525
:102DF000D4F89000062819D2DFE800F0160C11165E
:102E00001616626FDAF8001021F007011143CAF8B4
:102E10000010EAE70121201D05F008F803E0009802
:102E2000012105F093F805469DB100E001252E46ED
:102E3000207880062BD5D4F88C00B0F1405F24D0E8
:102E400011DC10B3B0F1805F15D0B0F1005F10D18C
:102E500016E0D4F89020D9F8001021F007011143B2
:102E6000C9F80010E4E7B0F1804F0ED0B0F1A04FE8
:102E70000BD001250AE00021201D04F0D7FF03E05C
:102E80000098022105F062F805468DB12E462078A3
:102E900040062BD5D4F89800B0F5406F24D011DC53
:102EA00010B3B0F5806F15D0B0F5006F10D116E0FB
:102EB000D4F88C20DAF8001021F0E0411143CAF870
:102EC0000010E4E7B0F5805F0ED0B0F5A05F0BD046
:102ED00001250AE00021201D04F0A8FF03E000986E
:102EE000022105F033F805468DB12E462078000604
:102EF0002BD5D4F89C00B0F5C04F24D011DC10B312
:102F0000B0F5005F15D0B0F5804F10D116E0D4F8C1
:102F10009820D9F8001021F4E0511143C9F80010AD
:102F2000E4E7B0F5004F0ED0B0F5204F0BD00125EF
:102F30000AE00021201D04F079FF03E0009802213F
:102F400005F004F805464DB12E46207800071ED541
:102F5000D4F88000B0F5805F0AD00FE0D4F89C2050
:102F6000D9F8001021F460411143C9F80010ECE7D2
:102F70000098022104F0EAFF00B10126D4F8802075
:102F8000DAF8001021F440511143CAF800102078FB
:102F9000C00613D5D4F89400B0F5807F05D1009811
:102FA000022104F0D3FF00B10126D4F89420D9F80F
:102FB000001021F440711143C9F80010206800038B
:102FC00016D5D4F8A00038B1B0F5803F09D0B0F5DF
:102FD000003F0BD001250AE00021201D04F026FF50
:102FE00003E00098022104F0B1FF054685B12E46AA
:102FF0002068400322D5D4F88400B0F5801F11D09A
:10300000B0F5001F13D0B0F5401F15D0012514E016
:10301000D4F8A020D9F8001021F440311143C9F8A8
:103020000010E5E7386840F40030386004E00098AC
:10303000012104F08BFF054655B12E462068C003E0
:103040001CD5E06C70B1B0F5803F10D0012514E0C4
:10305000D4F88420DAF8001021F440111143CAF8A2
:103060000010EBE7386840F40030386004E00221DB
:10307000201D04F0DBFE0546CDB12E462068800001
:1030800005D50098022104F061FF00B101262068F7
:1030900080031BD5E06FB8B1B0F5807F10D0B0F5DC
:1030A000007F11D0B0F5407F0ED001250DE02E48F5
:1030B000E26C0838016821F4803111430160DDE7DA
:1030C000386840F400303860F5B32E462068C002FE
:1030D00007D5226FD8F8001021F000411143C8F83D
:1030E00000102068C00008D5D4F8B420DBF8001028
:1030F00021F480411143CBF800102068800207D5ED
:10310000A26ED8F8001021F080711143C8F80010A9
:10311000206840000CD5DBF8001021F40041CBF80A
:103120000010DBF80010D4F8B8201143CBF80010E1
:103130002068002807DA0C48226D0838016821F061
:1031400040511143016000E014E02068000208D5FE
:10315000D4F88820DAF8001021F440011143CAF8AD
:10316000001086B1012003E054440258CFFFFF0055
:10317000BDE8FC9FE26FDAF8001021F440711143C2
:10318000CAF80010A2E70020EDE700002DE9F05F8B
:1031900004000F467ED0DFF83882D8F8000000F037
:1031A0000F00B8420CD2D8F8001021F00F013943BB
:1031B000C8F80010D8F8000000F00F00B84269D13C
:1031C0002078844D40070AD52069296801F07001F4
:1031D000884204D9296821F07001014329602078D0
:1031E0007C4E361D00070AD56069316801F0700118
:1031F000884204D9316821F07001014331602078A0
:10320000C0060AD5A069316801F4E061884204D99A
:10321000316821F4E061014331602078DFF8B4B116
:1032200080060BF1080B0CD5E1695846DBF800204D
:1032300002F07002914204D9026822F070020A433F
:103240000260207880070AD5E068296801F00F0144
:10325000884204D9296821F00F01014329602078B0
:10326000C0073ED05B49A2682868183920F4706016
:10327000104328606068022818D0032819D0096814
:10328000012819D0490700294ADADFF848A1AAF134
:10329000080A00E044E0DAF8002022F007020243C6
:1032A000CAF80020FEF7B4F9814612E009688903E4
:1032B000E9E709688901E6E7C905E4E7FEF7A8F947
:1032C000A0EB090141F28830814202D90320BDE818
:1032D000F09F6168DAF8000000F03800B0EBC10F31
:1032E000ECD1207880070AD5E068296801F00F0149
:1032F000884204D2296821F00F0101432960D8F8DF
:103300000010404601F00F01B9420BD9016821F0CD
:103310000F0139430160006800F00F00B84201D08E
:103320000120D4E7207840070AD52069296801F0F8
:103330007001884204D2296821F07001014329609C
:10334000207800070AD56069316801F07001884271
:1033500004D2316821F07001014331602078C00649
:103360000AD5A069316801F4E061884204D231686D
:1033700021F4E06101433160207880060CD5E169D9
:103380005846DBF8002002F07002914204D2026835
:1033900022F070020A43026000F09AF80E492A688F
:1033A0002B68C2F3032203F00F038A5CC95C02F0AE
:1033B0001F0201F01F01D040084A20FA01F11160FC
:1033C0000749086007480068BDE8F05FFEF734BBB6
:1033D00000200052184402580CA700081C000024CA
:1033E000180000241000002470B5144C3F22026025
:1033F000124A24680832131D114D04F0070444607A
:1034000016681C1D06F470668660166806F00F06C6
:10341000C660126802F0700202611A6802F070025F
:1034200042611A6802F4E0628261226802F070026E
:10343000C261286800F00F00086070BD1044025897
:103440000020005230B500F043F80B4A0B490C4BFA
:1034500015681468C5F3032204F00F048A5C095D43
:1034600002F01F0201F01F01D040064A20FA01F1CC
:1034700019601060084630BD184402580CA70008B7
:103480001C0000241800002400B5FFF7DBFF0549ED
:103490000968054AC1F30211515C01F01F01C840DF
:1034A00000BD00001C4402580CA7000800B5FFF73F
:1034B000C9FF05490968054AC1F30221515C01F0C1
:1034C0001F01C84000BD00001C4402580CA70008A2
:1034D000454970B545480968434B103B11F0380227
:1034E00008D00111082A03D0102A0BD0182A0BD0BB
:1034F000084670BD19688906FBD51968C1F3C1017A
:10350000C84070BD3A4870BD3749374D18310C1D61
:1035100024350A68096826682D6802F0030406F05D
:103520000102C1F30511C5F3CC0515FB02F200EE53
:10353000102AB8EE400AE9B32F4ADFED2E0AB7EEA3
:10354000001A6CB1DFED2D1A012C01D0022C43D0F2
:1035500002EE101A1068F8EE422A81EEA22A1EE04E
:103560001C68A40611D51B6801EE901A1168C3F3FC
:10357000C103F8EE612AD84001EE900AC1F30800B9
:10358000F8EE611A81EEA22A0BE001EE901ADFED4F
:103590001C2A00BFF8EE611A106882EEA12AC0F35F
:1035A000080001EE900AF8EE611A40EE201A31EEA2
:1035B000810A00E015E022EE000A1068C0F3462000
:1035C000401C00EE900AF8EE600A80EE201ABCEE75
:1035D000C10A10EE100A70BD01EE901ADFED092A43
:1035E000D8E7002070BD0000104402580090D003BE
:1035F00040787D0100000039304402580024744AAC
:103600000024744C20BCBE4B2DE9F05F04007CD03C
:10361000FF4F2078FE4D1837DFF8F493103DC007B8
:1036200048D0D9F80000396800F03800102815D0CB
:10363000182803D101F0030002280FD06068B0F50C
:10364000803F12D010B1B0F5A02F18D0286820F418
:1036500080302860286820F4802009E028688003F2
:1036600028D560680028D2D024E0286840F4803053
:103670002860606888B1FDF7CBFF064609E028683E
:1036800040F480202860F0E7FDF7C2FF801B64282B
:103690007ED828688003F7D50CE0FDF7B9FF064611
:1036A00005E000BFFDF7B4FF801B6428F0D8286850
:1036B0008003F7D4207841F20308D54E0C3E8007F2
:1036C00053D5D9F80000396810F038000ED018280A
:1036D00001D188070AD0E068A8B3296821F0190150
:1036E00001432960FDF794FF82461BE028684007EC
:1036F00002D5E06800288AD0FDF784FF40451BD83A
:103700002069402812D0316800E0CCE021F47C31FF
:1037100041EA0030306028E0FDF77AFFA0EB0A00B4
:103720000228B5D828684007F6D5E5E7306820F4C8
:103730007C3040F40030EDE7207C316821F0FE4120
:1037400041EA0060E6E7FFE7286820F00100286012
:10375000FDF75EFF824605E0FDF75AFFA0EB0A0089
:10376000022895D828684007F6D42078C0065FD58F
:10377000D9F80000DFF898B2396800F03800ABF1F2
:10378000040B082812D0182805D101F0030000E02E
:10379000EAE001280AD0E0690028286838D040F023
:1037A00080002860FDF734FF824623E02868C005CA
:1037B00023D5E069802876D11FE0206A202821D017
:1037C000316821F0F84141EA8060306030E000BFAC
:1037D00094F82010DBF8002022F07C5242EA0161CC
:1037E000CBF8001024E000BFFDF712FFA0EB0A00A9
:1037F000022896D82868C005F6D5FDF703FF404596
:10380000E6D8DAE7306820F0F84040F08040DCE7A6
:1038100020F080002860FDF7FBFE064605E000BFB3
:10382000FDF7F6FE801B02289BD82868C005F7D458
:103830002078000729D576486169643000298046E0
:10384000016811D041F001010160FDF7E1FE06467B
:1038500005E000BFFDF7DCFE801B0228C9D8D8F8C0
:1038600000008007F6D510E021F001010160FDF7AE
:10387000CFFE064605E000BFFDF7CAFE801B02280A
:1038800072D8D8F800008007F6D42078800623D5B7
:10389000A0690028286810D040F480502860FDF707
:1038A000B7FE064605E02CE1FDF7B2FE801B0228BC
:1038B0005AD828688004F7D50EE020F4805028609C
:1038C000FDF7A6FE064604E0FDF7A2FE801B0228D7
:1038D0004AD828688004F7D4207840074FD5DFF80D
:1038E0003481D8F8001041F48071C8F80010FDF759
:1038F0008FFE064605E000BFFDF78AFE801B6428A8
:1039000032D8D8F80000C005F6D5414EA068603620
:1039100001280AD008B1052813D0306820F0010032
:103920003060306820F0040002E0306840F00100B0
:103930003060A06841F2883A90B1FDF769FE804698
:103940000AE0306840F004003060EEE7FDF760FE0A
:10395000A0EB0801514507D830688007F6D50EE086
:10396000FDF756FE804607E084E000BFFDF750FEFD
:10397000A0EB080151457DD830688007F6D4606A15
:10398000F0B3DFF88C80D9F8001008F12008C1F3FB
:10399000C20103296FD00228286820F080702860B7
:1039A00003D0FDF735FE044680E0FDF731FE064604
:1039B00005E000BFFDF72CFE801B022873D82868A5
:1039C0008001F7D4E26A40F2F331386854F8283FB6
:1039D000884340EA021018433860217B4FF4FE0C04
:1039E00022894FF0FE47208A4902267D521E401E42
:1039F000A1F5007189B20CEA0040C2F3080200E0B0
:103A000081E01143761E0143014807EA066203E0A4
:103A100010440258004802581C3011433B4AC8F871
:103A20000010016821F00101016011684FF6F8767D
:103A3000236AB14341EAC30111600168A26921F020
:103A40000C01114301600168E26921F00201114398
:103A50000160016841F480310160016841F4003186
:103A60000160016841F480210160016841F00101B9
:103A7000016001E017E01DE0286840F080702860D8
:103A8000FDF7C6FD044604E0FDF7C2FD001B022859
:103A900009D828688001F7D535E000BFFDF7B8FDEB
:103AA000001B022802D90320BDE8F09F286880018E
:103AB000F4D428E039680128D8F8000021D0A26A9F
:103AC00001F0030393421CD1E26AC1F305118A425B
:103AD00017D1216BC0F30802491E8A4211D1616BD4
:103AE000C0F34622491E91420BD1A16BC0F306429E
:103AF000491E914205D1E16BC0F30660491E814227
:103B000001D00120D0E70020CEE700003444025865
:103B1000704770477047704710B504460068806969
:103B2000C00707D0204600F048F82068416941F0FE
:103B30000101416110BD000070B504000D4603D0C5
:103B400094F82C0010B107E0012070BD002084F82B
:103B50002D00204600F018F8022084F82C00206880
:103B6000211DFCF7D5FFD4E900022946FDF722F814
:103B700004480121026842F00042026084F82C10DF
:103B8000002070BD00400052FDF78EBB10B504460A
:103B900090F82C00022804D094F82C00012801D0C1
:103BA000012010BD022084F82C002068FCF7E5FFFE
:103BB000012084F82C00002010BD704770B5044629
:103BC00090F82C000D46022804D0012803D00528C7
:103BD00001D0012070BD022084F82C002068FCF781
:103BE000D5FF2868022805D05FF0010084F82C007A
:103BF000002070BD0520F9E72DE9FE4F0446C06B9B
:103C00000E46032184F83410002703285CD0B6F553
:103C1000004F59D0B6F5804F4FF000054FF40068C3
:103C20004FF0806904D006B3A06B40F000603FE025
:103C3000009500210195206804F01AFD80011CD434
:103C40006946204604F068FD70BB019840032DD5FD
:103C5000B4F848102068090404F00EFA20BB20686C
:103C600002211DE0A06B284322E000950021019570
:103C7000206804F0FDFC800101D54546F2E7694665
:103C8000204604F049FD78B90198C0030ED5B4F878
:103C900048102068090404F0EFF928B920680021D1
:103CA00004F034FA0028DDD00546DBE74D46D9E7BD
:103CB000A063A06B4FF4007BDFF8BCA040B121688B
:103CC0000127C1F838A045E0A06B40F08050EFE735
:103CD0004FF48030FEF7BAFC010036D0274D334652
:103CE000D4E904C0B1FBF5F8D4E90192804511D9BB
:103CF000E66D5E450ED0B6F5807F15D04FEA6506BD
:103D000000B34FEA4008B1FBF8F8B04502D900BF54
:103D1000B1FBF5F0A169CDF800C0CDE90101206843
:103D2000494604F0A9FC15E0154E30B14FEA4008B1
:103D3000B1FBF8F8A84502D8ECE7A942EAD9B1FBF3
:103D4000F6F0E7E7B142E3D8E4E7A06B012740F0E3
:103D50000060A0632068594604F0BFF930B12268C2
:103D60000127C2F838A0A16B0143A163012084F8A8
:103D700034003846BDE8FE8FFF0FE01F80F0FA02E6
:103D800000E1F50570477047F0B5026E920F0A70BA
:103D9000026EC2F383624A70026EC2F301628A70DD
:103DA000026E120CCA70B0F86020120A0A7190F804
:103DB00060204A71426E120DCA80426EC2F3034205
:103DC0000A72B0F86420C2F3C0324A72B0F86420BC
:103DD000C2F380328A72B0F86420C2F34032CA72F1
:103DE000B0F864200026C2F300320A734E73012239
:103DF000C36B4FF4007463B1012B3AD00368504990
:103E00009963816B41F08051816380F834200120F7
:103E1000F0BDB0F86430856E9B051B0D43EA9573C9
:103E20000B61836EC3F3C2630B75836EC3F30263CE
:103E30004B75836EC3F342538B75836EC3F382431A
:103E4000CB75836EC3F3C2330B760D696D1CC564ED
:103E50000B7E03F007039B1C9D40C5640B7A8465B1
:103E600003F00F0302FA03F35F0A7D43C0E9143540
:103E70000EE090F86450836EAD06AD0A45EA134338
:103E80000B610B695B1C9B02C364C0E9144384652E
:103E9000B0F86830C3F380334B76B0F86830C3F3C2
:103EA000C6138B7690F8683003F07F03CB76C36E31
:103EB000DB0F0B77C36EC3F341734B77C36EC3F352
:103EC00082638B77C36EC3F38353CB77C36EC3F325
:103ED000405381F8203081F82160C36EC3F3004362
:103EE00081F82230B0F86C30C3F3C03381F823304E
:103EF000B0F86C30C3F3803381F82430B0F86C3004
:103F0000C3F3403381F82530B0F86C30C3F300338D
:103F100081F82630B0F86C30C3F3812381F8273064
:103F2000B0F86C30C3F3012381F8283090F86C00AE
:103F3000C0F3460081F8290081F82A200020F0BD56
:103F4000FF0FE01FC26B0A60026C4A60426C8A601D
:103F5000826CCA60C26C0A61026D4A61426D8A61FC
:103F6000806DC8610020704770B5B0F8481000251A
:103F700004460068090404F082F918B1A16B0143FA
:103F8000A16304E02068002104F072FB0546C5F33C
:103F9000432070BD2DE9F04190B00C460026054647
:103FA000694604F037FD294F4FF0010840B12A68F7
:103FB00001269763AA6B0243AA6385F8348035E033
:103FC00000994FF47F40C1F3811121700099C1F332
:103FD00040116170009900EA112242EA116161808A
:103FE000019909BA6160029921720299090A617204
:103FF0000299C1F30351A172DDE9022100EA1240E6
:10400000C9B20843A0810398C0F38520A073039828
:10401000C0F30120E0730398C0F3031020740398E9
:1040200000F00F0060740498000EA07428684FF42C
:10403000007104F052F828B12A6801269763A8633A
:1040400085F8348010B03046BDE8F081FF0FE01FE6
:104050002DE9F84304460068256B416B09041BD524
:10406000290719D5D4E90A50202813D3002620683F
:1040700004F018FB020A2870010C6A70030EA97084
:10408000761CEB70082E05F10405F0D3E06A2038A9
:10409000C4E90A50BDE8F883416B0127DFF8EC81E1
:1040A0000026C90551D539024CF23A12816329071D
:1040B0002068C16B21EA0201C1632068C16B21F055
:1040C0008051C1632068C16821F04001C16018D5EA
:1040D00015F0220F09D0206804F01EF928B1A16B59
:1040E0000143A1632046FFF74EFE2168AA07C1F8ED
:1040F000388084F83470266323D1204600F0D3F949
:10410000C8E72806C6D5206815F0220F8662206809
:10411000C6622068066509D0206804F0FDF828B161
:10412000A16B0143A1632046FFF72DFE15F0300F70
:1041300084F83470266302D0204600F0B4F9A80752
:10414000A8D0204600F0AEF9A4E7416B490421D580
:1041500029071FD5D4E9085020289BD300262878AA
:104160000090697840EA01200090A97840EA014077
:104170000090E9782D1D40EA0160009020686946B2
:1041800004F0A8FA761C082EE9D3606A2038C4E946
:1041900008507FE7416B11F03A0F416B58D0890707
:1041A00003D5A16B41F00201A163416B090703D55F
:1041B000A16B41F00801A163416B890603D5A16B96
:1041C00041F02001A163416BC90603D5A16B41F009
:1041D0001001A163C0F838802068C16B21F49D7183
:1041E000C1632068C16821F04001C1602068C16AD4
:1041F00041F40051C1622068C16841F08001C16092
:10420000206804F089F8A26B2B074FF4006140EAA4
:104210000200A0632068C26822F08002C2602068A9
:10422000816303D584F8347026630DE028068BD5AE
:10423000A06B002888D02068C16B21F08051C16339
:104240002068066584F834702046FFF79CFD21E75E
:10425000C9009ED54FF0805181632068006D4007F2
:104260004FEA856008D40028204602DAFFF753FCA5
:1042700010E7FFF74EFC0DE70028204602DAFFF7B3
:1042800049FC07E7FFF744FC04E700003A0F001879
:10429000F0B5040085B024D094F83400002538B976
:1042A000A069257708B90220A061204600F0A0F897
:1042B000032084F83400204600F03CF888B96946B1
:1042C0002046FFF767FE60B99DF81010E26B9DF87D
:1042D0001100012A08D0E5652046E168FFF78CFC53
:1042E00058B1012005B0F0BD014302D04FF4007079
:1042F00001E04FF48070E065EEE7FDF789F90127F2
:10430000064604E0FDF784F9801B401C0AD02046D5
:10431000FFF72AFE0428F5D1A563256384F83470DD
:104320000020DFE74FF00040A06384F834700320E2
:10433000D8E700002DE9FE4304464FF000084FF493
:104340008030FEF783F905004FF0010606D02549BD
:10435000A069B5FBF1F7022806D00AE04FF0006033
:1043600084F83460A06339E021680A6842F01002E2
:104370000A60CDF800804346CDE9017020684246CE
:10438000414604F079F9206804F086F9780016496E
:10439000B5FBF0F0B1FBF0F0401CFCF75BFF2046F2
:1043A00004F096FA30B100BF84F83460A16B014389
:1043B000A16313E0204604F021FA0028F4D120681C
:1043C0004FF4007103F089FE002808D022680749E5
:1043D0009163A16B0143A16384F834600120BDE8BF
:1043E000FE83000000350C0010210100FF0FE01FCC
:1043F000F0B5B5B0044614212FA8FCF7B3F9BC21E1
:104400006846FCF7AFF923492068884240D14FF451
:1044100080300090002168461391FEF74DFA08B1F4
:10442000FCF7D0FA1C48016841F480310160006853
:1044300000F48030349018480C30016841F00401D9
:104440000160016801F004013491016841F0080144
:10445000016000682FA9022400F0080034900125B3
:1044600003260C274FF4F85081E8F1000B48FCF7C5
:104470009FFF2FA9042081E8F1000948FCF798FF6D
:10448000002231201146FDF79BFB3120FDF78AFB0E
:1044900035B0F0BD00700052D444025800080258F4
:1044A000000C02587047704770B5040015460E4660
:1044B00003D094F8450010B107E0012070BD002042
:1044C00084F84400204600F025F8206804F1080133
:1044D000FCF7A0FAA26831462068FCF7E5FAE36A27
:1044E0002946D4E90102FCF775FAA1680123206886
:1044F000074A50F8215045F0010540F82150106856
:1045000040F00040106084F84530002070BD00008D
:1045100000400052FCF7C8BE401EB0F1807F10B5CD
:1045200001D3012010BD4FF0E02460610F2160171E
:1045300005F02AFD0020A0610721216110BD704710
:104540007047704710B5040003D094F83D0010B1D7
:1045500007E0012010BD002084F83C00204600F058
:1045600022F8022084F83D002068211D04F0D2FFCB
:10457000012084F8480084F83E0084F83F0084F865
:10458000400084F8410084F8420084F8430084F835
:10459000440084F8450084F8460084F8470084F815
:1045A0003D00002010BD704790F83D10012901D05A
:1045B00001207047154A022180F83D100168CB6840
:1045C00043F00103CB600068904211D0B0F1804FFE
:1045D0000ED00F4988420BD00E49884208D00E49B0
:1045E000884205D00D49884202D00D49884207D142
:1045F00081680C4A1140062906D0B1F5803F03D0EE
:10460000016841F001010160002070470000014095
:104610000004004000080040000C0040000401407D
:104620000018004007000100704770B5044600689C
:1046300000250169C943890715D4C168C9438907A1
:1046400011D4EA1E02610121217720688069800768
:10465000204602D0FFF7E8FF04E000F0A7F820466C
:1046600000F0A5F8257720680169C943490717D4E8
:10467000C168C943490713D402216FF004020261E3
:1046800021772068806910F4407F204602D0FFF730
:10469000CBFF04E000F08AF8204600F088F8257788
:1046A00020680169C943090716D4C168C9430907CD
:1046B00012D404216FF00802026121772068C069DA
:1046C0008007204602D0FFF7AFFF04E000F06EF84D
:1046D000204600F06CF8257720680169C943C906B7
:1046E00017D4C168C943C90613D408216FF010025A
:1046F000026121772068C06910F4407F204602D013
:10470000FFF792FF04E000F051F8204600F04FF868
:10471000257720680169C943C90708D1C168C94321
:10472000C90704D1891E0161204600F041F82068C4
:104730000169C943090609D4C168C943090605D4FA
:104740006FF0800101612046FFF7FAFE20680169E1
:10475000C943C90509D4C168C943090605D46FF422
:10476000807101612046FFF7EAFE20680169C943B4
:10477000490609D4C168C943490605D46FF0400110
:104780000161204600F01EF820680169C9438906CE
:104790000BD4C168C943890607D46FF020010161B9
:1047A0002046BDE87040FFF7CCBE70BD7047704733
:1047B00000680349884201D1FDF708B9704700003D
:1047C00000100040704730B590F88010012918D0D3
:1047D000012280F880202421C0F8841000222024A7
:1047E00050F8641B0B680D6823F0005325F0010599
:1047F0000D60026050F8641C0B6004620277104682
:1048000030BD022030BD7047704770B5044690F847
:10481000800001281DD0012284F880202420C4F8C3
:10482000840020680568026822F0010202602068A6
:10483000826822F060620A438260204604F0CCFE67
:104840002268202100201560C4F8841084F88000BC
:1048500070BD022070BD70B5044690F8800001283C
:104860001DD0012284F880202420C4F88400206810
:104870000568026822F0010202602068826822F066
:1048800060420A438260204604F0A6FE226820218E
:1048900000201560C4F8841084F8800070BD0220E8
:1048A00070BD7047704770472DE9F04103680446BA
:1048B000002540F60F06D86919689A68304209D178
:1048C00086067DD501F0200602F080573E4377D062
:1048D000216F39E1AF4EB04F16400F4037436FD0D4
:1048E000C70709D0CF0507D501271F62D4F88C3040
:1048F00043F00103C4F88C3083070AD5D30708D0EE
:10490000276802233B62D4F88C3043F00403C4F8D8
:104910008C3043070AD5D30708D0276804233B62AD
:10492000D4F88C3043F00203C4F88C3003070CD564
:1049300001F02003334308D0266808233362D4F8FB
:104940008C3043F00803C4F88C3003050BD54B01C1
:1049500009D526684FF400633362D4F88C3043F0F5
:104960002003C4F88C30D4F88C30002B34D080066F
:1049700009D501F0200002F08051084303D0216FD7
:1049800009B1204688472168D4F88C008968490617
:1049900002D410F0280F21D0204604F0DDFE20685C
:1049A0008168490615D5816821F040018160E06F7A
:1049B00078B17A490165E06FFCF706FB002800E05A
:1049C00012E009D0E06F016D00E02046BDE8F04143
:1049D00008472046FFF767FFBDE8F0812046FFF754
:1049E00062FFC4F88C50F7E7E76E2026012F71D1E3
:1049F000C7066FD5CF066DD5102018622268906863
:104A0000400669D5E16F664B0868984234D0644B24
:104A10001833984230D0624B303398422CD0604BE0
:104A20004833984228D05E4B6033984224D05C4B88
:104A30007833984220D05A4B903398421CD0584B30
:104A4000A833984218D0574B984215D0554B18337D
:104A5000984211D0534B303398420DD0514B4833CC
:104A6000984209D04F4B6033984205D04D4B783374
:104A7000984201D04B4B903340680004000CABD0FF
:104A8000B4F85C308342A7D9A4F85E00C869B0F5D9
:104A9000807F18D0106820F48070106020688168D2
:104AA00021F0010181602068816821F0400181606E
:104AB000C4F88860E5662068016821F01001016093
:104AC000E06FFCF7CFF8B4F85C00B4F85E10401A61
:104AD00081B220E023E0FFE7B4F85C00B4F85E1098
:104AE000B4F85E30401A81B2002BC8D00029C6D07D
:104AF00010682D4B20F4907010602068826802EAE4
:104B000003028260C4F88860E56625672068026851
:104B100022F0100202602046FFF775FE5CE7C70234
:104B200009D5570207D54FF4801018622046BDE81A
:104B3000F041FFF7B7BE07060AD501F0800702F47F
:104B40000002174304D0616F00297FF43EAF43E7B2
:104B500042060CD54A060AD51968204621F04001C4
:104B60001960C4F88460656700F0F9F834E7020260
:104B700006D54A0004D52046BDE8F041FFF791BEB6
:104B8000C001CBD50029C9DA2046BDE8F041FFF7C6
:104B90003BBE000001000010200100044597000802
:104BA0001000024010040240FEFFFFEF10B50400A9
:104BB00003D0D4F8840010B107E0012010BD00201C
:104BC00084F88000204600F027F82420C4F88400F0
:104BD0002068016821F001010160204604F0D8FD41
:104BE0000128EBD0A06A10B1204604F017FD206820
:104BF000416821F4904141602068816821F02A01D8
:104C000081602068016841F0010101602046BDE833
:104C1000104004F067BD000010B5B6B00446142182
:104C20002FA8FBF79FFDBC216846FBF79BFD1949A8
:104C3000206888422BD100241E94012000906846F1
:104C4000FDF73AFE08B1FBF7BDFE1348016841F0DD
:104C500010010160006800F0100034900E48103818
:104C6000016841F00101016000680DF1BC0C0221F6
:104C700000F0010034904FF4C06007238CE813006B
:104C800003220648CDE932232FA9FCF791FB36B069
:104C900010BD000000100140F0440258000002580E
:104CA0002DE9F8430446D0F884001F4616460D4609
:104CB000202852D1DDB1D6B194F8800001284CD023
:104CC000012084F8800021224FF00008C4F88C8075
:104CD000C4F884201834FCF79BFC814654F8100C6F
:104CE000A687E687183CB0F5805F03D004E001207A
:104CF000BDE8F883206920B12E46002584F8808025
:104D000010E00026FAE78021204604F017FFB8B92A
:104D1000C6B116F8010B21688862B4F85600401E2F
:104D2000A4F85600B4F856004B464FF00002009726
:104D30000028E8D14FF04001204604F0FFFE38B1D2
:104D40000320D5E735F8020B2168C0F30800E3E73C
:104D50002020C4F884000020CAE70220C8E770477A
:104D6000FEE700000148FCF7B1BC0000D4000024BD
:104D70000148FCF7DFBC0000D4000024806B002158
:104D8000826B02B11165C26B02B1116500F044BBC8
:104D9000CA074FF028034FF0000210B506D090F874
:104DA0004140422233EA040400D0F2228C0707D5A6
:104DB00090F8414042F04402A34301D042F0B002D7
:104DC0000B0401D542F0B802102904D0202905D0E7
:104DD000402906D007E042F0900204E042F02002B1
:104DE00001E042F04002006801689143016010BD9B
:104DF00001688A69D243920701D400228A6200685E
:104E00008169C943C90703D0816941F0010181610A
:104E100070472DE9F047044690F84100282200250C
:104E200008218243206804D0C16184F84050BDE865
:104E3000F087876986694FF0FE088268D0F80CC059
:104E40004FF40049E36808EA16460CF0FE08022B0E
:104E5000C7F30047C2F3090207D049462046FFF7CF
:104E600097FF324684F8405010E0062306F006060D
:104E700003EAD2139E420ED1A36C5B1CA364A36C05
:104E8000022BD4D1A564C16184F840503946204634
:104E9000FCF71BFCCBE749462046FFF779FF42466B
:104EA00084F84050F2E7000070B53A4A044690F8A2
:104EB0004100002584F84250E2626585626C282832
:104EC00042EA010262641FD029281DD02A281BD083
:104ED00048F203012046FFF75BFF94F84100602889
:104EE00002D0202084F841006563A16B206B2A4E1C
:104EF00019B1112812D0212810D0E16BF1B312287A
:104F000024D0222822D03EE003212046FFF740FF94
:104F100022492820616384F84100E6E7206801689F
:104F2000490403D5016821F480410160A06BFCF7BE
:104F30008DF9012827D0A06B066584F84050A06B3E
:104F4000FCF742F8002823D0A06B16E02068016827
:104F5000090403D5016821F400410160E06BFCF70E
:104F600075F901280FD0E06B066584F84050E06BBE
:104F7000FCF72AF800280BD0E06B00E003E0016D9D
:104F8000BDE8704008472046BDE8704000F044BAD4
:104F900070BD00000000FFFF7D4D0008CD520008ED
:104FA00070B50446164AC843002541074FF020005B
:104FB000E262256384F8410084F84250656311D4AD
:104FC0002068616A406A0870606A401C6062208DD7
:104FD00040B1618D401E2085491E6185606C40F0A6
:104FE0000400606448F203012046FFF7D1FE216807
:104FF0001020C861204684F84050FCF701FC70BDC9
:105000000000FFFF2DE9F05F0268202604461768C4
:1050100090F841000D46D661212806D0292804D0F9
:10502000222809D02A2807D00DE048F201012046A5
:10503000FFF7AEFE212005E048F202012046FFF70F
:10504000A7FE2220206320685649426842F40042AD
:105050004260206842680A4042602046FFF7C8FE6E
:10506000F8435149514ADFF84CC14304504B524F69
:10507000DFF84891DFF848A1DFF848B1DFF848E1F0
:105080000BD42068D0F8008028F48048C0F8008055
:10509000A06B0CE04068608534E0000432D42068E6
:1050A000D0F8008028F40048C0F80080E06B48B3D6
:1050B00000688842EED09042ECD09842EAD0604539
:1050C000E8D0B842E6D04845E4D05045E2D0584553
:1050D000E0D07045DED03C4918318842DAD03A49F8
:1050E00030318842D6D0384948318842D2D036490A
:1050F00060318842CED0344978318842CAD03249B2
:105100009031C7E7E84340070FD4206825F0040535
:10511000616A406A0870606A401C6062218D21B13A
:10512000608D491E2185401E6085608D18B1606CC0
:1051300040F004006064002784F84270606C67638C
:1051400068B1616C2046FFF7AFFE94F84100282853
:1051500015D129462046BDE8F05FFFF721BFE06A80
:105160001A4DA8420DD0204600F032F8E56284F8CE
:1051700041602763204684F84070FCF741FBBDE89E
:10518000F09F94F8410084F841602228276320466C
:1051900084F8407002D0FCF718FCF0E7FCF714FC30
:1051A000EDE7000000E800FE100002402800024089
:1051B0004000024058000240700002408800024057
:1051C000A0000240B8000240100402400000FFFFAF
:1051D00070B5044600680025016884F84250C94350
:1051E0004A0403D4016821F4804104E0090403D493
:1051F000016821F40041016094F841102820292918
:1052000011D094F841102A290CD1222184F84100B0
:10521000216302212046FFF7BBFD204684F8405061
:10522000FCF7D2FB70BD212184F8410021630121EC
:105230002046FFF7ADFD204684F84050FCF7C5FB43
:1052400070BD00002DE9F0410446006890460E460E
:105250008069C043C00635D40025202720688069B6
:10526000C043800616D5701CF8D0FCF7D1F9A0EB2E
:105270000800B04201D8002EF0D1606C84F8405094
:1052800040F02000606484F8417084F842500120AE
:10529000BDE8F08121681020C8612068C761204600
:1052A000FFF7A6FD2068084942680A404260606C2A
:1052B00040F00400606484F8417084F8425084F83F
:1052C0004050E4E70020E3E700E800FE2DE9F0416C
:1052D000044690F840008846E56A012826D06FEA27
:1052E0000807012084F84000B9066FEA020605D4D9
:1052F000B00603D441462046FFF784FE3A49F8063B
:105300004FF0807231D4F0062FD4638D102083B11A
:105310002168C861606C40F0040060640DB1954282
:105320005ED1616C2046FFF7BFFD59E00220BDE869
:10533000F08194F84120282A02D1B5F1007F04D0F1
:1053400094F84120292A05D00CE041462046FFF779
:1053500027FE45E08D4205D02168C8612046FFF751
:1053600047FD3AE02168C8613AE0780715D4700734
:1053700013D4608D60B12068626A406A1070606A00
:10538000401C6062208D401E2085608D401E60851F
:10539000608D28BB8D4220D122E0380706D430072B
:1053A00004D441462046FFF734FD19E0B80717D46E
:1053B000B00715D4608D68B1606A21680078886292
:1053C000606A401C6062608D401E6085208D401EBA
:1053D000208505E0954200D015B92046FFF7F8FE7C
:1053E000002084F84000A2E70000FFFF70B50068CD
:1053F000C1F30901074E41EA0241049C4FF4806564
:105400004268194305EA54553543AA4321430A43E8
:10541000426070BDFF63FF0310B590F8412000218A
:10542000602A05D0016380F84010FCF78BF910BDAD
:10543000202280F84120016380F84010FCF744F9F5
:1054400010BD2DE9F0411D4617460E460446DDF815
:10545000188008E0681C06D0FCF7DAF8A0EB08001A
:10546000A8420BD855B12068806936EA000013D0F5
:105470000020B842EED00020BDE8F081626C002030
:1054800084F84000202142F02002626484F8411038
:1054900084F842000120EFE70120EAE770B51646E4
:1054A0000D4604460DE0324629462046FFF7CAFE67
:1054B00008B1012070BDFCF7ABF8801BA84207D8EB
:1054C00035B120688069C0438006ECD4002070BDEF
:1054D000626C002084F84000202142F020026264C7
:1054E00084F8411084F84200E3E770B516460D4693
:1054F00004460FE0324629462046FFF7A3FE08B1D6
:10550000012070BD681C05D0FCF782F8801BA84202
:1055100007D835B120688069C0438007EAD40020ED
:1055200070BD626C002084F84000202142F020020F
:10553000626484F8411084F84200E1E72DE9F04705
:10554000314C0128DFF8C4804FF40057DFF8C090D9
:105550004FF001062F4D1DD02078A0B1082128461C
:10556000FCF73EF8C0B104212846FCF739F898B1A1
:1055700039464046FCF734F870B101214846FCF743
:105580002FF8012808D008212846FCF729F801281F
:1055900026D037E02670E1E70A20FBF75BFE00200B
:1055A000207008212846FCF71BF880B1042128460A
:1055B000FCF716F870B139464046FCF711F858B1BF
:1055C00001214846FCF70CF8012807D01AE0012019
:1055D000BDE8F0870220FBE70320F9E70420F7E7A6
:1055E00004212846FBF7FCFF01280BD13946404631
:1055F000FBF7F6FF012805D101214846FBF7F0FF34
:1056000000B926700020E3E72000002400080258BB
:1056100000000258001C0258E22010B502F008F900
:105620001D2002F0F9F8022002F0F6F8042002F042
:10563000F3F86420FBF720FEE02002F0F9F80120E7
:1056400002F0EAF80A20FBF705FEE02002F0F0F88D
:10565000032002F0E1F80C20FBF7FCFD012002F032
:10566000E7F80A20FBF7F6FDE62002F0E1F82F202C
:1056700002F0D2F8FF2002F0CFF8FF2002F0CCF8C1
:10568000B02002F0D5F8202002F0C6F8002002F089
:10569000C3F8032002F0C0F840F21F3002F0BCF85B
:1056A000012002F0B9F840F2DF1002F0B5F8002056
:1056B00002F0B2F8B42002F0BBF8042002F0ACF81B
:1056C00040F21F4002F0A8F8002002F0A5F82E20BA
:1056D00002F0A2F8002002F09FF8002002F09CF8EF
:1056E000002002F099F8002002F096F8B62002F0AF
:1056F0009FF8022002F090F84FF4037002F08CF84B
:10570000002002F089F8172002F086F8152002F038
:1057100083F8002002F080F8002002F07DF8F020ED
:1057200002F086F8032002F077F8292002F080F8D2
:10573000D02002F07DF8002002F06EF8BE2002F0CA
:1057400077F8052002F068F8FE2002F065F80120E5
:1057500002F062F8002002F05FF8002002F05CF82E
:10576000002002F059F8B82002F062F8032002F09D
:1057700053F8012002F050F8BA2002F059F8012045
:1057800002F04AF8BDE81040642003F043BCED206D
:1057900010B502F04DF8012002F03EF8FE2002F0B4
:1057A0003BF8EE2002F044F8DE2002F035F821202C
:1057B00002F032F8F12002F03BF8012002F02CF860
:1057C000DF2002F035F8102002F026F8C42002F0A5
:1057D0002FF88F2002F020F8C62002F029F80020D0
:1057E00002F01AF8E22002F017F8E22002F014F8B2
:1057F000E22002F011F8BF2002F01AF8AA2002F00D
:105800000BF8B02002F014F80D2002F005F800208B
:1058100002F002F80D2001F0FFFF002001F0FCFF74
:10582000112001F0F9FF002001F0F6FF192001F02E
:10583000F3FF002001F0F0FF212001F0EDFF002038
:1058400001F0EAFF2D2001F0E7FF002001F0E4FF66
:105850003D2001F0E1FF002001F0DEFF5D2001F0BE
:10586000DBFF002001F0D8FF5D2001F0D5FF002014
:1058700001F0D2FFB12001F0DBFF802001F0CCFF6E
:10588000002001F0C9FF8B2001F0C6FF002001F0CD
:10589000C3FF962001F0C0FF002001F0BDFFB22041
:1058A00001F0C6FF002001F0B7FF002001F0B4FFB7
:1058B000022001F0B1FF002001F0AEFF032001F053
:1058C000ABFF002001F0A8FFB32001F0B1FF0020E2
:1058D00001F0A2FF002001F09FFF002001F09CFFDB
:1058E000002001F099FF002001F096FF002001F058
:1058F00093FF002001F090FF002001F08DFF0020B9
:1059000001F08AFF002001F087FF002001F084FFF2
:10591000002001F081FF002001F07EFF002001F057
:105920007BFF002001F078FF002001F075FF0020D0
:1059300001F072FF002001F06FFF002001F06CFF0A
:10594000002001F069FF002001F066FF002001F057
:1059500063FF002001F060FF002001F05DFFB42034
:1059600001F066FF8B2001F057FF002001F054FF8B
:10597000962001F051FF002001F04EFFA12001F020
:105980004BFF002001F048FFB52001F051FF02203D
:1059900001F042FF002001F03FFF032001F03CFF37
:1059A000002001F039FF042001F036FF002001F053
:1059B00033FFB62001F03CFF002001F02DFF002056
:1059C00001F02AFFB72001F033FF002001F024FF8F
:1059D000002001F021FF3F2001F01EFF002001F018
:1059E0001BFF5E2001F018FF002001F015FF64206E
:1059F00001F012FF002001F00FFF8C2001F00CFFDE
:105A0000002001F009FFAC2001F006FF002001F0AA
:105A100003FFDC2001F000FF002001F0FDFE7020FC
:105A200001F0FAFE002001F0F7FE902001F0F4FEF4
:105A3000002001F0F1FEEB2001F0EEFE002001F06D
:105A4000EBFEDC2001F0E8FE002001F0E5FEB820CE
:105A500001F0EEFE002001F0DFFE002001F0DCFE90
:105A6000002001F0D9FE002001F0D6FE002001F058
:105A7000D3FE002001F0D0FE002001F0CDFE00207A
:105A800001F0CAFEBA2001F0D3FE242001F0C4FECA
:105A9000002001F0C1FE002001F0BEFE002001F058
:105AA000BBFEC12001F0C4FE202001F0B5FE0020A5
:105AB00001F0B2FE542001F0AFFE002001F0ACFE78
:105AC000FF2001F0A9FE002001F0A6FEC22001F097
:105AD000AFFE0A2001F0A0FE002001F09DFE042090
:105AE00001F09AFE002001F097FEC32001F0A0FE15
:105AF0003C2001F091FE002001F08EFE3A2001F0E2
:105B00008BFE002001F088FE392001F085FE002088
:105B100001F082FE372001F07FFE002001F07CFEC4
:105B20003C2001F079FE002001F076FE362001F0E5
:105B300073FE002001F070FE322001F06DFE0020A7
:105B400001F06AFE2F2001F067FE002001F064FEE4
:105B50002C2001F061FE002001F05EFE292001F002
:105B60005BFE002001F058FE262001F055FE0020CB
:105B700001F052FE242001F04FFE002001F04CFE07
:105B8000242001F049FE002001F046FE232001F010
:105B900043FE002001F040FE3C2001F03DFE0020CD
:105BA00001F03AFE362001F037FE002001F034FE0D
:105BB000322001F031FE002001F02EFE2F2001F0F6
:105BC0002BFE002001F028FE2C2001F025FE0020F5
:105BD00001F022FE292001F01FFE002001F01CFE32
:105BE000262001F019FE002001F016FE242001F00D
:105BF00013FE002001F010FE242001F00DFE002015
:105C000001F00AFE232001F007FE002001F004FE4F
:105C1000C42001F00DFE622001F0FEFD002001F025
:105C2000FBFD052001F0F8FD002001F0F5FD8420CA
:105C300001F0F2FD002001F0EFFDF02001F0ECFD9D
:105C4000002001F0E9FD182001F0E6FD002001F040
:105C5000E3FDA42001F0E0FD002001F0DDFD1820AF
:105C600001F0DAFD002001F0D7FD502001F0D4FD55
:105C7000002001F0D1FD0C2001F0CEFD002001F04C
:105C8000CBFD172001F0C8FD002001F0C5FD9520D7
:105C900001F0C2FD002001F0BFFDF32001F0BCFDCA
:105CA000002001F0B9FDE62001F0B6FD002001F072
:105CB000B3FDC52001F0BCFD322001F0ADFD002098
:105CC00001F0AAFD442001F0A7FD002001F0A4FD91
:105CD000652001F0A1FD002001F09EFD762001F07D
:105CE0009BFD002001F098FD882001F095FD00202B
:105CF00001F092FDC62001F09BFD202001F08CFDFB
:105D0000002001F089FD172001F086FD002001F040
:105D100083FD012001F080FD002001F07DFDC72002
:105D200001F086FD002001F077FD002001F074FDF8
:105D3000002001F071FD002001F06EFDC82001F08F
:105D400077FD002001F068FD002001F065FD0020D6
:105D500001F062FD002001F05FFDC92001F068FD47
:105D6000002001F059FD002001F056FD002001F057
:105D700053FD002001F050FD002001F04DFD0020FA
:105D800001F04AFD002001F047FD002001F044FD34
:105D9000002001F041FD002001F03EFD002001F057
:105DA0003BFD002001F038FD002001F035FD002012
:105DB00001F032FD002001F02FFD002001F02CFD4C
:105DC000E02001F035FD162001F026FD002001F055
:105DD00023FD1C2001F020FD002001F01DFD2120ED
:105DE00001F01AFD002001F017FD362001F014FD2E
:105DF000002001F011FD462001F00EFD002001F011
:105E00000BFD522001F008FD002001F005FD64208B
:105E100001F002FD002001F0FFFC7A2001F0FCFC03
:105E2000002001F0F9FC8B2001F0F6FC002001F0CD
:105E3000F3FC992001F0F0FC002001F0EDFCA8201B
:105E400001F0EAFC002001F0E7FCB92001F0E4FCDD
:105E5000002001F0E1FCC42001F0DEFC002001F094
:105E6000DBFCCA2001F0D8FC002001F0D5FCD220D8
:105E700001F0D2FC002001F0CFFCD92001F0CCFCD5
:105E8000002001F0C9FCE02001F0C6FC002001F078
:105E9000C3FCF32001F0C0FC002001F0BDFCE120B8
:105EA00001F0C6FC162001F0B7FC002001F0B4FCA4
:105EB0001C2001F0B1FC002001F0AEFC222001F01A
:105EC000ABFC002001F0A8FC362001F0A5FC00206E
:105ED00001F0A2FC452001F09FFC002001F09CFC99
:105EE000522001F099FC002001F096FC642001F0A2
:105EF00093FC002001F090FC7A2001F08DFC002042
:105F000001F08AFC8B2001F087FC002001F084FC6A
:105F1000992001F081FC002001F07EFCA82001F016
:105F20007BFC002001F078FCB92001F075FC00201A
:105F300001F072FCC42001F06FFC002001F06CFC49
:105F4000CA2001F069FC002001F066FCD22001F0BB
:105F500063FC002001F060FCD82001F05DFC002013
:105F600001F05AFCE02001F057FC002001F054FC45
:105F7000F32001F051FC002001F04EFCE22001F082
:105F800057FC052001F048FC002001F045FC0B20E7
:105F900001F042FC002001F03FFC1B2001F03CFC22
:105FA000002001F039FC342001F036FC002001F023
:105FB00033FC442001F030FC002001F02DFC4F2088
:105FC00001F02AFC002001F027FC612001F024FCF4
:105FD000002001F021FC792001F01EFC002001F0DE
:105FE0001BFC882001F018FC002001F015FC972014
:105FF00001F012FC002001F00FFCA62001F00CFCC7
:10600000002001F009FCB72001F006FC002001F09F
:1060100003FCC22001F000FC002001F0FDFBC720C2
:1060200001F0FAFB002001F0F7FBD12001F0F4FBB6
:10603000002001F0F1FBD62001F0EEFB002001F082
:10604000EBFBDD2001F0E8FB002001F0E5FBF32095
:1060500001F0E2FB002001F0DFFBE32001F0E8FBB0
:10606000052001F0D9FB002001F0D6FB0A2001F049
:10607000D3FB002001F0D0FB1C2001F0CDFB002061
:1060800001F0CAFB332001F0C7FB002001F0C4FB84
:10609000442001F0C1FB002001F0BEFB502001F0C4
:1060A000BBFB002001F0B8FB622001F0B5FB002033
:1060B00001F0B2FB782001F0AFFB002001F0ACFB57
:1060C000882001F0A9FB002001F0A6FB972001F039
:1060D000A3FB002001F0A0FBA62001F09DFB002007
:1060E00001F09AFBB72001F097FB002001F094FB30
:1060F000C22001F091FB002001F08EFBC72001F0CF
:106100008BFB002001F088FBD12001F085FB0020F3
:1061100001F082FBD52001F07FFB002001F07CFB29
:10612000DD2001F079FB002001F076FBF32001F087
:1061300073FB002001F070FBE42001F079FB0120EB
:1061400001F06AFB002001F067FB012001F064FB15
:10615000002001F061FB022001F05EFB002001F055
:106160005BFB2A2001F058FB002001F055FB3C208E
:1061700001F052FB002001F04FFB4B2001F04CFBE3
:10618000002001F049FB5D2001F046FB002001F0FA
:1061900043FB742001F040FB002001F03DFB842014
:1061A00001F03AFB002001F037FB932001F034FBB3
:1061B000002001F031FBA22001F02EFB002001F0B5
:1061C0002BFBB32001F028FB002001F025FBBE20B3
:1061D00001F022FB002001F01FFBC42001F01CFB9A
:1061E000002001F019FBCD2001F016FB002001F08A
:1061F00013FBD32001F010FB002001F00DFBDD208C
:1062000001F00AFB002001F007FBF32001F004FB82
:10621000002001F001FBE52001F00AFB002001F065
:10622000FBFA002001F0F8FA002001F0F5FA002056
:1062300001F0F2FA022001F0EFFA002001F0ECFA8E
:10624000292001F0E9FA002001F0E6FA3C2001F0F3
:10625000E3FA002001F0E0FA4B2001F0DDFA002023
:1062600001F0DAFA5D2001F0D7FA002001F0D4FA4B
:10627000742001F0D1FA002001F0CEFA842001F060
:10628000CBFA002001F0C8FA932001F0C5FA0020F3
:1062900001F0C2FAA22001F0BFFA002001F0BCFA1E
:1062A000B32001F0B9FA002001F0B6FABE2001F0E7
:1062B000B3FA002001F0B0FAC42001F0ADFA0020DA
:1062C00001F0AAFACD2001F0A7FA002001F0A4FA0B
:1062D000D32001F0A1FA002001F09EFADC2001F0A9
:1062E0009BFA002001F098FAF32001F095FA0020C3
:1062F00001F092FAE62001F09BFA112001F08CFAED
:10630000002001F089FA342001F086FA002001F023
:1063100083FA562001F080FA002001F07DFA762001
:1063200001F07AFA002001F077FA772001F074FA90
:10633000002001F071FA662001F06EFA002001F0F1
:106340006BFA882001F068FA002001F065FA9920C4
:1063500001F062FA002001F05FFABB2001F05CFA64
:10636000002001F059FA992001F056FA002001F0BE
:1063700053FA662001F050FA002001F04DFA552042
:1063800001F04AFA002001F047FA552001F044FAE2
:10639000002001F041FA452001F03EFA002001F012
:1063A0003BFA432001F038FA002001F035FA44208E
:1063B00001F032FA002001F02FFAE72001F038FA5C
:1063C000322001F029FA002001F026FA552001F0D0
:1063D00023FA002001F020FA762001F01DFA0020B7
:1063E00001F01AFA662001F017FA002001F014FA01
:1063F000672001F011FA002001F00EFA672001F089
:106400000BFA002001F008FA872001F005FA0020BD
:1064100001F002FA992001F0FFF9002001F0FCF9E7
:10642000BB2001F0F9F9002001F0F6F9992001F004
:10643000F3F9002001F0F0F9772001F0EDF90020E8
:1064400001F0EAF9442001F0E7F9002001F0E4F955
:10645000562001F0E1F9002001F0DEF9232001F0DF
:10646000DBF9002001F0D8F9332001F0D5F9002044
:1064700001F0D2F9452001F0CFF9002001F0CCF96C
:10648000E82001F0D5F9002001F0C6F9002001F064
:10649000C3F9992001F0C0F9002001F0BDF987206F
:1064A00001F0BAF9002001F0B7F9882001F0B4F941
:1064B000002001F0B1F9772001F0AEF9002001F0E1
:1064C000ABF9662001F0A8F9002001F0A5F98820B9
:1064D00001F0A2F9002001F09FF9AA2001F09CF937
:1064E000002001F099F9BB2001F096F9002001F09D
:1064F00093F9992001F090F9002001F08DF96620C0
:1065000001F08AF9002001F087F9552001F084F9A3
:10651000002001F081F9552001F07EF9002001F002
:106520007BF9442001F078F9002001F075F944204E
:1065300001F072F9002001F06FF9552001F06CF9BB
:10654000002001F069F9E92001F072F9AA2001F0B8
:1065500063F9002001F060F9002001F05DF90020EE
:1065600001F05AF9002001F063F9AA2001F054F972
:10657000CF2001F05DF9002001F04EF9002001F07C
:106580004BF9002001F048F9002001F045F9002006
:1065900001F042F9002001F03FF9002001F03CF940
:1065A000002001F039F9002001F036F9002001F057
:1065B00033F9002001F030F9002001F02DF900201E
:1065C00001F02AF9002001F027F9002001F024F958
:1065D000002001F021F9002001F01EF9F02001F067
:1065E00027F9002001F018F9502001F015F90020DA
:1065F00001F012F9002001F00FF9002001F00CF970
:10660000F32001F015F9002001F006F9F92001F05E
:106610000FF9062001F000F9102001F0FDF8292003
:1066200001F0FAF8002001F0F7F83A2001F000F943
:10663000552001F0F1F8112001F0FAF86420FAF782
:1066400009FE292001F0F4F8352001F0F1F80020CE
:1066500001F0E2F8512001F0EBF8FF2001F0DCF846
:10666000532001F0E5F82C2001F0D6F8552001F078
:10667000DFF8822001F0D0F8BDE810402C2001F0B6
:10668000D7B82DE9F05F4FF470445521204602F051
:1066900033FF651CAA21284602F02EFFA61C5221BA
:1066A000304602F029FFE71C0821384602F024FF9B
:1066B0004FF204080121404602F01EFF0D214FF465
:1066C000304002F019FF0D214BF2010002F014FFDF
:1066D0000D214BF2020002F00FFF4FF43649342136
:1066E000484602F009FF34214BF2016002F004FF3A
:1066F00034214BF2026002F0FFFE4FF4314A0D21CB
:10670000504602F0F9FE4BF2011B0D21584602F0F3
:10671000F3FE0D214BF2021002F0EEFE34214FF495
:10672000374002F0E9FE34214BF2017002F0E4FE42
:1067300034214BF2027002F0DFFE00214FF43240B0
:1067400002F0DAFE00214BF2012002F0D5FE00211A
:106750004BF2022002F0D0FE24214FF4384002F028
:10676000CBFE24214BF6010002F0C6FE24214BF69D
:10677000020002F0C1FE01214FF43F4002F0BCFED6
:106780000F214FF4334002F0B7FE0F214BF20130DE
:1067900002F0B2FE0F214BF2023002F0ADFE3421C6
:1067A0004FF4394002F0A8FE34214BF6011002F0FC
:1067B000A3FE34214BF6021002F09EFE08214FF496
:1067C000354002F099FE08214BF2015002F094FE90
:1067D00008214BF2025002F08FFE03214FF4424099
:1067E00002F08AFE24214FF43A4002F085FE242173
:1067F0004BF6012002F080FE24214BF6022002F02D
:106800007BFE00214FF43C4002F076FE78214BF6EF
:10681000014002F071FE00214BF6024002F06CFED6
:1068200000214FF43D4002F067FE78214BF6015005
:1068300002F062FE00214BF6025002F05DFE0021E4
:106840004FF43E4002F058FE64214BF6016002F026
:1068500053FE00214FF4514002F04EFE33214DF221
:10686000011002F049FE00214DF2021002F044FE38
:1068700034214DF2031002F03FFE00214DF20410CE
:1068800002F03AFE3A214DF2051002F035FE0021E9
:106890004DF2061002F030FE4A214DF2071002F0D0
:1068A0002BFE00214DF2081002F026FE5C214DF275
:1068B000091002F021FE00214DF20A1002F01CFE28
:1068C00081214DF20B1002F017FE00214DF20C1049
:1068D00002F012FEA6214DF20D1002F00DFE002175
:1068E0004DF20E1002F008FEE5214DF20F1002F0FD
:1068F00003FE01214DF2101002F0FEFD13214DF2B6
:10690000111002F0F9FD01214DF2121002F0F4FD18
:1069100054214DF2131002F0EFFD01214DF214103D
:1069200002F0EAFD82214DF2151002F0E5FD012191
:106930004DF2161002F0E0FDCA214DF2171002F0E0
:10694000DBFD02214DF2181002F0D6FD00214DF2C0
:10695000191002F0D1FD02214DF21A1002F0CCFD07
:1069600001214DF21B1002F0C7FD02214DF21C1057
:1069700002F0C2FD34214DF21D1002F0BDFD0221D6
:106980004DF21E1002F0B8FD67214DF21F1002F00B
:10699000B3FD02214DF2201002F0AEFD84214DF234
:1069A000211002F0A9FD02214DF2221002F0A4FDF7
:1069B000A4214DF2231002F09FFD02214DF224107C
:1069C00002F09AFDB7214DF2251002F095FD02214B
:1069D0004DF2261002F090FDCF214DF2271002F06B
:1069E0008BFD02214DF2281002F086FDDE214DF2D2
:1069F000291002F081FD02214DF22A1002F07CFDE7
:106A0000F2214DF22B1002F077FD02214DF22C10F5
:106A100002F072FDFE214DF22D1002F06DFD0321FA
:106A20004DF22E1002F068FD10214DF22F1002F0F1
:106A300063FD03214DF2301002F05EFD33214DF273
:106A4000311002F059FD03214DF2321002F054FDD5
:106A50006D214DF2331002F04FFD00214FF45240F2
:106A600002F04AFD33214DF2012002F045FD0021E4
:106A70004DF2022002F040FD34214DF2032002F0DD
:106A80003BFD00214DF2042002F036FD3A214DF28B
:106A9000052002F031FD00214DF2062002F02CFD10
:106AA0004A214DF2072002F027FD00214DF2082077
:106AB00002F022FD5C214DF2092002F01DFD0021B3
:106AC0004DF20A2002F018FD81214DF20B2002F058
:106AD00013FD00214DF20C2002F00EFDA6214DF217
:106AE0000D2002F009FD00214DF20E2002F004FD00
:106AF000E5214DF20F2002F0FFFC01214DF21020A4
:106B000002F0FAFC13214DF2112002F0F5FC0121F4
:106B10004DF2122002F0F0FC54214DF2132002F04D
:106B2000EBFC01214DF2142002F0E6FC82214DF233
:106B3000152002F0E1FC01214DF2162002F0DCFCF0
:106B4000CA214DF2172002F0D7FC02214DF2182085
:106B500002F0D2FC00214DF2192002F0CDFC0221FE
:106B60004DF21A2002F0C8FC01214DF21B2002F068
:106B7000C3FC02214DF21C2002F0BEFC34214DF278
:106B80001D2002F0B9FC02214DF21E2002F0B4FCDF
:106B900067214DF21F2002F0AFFC02214DF22020B0
:106BA00002F0AAFC84214DF2212002F0A5FC022172
:106BB0004DF2222002F0A0FCA4214DF2232002F08D
:106BC0009BFC02214DF2242002F096FCB7214DF2ED
:106BD000252002F091FC02214DF2262002F08CFCCF
:106BE000CF214DF2272002F087FC02214DF2282010
:106BF00002F082FCDE214DF2292002F07DFC022110
:106C00004DF22A2002F078FCF2214DF22B2002F006
:106C100073FC02214DF22C2002F06EFCFE214DF29D
:106C20002D2002F069FC03214DF22E2002F064FCBD
:106C300010214DF22F2002F05FFC03214DF2302095
:106C400002F05AFC33214DF2312002F055FC0321B1
:106C50004DF2322002F050FC6D214DF2332002F053
:106C60004BFC00214FF4534002F046FC33214DF21F
:106C7000013002F041FC00214DF2023002F03CFCF8
:106C800034214DF2033002F037FC00214DF2043084
:106C900002F032FC3A214DF2053002F02DFC0021C9
:106CA0004DF2063002F028FC4A214DF2073002F086
:106CB00023FC00214DF2083002F01EFC5C214DF255
:106CC000093002F019FC00214DF20A3002F014FCE8
:106CD00081214DF20B3002F00FFC00214DF20C30FF
:106CE00002F00AFCA6214DF20D3002F005FC002155
:106CF0004DF20E3002F000FCE5214DF20F3002F0B3
:106D0000FBFB01214DF2103002F0F6FB13214DF296
:106D1000113002F0F1FB01214DF2123002F0ECFBD8
:106D200054214DF2133002F0E7FB01214DF21430F3
:106D300002F0E2FB82214DF2153002F0DDFB012171
:106D40004DF2163002F0D8FBCA214DF2173002F096
:106D5000D3FB02214DF2183002F0CEFB00214DF2A0
:106D6000193002F0C9FB02214DF21A3002F0C4FBC7
:106D700001214DF21B3002F0BFFB02214DF21C300D
:106D800002F0BAFB34214DF21D3002F0B5FB0221B6
:106D90004DF21E3002F0B0FB67214DF21F3002F0C1
:106DA000ABFB02214DF2203002F0A6FB84214DF214
:106DB000213002F0A1FB02214DF2223002F09CFBB7
:106DC000A4214DF2233002F097FB02214DF2243032
:106DD00002F092FBB7214DF2253002F08DFB02212B
:106DE0004DF2263002F088FBCF214DF2273002F021
:106DF00083FB02214DF2283002F07EFBDE214DF2B2
:106E0000293002F079FB02214DF22A3002F074FBA6
:106E1000F2214DF22B3002F06FFB02214DF22C30AB
:106E200002F06AFBFE214DF22D3002F065FB0321DA
:106E30004DF22E3002F060FB10214DF22F3002F0A7
:106E40005BFB03214DF2303002F056FB33214DF253
:106E5000313002F051FB03214DF2323002F04CFB95
:106E60006D214DF2333002F047FB00214FF45440C6
:106E700002F042FB33214DF2014002F03DFB0021C4
:106E80004DF2024002F038FB34214DF2034002F093
:106E900033FB00214DF2044002F02EFB3A214DF26B
:106EA000054002F029FB00214DF2064002F024FBD0
:106EB0004A214DF2074002F01FFB00214DF208402D
:106EC00002F01AFB5C214DF2094002F015FB002193
:106ED0004DF20A4002F010FB81214DF20B4002F00E
:106EE0000BFB00214DF20C4002F006FBA6214DF2F7
:106EF0000D4002F001FB00214DF20E4002F0FCFAC1
:106F0000E5214DF20F4002F0F7FA01214DF2104059
:106F100002F0F2FA13214DF2114002F0EDFA0121D4
:106F20004DF2124002F0E8FA54214DF2134002F003
:106F3000E3FA01214DF2144002F0DEFA82214DF213
:106F4000154002F0D9FA01214DF2164002F0D4FAB0
:106F5000CA214DF2174002F0CFFA02214DF218403B
:106F600002F0CAFA00214DF2194002F0C5FA0221DE
:106F70004DF21A4002F0C0FA01214DF21B4002F01E
:106F8000BBFA02214DF21C4002F0B6FA34214DF258
:106F90001D4002F0B1FA02214DF21E4002F0ACFA9F
:106FA00067214DF21F4002F0A7FA02214DF2204066
:106FB00002F0A2FA84214DF2214002F09DFA022152
:106FC0004DF2224002F098FAA4214DF2234002F043
:106FD00093FA02214DF2244002F08EFAB7214DF2CD
:106FE000254002F089FA02214DF2264002F084FA8F
:106FF000CF214DF2274002F07FFA02214DF22840C6
:1070000002F07AFADE214DF2294002F075FA0221EF
:107010004DF22A4002F070FAF2214DF22B4002F0BC
:107020006BFA02214DF22C4002F066FAFE214DF27D
:107030002D4002F061FA03214DF22E4002F05CFA7D
:1070400010214DF22F4002F057FA03214DF230404B
:1070500002F052FA33214DF2314002F04DFA032191
:107060004DF2324002F048FA6D214DF2334002F009
:1070700043FA00214FF4554002F03EFA33214DF21D
:10708000015002F039FA00214DF2025002F034FAB8
:1070900034214DF2035002F02FFA00214DF204503A
:1070A00002F02AFA3A214DF2055002F025FA0021A9
:1070B0004DF2065002F020FA4A214DF2075002F03C
:1070C0001BFA00214DF2085002F016FA5C214DF235
:1070D000095002F011FA00214DF20A5002F00CFAA8
:1070E00081214DF20B5002F007FA00214DF20C50B5
:1070F00002F002FAA6214DF20D5002F0FDF9002136
:107100004DF20E5002F0F8F9E5214DF20F5002F069
:10711000F3F901214DF2105002F0EEF913214DF276
:10712000115002F0E9F901214DF2125002F0E4F998
:1071300054214DF2135002F0DFF901214DF21450A9
:1071400002F0DAF982214DF2155002F0D5F9012151
:107150004DF2165002F0D0F9CA214DF2175002F04C
:10716000CBF902214DF2185002F0C6F900214DF280
:10717000195002F0C1F902214DF21A5002F0BCF987
:1071800001214DF21B5002F0B7F902214DF21C50C3
:1071900002F0B2F934214DF21D5002F0ADF9022196
:1071A0004DF21E5002F0A8F967214DF21F5002F077
:1071B000A3F902214DF2205002F09EF984214DF2F4
:1071C000215002F099F902214DF2225002F094F977
:1071D000A4214DF2235002F08FF902214DF22450E8
:1071E00002F08AF9B7214DF2255002F085F902210B
:1071F0004DF2265002F080F9CF214DF2275002F0D7
:107200007BF902214DF2285002F076F9DE214DF291
:10721000295002F071F902214DF22A5002F06CF966
:10722000F2214DF22B5002F067F902214DF22C5061
:1072300002F062F9FE214DF22D5002F05DF90321BA
:107240004DF22E5002F058F910214DF22F5002F05D
:1072500053F903214DF2305002F04EF933214DF233
:10726000315002F049F903214DF2325002F044F955
:107270006D214DF2335002F03FF900214FF456409A
:1072800002F03AF933214DF2016002F035F90021A4
:107290004DF2026002F030F934214DF2036002F049
:1072A0002BF900214DF2046002F026F93A214DF24B
:1072B000056002F021F900214DF2066002F01CF990
:1072C0004A214DF2076002F017F900214DF20860E3
:1072D00002F012F95C214DF2096002F00DF9002173
:1072E0004DF20A6002F008F981214DF20B6002F0C4
:1072F00003F900214DF20C6002F0FEF8A6214DF2D8
:107300000D6002F0F9F800214DF20E6002F0F4F881
:10731000E5214DF20F6002F0EFF801214DF210600F
:1073200002F0EAF813214DF2116002F0E5F80121B4
:107330004DF2126002F0E0F854214DF2136002F0B9
:10734000DBF801214DF2146002F0D6F882214DF2F3
:10735000156002F0D1F801214DF2166002F0CCF870
:10736000CA214DF2176002F0C7F802214DF21860F1
:1073700002F0C2F800214DF2196002F0BDF80221BE
:107380004DF21A6002F0B8F801214DF21B6002F0D4
:10739000B3F802214DF21C6002F0AEF834214DF238
:1073A0001D6002F0A9F802214DF21E6002F0A4F85F
:1073B00067214DF21F6002F09FF802214DF220601C
:1073C00002F09AF884214DF2216002F095F8022132
:1073D0004DF2226002F090F8A4214DF2236002F0F9
:1073E0008BF802214DF2246002F086F8B7214DF2AD
:1073F000256002F081F802214DF2266002F07CF84F
:10740000CF214DF2276002F077F802214DF228607B
:1074100002F072F8DE214DF2296002F06DF80221CF
:107420004DF22A6002F068F8F2214DF22B6002F072
:1074300063F802214DF22C6002F05EF8FE214DF25D
:107440002D6002F059F803214DF22E6002F054F83D
:1074500010214DF22F6002F04FF803214DF2306001
:1074600002F04AF833214DF2316002F045F8032171
:107470004DF2326002F040F86D214DF2336002F0BF
:107480003BF85521204602F037F8AA21284602F0A1
:1074900033F85221304602F02FF80821384602F026
:1074A0002BF80021404602F027F8CC21504602F08C
:1074B00023F80021584602F01FF80521484602F043
:1074C0001BF870214FF4374002F016F870214BF290
:1074D000017002F011F801214FF4384002F00CF86D
:1074E00003214BF6010002F007F803214BF60200DE
:1074F00002F002F803214BF6030001F0FDFF022128
:107500004FF43C4001F0F8FF00214BF6014001F040
:10751000F3FF00214BF6024001F0EEFFD0214FF4C3
:10752000494001F0E9FF02214CF6011001F0E4FFAF
:1075300050214CF6021001F0DFFF50214CF60310F1
:1075400001F0DAFF50214CF6041001F0D5FF0021C4
:107550004FF4545001F0D0FF55214FF4685001F022
:10756000CBFF4FF4885000F063F97820F9F784FEE0
:10757000BDE8F05F4FF4245000F05AB9CF2010B5A9
:1075800000F056F9002000F047F9C12000F044F95E
:10759000302000F041F9ED2000F04AF9642000F0BD
:1075A0003BF9032000F038F9122000F035F9812072
:1075B00000F032F9E82000F03BF9852000F02CF9CA
:1075C000102000F029F97A2000F026F9CB2000F0F5
:1075D0002FF9392000F020F92C2000F01DF90020AF
:1075E00000F01AF9342000F017F9022000F014F925
:1075F000F72000F01DF9202000F00EF9EA2000F03D
:1076000017F9002000F008F9002000F005F9C0206B
:1076100000F00EF91B2000F0FFF8C12000F008F97F
:10762000012000F0F9F8C52000F002F9302000F048
:10763000F3F8302000F0F0F8C72000F0F9F8B72098
:1076400000F0EAF8362000F0F3F8482000F0E4F803
:107650003A2000F0EDF8552000F0DEF8B12000F0FF
:10766000E7F8002000F0D8F81A2000F0D5F8B6208E
:1076700000F0DEF80A2000F0CFF8A22000F0CCF8ED
:10768000F22000F0D5F8002000F0C6F8262000F027
:10769000CFF8012000F0C0F8E02000F0C9F80F207A
:1076A00000F0BAF82A2000F0B7F8282000F0B4F86B
:1076B000082000F0B1F80E2000F0AEF8082000F02D
:1076C000ABF8542000F0A8F8A92000F0A5F843205A
:1076D00000F0A2F80A2000F09FF80F2000F09CF8BC
:1076E000002000F099F8002000F096F8002000F04B
:1076F00093F8002000F090F8E12000F099F80020C5
:1077000000F08AF8152000F087F8172000F084F8C0
:10771000072000F081F8112000F07EF8062000F02C
:107720007BF82B2000F078F8562000F075F83C200C
:1077300000F072F8052000F06FF8102000F06CF8EF
:107740000F2000F069F83F2000F066F83F2000F0BD
:1077500063F80F2000F060F82B2000F069F800209B
:1077600000F05AF8002000F057F8012000F054F81B
:107770003F2000F051F82A2000F05AF8002000F0D5
:107780004BF8002000F048F8002000F045F8EF200A
:1077900000F042F8112000F04BF87820F9F75AFD7C
:1077A000BDE81040292000F043B81FB5FAF7CCF926
:1077B00000208DF80C001B238DF8083001218DF876
:1077C00009008DF80D0003248DF800104FF0C04221
:1077D0008DF80A008DF80E008DF8010068460192C0
:1077E0008DF80B408DF80F10FAF780F90420FAF7A6
:1077F000B9F91FBD0246012000E050434B1ED9B22B
:10780000FBD27047034808B50088ADF80000BDF80A
:10781000000008BD0000086001B5BDF80010034875
:10782000ADF80010BDF80010018008BD0000086030
:1078300001B5BDF800100348ADF80010BDF8001008
:10784000018008BDFEFF07602DE9F04395B01C21C3
:107850006846F8F787FF1C2107A8F8F783FF1C216B
:107860000EA8F8F77FFF33480024314F1025324B24
:107870004FF480580F214FF0110C07600726C0E924
:107880000134C460AB02C0E9044584614FF00409CF
:10789000C46107AAC0E90848C0E90A430463032396
:1078A00044638463C46304640AA8CDE9003102968A
:1078B000CDE905C4CDE90315CDF82490CDE9074104
:1078C0000D9480E822101B486946FCF7EDFD08B1D5
:1078D000F9F778F817480126174B08224C303C334B
:1078E00000F10C0E03604027C0E901468EE8A400B9
:1078F0004FF4006C46464FF4C07383614FF4005858
:107900000925C0E9074C0221C0E90968CDE90E1537
:1079100006231491CDE91291CDE910320EA9FCF79E
:107920000BF9002801D0F9F74DF815B0BDE8F08348
:1079300000400052540000240441005270B586B04B
:1079400014216846F8F70EFF3648016841F004013B
:107950000160016801F004010591016841F0200116
:107960000160016801F020010591016841F080018A
:107970000160016801F080010591016841F0010199
:107980000160016801F001010591016841F0020107
:107990000160016801F002010591016841F04001B8
:1079A0000160016801F040010591016841F010019A
:1079B0000160016801F010010591016841F00801C2
:1079C000016000680122184E232100F00800059094
:1079D0003046F9F712FE002569460124029460033F
:1079E000CDE900051148F9F7E3FC022110480094A5
:1079F000CDE901010F486946F9F7DAFC0C20694628
:107A0000CDE900050C480294F9F7D2FC03212320AC
:107A1000CDE90004CDE9024169463046F9F7C8FCDA
:107A200006B070BDE0440258000402580008025835
:107A30000000111100000258001C025813480021D8
:107A400010B5114C0123124A0460C0E90121C0E9BC
:107A5000033141618161C1610162F9F775FE08B1CD
:107A6000F8F7B0FF09480021F9F7D8FD08B1F8F799
:107A7000A9FF06480021F9F7FDFD002803D0BDE865
:107A80001040F8F79FBF10BD00580040D4000024FC
:107A9000B17570302DE9F0410C48002101230A4AEC
:107AA00004249E02C0E90561C16110251827016206
:107AB00080E8BC00FAF742FA002803D0BDE8F041A4
:107AC000F8F780BFBDE8F08100500052200100248B
:107AD0000C48002170B50A4E4FF48042E0E8026184
:107AE000D3000224012580E83E000648FCF7D0FBC5
:107AF000002803D0BDE87040F8F764BF70BD0000F7
:107B0000007000526C0100241848002110B5164C7A
:107B10000C224FF4E1330460C0E90131C160C0E9D7
:107B200004128161C161016241628162FDF73EF828
:107B300008B1F8F747FF0D480021FCF78CFE08B1AB
:107B4000F8F740FF09480021FCF75FFE08B1F8F79D
:107B500039FF0648FCF737FE002803D0BDE8104087
:107B6000F8F730BF10BD000000100140EC01002408
:107B7000FEE7FEE770472DE9F0434B6A4FF04065A2
:107B80002BB1AA4203D004688B6A5B1E23618B6908
:107B9000002B68D00C6AB4B303688C68DC61CC69D4
:107BA000FCB1D1E90B38D1F824C04E6B8F8A43EA7F
:107BB000080346EA0C0633430E6A43EA8743D1E9D9
:107BC000037C43EA0C0333438E693B430F68234332
:107BD000046833433B4365E0006849688161BDE860
:107BE000F083D1E90B364F6A4C6B8D8A33433C43AB
:107BF0000E6923430C6A43EA85438D693343096860
:107C000023432B4362E0FFE7CC69B4F1000918D0AD
:107C1000D1E90B484F6A4E6BB1F814C044EA08042E
:107C20003E430F683443CE6844EA8C44344344EA0C
:107C300009041C4303683C431443AA425C61CBD152
:107C4000CDE7D1E90B464F6A4D6BB1F814C0344310
:107C50003D4300682C43096844EA8C441C430C43B0
:107C600014434461BBE70B6AABB303688C68DC6107
:107C7000CC69E4B1D1E90B38D1F824C04E6B8F8ABE
:107C800043EA080346EA0C0633430E6A43EA874395
:107C9000D1E9037C43EA0C0333438E693B4323431E
:107CA000046833431343AA42636195D197E7D1E94E
:107CB0000B364F6A4C6B8D8A33433C430E6923432A
:107CC0000C6A43EA854389693343234300680B43C5
:107CD0001343436183E7FFE7CC6984B1D1E90B38F3
:107CE0004F6A4E6BB1F814C043EA08033E43334376
:107CF000CE6843EA8C43334323430468D2E74C6A9B
:107D0000002C9DD0D1E90B368F8A4D6B016833432F
:107D100025432B4343EA8740104348615FE710B592
:107D2000006C00218163C16290F84110082905D0E0
:107D3000012180F84110FAF70CF810BD0268022109
:107D4000D16001680A6842F400320A600068016884
:107D500041F00201016010BD074A491E10B51268CA
:107D6000116141F2883201460348FAF7B7F9002859
:107D700000D0012010BD000020010024F0B58FB01C
:107D800014AC94E8E0000024039609970D94CDE923
:107D900007540B940C94CDE90523CDE90001044868
:107DA00041F288326946F9F791FF0FB0F0BD00004B
:107DB00020010024074A491E10B51268116141F2E2
:107DC000883201460348FAF7EBF9002800D0012079
:107DD00010BD0000200100242DE9F0419846164610
:107DE0000F460446069D08E0681C06D0F9F710FC13
:107DF000A0EB0800A8420AD84DB12068806838403E
:107E000000D00120B042EFD10020BDE8F081042075
:107E100084F84100606C40F0010060640120F4E7E8
:107E20000148F9F799BF0000200100242DE9F0472F
:107E3000454D044689464FF0000A2868C043800734
:107E40000AD0414E283E306820F080603060F9F75B
:107E5000DFFB0746B04608E00120BDE8F08700BF21
:107E6000F9F7D6FBC01B022867D8D8F8000000013C
:107E7000F6D4206829684FF4FE0721F47C313E02D5
:107E800041EA00302860207AA389B4F804C0400297
:107E90002D4D2D495B1E227CACF1010C1035091DC6
:107EA000A0F5007080B2521ECCF3080C07EA034321
:107EB00040EA0C00184306EA026210432860086892
:107EC000626920F0C000104308600A68A06922F0CF
:107ED000200202430A60281D0A6822F010020A608C
:107EE00002684FF6F873E4699A4342EAC4020260FA
:107EF0000868B9F1000F40F010020A6011D008685C
:107F0000B9F1010F11D040F400100860D8F800005A
:107F1000444640F08060C8F80000F9F779FB054658
:107F20000DE0086840F40020EFE740F48010ECE733
:107F3000F9F76EFB401B022801D903208DE720686A
:107F40000001F5D5504688E7284402582DE9F0474E
:107F5000454D044689464FF0000A2868C043800713
:107F60000AD0414E283E306820F080503060F9F74A
:107F70004FFB0746B04608E00120BDE8F08700BF90
:107F8000F9F746FBC01B022867D8D8F8000080002C
:107F9000F6D4208829684FF4FE0721F07C713E0258
:107FA00041EA00502860207AA389B4F804C0400256
:107FB0002D4D2D495B1E227CACF1010C1835091D9D
:107FC000A0F5007080B2521ECCF3080C07EA034300
:107FD00040EA0C00184306EA026210432860086871
:107FE000626920F44060104308600A68A06922F4C6
:107FF000007202430A60281D0A6822F480720A6037
:1080000002684FF6F873E4699A4342EAC4020260D8
:108010000868B9F1000F40F480720A6011D0086856
:10802000B9F1010F11D040F080700860D8F800005D
:10803000444640F08050C8F80000F9F7E9FA0546D8
:108040000DE0086840F48000EFE740F40000ECE742
:10805000F9F7DEFA401B022801D903208DE72068DA
:108060008000F5D5504688E7284402580148FBF7C0
:10807000EFBF00006C01002430B585B00446372006
:108080004FF480720DF1080CCDE900100023694611
:10809000150120468CE82C0000F008FB372141F246
:1080A0008832204600F08EF905B030BD30B585B07D
:1080B000044629204FF480720DF1080CCDE9001020
:1080C00000236946150120468CE82C0000F0EEFAEA
:1080D000204600F033FA05B030BD30B5044610201C
:1080E00085B00DF1080C02010502CDE90010002356
:1080F00069468CE82C00204600F0D8FA102141F2A5
:108100008832204600F05EF905B030BD30B585B04C
:10811000044606204FF480720DF1080CCDE90010E2
:1081200000236946150120468CE82C0000F0BEFAB9
:10813000062141F28832204600F044F905B030BDF6
:1081400030B585B00546002469464FF48050009450
:1081500001940294CDE90340284600F0A7FA0B4AA7
:108160004FF4FA5041F288311268B2FBF0F0484304
:10817000401E03D24FF0004005B030BD696B0906C8
:10818000F6D503492046A963F6E70000180000244D
:10819000C500200030B50821044685B04FF4D570E5
:1081A0004A0100234D028DE82F006946204600F069
:1081B0007DFA204600F02CFA05B030BD30B585B010
:1081C000044607204FF480720DF1080CCDE9001031
:1081D00000236946150120468CE82C0000F066FA61
:1081E000072141F28832204600F0ECF805B030BD9E
:1081F00010B585B00446002102204FF44072C3023E
:108200000493CDE90010CDE902216946204600F033
:108210004DFA204600F068F905B010BD30B585B0C4
:10822000044609200DF1080C0023CDE900104FF49D
:10823000407269464FF4805520468CE82C0000F0CF
:1082400035FA204600F050F905B030BD10B585B0C4
:108250000446002133204FF48072CDE90221CDE99C
:108260000010130169462046049300F01FFA3321E1
:1082700041F28832204600F0A5F805B010BD30B5B7
:1082800085B004460D204FF480720DF1080CCDE945
:10829000001000236946150120468CE82C0000F0F0
:1082A00005FA0D2141F28832204600F08BF805B026
:1082B00030BD30B585B00C460021054603204FF493
:1082C0008072CDE90221CDE90010130169462846EC
:1082D000049300F0EBF903212246284600F052F9FE
:1082E00005B030BD10B585B0044600210D204FF417
:1082F0008072CDE90221CDE90010130169462046C4
:10830000049300F0D3F90D2141F28832204600F0A9
:1083100059F805B010BD000010B585B004464FF403
:10832000807200200C2113018DE80700CDE90303C2
:10833000E06840F08000E060E06820F04000E0602D
:108340006946204600F0B2F9074A0C21204600F0A9
:1083500039F8E168B0F1007F21F08001E16000D1DF
:10836000002005B010BD000000E1F50510B585B096
:10837000044600210B204FF48072CDE90221CDE9A3
:108380000010130169462046049300F08FF90B2179
:1083900041F28832204600F015F805B010BD70B5E6
:1083A0000A6842624A688262C46AD1E90225D1E958
:1083B000043624F0FF012A4333431A431143C162B8
:1083C000002070BD30B5464D4FF4FA53434C2D6834
:1083D000B5FBF3F353435B1E02D24FF0004030BDB8
:1083E000426B2242F7D09204F5D4426B520703D578
:1083F00004218163084630BD426BD20702D00121BF
:10840000816306E0354A803282630269D2B28A42D1
:1084100001D0012030BD002100F02AF93149084285
:1084200001D1002030BD002802DA4FF0007030BDCD
:10843000410001D5402030BD810001D5802030BDF4
:10844000C10002D54FF4807030BD010102D54FF458
:10845000007030BD410102D54FF4806030BDC101D4
:1084600002D54FF4006030BD010202D54FF48050B8
:1084700030BD410202D54FF4005030BD810202D51B
:108480004FF4804030BDC10202D54FF4004030BDF2
:10849000410302D54FF4003030BD810302D54FF4C3
:1084A000802030BDC10302D54FF4002030BD01044F
:1084B00002D54FF4801030BD410402D54FF40010B6
:1084C00030BD810402D54FF4800030BD000702D5D5
:1084D0004FF4000030BD4FF4803030BD4500200027
:1084E0001800002408E0FFFD124B4FF4FA5141F24E
:1084F00088321B68B3FBF1F15143491E02D24FF0A1
:1085000000407047426B12F0450FF6D09204F4D44D
:10851000416B490703D50421816308467047416BCD
:10852000C90703D00121816308467047024981636E
:108530000020704718000024C50020000F4B4FF4A6
:10854000FA5141F288321B68B3FBF1F15143491EE5
:1085500002D24FF000407047426B12F0450FF6D048
:108560009204F4D4416B490703D504218163084682
:108570007047034981630020704700001800002401
:10858000C500200030B5204D4FF4FA5341F2883435
:108590002D68B5FBF3F363435B1E02D24FF000403E
:1085A00030BD446B14F0450FF6D0A404F4D4436BF3
:1085B0005B0703D504218163084630BD436BDB07AD
:1085C00002D00121816303E00369DBB28B4201D059
:1085D000012030BD0D498163002100F049F810F4FD
:1085E000604F04D0410406D54FF4005030BD000C5C
:1085F0001080002030BD000402D54FF4805030BD03
:108600004FF4803030BD000018000024C500200069
:10861000144B4FF4FA5141F288321B68B3FBF1F16D
:108620005143491E02D24FF000407047426B12F096
:10863000450FF6D09204F4D4416B490703D50421C9
:10864000816308467047416BC90703D001218163EC
:1086500008467047416B490601D5402181630020DF
:108660007047000018000024006800F00300704705
:10867000084440697047000030B511434268DDE9A5
:1086800003542B43034D194321432A400A434260BC
:10869000002030BD002CC0FF016841F003010160E3
:1086A00000207047D0F880007047000070B5084D7A
:1086B0000A688260C368D1E90126D1E903412B40F1
:1086C00032430C4322431343C360002070BD0000BB
:1086D000C0E0FEFF0968C0F880100020704700006D
:1086E0001FB54FF0000410B1012802D002E01024A1
:1086F00000E008240748CDE902234FF48052CDE979
:1087000000146946FBF75AFA002800D0012004B093
:1087100010BD0000A00000242DE9F04F87B00D46E9
:108720000446F8F775FF0026069020680821B34636
:108730003746FFF7D2FC002833D1B4F84810206840
:108740000904FFF799FC00282BD1431E4FF00809BC
:108750004FF0020A4FF0300C4FF00108CDF80CA09A
:108760008DE80812CDE9046820686946FFF717FE16
:108770002068FFF76BFD002813D140F22A582068CB
:10878000416B11EA080F06D1416B090315D4BBF107
:10879000000F09D011E0416B090717D5C0F83890D8
:1087A000082007B0BDE8F08FFFF77CFF0646206881
:1087B000FFF778FF07464FF0010BF8F729FF0699FE
:1087C000401A401CDBD14FF00040EAE7416B8907BB
:1087D00003D5C0F838A00220E3E7416B890603D532
:1087E000202181630846DCE7034A39BA33BA826341
:1087F0000020C5E90013D4E73A0F001810B58CB07B
:1088000004460120ADF82C002068FFF72DFF00285A
:1088100053D0E06B032841D02068FFF7E9FC002823
:1088200049D120680021FFF723FF20670421206839
:10883000FFF71EFF606708212068FFF719FFA06798
:108840000C212068FFF714FFE16BE067032925D0B6
:1088500020680BA9FFF72DFD00282CD1E06B032821
:108860001CD0BDF82C10A16420680904FFF7D6FCC9
:10887000002820D120680021FFF7FAFE206604219D
:108880002068FFF7F5FE606608212068FFF7F0FE1C
:10889000A0660C212068FFF7EBFEE066042120684B
:1088A000FFF7E6FE000D694660642046FBF76CFAB0
:1088B00030B14FF080500CB010BD4FF08060FAE73F
:1088C000B4F8481020680904FFF778FCF3E70000CB
:1088D0002DE9F84F00260446354637460096F8F74E
:1088E00097FE80462068FFF72BFC002867D12068A0
:1088F000FFF750FC4FF001094FF6FF7A48B12664AC
:108900002068FFF71DFC002859D1206C012802D0F7
:108910001CE0C4F8409000212068FFF7ADFBE0BBED
:1089200014E020680021FFF7A7FB002847D120684A
:108930005946FFF7BBFB80BB20680021FFF798FE7C
:10894000C70F05460098401C009003E0DFF8C0B058
:1089500056460098B04201D2002FE2D0B0424FF00C
:10896000807749D2680051D5A169C4F83C900229AA
:108970004CD1E8014AD50802E0652068016841F061
:10898000080101602068FFF7F1FC002817D1FD0104
:108990002068406B400108D400E00EE0F8F738FE94
:1089A000A0EB0800401CF3D128E021684FF0806064
:1089B00088632068406BC00203D44FF08050BDE84C
:1089C000F88F0120FBF7DEF92068016841F004010F
:1089D000016005E0F8F71CFEA0EB0800401C0DD07C
:1089E0002068406B8001F5D521684FF000708863E6
:1089F0002068416BC90203D53846E0E72846DEE728
:108A000013224FF0FF310260206881630020D6E717
:108A1000000010C12DE9F04186B00D460446F8F77C
:108A2000F7FD002107462068FFF722FE800104D5EC
:108A30004FF4006006B0BDE8F08120684021FFF7E8
:108A40004CFBC0B9B4F8481020680904FFF714FBC8
:108A500088B940214FF0FF3060224FF0010C022313
:108A600000268DE84F1020686946FFF798FC2068C3
:108A7000FFF738FC98B1A16BA163DBE7406B000402
:108A800007D500262068FFF70DFE761C082E01C5CD
:108A9000F8D3F8F7BDFDC01B401C02D127E04FF012
:108AA00000482068416B11F4957FE7D0416B0907BE
:108AB00001D50820BEE7416B890701D50220B9E73F
:108AC000406B80060AD52020B4E700BFFFF7EAFD1F
:108AD00001C5F8F79DFDC01B401C08D02068416B04
:108AE000C904F3D40146034888630020A2E7404646
:108AF000A0E700003A0F00187047704770B59CB0AF
:108B00004C216846F7F72EFE202113A8F7F72AFE1E
:108B10000220F9F787F8214800242149026842F42D
:108B20004042026002680A6842F001020A60096875
:108B300001F001011B9101688904FCD50220099014
:108B40000DF1280C01210091C20301920523C026DA
:108B500004218CE84900CDE90D0108250F90CDE9ED
:108B6000105468461294FAF74FFD08B172B6FEE74A
:108B700040201A903F210301CDE916500322CDE990
:108B8000180313AB13A883E816000421FAF7FEFAC2
:108B9000002801D072B6FEE71CB070BD184802581C
:108BA0002C0400582E48F0B52E4A016841F470019B
:108BB0000160106800F00F00072804D2106820F050
:108BC0000F00C01D106028490020274C10340B688E
:108BD000264D43F001030B6020600B682B400B60B7
:108BE000136803F00F03072B04D9136823F00F0356
:108BF000DB1D13601C4C1E4A18341E4B261D371DEE
:108C00002060194C1C4D28343060261D3860371DFB
:108C100023603B1D35601C1D3A60251D2E1D18600C
:108C2000331D22602860326018600A680E4B134CB6
:108C300022F4802260330A60186020686FF30F000E
:108C4000B0F1005F03D20E490120C1F8080143F2E0
:108C5000D2000C49024B4A03803B08601A60F0BD09
:108C600088ED00E000200052004402587FEDF6EA53
:108C700080020101000202020000FF010010005CFE
:108C800000800051004000520A4970B5064608882D
:108C900000244D8821464543204600F0C1FA00F0EB
:108CA00021FCB0B2044901E00880641CAC42FBD353
:108CB00070BD0000C8020024000008602DE9F04FDC
:108CC00036492C2300284FF02A094FF4305E4FF02C
:108CD0002B044FF4487545F2105B887108464FF439
:108CE000A0774FF0F00C4FF4F07249F241388088D1
:108CF00045F210360CD00F804045BA46A1F802C0AC
:108D000001D0B0422AD10B81A1F80A908C813AE0BF
:108D1000A1F800C040454F8001D0B04208D10B817E
:108D2000B042A1F80A908C8132D10F804A802FE0A6
:108D3000584508D1A1F808E04FF428544C814FF46D
:108D40002C538B8107E0A0F5C856633E20D10B81E0
:108D50004C81A1F80C900A804D8019E0584508D14B
:108D6000A1F808E04FF428544C814FF42C578F8120
:108D700007E0A0F5C857633F05D10B81A1F80A9021
:108D80008C810D804A80B04202D10A80A1F802A0F5
:108D90000020BDE8F04F00F067B90000C8020024D1
:108DA0002DE9F041354C060A9046024620460D4614
:108DB0000F0AA1884089A1F51343413B0CD0A1F5CE
:108DC000A643103B08D0A1F5AA43103B10D0A1F553
:108DD000C853633B25D048E0FEF72AFD3046FEF736
:108DE0001BFDD0B2FEF718FDA089FEF721FD36E08D
:108DF000FEF71EFD3046FEF70FFD6089401C80B275
:108E0000FEF716FDD0B2FEF707FDA089FEF710FDB4
:108E10003846FEF701FDA089401C80B2FEF708FD30
:108E200020E0A17919B92188891A491E8AB2FEF772
:108E3000FFFC160A3046FEF7EFFCD0B2FEF7ECFC62
:108E40003046FEF7E9FCD0B2FEF7E6FCA089FEF75B
:108E5000EFFC3846FEF7E0FCE8B2FEF7DDFC3846F2
:108E6000FEF7DAFCE8B2FEF7D7FC054A2189931C2D
:108E70001180A3F80080BDE8F0810000C802002442
:108E8000FEFF07602DE9F047FEF78FFC6420F8F73E
:108E9000E1F9D320FEF7CCFCFEF7B4FC564CA080E1
:108EA000FEF7B0FCA080FEF7ADFC4FF6FF7909EAB3
:108EB0000020A080FEF7A6FCA28849F2413845F2C6
:108EC000103645F21055104341F663174045A08017
:108ED00048D0D420FEF7ACFCFEF794FCA080FEF74F
:108EE00091FCA080FEF78EFC09EA00204A46A08093
:108EF000FEF788FCA1880843A080B04232D04FF42E
:108F00005A40FEF795FCFEF77DFCA0804FF45B40D5
:108F1000FEF78EFCFEF776FC02EA0020A0804FF4FC
:108F20005C40FEF785FCFEF76DFCA1880843A0803D
:108F3000B0F5004F20D0A84214D0A120FEF778FC55
:108F4000FEF760FCA080FEF75DFC02EA0020A08036
:108F5000FEF758FCA2881043A080A0F5AE4161390D
:108F600000D1A78025A0A188F7F788FAA0884045FE
:108F700004D1FEF703FB0FE0A580F3E7B04202D176
:108F8000FCF705FC08E0A84202D1FDF77AFB03E0FC
:108F9000B84201D1FCF740FBA088404505D0B04263
:108FA00003D0A84201D0B84218D11848D0F8041113
:108FB00021F00F01C0F80411D0F8041121F4706100
:108FC000C0F80411D0F8041141F00401C0F80411F4
:108FD000D0F8041141F48061C0F804110020FFF7BB
:108FE0006DFE0B4801222021F8F707FB4846BDE83B
:108FF000F047FFF749BE0000C80200242054465441
:109000004C43442049443A25780D0A000040005260
:10901000000402580246BE2000B5FEF709FC0520F8
:10902000FEF7FAFB00EE102A9FED0D1BB8EE400B89
:1090300020EE010BBCEEC00B10EE100A80B2FEF762
:10904000EBFB0120FEF7E8FBFF20FEF7E5FB00202D
:10905000FEF7E2FB5DF804EB0020FEF7DDBB00004D
:109060006666666666660440F0B56C4C002541F69F
:1090700063172146A2798988012A01D01AB11BE021
:10908000B94202D118E0B94216D1082814D2DFE85B
:1090900000F00406080A0C0E101206200CE007204F
:1090A0000AE0042008E0052006E0012004E000209A
:1090B00002E0032000E0022045F21032A1F5134344
:1090C00045F21056413B05D0914203D0B14201D048
:1090D000B94277D1082812D2DFE800F0110406085F
:1090E0000A0C0E1080250AE0402508E0C02506E0A5
:1090F000202504E0602502E0A02500E0E025B14243
:1091000002D14FF4585000E03620914205D0B142D0
:1091100003D0B94201D045F00805294600F0ECF92A
:10912000A188B9420AD06288A806208802D5904258
:1091300002D303E0904201D922806080B14260896D
:1091400041D1FEF775FB0020FEF766FB6089401CED
:1091500080B2FEF76DFB0020FEF75EFB6089801C8D
:1091600080B2FEF765FB2088401EC0F30F20FEF79B
:1091700053FB6089C01C80B2FEF75AFB2078401E6A
:10918000C0B2FEF749FBA089FEF752FB0020FEF7B4
:1091900043FBA089401C80B2FEF74AFB0020FEF78B
:1091A0003BFBA089801C80B2FEF742FB6088401E1A
:1091B000C0F30F20FEF730FBA089C01C80B2FEF781
:1091C00037FB22E028E0FEF733FB0020FEF724FB0C
:1091D0000020FEF721FB2088401EC0F30F20FEF781
:1091E0001BFB2078401EC0B2FEF716FBA089FEF7DD
:1091F0001FFB0020FEF710FB0020FEF70DFB608830
:10920000401EC0F30F20FEF707FBA078BDE8F0403A
:10921000401EC0B2FEF700BBF0BD0000C802002433
:10922000F0B53F4A060A04460D4610460F0A9188DB
:109230004089A1F51343413B28D0A1F5A643103B3B
:1092400024D0A1F5C853633B2FD0A1F5AA43103B0E
:1092500064D1FEF7EDFA3046FEF7DEFA5089401C85
:1092600080B2FEF7E5FAE0B2FEF7D6FA9089FEF793
:10927000DFFA3846FEF7D0FA9089401C80B2FEF73C
:10928000D7FAE8B2BDE8F040FEF7C6BAFEF7D0FA6A
:109290003046FEF7C1FAE0B2FEF7BEFA9089FEF75B
:1092A000C7FA3846FEF7B8FAEBE7917929B3FEF72B
:1092B000BFFA3046FEF7B0FAE0B2FEF7ADFA10881A
:1092C000401EC0F30F20FEF7A7FA1078401EC0B270
:1092D000FEF7A2FA9089FEF7ABFA3846FEF79CFA41
:1092E000E8B2FEF799FA5088401EC0F30F20FEF74F
:1092F00093FA9078401EC0B2C4E71188091B491E3A
:109300008CB2FEF795FA0020FEF786FA0020FEF7F1
:1093100083FA200AFEF780FAE0B2D9E7F0BD000038
:10932000C80200242DE9FF4F58071D460C468A4607
:1093300000D00120DFF8B8B0690800EBD5000026A6
:1093400010FB01F1203A01F0FF09D0B202904BE08E
:109350000C2D11D0102D14D0182D17D0202D45D143
:109360000298244901EBC0104FF00008875D3806D1
:1093700013D52148026814E00298204900EB400010
:1093800008E002981E4901EB0010EDE702981D4924
:1093900000EBC00001EB8000E6E70D9828B9164805
:1093A000426821460098FFF7FBFC7906BBF80200F3
:1093B000641CA4B20F0EA04218D9A4EB0A00A84264
:1093C00009D100985446BBF80010401C80B20090B0
:1093D00081420BD906E008F1010000F0FF08B8F166
:1093E000080FC4D3761CF6B24E45B1D3BDE8FF8F4B
:1093F000C8020024DCBE0008240000241CA70008CA
:1094000090AB000880B100082DE9F84F0D460446E6
:1094100058194FF0000A111987B21FFA81F8DDE9D7
:109420000AB604F0FF0912E0444503D305EB0B0034
:109430004C4685B2BD420FD25B4629462046CDF848
:1094400000A0FFF76FFF04EB5B0084B2761C32785C
:10945000A2F120005E28E7D9BDE8F88F2DE9FF4F83
:1094600081B04FF000081E4681464446DDE90EBA41
:109470000AF001054FEA5B072CE0301B401EC1B229
:109480000A20FEF7B7F903990A22B8F1000FB1FBE1
:10949000F0F1B1FBF2F302FB131005D1711E8C4207
:1094A00002DA48B14FF001085B4607FB0491303007
:1094B0000095C2B288B208E05FEA0A605B4607FB2B
:1094C0000490009580B20AD530220299FFF72AFF56
:1094D000641CE4B2B442D0D305B0BDE8F08F2022C2
:1094E000F3E7000002480349008908807047000044
:1094F000C8020024FEFF0760024B9A1C18801180EE
:1095000070470000FEFF07600148FBF78EB80000BF
:109510007C0200242DE9F047274B4FF0804A274D6D
:1095200002689842264E274F274C09D0504507D055
:10953000A84205D0B04203D0B84201D0A04205D124
:10954000D1F804C022F070024CEA0202DFF87CC0BD
:10955000DFF87C809842DFF87C900FD050450DD02A
:10956000A8420BD0B04209D0B84207D0A04205D0E3
:10957000604503D0404501D0484503D1CD6822F471
:1095800040722A434D6922F080022A4302609842C9
:109590008A68C2620A68826207D0A04205D060452C
:1095A00003D0404501D0484501D10969016301213B
:1095B0004161BDE8F0870000000001400004004068
:1095C00000080040000C0040000401400040014041
:1095D000004401400048014030B5416EB9B1016816
:1095E0000D4B03F108048A688968C2F34262490F8F
:1095F0005D5C615C2D01B5FBF1F1A0F86A10995C2E
:10960000A25C0901B1FBF2F1A0F8681030BD0121A4
:10961000A0F86A10F8E70000FCA6000890F82810EF
:10962000C90706D00168C36A4A6822F400321A43A7
:109630004A6090F82810890706D50168036B4A68CC
:1096400022F480321A434A6090F82810490706D560
:109650000168436B4A6822F480221A434A6090F8FA
:109660002810090706D50168836B4A6822F4004276
:109670001A434A6090F82810C90606D50168C36BE2
:109680008A6822F480521A438A6090F8281089066A
:1096900006D50168036C8A6822F400521A438A6076
:1096A00090F82810490611D50168436C4A6822F4E5
:1096B00080121A434A60416CB1F5801F06D10168DF
:1096C000836C4A6822F4C0021A434A6090F828105A
:1096D000090606D50168C26C486820F400201043D2
:1096E00048607047F8B500260446C0F88C60F7F76C
:1096F0008FFF054620686FF07E470068000708D599
:1097000000222B464FF400112046009700F016FA75
:1097100060B92068006840070AD500222B464FF444
:1097200080012046009700F009FA08B10320F8BD37
:109730002020C4F88400C4F88800E666002084F87D
:109740008060F8BD10B5806B0021A0F85E10A0F815
:109750005610FBF7A8F810BD01680C4B0A6822F4FC
:1097600090720A6001688A681A408A60C16E012995
:1097700004D101680A6822F010020A600021202248
:10978000C0F88820C166016770470000FEFFFFEF48
:109790002DE9F04304468068D84E87B0D84B216845
:1097A000D4E90427D4F81CC010430A68002547EA0E
:1097B0000C073843324002430A602068E26841687F
:1097C00021F44051114341602268A1699A4201D0BD
:1097D000206A01439668DFF82CC3CB4FCB4806EADA
:1097E0000C060E4396602168666ACA6A22F00F0270
:1097F0003243CA622268BA420ED1006800F03800D3
:10980000182873D047DCB8B3082879D010286FD156
:1098100078E028287ED17BE0BD498A4209D10068E2
:1098200000F00700062875D2DFE800F0546A6C6E7D
:109830007072B8498A4209D1006800F00700062812
:1098400068D2DFE800F0475D5F616365B2498A4234
:1098500009D1006800F0070006285BD2DFE800F0BD
:109860003A5052545658AD498A420BD1006800F024
:10987000070006284ED200E010E0DFE800F02B41A0
:1098800043454749A6498A420AD1006800F038009A
:10989000182839D0B7DD2028BBD13CE001203AE0C0
:1098A000A0498A4209D1006800F00700062831D299
:1098B000DFE800F01026282A2C2E9B498A420BD183
:1098C000006800F00700062824D2DFE800F0031942
:1098D0001B1D1F2100201EE09A421BD18B48001D3A
:1098E000006800F00700062814D202E00CE007E050
:1098F00010E0DFE800F0030507090B0D02200AE085
:10990000042008E0082006E0102004E0202002E007
:10991000402000E080208549DFF814829A42854A81
:109920004FF400434FEA21174FF000064DD11028A5
:109930001AD006DC022809D004280BD008287CD1D4
:109940000DE020283DD0402877D13CE0F8F784FC9A
:10995000014610E06846F8F735FD01990BE003A8D1
:10996000F8F7D2FD049906E01068800604D5106867
:10997000C0F3C100C140B9B3606A676838F810200D
:1099800007EB4703B1FBF2F0834256D8B0EB073F39
:1099900053D8002308461946F6F7F9FC0246780822
:1099A000130E120243EA012110183A4671410023B6
:1099B000F6F7EDFC604AA0F5407191423DD8216870
:1099C0004CE03946D8E71946D6E7D4F81CC04FF624
:1099D000EF799C4552D108281AD006DC60B10128E5
:1099E0000DD0042829D10EE039E0102815D0202808
:1099F00040D040287CD13FE0F9F746FD01E0F9F77F
:109A000055FD014610E06846F8F7DCFC01990BE0D3
:109A100003A8F8F779FD049906E01068800604D5DC
:109A20001068C0F3C100C140C9B1636A606838F80A
:109A30001330B1FBF3F1490000E059E001EB5001B4
:109A4000B1FBF0F080B2A0F11001494550D84FF6BB
:109A5000F0732168C0F3420218401043C86001202F
:109A6000A4F86A00A4F8680028462667666707B06D
:109A7000BDE8F0833946D8E71946D6E7082819D05B
:109A800005DC58B101280CD0042831D10DE0102894
:109A900015D020282ED040282AD12DE0F9F7F4FC4B
:109AA00001E0F9F703FD014610E06846F8F78AFC8B
:109AB00001990BE003A8F8F727FD049906E0106868
:109AC000800605D51068C0F3C100C1400029C6D08A
:109AD000636A606838F81330B1FBF3F101EB5001B1
:109AE000B1FBF0F080B2A0F1100149457FF667AFFD
:109AF0000125B4E73946EBE71946E9E7F369FFCFFB
:109B0000000C0058FFF4FF110010014054440258AB
:109B10000044004000480040004C0040005000401D
:109B20000014014000780040007C00400090D00309
:109B3000E4A6000800440258FFFC0F002DE9F0479E
:109B40009A4617460E460446089D4FF000094FF00E
:109B5000200839E0681C37D0F7F75AFDA0EB0A005F
:109B6000A84222D80DB32068016849072CD5C069E6
:109B7000C043000528D423684FF4006119622168AE
:109B80000B6823F4D0730B6021688B6823F001030A
:109B90008B60C4F88480C4F88880C4F88C8000BFCF
:109BA000032084F88090BDE8F08721680B6823F4D7
:109BB000D0730B6021688B6823F001038B60C4F8BD
:109BC0008480C4F88880EBE72068C06936EA00002A
:109BD00004D00020B842BDD00020E4E70120F9E71E
:109BE0000148FAF761BE0000EC010024FEE73EB533
:109BF000040300F029F900F0CDF84FF440510022A1
:109C000088108DE80700831021462020FEF7B6F863
:109C1000BDE83E4000F0BEB87FB500F035F800F07A
:109C200069F81849A0F56F42183A488028D10320F6
:109C300000F084F800248DF80C00C0074FF4407544
:109C40000AD100F001F900222B46B72011460094FA
:109C500001940294FEF792F800F0F6F84FF040708D
:109C6000009400222B461146CDE90140C020FEF7AA
:109C700085F830208DF80C00012103A8FEF79AF832
:109C80007FBD00002C0000243EB5022000F056F8F5
:109C90000446800706D400F0D7F8022044F0020101
:109CA00000F022F9002000904FF480730246014634
:109CB000019002903820FEF761F8024901200870F7
:109CC0003EBD00002C0000243EB5154604464FF46E
:109CD0004052901083038DE80D00831008220B2062
:109CE000FEF74CF803B029462046BDE83040FEF7A9
:109CF00033B800001FB510494FF40050097829B15E
:109D00004FF44062910302910B1404E04FF480621F
:109D1000910302910B14CDE90020002290201146FE
:109D2000FEF72CF8022103A8FEF716F8BDF80C0088
:109D300004B040BA10BD00002C0000241FB5002163
:109D400001288DF80C1003D0022803D0032803D07B
:109D5000052002E0352000E015200D4A127822B1DE
:109D60004FF040720091131403E04FF080720091A5
:109D70001314CDE9011200221146FDF7FFFF012166
:109D800003A8FDF7E9FF9DF80C0004B010BD00002A
:109D90002C00002410B50120FFF7D0FFC007FAD136
:109DA00010BD00002DE9F05FC1F30B06DFF89480D1
:109DB0000F0B8946C6F580548246A242154600D84C
:109DC0001446404639034FF480528B46FFF77CFF20
:109DD000002006E0321818F80210FF2903D1401CB9
:109DE00080B2A042F6D3A04223D23846FFF7FFFE4E
:109DF000002006E083191AF80020401C80B208F801
:109E00000320A042F6D34FF4805259464FEA08008F
:109E100000F030F8A54212D0291B4FF000068DB299
:109E20007F1C4FF480508542A244A14405D90446CA
:109E3000C7E7224649465046EAE72C46C1E7BDE857
:109E4000F09F0000D602002409480EB501780020DA
:109E500000900190029011B14FF4407301E04FF473
:109E60008073002206201146FDF788FF0EBD00001A
:109E70002C0000242DE9F04107460E46C8B21546D5
:109E8000C0F58074A24200D814464FF48078224670
:109E90003146384600F00EF8A54209D0291B8DB294
:109EA00045452744264401D94446F0E72C46EEE7D1
:109EB000BDE8F081FEB516460C460546FFF7C4FF27
:109EC0004FF44051881082038DE80700831021462B
:109ED00000220220FDF752FF31462846FDF76AFFB7
:109EE000BDE8FE40FFF756BF03B5012883B004D09C
:109EF00002280BD003280BD001200E490A7800213C
:109F000042B14FF040720091131407E03120F4E7A2
:109F10001120F2E74FF0807200911314CDE9011285
:109F200000221146FDF72AFF012104A8FDF742FF98
:109F300005B000BD2C000024002301221846114664
:109F400010B5FEF7CDFB4FF4FA70F7F795F9002343
:109F5000012218460221FEF7C3FB002308221846FF
:109F60000321FEF7BDFB0122042100204FF40C73F6
:109F7000FEF7B6FBBDE81040024840F2AB21F9F70E
:109F800005BE0000A0000024090700284FEA116167
:109F900004DB00F1E02080F80014704700F00F00AF
:109FA00000F1E02080F8141D704730380A2801D2F3
:109FB00001207047002070477047000001B582B053
:109FC0009DF8080058B100208DF80800FF210548D1
:109FD00001230091402102AAF7F714FC0EBD0120D5
:109FE000F2E70000D400002413B5044801224FF624
:109FF000FF736946FAF754FE00981CBDEC0100247B
:10A000002DE9F04186B0054627A088461026002499
:10A010000494CDE9006001F11000029483B2284657
:10A02000B4220394FFF7F0F9770504940498029999
:10A03000A0F1804001600298401C0290049800F555
:10A0400080400490B842F1D304940498A0F1804079
:10A0500000680290049820B3DDE9020188421DD90E
:10A06000DDE902010523CDE90064401A401C05F139
:10A070007801020488B24146120BFFF7EFF9DDE9DF
:10A080000201401A401C0004010B0DA0F6F7F6F97E
:10A09000049800F580400490B842D6D306B0BDE8DD
:10A0A000F08102980390DBE74578204D656D6F7273
:10A0B0007920546573743A20202020304B422000D0
:10A0C000534452414D2043617061636974793A256C
:10A0D000644B420D0A00000098B00024F7F77EFCA4
:10A0E000FEF70CFDFDF72AFCFDF70EFDFDF7A6FCC3
:10A0F000FDF7D0FCFDF7ECFCFDF7A6FB00220321E9
:10A100002520F7F75DFD2520F7F74CFD0022022101
:10A110000620F7F755FD0620F7F744FDFEF7B2FEDF
:10A1200048F23040FEF7B0FDCA48CBA1828812A8A1
:10A13000F6F7B0F912A94FF0100AF0225346CDE914
:10A1400000A10A210846FFF75FF9C6A10C20F02202
:10A150000346CDE900011E210A20FFF755F9FFF75C
:10A160005BFD4FF47A764EF6187509E0C0A0F6F75D
:10A1700085F93046F7F76EF8C6480221F7F735FA49
:10A18000FFF7B8FDA842F1D1C3A0F6F777F9CFA049
:10A190004FF02008F022474632214346CDE90080A7
:10A1A0000A20FFF731F90120FFF708FFC820F7F771
:10A1B00051F80020FFF702FF4FF000701690C649DB
:10A1C000C648F9F7BFFEC44DC5A02968F6F756F991
:10A1D0006968C7A0F6F752F9E968CBA0F6F74EF91F
:10A1E000A869C10ACCA0F6F749F9E969D0A0F6F749
:10A1F00045F92A68D4A102A8F6F74CF902AE20234B
:10A20000F02250210A20CDE90076FFF7FDF8242145
:10A2100002A8F6F7A7FA6A68CFA102A8F6F73AF9FA
:10A220004FF4967920234A466E210A20CDE9007624
:10A23000FFF7EAF8242102A8F6F794FAEA68CBA11E
:10A2400002A8F6F727F92023F0228C210A20CDE975
:10A250000076FFF7D9F8242102A8F6F783FAA86957
:10A26000C5A1C20A02A8F6F715F918274A46AA217D
:10A270003B460A20CDE90076FFF7C6F8242102A864
:10A28000F6F770FAEA69C1A102A8F6F703F91823F4
:10A290004A46C8210A20CDE90076FFF7B5F8FFF756
:10A2A0004BFEF7F7B5F9BE4F0020FBF747F9012841
:10A2B00006D0022827D0032846D0042822D18BE0DC
:10A2C000B8A0F6F7DBF8BAA0F6F7D8F848F23040B5
:10A2D000FEF7DAFCBAA045460A214E4620234A463C
:10A2E000CDE900800846FFF78FF8B8A0324620235A
:10A2F0002821CDE900500A20FFF786F80121084601
:10A30000F7F7BAFC99E0B6A0F6F7B8F848F2304093
:10A31000FEF7BAFCB5A14A462023CDE900810A2107
:10A320000846FFF771F89DF8540058B100208DF8E9
:10A330005400FF21B04801230091402115AAF7F7EE
:10A3400061FA7AE00120F2E7ACA0F6F797F8AEA048
:10A35000F6F794F816991922B2486439FFF722FDEE
:10A36000B1A0F6F78BF80120FFF728FEC820F6F71A
:10A3700071FF0020FFF722FE48F23040FEF784FC18
:10A38000B0A14A462023CDE900810A210846FFF703
:10A390003BF8B04E5FF0000026F81000401CB842B9
:10A3A000FAD3AA211E20FFF72BFE00254FEA050B4A
:10A3B0000623BE21CDE900AB36F815201E20FFF79D
:10A3C0004DF836F81520A4A02946F6F757F805F5FC
:10A3D0008045BD42ECD330E0A4A0F6F74FF8A7A02B
:10A3E000F6F74CF8169919220BA86439FFF76CFCA4
:10A3F0000BA9A9A0F6F742F80120FFF7DFFDC8205E
:10A40000F6F728FF0020FFF7D9FD48F23040FEF7AD
:10A410003BFCA7A045460A214E4620234A46CDE9EB
:10A4200000800846FEF7F0FF0BA8324620232821C3
:10A43000CDE900500A20FEF7E7FFF7F7E9F804F549
:10A44000FA7188427FF630AF022104461148F7F7CF
:10A45000CCF829E7C80200244C43442049443A255B
:10A4600030345800323032312F362F333000000074
:10A470005732355132353620436865636B2046616B
:10A48000696C65642C506C65617365204368656315
:10A490006B2100000004025851535049205265615D
:10A4A0006479214B33D0B4C8EB573235513235364D
:10A4B0002C57616B655570B6C1C8A14B33D0B4C879
:10A4C000EB573235513235360D0A000057323551CF
:10A4D000323536204F4B2100300000246C0100241F
:10A4E0004361726420547970653A25640D0A000056
:10A4F00043617264204361726456657273696F6E62
:10A500003A25640D0A000000436172642052434101
:10A510003A25640D0A0000004361726420436170B3
:10A5200061636974793A2564204D420D0A00000088
:10A530004361726420426C6F636B53697A653A259C
:10A54000640D0A0D0A0000004361726420547970A2
:10A55000653A256400000000436172642043617223
:10A560006456657273696F6E3A2564004361726464
:10A57000205243413A256400436172642043617074
:10A5800061636974793A2564204D420043617264C5
:10A5900020426C6F636B53697A653A256400000052
:10A5A00090D003004B455931B0B4CFC20D0A000022
:10A5B000BDF8C8EBCDA3D6B9C4A3CABD0D0A00002F
:10A5C0004B4559312050726573732100456E746597
:10A5D000722053746F70204D6F646521000000007D
:10A5E0004B455932B0B4CFC20D0A00004B45593229
:10A5F0002050726573732100D40000244B455933F9
:10A60000B0B4CFC20D0A0000537461727420577247
:10A6100069746520573235513235362E2E2E2E0D67
:10A620000A000000CAA600085732355132353620DC
:10A6300057726974652046696E6973686564210D97
:10A640000A0000005772697465205732355132355F
:10A6500036210000000000C0746573747372616D70
:10A660005B25645D3A25640D0A00000057616B6547
:10A67000207570B0B4CFC20D0A000000537461722F
:10A6800074205265616420573235513235362E2E92
:10A690002E2E200D0A00000054686520446174616C
:10A6A000205265616465642049733A25730D0A0080
:10A6B0005265616420573235513235363A00000018
:10A6C0004FF04070E1EE100A70474E65772053500E
:10A6D00020456D626564656420515350492054459E
:10A6E00053540000010002000400060008000A00A4
:10A6F0000C00100020004000800000010101010357
:10A700000701000008040204080101010000000024
:10A710000102030401020304060708090000000007
:10A720000000000000000000000000003F400000AA
:10A730000000000000003000400030004000000039
:10A7400009000BC03D000BC03D00090018C02440AB
:10A750007FE0224031800000180024C01B000D80E3
:10A760003240018003801C4027401C80074000408D
:10A770001000600000000000000000000000000069
:10A7800000001F80204040200000402020401F800B
:10A7900000000000090006001F80060009000000FC
:10A7A000040004003F80040004000000001000606A
:10A7B0000000000000000000040004000400040089
:10A7C0000400000000000040000000000000000045
:10A7D000002001C006003800400000001F8020401B
:10A7E000204020401F800000000010403FC000407B
:10A7F0000000000018C02140224024401840000002
:10A8000010802040244024401B80000002000D00E6
:10A8100011003FC0014000003C80244024402440FF
:10A82000238000001F802440244034400380000027
:10A830003000200027C03800200000001B8024408A
:10A84000244024401B8000001C0022C022402240E3
:10A850001F80000000000000084000000000000011
:10A860000000000004600000000000000000040080
:10A870000A00110020804040090009000900090079
:10A880000900000000004040208011000A00040080
:10A890001800200023402400180000001F802040E2
:10A8A000274029401F400000004007C039000F002A
:10A8B00001C0004020403FC0244024401B800000D5
:10A8C0001F802040204020403080000020403FC0BA
:10A8D000204020401F80000020403FC024402E40E8
:10A8E00030C0000020403FC024402E003000000057
:10A8F0000F001080204022403380020020403FC0E3
:10A90000040004003FC02040204020403FC02040C1
:10A91000204000000060202020203FC020002000B8
:10A9200020403FC024400B0030C0204020403FC0AA
:10A9300020400040004000C03FC03C0003C03C003D
:10A940003FC0000020403FC00C4023003FC020001B
:10A950001F802040204020401F80000020403FC03A
:10A9600024402400180000001F802140214020E0E6
:10A970001FA0000020403FC02440260019C0004016
:10A9800018C0244024402240318000003000204084
:10A990003FC020403000000020003F8000400040C9
:10A9A0003F80200020003E0001C00700380020004A
:10A9B000380007C03C0007C038000000204039C004
:10A9C000060039C0204000002000384007C0384051
:10A9D00020000000304021C02640384020C0000048
:10A9E000000000007FE040204020000000007000D8
:10A9F0000C000380004000000000402040207FE069
:10AA000000000000000020004000200000000000C6
:10AA100000100010001000100010001000000000D6
:10AA200040000000000000000000028005400540DA
:10AA300003C0004020003FC00440044003800000E9
:10AA40000000038004400440064000000000038032
:10AA5000044024403FC00040000003800540054002
:10AA600003400000000004401FC024402440200098
:10AA7000000002E0055005500650042020403FC071
:10AA80000440040003C000400000044027C0004010
:10AA90000000000000100010041027E0000000007B
:10AAA00020403FC00140070004C004402040204037
:10AAB0003FC000400040000007C0040007C0040081
:10AAC00003C00000044007C00440040003C000406D
:10AAD000000003800440044003800000041007F0DD
:10AAE0000450044003800000000003800440045030
:10AAF00007F00010044007C00240040004000000FA
:10AB0000000006400540054004C0000000000400AD
:10AB10001F80044000400000040007800040044003
:10AB200007C000400400070004C0018006000400C4
:10AB3000060001C0070001C006000000044006C076
:10AB4000010006C0044000000410071004E001806A
:10AB5000060004000000044005C006400440000058
:10AB60000000000004007BE0402000000000000026
:10AB70000000FFF000000000000040207BE0040027
:10AB80000000000040008000400020002000400045
:10AB900000000000000000000000000000000000B5
:10ABA0000000000000001FCC000C000000000000AE
:10ABB0000000080030006000080030006000000065
:10ABC000022003FC1E20022003FC1E2002200000A5
:10ABD00000000E1811043FFF10840C7800000000E4
:10ABE0000F0010840F3800C0077818840078000028
:10ABF00000780F8410C411240E9800E4008400082B
:10AC00000800680070000000000000000000000064
:10AC100000000000000007E01818200440020000B7
:10AC2000000040022004181807E0000000000000A7
:10AC30000240024001800FF001800240024000000B
:10AC40000080008000800FF80080008000800000FD
:10AC50000001000D000E00000000000000000000D8
:10AC60000000008000800080008000800080008064
:10AC70000000000C000C00000000000000000000BC
:10AC80000000000600180060018006001800200087
:10AC9000000007F0080810041004080807F000007E
:10ACA0000000080408041FFC000400040000000069
:10ACB00000000E0C10141024104411840E0C00001F
:10ACC00000000C1810041104110412880C7000000C
:10ACD000000000E00320042408241FFC00240000DE
:10ACE00000001F98108411041104108810700000D7
:10ACF000000007F008881104110418880070000093
:10AD000000001C00100010FC13001C0010000000CC
:10AD100000000E3811441084108411440E380000D5
:10AD200000000700088C10441044088807F0000059
:10AD3000000000000000030C030C000000000000F5
:10AD400000000000000101060000000000000000FB
:10AD500000000080014002200410080810040000D8
:10AD600002200220022002200220022002200000F5
:10AD700000001004080804100220014000800000B8
:10AD800000000E001200100C106C10800F0000006C
:10AD900003E00C1813E4142417C4082807D000009B
:10ADA0000004003C03C41C40074000E4001C0004F5
:10ADB00010041FFC1104110411040E88007000001F
:10ADC00003E00C1810041004100410081C100000FC
:10ADD00010041FFC100410041004080807F0000001
:10ADE00010041FFC1104110417C4100408180000FB
:10ADF00010041FFC1104110017C01000080000000F
:10AE000003E00C181004100410441C7800400000EB
:10AE100010041FFC10840080008010841FFC1004AC
:10AE20000000100410041FFC1004100400000000B7
:10AE300000030001100110011FFE100010000000AF
:10AE400010041FFC110403801464181C100400007B
:10AE500010041FFC1004000400040004000C000097
:10AE600010041FFC1F0000FC1F001FFC100400004A
:10AE700010041FFC0C04030000E010181FFC10005D
:10AE800007F00808100410041004080807F0000078
:10AE900010041FFC10841080108010800F00000030
:10AEA00007F0081810241024101C080A07F20000EC
:10AEB00010041FFC1104110011C011300E0C00040D
:10AEC00000000E1C11041084108410441C38000073
:10AED0001800100010041FFC1004100018000000DF
:10AEE00010001FF810040004000410041FF81000E4
:10AEF00010001E0011E0001C007013801C001000E8
:10AF00001FC0103C00E01F0000E0103C1FC000000C
:10AF10001004180C163401C001C01634180C1004AB
:10AF200010001C00130400FC13041C00100000009F
:10AF30000804101C1064108413041C041018000072
:10AF40000000000000007FFE4002400240020000BE
:10AF5000000030000C0003800060001C00030000B3
:10AF600000004002400240027FFE0000000000009E
:10AF700000000000200040004000400020000000D1
:10AF800000010001000100010001000100010001B9
:10AF90000000400040002000000000000000000011
:10AFA00000000098012401440144014400FC000415
:10AFB00010001FFC008801040104008800700000DC
:10AFC00000000070008801040104010400880000F2
:10AFD0000000007000880104010411081FFC000437
:10AFE000000000F8014401440144014400C800008D
:10AFF0000000010401040FFC1104110411001800E9
:10B00000000000D601290129012901C9010600001B
:10B0100010041FFC008401000100010400FC000476
:10B0200000000104190419FC0004000400000000E1
:10B030000000000300010101190119FE00000000D9
:10B0400010041FFC0024004001B4010C01040000A6
:10B050000000100410041FFC0004000400000000A5
:10B06000010401FC0104010001FC0104010000FCD9
:10B07000010401FC008401000100010400FC000443
:10B08000000000F8010401040104010400F80000BC
:10B09000010101FF00850104010400880070000027
:10B0A00000000070008801040104010501FF000197
:10B0B0000104010401FC008401040100018000007E
:10B0C000000000CC01240124012401240198000087
:10B0D00000000100010007F8010401040000000065
:10B0E000010001F8000400040004010801FC000450
:10B0F000010001800170000C00100160018001005E
:10B1000001F0010C003001C00030010C01F0010021
:10B1100000000104018C00740170018C0104000026
:10B12000010101810171000E001801600180010020
:10B1300000000184010C013401440184010C000071
:10B14000000000000000000001003EFC4002400240
:10B150000000000000000000FFFF000000000000F1
:10B160000000400240023EFC010000000000000020
:10B1700000006000800080004000400020002000AF
:10B1800000000000000000000000000000000000BF
:10B1900000000000000000000000000000000000AF
:10B1A000000000000000000000000000000000009F
:10B1B0000000000F80380FFE380F803800000000BC
:10B1C000000000000000000000000000000001007E
:10B1D000000600000C0000380000310000060000EE
:10B1E0000C000038000030000000000000000000EB
:10B1F00061800067F807F98000618000618000616C
:10B20000800061800067F807F9800061800000001D
:10B2100000000000000001C0E003E0F00630080478
:10B2200018081FFFFE040E080787F00381E00000E6
:10B230000000000001F000060C00040408060C7079
:10B2400001F9C0000E00003BE000EC1807080804FC
:10B250000C180003E00000000001E00007F003F814
:10B2600018041C0804170807E1D003C0E00023B04D
:10B27000003C080020080000100000000000000151
:10B2800000003100003200001C000000000000003F
:10B2900000000000000000000000000000000000AE
:10B2A000000000000000000000000000000000009E
:10B2B0007F0001FFC00780F00C0018100004200080
:10B2C000020000000000002000021000040C001822
:10B2D0000780F001FFC0007F0000000000000000B8
:10B2E00000000000000000000000000042000066B6
:10B2F00000006600003C0000180003FFC0001800BA
:10B30000003C0000660000660000420000000000F3
:10B31000080000080000080000080000080001FF05
:10B32000C000080000080000080000080000080035
:10B3300000000000000100003100003200001C008D
:10B3400000000000000000000000000000000000FD
:10B3500000000000000000000800000800000800D5
:10B3600000080000080000080000080000080000B5
:10B3700008000008000000000000000000000000BD
:10B380003800003800003800000000000000000015
:10B3900000000000000000000000000000000000AD
:10B3A000000600001C000070000180000E00003844
:10B3B0000000C0000700001C00003000000000007A
:10B3C000000000007F8001FFE00380700600180489
:10B3D000000804000806001803807001FFE0007FE9
:10B3E00080000000000000000000010008010008CB
:10B3F00001000803FFF807FFF8000008000008003C
:10B40000000800000000000000000001C03802C079
:10B4100058040098040118040218040418061C18A3
:10B4200003F81801E0F8000000000000000000012F
:10B43000C0E003C0F0040008040808040808061867
:10B440000803F41801E7F00001E00000000000002C
:10B45000000000000300000D00001100006100006A
:10B46000810803010807FFF80FFFF8000108000139
:10B47000080000000000000000E007FCD0060808FB
:10B48000061008061008061008061838060FF00601
:10B4900007C0000000000000000000003F8001FF26
:10B4A000E00384300208180410080410080410088F
:10B4B000071810030FF00007C00000000000000094
:10B4C000000003C0000700000600000600F80607A1
:10B4D000F806180006E00007000006000000000063
:10B4E00000000001E1E003F7F0063410041808043E
:10B4F0001808040C08040C0806161803F3F001C120
:10B50000E000000000000000F80003FC30030638F3
:10B510000402080402080402080404100308F001ED
:10B52000FFC0007F000000000000000000000000DD
:10B530000000000000000000703800703800703813
:10B5400000000000000000000000000000000000FB
:10B55000000000000000000000000000301A003071
:10B560001C000000000000000000000000000000BF
:10B57000000000000000000800001400002200008D
:10B5800041000080800100400200200400100800FB
:10B590000800000000000000210000210000210040
:10B5A00000210000210000210000210000210000F6
:10B5B0002100002100000000000000000000080041
:10B5C00008040010020020010040008080004100BB
:10B5D000002200001400000800000000000000032A
:10B5E000C00004C000040000080038080F38080834
:10B5F000380810000C300007E00003C00000000015
:10B60000000000003F8000FFE0038070020F100682
:10B61000708804C088048308047F8802C0900301F6
:10B620002000FE400000080000180001F8003E085D
:10B6300001C20007020007E20000FE00001FC80070
:10B6400001F800003800000804000807FFF807FFB1
:10B65000F80408080408080408080408080618087C
:10B6600003F41801E7F00001E00000000000000012
:10B670003F8001FFE003807002001804000804000E
:10B68000080400080400100600200780C000000025
:10B6900004000807FFF807FFF80400080400080486
:10B6A000000804001802001003807001FFE0007F12
:10B6B0008000000004000807FFF807FFF8040808EE
:10B6C000040808040808040808043E0804000806E2
:10B6D000001801006000000004000807FFF807FFE1
:10B6E000F8040808040800040800040800043E00E8
:10B6F00006000006000001800000000000000000BD
:10B700003F8001FFE0038070060018040008040277
:10B71000080402080203F00783F0000200000200A0
:10B7200004000807FFF807FFF804080800080000F5
:10B73000080000080000080004080807FFF807FFD9
:10B74000F8040008000000000000040008040008DD
:10B7500004000807FFF807FFF804000804000804C5
:10B7600000080000000000000000000000060000CB
:10B770000700000104000104000104000307FFFEAC
:10B7800007FFFC0400000400000400000400080798
:10B79000FFF807FFF8040C08001800003E0004C77B
:10B7A000800503C80600F8040038040018000008EB
:10B7B00004000807FFF807FFF8040008000008006D
:10B7C0000008000008000008000008000018000041
:10B7D0006000000004000807FFF807800807FC006D
:10B7E000007FC00003F80007C0007800078008074A
:10B7F000FFF807FFF804000804000807FFF8070037
:10B800000803C00000E000003800001E0000070030
:10B810000001C00400F007FFF80400000000000071
:10B820007F8001FFE0038070060018040008040018
:10B830000806001803003001FFE0007F80000000D0
:10B8400004000807FFF807FFF804040804040004D4
:10B850000400040400040400060C0003F80001F0D6
:10B8600000000000000000007F8001FFE003807006
:10B870000600880400880400C806003C03003E015E
:10B88000FFE6007F8400000004000807FFF807FFC0
:10B89000F8040808040800040C00040F00040BC09E
:10B8A0000610F003F03801E0080000080000000175
:10B8B000E0F803F030063010041808041808040CEF
:10B8C00008040C080206180207F00781E0000000D7
:10B8D00001800006000004000004000004000807C6
:10B8E000FFF807FFF8040008040000040000060049
:10B8F0000001800004000007FFE007FFF0040018CB
:10B90000000008000008000008000008000008040B
:10B91000001007FFE004000004000006000007E03C
:10B920000007FE00041FE00001F80000380001E0FD
:10B93000043E0007C00006000004000004000007E9
:10B94000E00007FFC0041FF80007C007F80007FF6A
:10B9500080043FF80007C004F8000700000400005E
:10B9600000000004000806001807C07805F1C800B0
:10B970003E00001F800463E80780F80600180400FA
:10B980000800000004000006000007800007E0082F
:10B99000047C08001FF80007F800180804E00807F6
:10B9A000000006000004000000000001000806007E
:10B9B000380400F80403E8040F08047C0805F008C4
:10B9C00007C0080700180400600000000000000025
:10B9D00000000000000000000000003FFFFE20000B
:10B9E00002200002200002200002200002000000CD
:10B9F00000000000000008000007000000C0000078
:10BA000038000006000001C000003000000E0000F9
:10BA100001000000000000000000200002200002E1
:10BA20002000022000022000023FFFFE0000000074
:10BA30000000000000000000000000000000000006
:10BA4000000800001000003000002000003000005E
:10BA500010000008000000000000000000000100CD
:10BA600000010000010000010000010000010000D1
:10BA700001000001000001000001000001000001C0
:10BA80000000000000000000002000002000001066
:10BA90000000100000000000000000000000000096
:10BAA000000000000000000000F00019F8001B1862
:10BAB000002208002608002408002410003FF80097
:10BAC0001FF800000800001800000004000007FF35
:10BAD000F80FFFF0001818001008002008002008D8
:10BAE000003018001FF0000FC00000000000000030
:10BAF00007C0001FF00018300020080020080020B8
:10BB000008003C08001C100000600000000000005D
:10BB10000000000007C0001FF000381800200800D7
:10BB2000200800200804101007FFF80FFFF00000A5
:10BB3000100000000000000000000007C0001FF01F
:10BB400000123000221800220800220800320800EB
:10BB50001E10000E20000000000000002000002049
:10BB60000800200801FFF803FFF806200804200859
:10BB7000042008072000030000000000000000006F
:10BB8000000E000E6E001FF30031B10020B1002046
:10BB9000B1003191001F13002E1E00200E00300056
:10BBA00000000004000807FFF80FFFF8001008006D
:10BBB0002000002000002008003FF8001FF80000CF
:10BBC000080000000000000000000020080020081D
:10BBD000002008063FF8063FF800000800000800B3
:10BBE000000800000000000000000000000000004D
:10BBF00003000003002001002001002003063FFE97
:10BC0000063FFC00000000000000000000000004EF
:10BC1000000807FFF80FFFF8000188000300002F5D
:10BC2000C00038F80020380020080000080000009C
:10BC300000000000000004000804000804000807D9
:10BC4000FFF80FFFF80000080000080000080000DF
:10BC500000000000002008003FF8003FF800100836
:10BC6000002000003FF8003FF8001008002000000E
:10BC70003FF8003FF8000008000000002008003FE7
:10BC8000F8003FF800100800100000200000200815
:10BC9000003FF8001FF8000008000000000000004E
:10BCA00007C0000FF0001830003008002008002006
:10BCB00008003008001830000FF00007C000000036
:10BCC000000000002001003FFF003FFF00101100B6
:10BCD0002009002008002008003038001FF0000F65
:10BCE000C00000000000000007C0001FF00038186E
:10BCF000002008002008002009001011001FFF008C
:10BD00003FFF000001000000002008002008002084
:10BD100008003FF8003FF80008080010080020085D
:10BD20000020000030000030000000000000000093
:10BD30000000000C78001E180033080023080021C2
:10BD4000080021880021980030F0003860000000D1
:10BD500000000000200000200000200000FFF00391
:10BD6000FFF8002008002008002008000030000034
:10BD700000000000000000002000003FF0007FF8FD
:10BD8000000018000008000008002010003FF80024
:10BD90007FF00000100000000000000020000030D4
:10BDA00000003C00003F800023F00000780000709D
:10BDB000002380003C000030000020000020000034
:10BDC0003C00003FE00023F80000E0002700003EB8
:10BDD00000003FE00021F80001E0003E00002000EC
:10BDE000000000002008002008003838003E6800ED
:10BDF00027800003C8002CF80038380020180020E5
:10BE000008000000000000002000003003003C019A
:10BE1000003F830023EC000070002380003C000002
:10BE2000200000200000000000000000000000389A
:10BE3000080020380020F80023E8002F88003E0882
:10BE4000003808002018000070000000000000000A
:10BE500000000000000000000000000008000014C6
:10BE6000001FF7FC30000620000200000000000068
:10BE700000000000000000000000000000000000C2
:10BE80000000FFFFFF0000000000000000000000B5
:10BE9000000000000000000000002000023000064A
:10BEA0001FF7FC0014000008000000000000000064
:10BEB000000000000000000000000018000060000A
:10BEC00000400000400000200000100000080000BA
:10BED0000400000400000C0000100000000000003E
:10BEE0000000000000000000000000000000000052
:10BEF0000000000000000000000000000000000042
:10BF00000000000000000000000000000000000031
:10BF10000000000000000000000000000000000021
:10BF20000000000000000000000000000000000011
:10BF30000000000000000000000000000000000001
:10BF400000000000000000000000000000000000F1
:10BF500000000000000000000000000000000000E1
:10BF600000000000000000000000000000000000D1
:10BF70000000000007F000C007FFE1E007F001E06B
:10BF8000000000C0000000000000000000000000F1
:10BF900000000000000000000000000000000000A1
:10BFA0000000000000000000000000000000000091
:10BFB0000000000000000000000000000000000081
:10BFC0000000000000000000000000000000000071
:10BFD0000000000000000000000000000000000061
:10BFE000000000000020000001C0000007800000E9
:10BFF0001F0000001E0000001C20000001C0000007
:10C00000078000001F0000001E0000001C00000050
:10C010000000000000000000000000000000000020
:10C020000000000000000000000000000000000010
:10C030000000000000000000000000000000000000
:10C0400000000000000000000000000000000000F0
:10C0500000000000000000000000000000000000E0
:10C0600000180C0000180C0000180FE0001FFC0066
:10C0700003F80C0000180C0000180C0000180C004D
:10C0800000180C0000180FE0001FFC0003F80C0063
:10C0900000180C0000180C00000000000000000058
:10C0A0000000000000000000000000000000000090
:10C0B0000000000000000000000000000000000080
:10C0C0000000000000000000000000000000000070
:10C0D0000000000000000000000000000000000060
:10C0E0000000000000000780007807C000FC064048
:10C0F000010E002003070020020380200FFFFFFC39
:10C100000201C0200200E0600130704001F03F8079
:10C1100000F01F0000000000000000000000000010
:10C12000000000000000000000000000000000000F
:10C1300000000000000000000000000000000000FF
:10C1400000000000000000000000000000000000EF
:10C1500000000000000000000000000000FE0000E1
:10C1600001FF00000301800002008060030181C024
:10C1700001FF070000FE18000000E0000003BF0000
:10C18000000CFFC00071806001C1002003018060CD
:10C190000000FFC000003F000000000000000000A1
:10C1A000000000000000000000000000000000008F
:10C1B000000000000000000000000000000000007F
:10C1C000000000000000000000000000000000006F
:10C1D00000000000000000000000000000001F0040
:10C1E00000007FC000FCC0C001FF80600303E020AE
:10C1F0000202782002061E2003FC074001F00380A3
:10C20000000103C000011C600001E02000010020CB
:10C21000000100400000018000000000000000005C
:10C22000000000000000000000000000000000000E
:10C2300000000000000000000000000000000000FE
:10C2400000000000000000000000000000000000EE
:10C2500000000000000000000000000000000000DE
:10C26000002000001C6000001C4000001F80000037
:10C270000F000000000000000000000000000000AF
:10C2800000000000000000000000000000000000AE
:10C29000000000000000000000000000000000009E
:10C2A000000000000000000000000000000000008E
:10C2B000000000000000000000000000000000007E
:10C2C000000000000000000000000000000000006E
:10C2D000000000000000000000000000000000005E
:10C2E000000000000000000000000000000000004E
:10C2F00000000000000000000007F800003FFF0001
:10C30000007807C001C000E003000030040000080E
:10C3100008000004100000020000000000000000FF
:10C32000000000000000000000000000000000000D
:10C3300000000000000000000000000000000000FD
:10C3400000000000000000000000000000000000ED
:10C3500000000000000000000000000000000000DD
:10C360001000000208000004040000080300003070
:10C3700001C000E0007807C0003FFF000007F800A0
:10C3800000000000000000000000000000000000AD
:10C39000000000000000000000000000000000009D
:10C3A000000000000000000000000000000000008D
:10C3B000000000000000000000000000000000007D
:10C3C000000000000000000000000000000000006D
:10C3D000000000000000000000000000000000005D
:10C3E00000000000000C1800000E3800000E38009D
:10C3F00000063000000360000061438000FFFF8002
:10C40000006143000003600000063000000E3800A9
:10C41000000E3800000C18000000000000000000B2
:10C42000000000000000000000000000000000000C
:10C4300000000000000000000000000000000000FC
:10C4400000000000000000000000000000000000EC
:10C4500000000000000000000000000000000000DC
:10C46000000000000000800000008000000080004C
:10C47000000080000000800000008000007FFF00BE
:10C4800000008000000080000000800000008000AC
:10C49000000080000000800000000000000000009C
:10C4A000000000000000000000000000000000008C
:10C4B000000000000000000000000000000000007C
:10C4C000000000000000000000000000000000006C
:10C4D000000000000000000000000000000000005C
:10C4E00000000001000000E3000000E2000000FC8A
:10C4F00000000078000000000000000000000000C4
:10C50000000000000000000000000000000000002B
:10C51000000000000000000000000000000000001B
:10C52000000000000000000000000000000000000B
:10C5300000000000000000000000000000000000FB
:10C5400000000000000000000000000000000000EB
:10C5500000000000000000000000000000000000DB
:10C5600000008000000080000000800000008000CB
:10C5700000008000000080000000800000008000BB
:10C5800000008000000080000000800000008000AB
:10C59000000080000000800000000000000000009B
:10C5A000000000000000000000000000000000008B
:10C5B000000000000000000000000000000000007B
:10C5C000000000000000000000000000000000006B
:10C5D000000000000000000000000000000000005B
:10C5E00000000000000000C0000001E0000001E0C9
:10C5F000000000C00000000000000000000000007B
:10C60000000000000000000000000000000000002A
:10C61000000000000000000000000000000000001A
:10C62000000000000000000000000000000000000A
:10C6300000000000000000000000000000000000FA
:10C6400000000000000000000000000000000000EA
:10C6500000000000000000000000000000000000DA
:10C660000000000C00000038000000E00000038023
:10C6700000000E00000038000000E0000003800011
:10C68000000E00000038000000E000000380000001
:10C690000E00000018000000000000000000000074
:10C6A000000000000000000000000000000000008A
:10C6B000000000000000000000000000000000007A
:10C6C000000000000000000000000000000000006A
:10C6D000000000000000000000000000000000005A
:10C6E00000000000000FF800007FFF0000F007804E
:10C6F000018000C003000060020000200200002052
:10C700000200002003000060018000C000E0038000
:10C71000007FFF00000FF800000000000000000094
:10C720000000000000000000000000000000000009
:10C7300000000000000000000000000000000000F9
:10C7400000000000000000000000000000000000E9
:10C7500000000000000000000000000000000000D9
:10C760000000000000000000008000200080002089
:10C77000008000200080006001FFFFE003FFFFE079
:10C7800000000060000000200000002000000020E9
:10C790000000000000000000000000000000000099
:10C7A0000000000000000000000000000000000089
:10C7B0000000000000000000000000000000000079
:10C7C0000000000000000000000000000000000069
:10C7D0000000000000000000000000000000000059
:10C7E00000000000007800E0009801600100026095
:10C7F0000200046002000860020010600200206075
:10C8000002004060030080600183006001FE00E0E0
:10C81000007C078000000000000000000000000015
:10C820000000000000000000000000000000000008
:10C8300000000000000000000000000000000000F8
:10C8400000000000000000000000000000000000E8
:10C8500000000000000000000000000000000000D8
:10C860000000000000F0078001F007C00100004058
:10C87000020000200201002002010020020100202D
:10C88000030380200186804001FCC0C000787F80C7
:10C8900000001E000000000000000000000000007A
:10C8A0000000000000000000000000000000000088
:10C8B0000000000000000000000000000000000078
:10C8C0000000000000000000000000000000000068
:10C8D0000000000000000000000000000000000058
:10C8E0000000080000003800000048000001880037
:10C8F00000060800000C0810003008100040081066
:10C9000001FFFFF003FFFFF003FFFFF0000008103E
:10C9100000000810000008100000000000000000E7
:10C920000000000000000000000000000000000007
:10C9300000000000000000000000000000000000F7
:10C9400000000000000000000000000000000000E7
:10C9500000000000000000000000000000000000D7
:10C960000000000000000780001F864003E1002057
:10C97000030200200304002003040020030400201D
:10C980000304002003060040030301C00301FF80ED
:10C9900003007E0000000000000000000000000016
:10C9A0000000000000000000000000000000000087
:10C9B0000000000000000000000000000000000077
:10C9C0000000000000000000000000000000000067
:10C9D0000000000000000000000000000000000057
:10C9E000000000000007FC00003FFF000070C38053
:10C9F000008180C0010100600302002002020020CB
:10CA000002020020020200200203004001C180C097
:10CA100000C0FF8000007E00000000000000000059
:10CA20000000000000000000000000000000000006
:10CA300000000000000000000000000000000000F6
:10CA400000000000000000000000000000000000E6
:10CA500000000000000000000000000000000000D6
:10CA60000000000000F0000003C000000380000090
:10CA700003000000030007E003003FE00301C000E3
:10CA8000030600000318000003600000038000009C
:10CA90000300000000000000000000000000000093
:10CAA0000000000000000000000000000000000086
:10CAB0000000000000000000000000000000000076
:10CAC0000000000000000000000000000000000066
:10CAD0000000000000000000000000000000000056
:10CAE00000001F0000783F8000FC60C0018EC04045
:10CAF0000307802002030020020180200201802021
:10CB00000201C0200301E040018670C000FC3F80AC
:10CB100000781F000000000000000000000000007E
:10CB20000000000000000000000000000000000005
:10CB300000000000000000000000000000000000F5
:10CB400000000000000000000000000000000000E5
:10CB500000000000000000000000000000000000D5
:10CB6000003F000000FF81C001C0C1C00100602083
:10CB7000020020200200202002002020020020606D
:10CB8000020040C00100C18000C18F00007FFE0094
:10CB9000001FF00000000000000000000000000086
:10CBA0000000000000000000000000000000000085
:10CBB0000000000000000000000000000000000075
:10CBC0000000000000000000000000000000000065
:10CBD0000000000000000000000000000000000055
:10CBE0000000000000000000000000000000000045
:10CBF00000000000000300C0000781E0000781E0A2
:10CC0000000300C000000000000000000000000061
:10CC10000000000000000000000000000000000014
:10CC20000000000000000000000000000000000004
:10CC300000000000000000000000000000000000F4
:10CC400000000000000000000000000000000000E4
:10CC500000000000000000000000000000000000D4
:10CC600000000000000000000000000000000000C4
:10CC700000000000000600660006007800000000CA
:10CC800000000000000000000000000000000000A4
:10CC90000000000000000000000000000000000094
:10CCA0000000000000000000000000000000000084
:10CCB0000000000000000000000000000000000074
:10CCC0000000000000000000000000000000000064
:10CCD0000000000000000000000000000000000054
:10CCE00000000000000080000001C00000036000A0
:10CCF00000063000000C180000180C000030060080
:10CD00000060030000C0018001000040020000201C
:10CD100004000010000000000000000000000000FF
:10CD20000000000000000000000000000000000003
:10CD300000000000000000000000000000000000F3
:10CD400000000000000000000000000000000000E3
:10CD500000000000000000000000000000000000D3
:10CD60000004100000041000000410000004100073
:10CD70000004100000041000000410000004100063
:10CD80000004100000041000000410000004100053
:10CD9000000410000004100000000000000000006B
:10CDA0000000000000000000000000000000000083
:10CDB0000000000000000000000000000000000073
:10CDC0000000000000000000000000000000000063
:10CDD0000000000000000000000000000000000053
:10CDE00000000000040000100200002001000040CC
:10CDF00000C00180006003000030060000180C0035
:10CE0000000C180000063000000360000001C000A4
:10CE10000000800000000000000000000000000092
:10CE20000000000000000000000000000000000002
:10CE300000000000000000000000000000000000F2
:10CE400000000000000000000000000000000000E2
:10CE500000000000000000000000000000000000D2
:10CE6000000000000078000001F800000238000017
:10CE700002000000040000C0040079E0040081E02A
:10CE8000040100C0040300000202000003060000C9
:10CE900001FC000000F8000000000000000000009D
:10CEA0000000000000000000000000000000000082
:10CEB0000000000000000000000000000000000072
:10CEC0000000000000000000000000000000000062
:10CED0000000000000000000000000000000000052
:10CEE000000FF800003FFE000070078000C000C087
:10CEF0000101F8400307FC20021E04200230082034
:10CF000002203020023FFC20013F044001800CC081
:10CF100000E03180001FC20000000000000000009F
:10CF20000000000000000000000000000000000001
:10CF300000000000000000000000000000000000F1
:10CF400000000000000000000000000000000000E1
:10CF500000000000000000000000000000000020B1
:10CF600000000060000003E000003E200003E0201D
:10CF7000003E200003E020000380200007FC20008A
:10CF8000003FE0000003FE2000003FE0000001E061
:10CF90000000002000000020000000000000000051
:10CFA0000000000000000000000000000000000081
:10CFB0000000000000000000000000000000000071
:10CFC0000000000000000000000000000000000061
:10CFD0000000000000000000000000000000000051
:10CFE000020000200200002003FFFFE003FFFFE03B
:10CFF00002010020020100200201002002010020A5
:10D0000002010020030300200186806001FCC0C0F3
:10D0100000F87F8000001F000000000000000000FA
:10D020000000000000000000000000000000000000
:10D0300000000000000000000000000000000000F0
:10D0400000000000000000000000000000000000E0
:10D0500000000000000000000000000000000000D0
:10D060000007F800003FFF000070078000C000C00C
:10D070000100004003000020020000200200002008
:10D08000020000200200002001000040018000C0DA
:10D0900003C0018000300600000000000000000016
:10D0A0000000000000000000000000000000000080
:10D0B0000000000000000000000000000000000070
:10D0C0000000000000000000000000000000000060
:10D0D0000000000000000000000000000000000050
:10D0E000020000200200002003FFFFE003FFFFE03A
:10D0F00002000020020000200200002002000020A8
:10D100000300006001000040018000C000F00780C3
:10D11000007FFE00000FF80000000000000000008B
:10D1200000000000000000000000000000000000FF
:10D1300000000000000000000000000000000000EF
:10D1400000000000000000000000000000000000DF
:10D1500000000000000000000000000000000000CF
:10D16000020000200200002003FFFFE003FFFFE0B9
:10D170000201002002010020020100200201002023
:10D180000201002002038020020FE0200300006063
:10D1900003C000E000600300000000000000000089
:10D1A000000000000000000000000000000000007F
:10D1B000000000000000000000000000000000006F
:10D1C000000000000000000000000000000000005F
:10D1D000000000000000000000000000000000004F
:10D1E000020000200200002003FFFFE003FFFFE039
:10D1F00002010020020100200201000002010000E3
:10D20000020100000201000002038000030FE000A1
:10D210000300000003C000000060000000000000E8
:10D2200000000000000000000000000000000000FE
:10D2300000000000000000000000000000000000EE
:10D2400000000000000000000000000000000000DE
:10D2500000000000000000000000000000000000CE
:10D260000007F800003FFE000070078001C001C009
:10D270000100004003000020020000200200002006
:10D2800002000020010020200100204003C03F8058
:10D2900000303F800000200000002000000000005F
:10D2A000000000000000000000000000000000007E
:10D2B000000000000000000000000000000000006E
:10D2C000000000000000000000000000000000005E
:10D2D000000000000000000000000000020000202C
:10D2E0000200002003FFFFE003FFFFE002008020B8
:10D2F000020080200000800000008000000080000C
:10D30000020080200200802003FFFFE003FFFFE017
:10D3100002000020020000200000000000000000C9
:10D3200000000000000000000000000000000000FD
:10D3300000000000000000000000000000000000ED
:10D3400000000000000000000000000000000000DD
:10D3500000000000000000000000000000000000CD
:10D360000000000000000000020000200200002079
:10D37000020000200200002003FFFFE003FFFFE0A7
:10D380000200002002000020020000200200002015
:10D39000000000000000000000000000000000008D
:10D3A000000000000000000000000000000000007D
:10D3B000000000000000000000000000000000006D
:10D3C000000000000000000000000000000000005D
:10D3D000000000000000000000000000000000004D
:10D3E0000000000E0000000F0000000F0000000110
:10D3F000020000010200000102000003020000061A
:10D4000003FFFFFC03FFFFF8020000000200000022
:10D410000200000002000000000000000000000008
:10D4200000000000000000000000000000000000FC
:10D4300000000000000000000000000000000000EC
:10D4400000000000000000000000000000000000DC
:10D4500000000000000000000000000000000000CC
:10D46000020000200200002003FFFFE003FFFFE0B6
:10D470000200C0200201002000078000000FE00031
:10D480000030F80002603E2003800F20030003E01C
:10D49000020000E002000020000000200000000068
:10D4A000000000000000000000000000000000007C
:10D4B000000000000000000000000000000000006C
:10D4C000000000000000000000000000000000005C
:10D4D000000000000000000000000000000000004C
:10D4E000020000200200002003FFFFE003FFFFE036
:10D4F00002000020020000200000002000000020A8
:10D50000000000200000002000000020000000605B
:10D51000000000E000000300000000000000000028
:10D5200000000000000000000000000000000000FB
:10D5300000000000000000000000000000000000EB
:10D5400000000000000000000000000000000000DB
:10D5500000000000000000000000000002000020A9
:10D560000200002003FFFFE003E0002003FF002093
:10D57000001FF0000001FF8000000FE000001E000F
:10D580000003E000003E002003E0002003FFFFE076
:10D5900003FFFFE002000020020000200000000066
:10D5A000000000000000000000000000000000007B
:10D5B000000000000000000000000000000000006B
:10D5C000000000000000000000000000000000005B
:10D5D0000000000000000000000000000200002029
:10D5E0000200002003FFFFE00380002003F0002082
:10D5F00000FC0000001F00000007C0000001F00058
:10D6000000007C0002001F80020007E003FFFFE033
:10D610000200000002000000000000000000000006
:10D6200000000000000000000000000000000000FA
:10D6300000000000000000000000000000000000EA
:10D6400000000000000000000000000000000000DA
:10D6500000000000000000000000000000000000CA
:10D66000000FF800003FFE0000F00780018000C0BE
:10D670000100004002000020020000200200002003
:10D680000200002001000040018000C000F0038083
:10D69000003FFE00000FF800000000000000000046
:10D6A000000000000000000000000000000000007A
:10D6B000000000000000000000000000000000006A
:10D6C000000000000000000000000000000000005A
:10D6D000000000000000000000000000000000004A
:10D6E000020000200200002003FFFFE003FFFFE034
:10D6F00002008020020080200200800002008000E2
:10D70000020080000200800003018000018300000D
:10D7100000FE0000007C000000000000000000008F
:10D7200000000000000000000000000000000000F9
:10D7300000000000000000000000000000000000E9
:10D7400000000000000000000000000000000000D9
:10D7500000000000000000000000000000000000C9
:10D76000000FF800007FFF0000F00380018001C07F
:10D7700001000640020004200200042002000620EE
:10D78000020003E0010000F80180005C00E0038C6F
:10D79000003FFF0C000FFC1800000000000000001C
:10D7A0000000000000000000000000000000000079
:10D7B0000000000000000000000000000000000069
:10D7C0000000000000000000000000000000000059
:10D7D0000000000000000000000000000000000049
:10D7E000020000200200002003FFFFE003FFFFE033
:10D7F0000201002002010020020180000201E0007D
:10D800000201FC0003033F80018607E001FC00E009
:10D8100000F80020000000200000000000000000D0
:10D8200000000000000000000000000000000000F8
:10D8300000000000000000000000000000000000E8
:10D8400000000000000000000000000000000000D8
:10D8500000000000000000000000000000000000C8
:10D86000000000000078060000FE01E0018600C014
:10D8700003030040020300200201802002018020F7
:10D880000201C0200200C0200100E060018070C0E1
:10D8900003E03F8000001F000000000000000000C7
:10D8A0000000000000000000000000000000000078
:10D8B0000000000000000000000000000000000068
:10D8C0000000000000000000000000000000000058
:10D8D0000000000000000000000000000000000048
:10D8E0000060000003800000030000000200000050
:10D8F000020000200200002003FFFFE003FFFFE022
:10D9000002000020020000200200000002000000CF
:10D910000380000000E000000000000000000000A4
:10D9200000000000000000000000000000000000F7
:10D9300000000000000000000000000000000000E7
:10D9400000000000000000000000000000000000D7
:10D9500000000000000000000000000002000000C5
:10D960000200000003FFFF0003FFFFC002000040B1
:10D9700002000060000000200000002000000020E5
:10D9800000000020020000400200008003FFFF00B2
:10D990000200000002000000000000000000000083
:10D9A0000000000000000000000000000000000077
:10D9B0000000000000000000000000000000000067
:10D9C0000000000000000000000000000000000057
:10D9D0000000000000000000000000000000000047
:10D9E000020000000200000003C0000003FC000071
:10D9F000023FC0000003F80000007F80000007E045
:10DA000000000780000078000203C000023C000014
:10DA100003C000000200000002000000000000003F
:10DA200000000000000000000000000000000000F6
:10DA300000000000000000000000000000000000E6
:10DA400000000000000000000000000000000000D6
:10DA500000000000000000000000000002000000C4
:10DA600003C0000003FF8000023FFE0002007FE0D1
:10DA700000000F000200F00003EF000003FF800031
:10DA8000020FFE0000003FE000001F000207E00060
:10DA900003F8000003000000020000000000000086
:10DAA0000000000000000000000000000000000076
:10DAB0000000000000000000000000000000000066
:10DAC0000000000000000000000000000000000056
:10DAD0000000000000000000000000000000000046
:10DAE0000200002002000020038000E003F0032079
:10DAF00002FC0C20021F30000007C0000007F000ED
:10DB000002187C0002601F20038003E0020000E096
:10DB100002000020000000200000000000000000C3
:10DB200000000000000000000000000000000000F5
:10DB300000000000000000000000000000000000E5
:10DB400000000000000000000000000000000000D5
:10DB500000000000000000000000000000000000C5
:10DB6000020000000300000003C0000003F80000F2
:10DB7000023E0020020FC0200001FFE000007FE015
:10DB800000038020021C00200270000003800000BF
:10DB90000200000002000000000000000000000081
:10DBA0000000000000000000000000000000000075
:10DBB0000000000000000000000000000000000065
:10DBC0000000000000000000000000000000000055
:10DBD0000000000000000000000000000000000045
:10DBE00000000020006000E0038003E003000FA0BD
:10DBF00002003E200200F8200203E020020F8020F5
:10DC0000023E00200278002003E00060038000E074
:10DC100002000300000000000000000000000000FF
:10DC200000000000000000000000000000000000F4
:10DC300000000000000000000000000000000000E4
:10DC400000000000000000000000000000000000D4
:10DC500000000000000000000000000000000000C4
:10DC600000000000000000000000000000000000B4
:10DC7000000000001FFFFFFC100000041000000463
:10DC80001000000410000004100000041000000444
:10DC90001000000400000000000000000000000070
:10DCA0000000000000000000000000000000000074
:10DCB0000000000000000000000000000000000064
:10DCC0000000000000000000000000000000000054
:10DCD0000000000000000000000000000000000044
:10DCE00000000000000000000700000003C000006A
:10DCF00000780000001E00000003C0000000F000DB
:10DD000000001E0000000780000000F00000003C42
:10DD100000000006000000000000000000000000FD
:10DD200000000000000000000000000000000000F3
:10DD300000000000000000000000000000000000E3
:10DD400000000000000000000000000000000000D3
:10DD500000000000000000000000000000000000C3
:10DD60000000000010000004100000041000000477
:10DD70001000000410000004100000041000000453
:10DD80001FFFFFFC0000000000000000000000007A
:10DD90000000000000000000000000000000000083
:10DDA0000000000000000000000000000000000073
:10DDB0000000000000000000000000000000000063
:10DDC0000000000000000000000000000000000053
:10DDD0000000000000000000000000000000000043
:10DDE0000000000000000000000000000200000031
:10DDF00004000000080000001800000010000000EF
:10DE000018000000180000000400000002000000DC
:10DE10000000000000000000000000000000000002
:10DE200000000000000000000000000000000000F2
:10DE300000000000000000000000000000000000E2
:10DE400000000000000000000000000000000000D2
:10DE500000000000000000000000000000000001C1
:10DE600000000001000000010000000100000001AE
:10DE7000000000010000000100000001000000019E
:10DE8000000000010000000100000001000000018E
:10DE9000000000010000000100000001000000007F
:10DEA0000000000000000000000000000000000072
:10DEB0000000000000000000000000000000000062
:10DEC0000000000000000000000000000000000052
:10DED0000000000000000000000000000000000042
:10DEE0000000000000000000100000001000000012
:10DEF00010000000180000000800000004000000EE
:10DF00000000000000000000000000000000000011
:10DF10000000000000000000000000000000000001
:10DF200000000000000000000000000000000000F1
:10DF300000000000000000000000000000000000E1
:10DF400000000000000000000000000000000000D1
:10DF500000000000000000000000000000000000C1
:10DF60000000038000018FC000038C6000061820B1
:10DF70000004102000041020000420200004204091
:10DF8000000620400003FFC00001FFE00000002069
:10DF900000000020000000C00000000000000000A1
:10DFA0000000000000000000000000000000000071
:10DFB0000000000000000000000000000000000061
:10DFC0000000000000000000000000000000000051
:10DFD0000000000000000000000000000000000041
:10DFE000020000000200000003FFFFE007FFFFC087
:10DFF000000180C000020060000200200004002038
:10E00000000400200004002000060040000300C0BF
:10E010000001FF800000FE00000000000000000082
:10E0200000000000000000000000000000000000F0
:10E0300000000000000000000000000000000000E0
:10E0400000000000000000000000000000000000D0
:10E0500000000000000000000000000000000000C0
:10E060000000000000007E000001FF80000381C06E
:10E0700000020040000600200004002000040020F0
:10E0800000040020000600200003C0400001C08002
:10E09000000003000000000000000000000000007D
:10E0A0000000000000000000000000000000000070
:10E0B0000000000000000000000000000000000060
:10E0C0000000000000000000000000000000000050
:10E0D0000000000000000000000000000000000040
:10E0E0000000000000007E000001FF80000380C0EF
:10E0F000000600600004002000040020000400204E
:10E10000020400400202008003FFFFE007FFFFC09F
:10E11000000000400000004000000000000000007F
:10E1200000000000000000000000000000000000EF
:10E1300000000000000000000000000000000000DF
:10E1400000000000000000000000000000000000CF
:10E1500000000000000000000000000000000000BF
:10E160000000000000007E000001FF80000311C0DD
:10E170000002104000041060000410200004102071
:10E180000004102000061020000310400001F0C021
:10E19000000071000000000000000000000000000E
:10E1A000000000000000000000000000000000006F
:10E1B000000000000000000000000000000000005F
:10E1C000000000000000000000000000000000004F
:10E1D000000000000000000000000000000000003F
:10E1E00000000000000400000004002000040020E3
:10E1F00000040020007FFFE001FFFFE00104002099
:10E200000304002002040020020400200204000095
:10E210000200000001C0000001C00000000000007A
:10E2200000000000000000000000000000000000EE
:10E2300000000000000000000000000000000000DE
:10E2400000000000000000000000000000000000CE
:10E2500000000000000000000000000000000000BE
:10E26000000000000000001C0000E33E0003FFC2AD
:10E2700000020CC3000404C1000404C1000404C172
:10E28000000404C100060CC10003F8C30005F062DD
:10E290000006007E0006003C0000000000000000B8
:10E2A000000000000000000000000000000000006E
:10E2B000000000000000000000000000000000005E
:10E2C000000000000000000000000000000000004E
:10E2D000000000000000000000000000000000003E
:10E2E000020000200200002003FFFFE007FFFFE024
:10E2F00000010020000200200006000000040000D1
:10E300000004000000040020000600200003FFE0DD
:10E310000001FFE0000000200000002000000000DD
:10E3200000000000000000000000000000000000ED
:10E3300000000000000000000000000000000000DD
:10E3400000000000000000000000000000000000CD
:10E3500000000000000000000000000000000000BD
:10E360000000000000000000000400200004002065
:10E3700000040020000400200387FFE0038FFFE07B
:10E38000038000200000002000000020000000208A
:10E39000000000000000000000000000000000007D
:10E3A000000000000000000000000000000000006D
:10E3B000000000000000000000000000000000005D
:10E3C000000000000000000000000000000000004D
:10E3D000000000000000000000000000000000003D
:10E3E0000000000000000000000000060000000720
:10E3F0000000000100000001000400010004000111
:10E4000000040003000400060387FFFC038FFFF8ED
:10E410000380000000000000000000000000000079
:10E4200000000000000000000000000000000000EC
:10E4300000000000000000000000000000000000DC
:10E4400000000000000000000000000000000000CC
:10E4500000000000000000000000000000000000BC
:10E46000020000200200002003FFFFE007FFFFE0A2
:10E470000000082000001020000030000000FC0018
:10E4800000058E00000707A0000601E0000400E080
:10E490000004002000000020000000000000000038
:10E4A000000000000000000000000000000000006C
:10E4B000000000000000000000000000000000005C
:10E4C000000000000000000000000000000000004C
:10E4D000000000000000000000000000000000003C
:10E4E00000000000000000000200002002000020E8
:10E4F000020000200200002003FFFFE007FFFFE012
:10E50000000000200000002000000020000000208B
:10E5100000000000000000000000000000000000FB
:10E5200000000000000000000000000000000000EB
:10E5300000000000000000000000000000000000DB
:10E5400000000000000000000000000000000000CB
:10E5500000000000000000000000000000000000BB
:10E56000000400200007FFE0000FFFE00002002091
:10E5700000040000000400200007FFE00003FFE0AB
:10E580000002002000040000000400200007FFE05B
:10E590000003FFE000000020000000000000000079
:10E5A000000000000000000000000000000000006B
:10E5B000000000000000000000000000000000005B
:10E5C000000000000000000000000000000000004B
:10E5D000000000000000000000000000000000003B
:10E5E00000040020000400200007FFE0000FFFE00F
:10E5F00000010020000200200002000000040000D2
:10E600000004000000040020000600200003FFE0DA
:10E610000001FFE0000000200000002000000000DA
:10E6200000000000000000000000000000000000EA
:10E6300000000000000000000000000000000000DA
:10E6400000000000000000000000000000000000CA
:10E6500000000000000000000000000000000000BA
:10E660000000000000007E000000FF80000381C069
:10E6700000020040000600200004002000040020EA
:10E68000000400200006002000020040000381C0BA
:10E690000001FF8000007E0000000000000000007C
:10E6A000000000000000000000000000000000006A
:10E6B000000000000000000000000000000000005A
:10E6C000000000000000000000000000000000004A
:10E6D000000000000000000000000000000000003A
:10E6E00000040001000400010007FFFF000FFFFF0E
:10E6F000000100C1000200410004002000040020CD
:10E70000000400200004002000060040000301C0B7
:10E710000001FF8000007E000000000000000000FB
:10E7200000000000000000000000000000000000E9
:10E7300000000000000000000000000000000000D9
:10E7400000000000000000000000000000000000C9
:10E7500000000000000000000000000000000000B9
:10E760000000000000007E000001FF80000380C068
:10E7700000020060000400200004002000040020CB
:10E780000004002000020041000300C10003FFFF5D
:10E790000007FFFF00000001000000010000000072
:10E7A0000000000000000000000000000000000069
:10E7B0000000000000000000000000000000000059
:10E7C0000000000000000000000000000000000049
:10E7D0000000000000000000000000000000000039
:10E7E0000004002000040020000400200004002099
:10E7F000000FFFE0000FFFE00000C020000100203C
:10E8000000020020000600200004000000040000B8
:10E8100000070000000300000000000000000000EE
:10E8200000000000000000000000000000000000E8
:10E8300000000000000000000000000000000000D8
:10E8400000000000000000000000000000000000C8
:10E8500000000000000000000000000000000000B8
:10E8600000000000000003E00001C0E00003E04001
:10E870000006302000043020000418200004182076
:10E880000004182000040C2000020C60000307C0E4
:10E89000000783800000000000000000000000006E
:10E8A0000000000000000000000000000000000068
:10E8B0000000000000000000000000000000000058
:10E8C0000000000000000000000000000000000048
:10E8D0000000000000000000000000000000000038
:10E8E000000000000004000000040000000400001C
:10E8F000000C0000001FFF8000FFFFC0000400604C
:10E900000004002000040020000400200004004057
:10E910000000018000000000000000000000000076
:10E9200000000000000000000000000000000000E7
:10E9300000000000000000000000000000000000D7
:10E9400000000000000000000000000000000000C7
:10E9500000000000000000000000000000000000B7
:10E9600000040000000400000007FF80000FFFC04B
:10E9700000000060000000200000002000000020D7
:10E980000000002000040040000400800007FFE0B9
:10E99000000FFFC000000040000000400000000029
:10E9A0000000000000000000000000000000000067
:10E9B0000000000000000000000000000000000057
:10E9C0000000000000000000000000000000000047
:10E9D0000000000000000000000000000000000037
:10E9E0000004000000040000000780000007F000A1
:10E9F0000004FE0000041FC0000003E000000380CC
:10EA000000001C00000460000007800000060000F9
:10EA100000040000000000000000000000000000F2
:10EA200000000000000000000000000000000000E6
:10EA300000000000000000000000000000000000D6
:10EA400000000000000000000000000000000000C6
:10EA500000000000000000000000000000040000B2
:10EA6000000600000007C0000007FC0000043F8013
:10EA7000000003E000040F800006F0000007F00033
:10EA80000007FF8000040FE00000038000043C004A
:10EA90000007C000000600000004000000000000A5
:10EAA0000000000000000000000000000000000066
:10EAB0000000000000000000000000000000000056
:10EAC0000000000000000000000000000000000046
:10EAD0000000000000000000000000000000000036
:10EAE000000000200004002000040060000700E097
:10EAF000000783200007E6000004F80000003C0047
:10EB000000045E20000587A0000601E0000400600C
:10EB100000040020000000200000000000000000B1
:10EB200000000000000000000000000000000000E5
:10EB300000000000000000000000000000000000D5
:10EB400000000000000000000000000000000000C5
:10EB500000000000000000000000000000000000B5
:10EB60000004000000040003000700030007E001A8
:10EB70000004F80100041F02000007FC000000E090
:10EB800000000700000438000007C0000006000075
:10EB9000000400000004000000000000000000006D
:10EBA0000000000000000000000000000000000065
:10EBB0000000000000000000000000000000000055
:10EBC0000000000000000000000000000000000045
:10EBD0000000000000000000000000000000000035
:10EBE0000000000000078060000600E0000403E071
:10EBF000000407A000040E2000043C200004702044
:10EC00000005E0200007802000070060000400E00D
:10EC10000000038000000000000000000000000071
:10EC200000000000000000000000000000000000E4
:10EC300000000000000000000000000000000000D4
:10EC400000000000000000000000000000000000C4
:10EC500000000000000000000000000000000000B4
:10EC600000000000000000000000000000000000A4
:10EC70000000000000000000000080000000800094
:10EC80000001400007FE3FF80800000410000002E9
:10EC90001000000200000000000000000000000062
:10ECA0000000000000000000000000000000000064
:10ECB0000000000000000000000000000000000054
:10ECC0000000000000000000000000000000000044
:10ECD0000000000000000000000000000000000034
:10ECE0000000000000000000000000000000000024
:10ECF000000000000000000000000000FFFFFFFF18
:10ED00000000000000000000000000000000000003
:10ED100000000000000000000000000000000000F3
:10ED200000000000000000000000000000000000E3
:10ED300000000000000000000000000000000000D3
:10ED400000000000000000000000000000000000C3
:10ED500000000000000000000000000000000000B3
:10ED60000000000010000002100000020800000473
:10ED700007FE3FF800014000000080000000800016
:10ED80000000000000000000000000000000000083
:10ED90000000000000000000000000000000000073
:10EDA0000000000000000000000000000000000063
:10EDB0000000000000000000000000000000000053
:10EDC0000000000000000000000000000000000043
:10EDD0000000000000000000000000000000000033
:10EDE000180000003000000040000000400000005B
:10EDF000400000002000000030000000080000007B
:10EE000004000000020000000200000002000000F8
:10EE10000C000000180000000000000000000000CE
:10EE200000000000000000000000000000000000E2
:10EE300000000000000000000000000000000000D2
:10EE400000000000000000000000000000000000C2
:10EE500000000000000000000000000030313233EC
:10EE600034353637383941424344454640305800FE
:10EE70003031323334353637383961626364656630
:10EE8000403078000400000800000000000000028C
:10EE90000001000010000000B8EE0008000000248F
:10EEA00030000000D4020008E8EE00083000002422
:10EEB00008190000F0020008000000000000000037
:10EEC0000000000001000000100000000000000031
:10EED0000090D0030090D00301000000000000FF6C
:08EEE000FFFFFFFF000018EF27
:040000050800029954
:00000001FF
