Component: ARM Compiler 5.06 update 7 (build 960) Tool: armlink [4d3601]

==============================================================================

Section Cross References

    startup_stm32h743xx.o(STACK) refers (Special) to heapauxi.o(.text) for __use_two_region_memory
    startup_stm32h743xx.o(HEAP) refers (Special) to heapauxi.o(.text) for __use_two_region_memory
    startup_stm32h743xx.o(RESET) refers (Special) to heapauxi.o(.text) for __use_two_region_memory
    startup_stm32h743xx.o(RESET) refers to startup_stm32h743xx.o(STACK) for __initial_sp
    startup_stm32h743xx.o(RESET) refers to startup_stm32h743xx.o(.text) for Reset_Handler
    startup_stm32h743xx.o(RESET) refers to stm32h7xx_it.o(i.NMI_Handler) for NMI_Handler
    startup_stm32h743xx.o(RESET) refers to stm32h7xx_it.o(i.HardFault_Handler) for HardFault_Handler
    startup_stm32h743xx.o(RESET) refers to stm32h7xx_it.o(i.MemManage_Handler) for MemManage_Handler
    startup_stm32h743xx.o(RESET) refers to stm32h7xx_it.o(i.BusFault_Handler) for BusFault_Handler
    startup_stm32h743xx.o(RESET) refers to stm32h7xx_it.o(i.UsageFault_Handler) for UsageFault_Handler
    startup_stm32h743xx.o(RESET) refers to stm32h7xx_it.o(i.SVC_Handler) for SVC_Handler
    startup_stm32h743xx.o(RESET) refers to stm32h7xx_it.o(i.DebugMon_Handler) for DebugMon_Handler
    startup_stm32h743xx.o(RESET) refers to stm32h7xx_it.o(i.PendSV_Handler) for PendSV_Handler
    startup_stm32h743xx.o(RESET) refers to stm32h7xx_it.o(i.SysTick_Handler) for SysTick_Handler
    startup_stm32h743xx.o(RESET) refers to stm32h7xx_it.o(i.EXTI0_IRQHandler) for EXTI0_IRQHandler
    startup_stm32h743xx.o(RESET) refers to stm32h7xx_it.o(i.I2C2_EV_IRQHandler) for I2C2_EV_IRQHandler
    startup_stm32h743xx.o(RESET) refers to stm32h7xx_it.o(i.I2C2_ER_IRQHandler) for I2C2_ER_IRQHandler
    startup_stm32h743xx.o(RESET) refers to stm32h7xx_it.o(i.USART1_IRQHandler) for USART1_IRQHandler
==============================================================================

Removing Unused input sections from the image.

    Removing main.o(.rev16_text), (4 bytes).
    Removing main.o(.revsh_text), (4 bytes).
    Removing main.o(.rrx_text), (6 bytes).
    Removing gpio.o(.rev16_text), (4 bytes).
    Removing gpio.o(.revsh_text), (4 bytes).
    Removing gpio.o(.rrx_text), (6 bytes).
    Removing fmc.o(.rev16_text), (4 bytes).
    Removing fmc.o(.revsh_text), (4 bytes).
    Removing fmc.o(.rrx_text), (6 bytes).
    Removing fmc.o(i.HAL_FMC_MspDeInit), (112 bytes).
    Removing fmc.o(i.HAL_SDRAM_MspDeInit), (4 bytes).
    Removing fmc.o(i.HAL_SRAM_MspDeInit), (4 bytes).
    Removing i2c.o(.rev16_text), (4 bytes).
    Removing i2c.o(.revsh_text), (4 bytes).
    Removing i2c.o(.rrx_text), (6 bytes).
    Removing i2c.o(i.HAL_I2C_MspDeInit), (68 bytes).
    Removing quadspi.o(.rev16_text), (4 bytes).
    Removing quadspi.o(.revsh_text), (4 bytes).
==============================================================================

Image Symbol Table

    Local Symbols

    Symbol Name                              Value     Ov Type        Size  Object(Section)

    ../Drivers/STM32H7xx_HAL_Driver/Src/stm32h7xx_hal.c 0x00000000   Number         0  stm32h7xx_hal.o ABSOLUTE
    ../Drivers/STM32H7xx_HAL_Driver/Src/stm32h7xx_hal_cortex.c 0x00000000   Number         0  stm32h7xx_hal_cortex.o ABSOLUTE
    ../Drivers/STM32H7xx_HAL_Driver/Src/stm32h7xx_hal_dma.c 0x00000000   Number         0  stm32h7xx_hal_dma.o ABSOLUTE
    ../Drivers/STM32H7xx_HAL_Driver/Src/stm32h7xx_hal_dma_ex.c 0x00000000   Number         0  stm32h7xx_hal_dma_ex.o ABSOLUTE
    ../Drivers/STM32H7xx_HAL_Driver/Src/stm32h7xx_hal_exti.c 0x00000000   Number         0  stm32h7xx_hal_exti.o ABSOLUTE
    ../Drivers/STM32H7xx_HAL_Driver/Src/stm32h7xx_hal_flash.c 0x00000000   Number         0  stm32h7xx_hal_flash.o ABSOLUTE
    ../Drivers/STM32H7xx_HAL_Driver/Src/stm32h7xx_hal_flash_ex.c 0x00000000   Number         0  stm32h7xx_hal_flash_ex.o ABSOLUTE
    ../Drivers/STM32H7xx_HAL_Driver/Src/stm32h7xx_hal_gpio.c 0x00000000   Number         0  stm32h7xx_hal_gpio.o ABSOLUTE
    ../Drivers/STM32H7xx_HAL_Driver/Src/stm32h7xx_hal_hsem.c 0x00000000   Number         0  stm32h7xx_hal_hsem.o ABSOLUTE
    ../Drivers/STM32H7xx_HAL_Driver/Src/stm32h7xx_hal_i2c.c 0x00000000   Number         0  stm32h7xx_hal_i2c.o ABSOLUTE
    ../Drivers/STM32H7xx_HAL_Driver/Src/stm32h7xx_hal_i2c_ex.c 0x00000000   Number         0  stm32h7xx_hal_i2c_ex.o ABSOLUTE
    ../Drivers/STM32H7xx_HAL_Driver/Src/stm32h7xx_hal_mdma.c 0x00000000   Number         0  stm32h7xx_hal_mdma.o ABSOLUTE
    ../Drivers/STM32H7xx_HAL_Driver/Src/stm32h7xx_hal_pwr.c 0x00000000   Number         0  stm32h7xx_hal_pwr.o ABSOLUTE
    ../Drivers/STM32H7xx_HAL_Driver/Src/stm32h7xx_hal_pwr_ex.c 0x00000000   Number         0  stm32h7xx_hal_pwr_ex.o ABSOLUTE
    ../Drivers/STM32H7xx_HAL_Driver/Src/stm32h7xx_hal_qspi.c 0x00000000   Number         0  stm32h7xx_hal_qspi.o ABSOLUTE
    ../Drivers/STM32H7xx_HAL_Driver/Src/stm32h7xx_hal_rcc.c 0x00000000   Number         0  stm32h7xx_hal_rcc.o ABSOLUTE
    ../Drivers/STM32H7xx_HAL_Driver/Src/stm32h7xx_hal_rcc_ex.c 0x00000000   Number         0  stm32h7xx_hal_rcc_ex.o ABSOLUTE
    ../Drivers/STM32H7xx_HAL_Driver/Src/stm32h7xx_hal_sd.c 0x00000000   Number         0  stm32h7xx_hal_sd.o ABSOLUTE
    ../Drivers/STM32H7xx_HAL_Driver/Src/stm32h7xx_hal_sd_ex.c 0x00000000   Number         0  stm32h7xx_hal_sd_ex.o ABSOLUTE
    ../Drivers/STM32H7xx_HAL_Driver/Src/stm32h7xx_hal_sdram.c 0x00000000   Number         0  stm32h7xx_hal_sdram.o ABSOLUTE
    ../Drivers/STM32H7xx_HAL_Driver/Src/stm32h7xx_hal_sram.c 0x00000000   Number         0  stm32h7xx_hal_sram.o ABSOLUTE
    ../Drivers/STM32H7xx_HAL_Driver/Src/stm32h7xx_hal_tim.c 0x00000000   Number         0  stm32h7xx_hal_tim.o ABSOLUTE
    ../Drivers/STM32H7xx_HAL_Driver/Src/stm32h7xx_hal_tim_ex.c 0x00000000   Number         0  stm32h7xx_hal_tim_ex.o ABSOLUTE
    ../Drivers/STM32H7xx_HAL_Driver/Src/stm32h7xx_hal_uart.c 0x00000000   Number         0  stm32h7xx_hal_uart.o ABSOLUTE
    ../Drivers/STM32H7xx_HAL_Driver/Src/stm32h7xx_hal_uart_ex.c 0x00000000   Number         0  stm32h7xx_hal_uart_ex.o ABSOLUTE
    ../Drivers/STM32H7xx_HAL_Driver/Src/stm32h7xx_ll_delayblock.c 0x00000000   Number         0  stm32h7xx_ll_delayblock.o ABSOLUTE
    ../Drivers/STM32H7xx_HAL_Driver/Src/stm32h7xx_ll_fmc.c 0x00000000   Number         0  stm32h7xx_ll_fmc.o ABSOLUTE
    ../Drivers/STM32H7xx_HAL_Driver/Src/stm32h7xx_ll_sdmmc.c 0x00000000   Number         0  stm32h7xx_ll_sdmmc.o ABSOLUTE
    ../Src/fmc.c                             0x00000000   Number         0  fmc.o ABSOLUTE
    ../Src/gpio.c                            0x00000000   Number         0  gpio.o ABSOLUTE
    ../Src/i2c.c                             0x00000000   Number         0  i2c.o ABSOLUTE
    ../Src/main.c                            0x00000000   Number         0  main.o ABSOLUTE
    ../Src/quadspi.c                         0x00000000   Number         0  quadspi.o ABSOLUTE
    ../Src/sdmmc.c                           0x00000000   Number         0  sdmmc.o ABSOLUTE
    ../Src/stm32h7xx_hal_msp.c               0x00000000   Number         0  stm32h7xx_hal_msp.o ABSOLUTE
    ../Src/stm32h7xx_hal_timebase_tim.c      0x00000000   Number         0  stm32h7xx_hal_timebase_tim.o ABSOLUTE
    ../Src/stm32h7xx_it.c                    0x00000000   Number         0  stm32h7xx_it.o ABSOLUTE
    ../Src/system_stm32h7xx.c                0x00000000   Number         0  system_stm32h7xx.o ABSOLUTE
    ../Src/usart.c                           0x00000000   Number         0  usart.o ABSOLUTE
    ../clib/angel/boardlib.s                 0x00000000   Number         0  boardshut.o ABSOLUTE
    ../clib/angel/boardlib.s                 0x00000000   Number         0  boardinit1.o ABSOLUTE
    ../clib/angel/boardlib.s                 0x00000000   Number         0  boardinit3.o ABSOLUTE
    ../clib/angel/boardlib.s                 0x00000000   Number         0  boardinit2.o ABSOLUTE
    ../clib/angel/handlers.s                 0x00000000   Number         0  __scatter_zi.o ABSOLUTE
    ../clib/angel/handlers.s                 0x00000000   Number         0  __scatter_copy.o ABSOLUTE
    ../clib/angel/kernel.s                   0x00000000   Number         0  __rtentry2.o ABSOLUTE
    ../clib/angel/kernel.s                   0x00000000   Number         0  __rtentry4.o ABSOLUTE
    ../clib/angel/kernel.s                   0x00000000   Number         0  rtexit2.o ABSOLUTE
    ../clib/angel/kernel.s                   0x00000000   Number         0  rtexit.o ABSOLUTE
    ../clib/angel/kernel.s                   0x00000000   Number         0  __rtentry.o ABSOLUTE
    ../clib/angel/rt.s                       0x00000000   Number         0  rt_raise.o ABSOLUTE
    ../clib/angel/rt.s                       0x00000000   Number         0  rt_div0.o ABSOLUTE
    ../clib/angel/rt.s                       0x00000000   Number         0  aeabi_ldiv0_sigfpe.o ABSOLUTE
    ../clib/angel/rt.s                       0x00000000   Number         0  aeabi_ldiv0.o ABSOLUTE
    ../clib/angel/scatter.s                  0x00000000   Number         0  __scatter.o ABSOLUTE
    ../clib/angel/startup.s                  0x00000000   Number         0  __main.o ABSOLUTE
    ../clib/angel/sys.s                      0x00000000   Number         0  sys_stackheap_outer.o ABSOLUTE
    ../clib/angel/sys.s                      0x00000000   Number         0  use_no_semi_2.o ABSOLUTE
    ../clib/angel/sys.s                      0x00000000   Number         0  libspace.o ABSOLUTE
    ../clib/angel/sys.s                      0x00000000   Number         0  indicate_semi.o ABSOLUTE
    ../clib/angel/sys.s                      0x00000000   Number         0  use_no_semi.o ABSOLUTE
    ../clib/angel/sysapp.c                   0x00000000   Number         0  sys_wrch.o ABSOLUTE
    ../clib/angel/sysapp.c                   0x00000000   Number         0  sys_command.o ABSOLUTE
    ../clib/armsys.c                         0x00000000   Number         0  argv_veneer.o ABSOLUTE
    ../clib/armsys.c                         0x00000000   Number         0  _get_argv_nomalloc.o ABSOLUTE
    ../clib/armsys.c                         0x00000000   Number         0  no_argv.o ABSOLUTE
    ../clib/armsys.c                         0x00000000   Number         0  argv_veneer.o ABSOLUTE
    ../clib/heapalloc.c                      0x00000000   Number         0  hrguard.o ABSOLUTE
    ../clib/heapaux.c                        0x00000000   Number         0  heapauxi.o ABSOLUTE
    ../clib/libinit.s                        0x00000000   Number         0  libshutdown.o ABSOLUTE
    ../clib/libinit.s                        0x00000000   Number         0  libinit2.o ABSOLUTE
    ../clib/libinit.s                        0x00000000   Number         0  libinit.o ABSOLUTE
    ../clib/libinit.s                        0x00000000   Number         0  libshutdown2.o ABSOLUTE
    ../clib/longlong.s                       0x00000000   Number         0  lludivv7m.o ABSOLUTE
    ../clib/memcpset.s                       0x00000000   Number         0  rt_memclr_w.o ABSOLUTE
    ../clib/misc.s                           0x00000000   Number         0  printf_stubs.o ABSOLUTE
    ../clib/printf.c                         0x00000000   Number         0  __printf_flags_ss_wp.o ABSOLUTE
    ../clib/printf.c                         0x00000000   Number         0  _printf_dec.o ABSOLUTE
    ../clib/printf.c                         0x00000000   Number         0  __printf_wp.o ABSOLUTE
    ../clib/printf.c                         0x00000000   Number         0  _printf_char.o ABSOLUTE
    ../clib/printf.c                         0x00000000   Number         0  __printf_nopercent.o ABSOLUTE
    ../clib/printf.c                         0x00000000   Number         0  __printf_flags_ss.o ABSOLUTE
    ../clib/printf.c                         0x00000000   Number         0  __printf_ss.o ABSOLUTE
    ../clib/printf.c                         0x00000000   Number         0  __printf_flags.o ABSOLUTE
    ../clib/printf.c                         0x00000000   Number         0  noretval__2sprintf.o ABSOLUTE
    ../clib/printf.c                         0x00000000   Number         0  noretval__2printf.o ABSOLUTE
    ../clib/printf.c                         0x00000000   Number         0  _printf_char_file.o ABSOLUTE
    ../clib/printf.c                         0x00000000   Number         0  __printf_ss_wp.o ABSOLUTE
    ../clib/printf.c                         0x00000000   Number         0  __printf_flags_wp.o ABSOLUTE
    ../clib/printf.c                         0x00000000   Number         0  _printf_str.o ABSOLUTE
    ../clib/printf.c                         0x00000000   Number         0  _printf_pad.o ABSOLUTE
    ../clib/printf.c                         0x00000000   Number         0  __printf.o ABSOLUTE
    ../clib/printf.c                         0x00000000   Number         0  _printf_intcommon.o ABSOLUTE
    ../clib/printf.c                         0x00000000   Number         0  __2sprintf.o ABSOLUTE
    ../clib/printf.c                         0x00000000   Number         0  __2printf.o ABSOLUTE
    ../clib/printf.c                         0x00000000   Number         0  _printf_char_common.o ABSOLUTE
    ../clib/printf.c                         0x00000000   Number         0  _printf_hex_ll.o ABSOLUTE
    ../clib/printf.c                         0x00000000   Number         0  _printf_hex_int.o ABSOLUTE
    ../clib/printf.c                         0x00000000   Number         0  _printf_hex_int_ll_ptr.o ABSOLUTE
    ../clib/printf.c                         0x00000000   Number         0  _printf_hex_int_ll.o ABSOLUTE
    ../clib/printf.c                         0x00000000   Number         0  _printf_hex_ll_ptr.o ABSOLUTE
    ../clib/printf.c                         0x00000000   Number         0  _sputc.o ABSOLUTE
    ../clib/printf.c                         0x00000000   Number         0  _printf_hex_int_ptr.o ABSOLUTE
    ../clib/printf.c                         0x00000000   Number         0  _printf_hex_ptr.o ABSOLUTE
    ../clib/printf_percent.s                 0x00000000   Number         0  _printf_d.o ABSOLUTE
    ../clib/printf_percent.s                 0x00000000   Number         0  _printf_x.o ABSOLUTE
    ../clib/printf_percent.s                 0x00000000   Number         0  _printf_s.o ABSOLUTE
    ../clib/printf_percent.s                 0x00000000   Number         0  _printf_percent.o ABSOLUTE
    ../clib/printf_percent.s                 0x00000000   Number         0  _printf_percent_end.o ABSOLUTE
    ../clib/signal.c                         0x00000000   Number         0  defsig_fpe_inner.o ABSOLUTE
    ../clib/signal.c                         0x00000000   Number         0  __raise.o ABSOLUTE
    ../clib/signal.c                         0x00000000   Number         0  defsig_general.o ABSOLUTE
    ../clib/signal.c                         0x00000000   Number         0  defsig_fpe_outer.o ABSOLUTE
    ../clib/signal.c                         0x00000000   Number         0  defsig_pvfn_inner.o ABSOLUTE
    ../clib/signal.c                         0x00000000   Number         0  defsig_exit.o ABSOLUTE
    ../clib/signal.c                         0x00000000   Number         0  defsig_other.o ABSOLUTE
    ../clib/signal.c                         0x00000000   Number         0  defsig_segv_inner.o ABSOLUTE
    ../clib/signal.c                         0x00000000   Number         0  defsig_cppl_inner.o ABSOLUTE
    ../clib/signal.c                         0x00000000   Number         0  defsig_fpe_formal.o ABSOLUTE
    ../clib/signal.c                         0x00000000   Number         0  defsig_rtmem_formal.o ABSOLUTE
    ../clib/signal.c                         0x00000000   Number         0  defsig_rtmem_outer.o ABSOLUTE
    ../clib/signal.c                         0x00000000   Number         0  defsig_rtmem_inner.o ABSOLUTE
    ../clib/signal.c                         0x00000000   Number         0  defsig_rtred_inner.o ABSOLUTE
    ../clib/signal.c                         0x00000000   Number         0  defsig_abrt_inner.o ABSOLUTE
    ../clib/signal.c                         0x00000000   Number         0  defsig_stak_inner.o ABSOLUTE
    ../clib/signal.s                         0x00000000   Number         0  defsig.o ABSOLUTE
    ../clib/stdio.c                          0x00000000   Number         0  ferror.o ABSOLUTE
    ../clib/stdio.c                          0x00000000   Number         0  ferror_locked.o ABSOLUTE
    ../clib/stdlib.c                         0x00000000   Number         0  exit.o ABSOLUTE
    ../fplib/fpinit.s                        0x00000000   Number         0  fpinit.o ABSOLUTE
    ..\BSP\SDRAM\sdram.c                     0x00000000   Number         0  sdram.o ABSOLUTE
    ..\BSP\SYS\sys.c                         0x00000000   Number         0  sys.o ABSOLUTE
    ..\BSP\TFTLCD\tftlcd.c                   0x00000000   Number         0  tftlcd.o ABSOLUTE
    ..\BSP\W25QXX\w25q256.c                  0x00000000   Number         0  w25q256.o ABSOLUTE
    ..\Drivers\STM32H7xx_HAL_Driver\Src\stm32h7xx_hal.c 0x00000000   Number         0  stm32h7xx_hal.o ABSOLUTE
    ..\Drivers\STM32H7xx_HAL_Driver\Src\stm32h7xx_hal_cortex.c 0x00000000   Number         0  stm32h7xx_hal_cortex.o ABSOLUTE
    ..\Drivers\STM32H7xx_HAL_Driver\Src\stm32h7xx_hal_dma.c 0x00000000   Number         0  stm32h7xx_hal_dma.o ABSOLUTE
    ..\Drivers\STM32H7xx_HAL_Driver\Src\stm32h7xx_hal_dma_ex.c 0x00000000   Number         0  stm32h7xx_hal_dma_ex.o ABSOLUTE
    ..\Drivers\STM32H7xx_HAL_Driver\Src\stm32h7xx_hal_exti.c 0x00000000   Number         0  stm32h7xx_hal_exti.o ABSOLUTE
    ..\Drivers\STM32H7xx_HAL_Driver\Src\stm32h7xx_hal_flash.c 0x00000000   Number         0  stm32h7xx_hal_flash.o ABSOLUTE
    ..\Drivers\STM32H7xx_HAL_Driver\Src\stm32h7xx_hal_flash_ex.c 0x00000000   Number         0  stm32h7xx_hal_flash_ex.o ABSOLUTE
    ..\Drivers\STM32H7xx_HAL_Driver\Src\stm32h7xx_hal_gpio.c 0x00000000   Number         0  stm32h7xx_hal_gpio.o ABSOLUTE
    ..\Drivers\STM32H7xx_HAL_Driver\Src\stm32h7xx_hal_hsem.c 0x00000000   Number         0  stm32h7xx_hal_hsem.o ABSOLUTE
    ..\Drivers\STM32H7xx_HAL_Driver\Src\stm32h7xx_hal_i2c.c 0x00000000   Number         0  stm32h7xx_hal_i2c.o ABSOLUTE
    ..\Drivers\STM32H7xx_HAL_Driver\Src\stm32h7xx_hal_i2c_ex.c 0x00000000   Number         0  stm32h7xx_hal_i2c_ex.o ABSOLUTE
    ..\Drivers\STM32H7xx_HAL_Driver\Src\stm32h7xx_hal_mdma.c 0x00000000   Number         0  stm32h7xx_hal_mdma.o ABSOLUTE
    ..\Drivers\STM32H7xx_HAL_Driver\Src\stm32h7xx_hal_pwr.c 0x00000000   Number         0  stm32h7xx_hal_pwr.o ABSOLUTE
    ..\Drivers\STM32H7xx_HAL_Driver\Src\stm32h7xx_hal_pwr_ex.c 0x00000000   Number         0  stm32h7xx_hal_pwr_ex.o ABSOLUTE
    ..\Drivers\STM32H7xx_HAL_Driver\Src\stm32h7xx_hal_qspi.c 0x00000000   Number         0  stm32h7xx_hal_qspi.o ABSOLUTE
    ..\Drivers\STM32H7xx_HAL_Driver\Src\stm32h7xx_hal_rcc.c 0x00000000   Number         0  stm32h7xx_hal_rcc.o ABSOLUTE
    ..\Drivers\STM32H7xx_HAL_Driver\Src\stm32h7xx_hal_rcc_ex.c 0x00000000   Number         0  stm32h7xx_hal_rcc_ex.o ABSOLUTE
    ..\Drivers\STM32H7xx_HAL_Driver\Src\stm32h7xx_hal_sd.c 0x00000000   Number         0  stm32h7xx_hal_sd.o ABSOLUTE
    ..\Drivers\STM32H7xx_HAL_Driver\Src\stm32h7xx_hal_sd_ex.c 0x00000000   Number         0  stm32h7xx_hal_sd_ex.o ABSOLUTE
    ..\Drivers\STM32H7xx_HAL_Driver\Src\stm32h7xx_hal_sdram.c 0x00000000   Number         0  stm32h7xx_hal_sdram.o ABSOLUTE
    ..\Drivers\STM32H7xx_HAL_Driver\Src\stm32h7xx_hal_sram.c 0x00000000   Number         0  stm32h7xx_hal_sram.o ABSOLUTE
    ..\Drivers\STM32H7xx_HAL_Driver\Src\stm32h7xx_hal_tim.c 0x00000000   Number         0  stm32h7xx_hal_tim.o ABSOLUTE
    ..\Drivers\STM32H7xx_HAL_Driver\Src\stm32h7xx_hal_tim_ex.c 0x00000000   Number         0  stm32h7xx_hal_tim_ex.o ABSOLUTE
    ..\Drivers\STM32H7xx_HAL_Driver\Src\stm32h7xx_hal_uart.c 0x00000000   Number         0  stm32h7xx_hal_uart.o ABSOLUTE
    ..\Drivers\STM32H7xx_HAL_Driver\Src\stm32h7xx_hal_uart_ex.c 0x00000000   Number         0  stm32h7xx_hal_uart_ex.o ABSOLUTE
    ..\Drivers\STM32H7xx_HAL_Driver\Src\stm32h7xx_ll_delayblock.c 0x00000000   Number         0  stm32h7xx_ll_delayblock.o ABSOLUTE
    ..\Drivers\STM32H7xx_HAL_Driver\Src\stm32h7xx_ll_fmc.c 0x00000000   Number         0  stm32h7xx_ll_fmc.o ABSOLUTE
    ..\Drivers\STM32H7xx_HAL_Driver\Src\stm32h7xx_ll_sdmmc.c 0x00000000   Number         0  stm32h7xx_ll_sdmmc.o ABSOLUTE
    ..\Src\fmc.c                             0x00000000   Number         0  fmc.o ABSOLUTE
    ..\Src\gpio.c                            0x00000000   Number         0  gpio.o ABSOLUTE
    ..\Src\i2c.c                             0x00000000   Number         0  i2c.o ABSOLUTE
    ..\Src\main.c                            0x00000000   Number         0  main.o ABSOLUTE
    ..\Src\quadspi.c                         0x00000000   Number         0  quadspi.o ABSOLUTE
    ..\Src\sdmmc.c                           0x00000000   Number         0  sdmmc.o ABSOLUTE
    ..\Src\stm32h7xx_hal_msp.c               0x00000000   Number         0  stm32h7xx_hal_msp.o ABSOLUTE
    ..\Src\stm32h7xx_hal_timebase_tim.c      0x00000000   Number         0  stm32h7xx_hal_timebase_tim.o ABSOLUTE
    ..\Src\stm32h7xx_it.c                    0x00000000   Number         0  stm32h7xx_it.o ABSOLUTE
    ..\Src\system_stm32h7xx.c                0x00000000   Number         0  system_stm32h7xx.o ABSOLUTE
    ..\Src\usart.c                           0x00000000   Number         0  usart.o ABSOLUTE
    ..\\BSP\\SDRAM\\sdram.c                  0x00000000   Number         0  sdram.o ABSOLUTE
    ..\\BSP\\SYS\\sys.c                      0x00000000   Number         0  sys.o ABSOLUTE
    ..\\BSP\\TFTLCD\\tftlcd.c                0x00000000   Number         0  tftlcd.o ABSOLUTE
    ..\\BSP\\W25QXX\\w25q256.c               0x00000000   Number         0  w25q256.o ABSOLUTE
    dc.s                                     0x00000000   Number         0  dc.o ABSOLUTE
    startup_stm32h743xx.s                    0x00000000   Number         0  startup_stm32h743xx.o ABSOLUTE
    RESET                                    0x08000000   Section      664  startup_stm32h743xx.o(RESET)
    !!!main                                  0x08000298   Section        8  __main.o(!!!main)
    !!!scatter                               0x080002a0   Section       52  __scatter.o(!!!scatter)
    !!handler_copy                           0x080002d4   Section       26  __scatter_copy.o(!!handler_copy)
    !!handler_zi                             0x080002f0   Section       28  __scatter_zi.o(!!handler_zi)
    .ARM.Collect$$_printf_percent$$00000000  0x0800030c   Section        0  _printf_percent.o(.ARM.Collect$$_printf_percent$$00000000)
    .ARM.Collect$$_printf_percent$$00000009  0x0800030c   Section        6  _printf_d.o(.ARM.Collect$$_printf_percent$$00000009)
    .ARM.Collect$$_printf_percent$$0000000C  0x08000312   Section        6  _printf_x.o(.ARM.Collect$$_printf_percent$$0000000C)
    .ARM.Collect$$_printf_percent$$00000014  0x08000318   Section        6  _printf_s.o(.ARM.Collect$$_printf_percent$$00000014)
    .ARM.Collect$$_printf_percent$$00000017  0x0800031e   Section        4  _printf_percent_end.o(.ARM.Collect$$_printf_percent$$00000017)
    .ARM.Collect$$libinit$$00000000          0x08000322   Section        2  libinit.o(.ARM.Collect$$libinit$$00000000)
    .ARM.Collect$$libinit$$00000001          0x08000324   Section        4  libinit2.o(.ARM.Collect$$libinit$$00000001)
    .ARM.Collect$$libinit$$00000004          0x08000328   Section        0  libinit2.o(.ARM.Collect$$libinit$$00000004)
    .ARM.Collect$$libinit$$0000000A          0x08000328   Section        0  libinit2.o(.ARM.Collect$$libinit$$0000000A)
    .ARM.Collect$$libinit$$0000000C          0x08000328   Section        0  libinit2.o(.ARM.Collect$$libinit$$0000000C)
    .ARM.Collect$$libinit$$0000000E          0x08000328   Section        0  libinit2.o(.ARM.Collect$$libinit$$0000000E)
    .ARM.Collect$$libinit$$00000011          0x08000328   Section        0  libinit2.o(.ARM.Collect$$libinit$$00000011)
    .ARM.Collect$$libinit$$00000013          0x08000328   Section        0  libinit2.o(.ARM.Collect$$libinit$$00000013)
    .ARM.Collect$$libinit$$00000015          0x08000328   Section        0  libinit2.o(.ARM.Collect$$libinit$$00000015)
    .ARM.Collect$$libinit$$00000017          0x08000328   Section        0  libinit2.o(.ARM.Collect$$libinit$$00000017)
    .ARM.Collect$$libinit$$00000019          0x08000328   Section        0  libinit2.o(.ARM.Collect$$libinit$$00000019)
    .ARM.Collect$$libinit$$0000001B          0x08000328   Section        0  libinit2.o(.ARM.Collect$$libinit$$0000001B)
    .ARM.Collect$$libinit$$0000001D          0x08000328   Section        0  libinit2.o(.ARM.Collect$$libinit$$0000001D)
    .ARM.Collect$$libinit$$0000001F          0x08000328   Section        0  libinit2.o(.ARM.Collect$$libinit$$0000001F)
    .ARM.Collect$$libinit$$00000021          0x08000328   Section        0  libinit2.o(.ARM.Collect$$libinit$$00000021)
    .ARM.Collect$$libinit$$00000023          0x08000328   Section        0  libinit2.o(.ARM.Collect$$libinit$$00000023)
    .ARM.Collect$$libinit$$00000025          0x08000328   Section        0  libinit2.o(.ARM.Collect$$libinit$$00000025)
    .ARM.Collect$$libinit$$0000002C          0x08000328   Section        0  libinit2.o(.ARM.Collect$$libinit$$0000002C)
    .ARM.Collect$$libinit$$0000002E          0x08000328   Section        0  libinit2.o(.ARM.Collect$$libinit$$0000002E)
    .ARM.Collect$$libinit$$00000030          0x08000328   Section        0  libinit2.o(.ARM.Collect$$libinit$$00000030)
    .ARM.Collect$$libinit$$00000032          0x08000328   Section        0  libinit2.o(.ARM.Collect$$libinit$$00000032)
    .ARM.Collect$$libinit$$00000033          0x08000328   Section        2  libinit2.o(.ARM.Collect$$libinit$$00000033)
    .ARM.Collect$$libshutdown$$00000000      0x0800032a   Section        2  libshutdown.o(.ARM.Collect$$libshutdown$$00000000)
    .ARM.Collect$$libshutdown$$00000002      0x0800032c   Section        0  libshutdown2.o(.ARM.Collect$$libshutdown$$00000002)
    .ARM.Collect$$libshutdown$$00000004      0x0800032c   Section        0  libshutdown2.o(.ARM.Collect$$libshutdown$$00000004)
    .ARM.Collect$$libshutdown$$00000006      0x0800032c   Section        0  libshutdown2.o(.ARM.Collect$$libshutdown$$00000006)
    .ARM.Collect$$libshutdown$$00000009      0x0800032c   Section        0  libshutdown2.o(.ARM.Collect$$libshutdown$$00000009)
    .ARM.Collect$$libshutdown$$0000000C      0x0800032c   Section        0  libshutdown2.o(.ARM.Collect$$libshutdown$$0000000C)
    .ARM.Collect$$libshutdown$$0000000E      0x0800032c   Section        0  libshutdown2.o(.ARM.Collect$$libshutdown$$0000000E)
    .ARM.Collect$$libshutdown$$00000011      0x0800032c   Section        0  libshutdown2.o(.ARM.Collect$$libshutdown$$00000011)
    .ARM.Collect$$libshutdown$$00000012      0x0800032c   Section        2  libshutdown2.o(.ARM.Collect$$libshutdown$$00000012)
    .ARM.Collect$$rtentry$$00000000          0x0800032e   Section        0  __rtentry.o(.ARM.Collect$$rtentry$$00000000)
    .ARM.Collect$$rtentry$$00000002          0x0800032e   Section        0  __rtentry2.o(.ARM.Collect$$rtentry$$00000002)
    .ARM.Collect$$rtentry$$00000004          0x0800032e   Section        6  __rtentry4.o(.ARM.Collect$$rtentry$$00000004)
    .ARM.Collect$$rtentry$$00000009          0x08000334   Section        0  __rtentry2.o(.ARM.Collect$$rtentry$$00000009)
    .ARM.Collect$$rtentry$$0000000A          0x08000334   Section        4  __rtentry2.o(.ARM.Collect$$rtentry$$0000000A)
    .ARM.Collect$$rtentry$$0000000C          0x08000338   Section        0  __rtentry2.o(.ARM.Collect$$rtentry$$0000000C)
    .ARM.Collect$$rtentry$$0000000D          0x08000338   Section        8  __rtentry2.o(.ARM.Collect$$rtentry$$0000000D)
    .ARM.Collect$$rtexit$$00000000           0x08000340   Section        2  rtexit.o(.ARM.Collect$$rtexit$$00000000)
    .ARM.Collect$$rtexit$$00000002           0x08000342   Section        0  rtexit2.o(.ARM.Collect$$rtexit$$00000002)
    .ARM.Collect$$rtexit$$00000003           0x08000342   Section        4  rtexit2.o(.ARM.Collect$$rtexit$$00000003)
    .ARM.Collect$$rtexit$$00000004           0x08000346   Section        6  rtexit2.o(.ARM.Collect$$rtexit$$00000004)
    .text                                    0x0800034c   Section       64  startup_stm32h743xx.o(.text)
    $v0                                      0x0800034c   Number         0  startup_stm32h743xx.o(.text)
    .text                                    0x0800038c   Section        2  use_no_semi_2.o(.text)
    .text                                    0x0800038e   Section      238  lludivv7m.o(.text)
    .text                                    0x0800047c   Section        0  noretval__2printf.o(.text)
    .text                                    0x08000494   Section        0  noretval__2sprintf.o(.text)
    .text                                    0x080004bc   Section        0  _printf_pad.o(.text)
    .text                                    0x0800050a   Section        0  _printf_str.o(.text)
    .text                                    0x0800055c   Section        0  _printf_dec.o(.text)
    .text                                    0x080005d4   Section        0  _printf_hex_int.o(.text)
    .text                                    0x0800062c   Section        0  __printf_flags_wp.o(.text)
    .text                                    0x08000764   Section       78  rt_memclr_w.o(.text)
    .text                                    0x080007b2   Section        0  heapauxi.o(.text)
    .text                                    0x080007b8   Section        2  use_no_semi.o(.text)
    .text                                    0x080007ba   Section        0  _printf_intcommon.o(.text)
    .text                                    0x0800086c   Section        0  _printf_char_common.o(.text)
    _printf_input_char                       0x0800086d   Thumb Code    10  _printf_char_common.o(.text)
    .text                                    0x0800089c   Section        0  _sputc.o(.text)
    .text                                    0x080008a6   Section        0  _printf_char.o(.text)
    .text                                    0x080008d4   Section        0  _printf_char_file.o(.text)
    .text                                    0x080008f8   Section        0  ferror.o(.text)
    .text                                    0x08000900   Section       74  sys_stackheap_outer.o(.text)
    .text                                    0x0800094a   Section        0  exit.o(.text)
    .text                                    0x0800095c   Section        8  libspace.o(.text)
    i.BusFault_Handler                       0x08000964   Section        0  stm32h7xx_it.o(i.BusFault_Handler)
    i.DebugMon_Handler                       0x08000966   Section        0  stm32h7xx_it.o(i.DebugMon_Handler)
    i.EXTI0_IRQHandler                       0x08000968   Section        0  stm32h7xx_it.o(i.EXTI0_IRQHandler)
    i.Error_Handler                          0x080009c4   Section        0  main.o(i.Error_Handler)
    i.FMC_IRQHandler                         0x080009c8   Section        0  stm32h7xx_it.o(i.FMC_IRQHandler)
    i.FMC_NORSRAM_Extended_Timing_Init       0x080009d4   Section        0  stm32h7xx_ll_fmc.o(i.FMC_NORSRAM_Extended_Timing_Init)
    i.FMC_NORSRAM_Init                       0x08000a14   Section        0  stm32h7xx_ll_fmc.o(i.FMC_NORSRAM_Init)
    i.FMC_NORSRAM_Timing_Init                0x08000aa8   Section        0  stm32h7xx_ll_fmc.o(i.FMC_NORSRAM_Timing_Init)
    i.FMC_SDRAM_Init                         0x08000b10   Section        0  stm32h7xx_ll_fmc.o(i.FMC_SDRAM_Init)
    i.FMC_SDRAM_ProgramRefreshRate           0x08000b7a   Section        0  stm32h7xx_ll_fmc.o(i.FMC_SDRAM_ProgramRefreshRate)
    i.FMC_SDRAM_SendCommand                  0x08000b8c   Section        0  stm32h7xx_ll_fmc.o(i.FMC_SDRAM_SendCommand)
    i.FMC_SDRAM_Timing_Init                  0x08000bb4   Section        0  stm32h7xx_ll_fmc.o(i.FMC_SDRAM_Timing_Init)
    i.HAL_DMA_Abort                          0x08000c64   Section        0  stm32h7xx_hal_dma.o(i.HAL_DMA_Abort)
    i.HAL_DMA_Abort_IT                       0x08000fc8   Section        0  stm32h7xx_hal_dma.o(i.HAL_DMA_Abort_IT)
    i.HAL_DMA_GetState                       0x0800124c   Section        0  stm32h7xx_hal_dma.o(i.HAL_DMA_GetState)
    i.HAL_Delay                              0x08001254   Section        0  stm32h7xx_hal.o(i.HAL_Delay)
    i.HAL_Delay_us                           0x08001278   Section        0  sys.o(i.HAL_Delay_us)
    i.HAL_FMC_MspInit                        0x080012a8   Section        0  fmc.o(i.HAL_FMC_MspInit)
    HAL_FMC_MspInit                          0x080012a9   Thumb Code   206  fmc.o(i.HAL_FMC_MspInit)
    i.HAL_GPIO_EXTI_Callback                 0x08001394   Section        0  stm32h7xx_hal_gpio.o(i.HAL_GPIO_EXTI_Callback)
    i.HAL_GPIO_EXTI_IRQHandler               0x08001396   Section        0  stm32h7xx_hal_gpio.o(i.HAL_GPIO_EXTI_IRQHandler)
    i.HAL_GPIO_Init                          0x080013b0   Section        0  stm32h7xx_hal_gpio.o(i.HAL_GPIO_Init)
    i.HAL_GPIO_ReadPin                       0x080015e0   Section        0  stm32h7xx_hal_gpio.o(i.HAL_GPIO_ReadPin)
    i.HAL_GPIO_TogglePin                     0x080015ea   Section        0  stm32h7xx_hal_gpio.o(i.HAL_GPIO_TogglePin)
    i.HAL_GPIO_WritePin                      0x080015fa   Section        0  stm32h7xx_hal_gpio.o(i.HAL_GPIO_WritePin)
    i.HAL_GetREVID                           0x08001604   Section        0  stm32h7xx_hal.o(i.HAL_GetREVID)
    i.HAL_GetTick                            0x08001610   Section        0  stm32h7xx_hal.o(i.HAL_GetTick)
    i.HAL_I2CEx_ConfigAnalogFilter           0x0800161c   Section        0  stm32h7xx_hal_i2c_ex.o(i.HAL_I2CEx_ConfigAnalogFilter)
    i.HAL_I2CEx_ConfigDigitalFilter          0x08001674   Section        0  stm32h7xx_hal_i2c_ex.o(i.HAL_I2CEx_ConfigDigitalFilter)
    i.HAL_I2C_AbortCpltCallback              0x080016c8   Section        0  stm32h7xx_hal_i2c.o(i.HAL_I2C_AbortCpltCallback)
    i.HAL_I2C_AddrCallback                   0x080016ca   Section        0  stm32h7xx_hal_i2c.o(i.HAL_I2C_AddrCallback)
    i.HAL_I2C_ER_IRQHandler                  0x080016cc   Section        0  stm32h7xx_hal_i2c.o(i.HAL_I2C_ER_IRQHandler)
    i.HAL_I2C_EV_IRQHandler                  0x08001734   Section        0  stm32h7xx_hal_i2c.o(i.HAL_I2C_EV_IRQHandler)
    i.HAL_I2C_ErrorCallback                  0x08001744   Section        0  stm32h7xx_hal_i2c.o(i.HAL_I2C_ErrorCallback)
    i.HAL_I2C_Init                           0x08001748   Section        0  stm32h7xx_hal_i2c.o(i.HAL_I2C_Init)
    i.HAL_I2C_ListenCpltCallback             0x08001800   Section        0  stm32h7xx_hal_i2c.o(i.HAL_I2C_ListenCpltCallback)
    i.HAL_I2C_Master_Transmit                0x08001804   Section        0  stm32h7xx_hal_i2c.o(i.HAL_I2C_Master_Transmit)
    i.HAL_I2C_MspInit                        0x08001928   Section        0  i2c.o(i.HAL_I2C_MspInit)
    i.HAL_I2C_SlaveRxCpltCallback            0x080019c8   Section        0  stm32h7xx_hal_i2c.o(i.HAL_I2C_SlaveRxCpltCallback)
    i.HAL_I2C_SlaveTxCpltCallback            0x080019ca   Section        0  stm32h7xx_hal_i2c.o(i.HAL_I2C_SlaveTxCpltCallback)
    i.HAL_IncTick                            0x080019cc   Section        0  stm32h7xx_hal.o(i.HAL_IncTick)
    i.HAL_Init                               0x080019dc   Section        0  stm32h7xx_hal.o(i.HAL_Init)
    i.HAL_InitTick                           0x08001a38   Section        0  stm32h7xx_hal_timebase_tim.o(i.HAL_InitTick)
    i.HAL_MDMA_Abort_IT                      0x08001ac4   Section        0  stm32h7xx_hal_mdma.o(i.HAL_MDMA_Abort_IT)
    i.HAL_MPU_ConfigRegion                   0x08001aec   Section        0  stm32h7xx_hal_cortex.o(i.HAL_MPU_ConfigRegion)
    i.HAL_MPU_Disable                        0x08001b48   Section        0  stm32h7xx_hal_cortex.o(i.HAL_MPU_Disable)
    i.HAL_MPU_Enable                         0x08001b64   Section        0  stm32h7xx_hal_cortex.o(i.HAL_MPU_Enable)
    i.HAL_MspInit                            0x08001b88   Section        0  stm32h7xx_hal_msp.o(i.HAL_MspInit)
    i.HAL_NVIC_EnableIRQ                     0x08001ba4   Section        0  stm32h7xx_hal_cortex.o(i.HAL_NVIC_EnableIRQ)
    i.HAL_NVIC_SetPriority                   0x08001bc0   Section        0  stm32h7xx_hal_cortex.o(i.HAL_NVIC_SetPriority)
    i.HAL_NVIC_SetPriorityGrouping           0x08001c00   Section        0  stm32h7xx_hal_cortex.o(i.HAL_NVIC_SetPriorityGrouping)
    i.HAL_PWREx_ConfigSupply                 0x08001c24   Section        0  stm32h7xx_hal_pwr_ex.o(i.HAL_PWREx_ConfigSupply)
    i.HAL_PWR_EnterSTOPMode                  0x08001c78   Section        0  stm32h7xx_hal_pwr.o(i.HAL_PWR_EnterSTOPMode)
    i.HAL_QSPI_AbortCpltCallback             0x08001cc8   Section        0  stm32h7xx_hal_qspi.o(i.HAL_QSPI_AbortCpltCallback)
    i.HAL_QSPI_CmdCpltCallback               0x08001cca   Section        0  stm32h7xx_hal_qspi.o(i.HAL_QSPI_CmdCpltCallback)
    i.HAL_QSPI_Command                       0x08001ccc   Section        0  stm32h7xx_hal_qspi.o(i.HAL_QSPI_Command)
    i.HAL_QSPI_ErrorCallback                 0x08001d52   Section        0  stm32h7xx_hal_qspi.o(i.HAL_QSPI_ErrorCallback)
    i.HAL_QSPI_FifoThresholdCallback         0x08001d54   Section        0  stm32h7xx_hal_qspi.o(i.HAL_QSPI_FifoThresholdCallback)
    i.HAL_QSPI_IRQHandler                    0x08001d58   Section        0  stm32h7xx_hal_qspi.o(i.HAL_QSPI_IRQHandler)
    i.HAL_QSPI_Init                          0x08001f3c   Section        0  stm32h7xx_hal_qspi.o(i.HAL_QSPI_Init)
    i.HAL_QSPI_MspInit                       0x08001fe8   Section        0  quadspi.o(i.HAL_QSPI_MspInit)
    i.HAL_QSPI_Receive                       0x080020dc   Section        0  stm32h7xx_hal_qspi.o(i.HAL_QSPI_Receive)
    i.HAL_QSPI_RxCpltCallback                0x0800219a   Section        0  stm32h7xx_hal_qspi.o(i.HAL_QSPI_RxCpltCallback)
    i.HAL_QSPI_StatusMatchCallback           0x0800219c   Section        0  stm32h7xx_hal_qspi.o(i.HAL_QSPI_StatusMatchCallback)
    i.HAL_QSPI_TimeOutCallback               0x0800219e   Section        0  stm32h7xx_hal_qspi.o(i.HAL_QSPI_TimeOutCallback)
    i.HAL_QSPI_Transmit                      0x080021a0   Section        0  stm32h7xx_hal_qspi.o(i.HAL_QSPI_Transmit)
    i.HAL_QSPI_TxCpltCallback                0x08002256   Section        0  stm32h7xx_hal_qspi.o(i.HAL_QSPI_TxCpltCallback)
    i.HAL_RCCEx_GetD3PCLK1Freq               0x08002258   Section        0  stm32h7xx_hal_rcc_ex.o(i.HAL_RCCEx_GetD3PCLK1Freq)
    i.HAL_RCCEx_GetPLL1ClockFreq             0x0800227c   Section        0  stm32h7xx_hal_rcc_ex.o(i.HAL_RCCEx_GetPLL1ClockFreq)
    i.HAL_RCCEx_GetPLL2ClockFreq             0x080023c4   Section        0  stm32h7xx_hal_rcc_ex.o(i.HAL_RCCEx_GetPLL2ClockFreq)
    i.HAL_RCCEx_GetPLL3ClockFreq             0x08002508   Section        0  stm32h7xx_hal_rcc_ex.o(i.HAL_RCCEx_GetPLL3ClockFreq)
    i.HAL_RCCEx_GetPeriphCLKFreq             0x0800264c   Section        0  stm32h7xx_hal_rcc_ex.o(i.HAL_RCCEx_GetPeriphCLKFreq)
    i.HAL_RCCEx_PeriphCLKConfig              0x080028b8   Section        0  stm32h7xx_hal_rcc_ex.o(i.HAL_RCCEx_PeriphCLKConfig)
    i.HAL_RCC_ClockConfig                    0x0800318c   Section        0  stm32h7xx_hal_rcc.o(i.HAL_RCC_ClockConfig)
    i.HAL_RCC_GetClockConfig                 0x080033e8   Section        0  stm32h7xx_hal_rcc.o(i.HAL_RCC_GetClockConfig)
    i.HAL_RCC_GetHCLKFreq                    0x08003444   Section        0  stm32h7xx_hal_rcc.o(i.HAL_RCC_GetHCLKFreq)
    i.HAL_RCC_GetPCLK1Freq                   0x08003488   Section        0  stm32h7xx_hal_rcc.o(i.HAL_RCC_GetPCLK1Freq)
    i.HAL_RCC_GetPCLK2Freq                   0x080034ac   Section        0  stm32h7xx_hal_rcc.o(i.HAL_RCC_GetPCLK2Freq)
    i.HAL_RCC_GetSysClockFreq                0x080034d0   Section        0  stm32h7xx_hal_rcc.o(i.HAL_RCC_GetSysClockFreq)
    i.HAL_RCC_OscConfig                      0x08003608   Section        0  stm32h7xx_hal_rcc.o(i.HAL_RCC_OscConfig)
    i.HAL_SDEx_Read_DMADoubleBuf0CpltCallback 0x08003b10   Section        0  stm32h7xx_hal_sd.o(i.HAL_SDEx_Read_DMADoubleBuf0CpltCallback)
    i.HAL_SDEx_Read_DMADoubleBuf1CpltCallback 0x08003b12   Section        0  stm32h7xx_hal_sd.o(i.HAL_SDEx_Read_DMADoubleBuf1CpltCallback)
    i.HAL_SDEx_Write_DMADoubleBuf0CpltCallback 0x08003b14   Section        0  stm32h7xx_hal_sd.o(i.HAL_SDEx_Write_DMADoubleBuf0CpltCallback)
    i.HAL_SDEx_Write_DMADoubleBuf1CpltCallback 0x08003b16   Section        0  stm32h7xx_hal_sd.o(i.HAL_SDEx_Write_DMADoubleBuf1CpltCallback)
    i.HAL_SDRAM_IRQHandler                   0x08003b18   Section        0  stm32h7xx_hal_sdram.o(i.HAL_SDRAM_IRQHandler)
    i.HAL_SDRAM_Init                         0x08003b38   Section        0  stm32h7xx_hal_sdram.o(i.HAL_SDRAM_Init)
    i.HAL_SDRAM_MspInit                      0x08003b88   Section        0  fmc.o(i.HAL_SDRAM_MspInit)
    i.HAL_SDRAM_ProgramRefreshRate           0x08003b8c   Section        0  stm32h7xx_hal_sdram.o(i.HAL_SDRAM_ProgramRefreshRate)
    i.HAL_SDRAM_RefreshErrorCallback         0x08003bba   Section        0  stm32h7xx_hal_sdram.o(i.HAL_SDRAM_RefreshErrorCallback)
    i.HAL_SDRAM_SendCommand                  0x08003bbc   Section        0  stm32h7xx_hal_sdram.o(i.HAL_SDRAM_SendCommand)
    i.HAL_SD_ConfigWideBusOperation          0x08003bf8   Section        0  stm32h7xx_hal_sd.o(i.HAL_SD_ConfigWideBusOperation)
    i.HAL_SD_DriveTransceiver_1_8V_Callback  0x08003d84   Section        0  stm32h7xx_hal_sd.o(i.HAL_SD_DriveTransceiver_1_8V_Callback)
    i.HAL_SD_ErrorCallback                   0x08003d86   Section        0  stm32h7xx_hal_sd.o(i.HAL_SD_ErrorCallback)
    i.HAL_SD_GetCardCSD                      0x08003d88   Section        0  stm32h7xx_hal_sd.o(i.HAL_SD_GetCardCSD)
    i.HAL_SD_GetCardInfo                     0x08003f44   Section        0  stm32h7xx_hal_sd.o(i.HAL_SD_GetCardInfo)
    i.HAL_SD_GetCardState                    0x08003f68   Section        0  stm32h7xx_hal_sd.o(i.HAL_SD_GetCardState)
    i.HAL_SD_GetCardStatus                   0x08003f94   Section        0  stm32h7xx_hal_sd.o(i.HAL_SD_GetCardStatus)
    i.HAL_SD_IRQHandler                      0x08004050   Section        0  stm32h7xx_hal_sd.o(i.HAL_SD_IRQHandler)
    i.HAL_SD_Init                            0x08004290   Section        0  stm32h7xx_hal_sd.o(i.HAL_SD_Init)
    i.HAL_SD_InitCard                        0x08004334   Section        0  stm32h7xx_hal_sd.o(i.HAL_SD_InitCard)
    i.HAL_SD_MspInit                         0x080043f0   Section        0  sdmmc.o(i.HAL_SD_MspInit)
    i.HAL_SD_RxCpltCallback                  0x080044a4   Section        0  stm32h7xx_hal_sd.o(i.HAL_SD_RxCpltCallback)
    i.HAL_SD_TxCpltCallback                  0x080044a6   Section        0  stm32h7xx_hal_sd.o(i.HAL_SD_TxCpltCallback)
    i.HAL_SRAM_Init                          0x080044a8   Section        0  stm32h7xx_hal_sram.o(i.HAL_SRAM_Init)
    i.HAL_SRAM_MspInit                       0x08004514   Section        0  fmc.o(i.HAL_SRAM_MspInit)
    i.HAL_SYSTICK_Config                     0x08004518   Section        0  stm32h7xx_hal_cortex.o(i.HAL_SYSTICK_Config)
    i.HAL_TIMEx_Break2Callback               0x0800453e   Section        0  stm32h7xx_hal_tim_ex.o(i.HAL_TIMEx_Break2Callback)
    i.HAL_TIMEx_BreakCallback                0x08004540   Section        0  stm32h7xx_hal_tim_ex.o(i.HAL_TIMEx_BreakCallback)
    i.HAL_TIMEx_CommutCallback               0x08004542   Section        0  stm32h7xx_hal_tim_ex.o(i.HAL_TIMEx_CommutCallback)
    i.HAL_TIM_Base_Init                      0x08004544   Section        0  stm32h7xx_hal_tim.o(i.HAL_TIM_Base_Init)
    i.HAL_TIM_Base_MspInit                   0x080045a6   Section        0  stm32h7xx_hal_tim.o(i.HAL_TIM_Base_MspInit)
    i.HAL_TIM_Base_Start_IT                  0x080045a8   Section        0  stm32h7xx_hal_tim.o(i.HAL_TIM_Base_Start_IT)
    i.HAL_TIM_IC_CaptureCallback             0x08004628   Section        0  stm32h7xx_hal_tim.o(i.HAL_TIM_IC_CaptureCallback)
    i.HAL_TIM_IRQHandler                     0x0800462a   Section        0  stm32h7xx_hal_tim.o(i.HAL_TIM_IRQHandler)
    i.HAL_TIM_OC_DelayElapsedCallback        0x080047ac   Section        0  stm32h7xx_hal_tim.o(i.HAL_TIM_OC_DelayElapsedCallback)
    i.HAL_TIM_PWM_PulseFinishedCallback      0x080047ae   Section        0  stm32h7xx_hal_tim.o(i.HAL_TIM_PWM_PulseFinishedCallback)
    i.HAL_TIM_PeriodElapsedCallback          0x080047b0   Section        0  main.o(i.HAL_TIM_PeriodElapsedCallback)
    i.HAL_TIM_TriggerCallback                0x080047c4   Section        0  stm32h7xx_hal_tim.o(i.HAL_TIM_TriggerCallback)
    i.HAL_UARTEx_DisableFifoMode             0x080047c6   Section        0  stm32h7xx_hal_uart_ex.o(i.HAL_UARTEx_DisableFifoMode)
    i.HAL_UARTEx_RxEventCallback             0x08004806   Section        0  stm32h7xx_hal_uart.o(i.HAL_UARTEx_RxEventCallback)
    i.HAL_UARTEx_RxFifoFullCallback          0x08004808   Section        0  stm32h7xx_hal_uart_ex.o(i.HAL_UARTEx_RxFifoFullCallback)
    i.HAL_UARTEx_SetRxFifoThreshold          0x0800480a   Section        0  stm32h7xx_hal_uart_ex.o(i.HAL_UARTEx_SetRxFifoThreshold)
    i.HAL_UARTEx_SetTxFifoThreshold          0x08004856   Section        0  stm32h7xx_hal_uart_ex.o(i.HAL_UARTEx_SetTxFifoThreshold)
    i.HAL_UARTEx_TxFifoEmptyCallback         0x080048a2   Section        0  stm32h7xx_hal_uart_ex.o(i.HAL_UARTEx_TxFifoEmptyCallback)
    i.HAL_UARTEx_WakeupCallback              0x080048a4   Section        0  stm32h7xx_hal_uart_ex.o(i.HAL_UARTEx_WakeupCallback)
    i.HAL_UART_ErrorCallback                 0x080048a6   Section        0  stm32h7xx_hal_uart.o(i.HAL_UART_ErrorCallback)
    i.HAL_UART_IRQHandler                    0x080048a8   Section        0  stm32h7xx_hal_uart.o(i.HAL_UART_IRQHandler)
    i.HAL_UART_Init                          0x08004bac   Section        0  stm32h7xx_hal_uart.o(i.HAL_UART_Init)
    i.HAL_UART_MspInit                       0x08004c18   Section        0  usart.o(i.HAL_UART_MspInit)
    i.HAL_UART_Transmit                      0x08004ca0   Section        0  stm32h7xx_hal_uart.o(i.HAL_UART_Transmit)
    i.HAL_UART_TxCpltCallback                0x08004d5e   Section        0  stm32h7xx_hal_uart.o(i.HAL_UART_TxCpltCallback)
    i.HardFault_Handler                      0x08004d60   Section        0  stm32h7xx_it.o(i.HardFault_Handler)
    i.I2C2_ER_IRQHandler                     0x08004d64   Section        0  stm32h7xx_it.o(i.I2C2_ER_IRQHandler)
    i.I2C2_EV_IRQHandler                     0x08004d70   Section        0  stm32h7xx_it.o(i.I2C2_EV_IRQHandler)
    i.I2C_DMAAbort                           0x08004d7c   Section        0  stm32h7xx_hal_i2c.o(i.I2C_DMAAbort)
    I2C_DMAAbort                             0x08004d7d   Thumb Code    20  stm32h7xx_hal_i2c.o(i.I2C_DMAAbort)
    i.I2C_Disable_IRQ                        0x08004d90   Section        0  stm32h7xx_hal_i2c.o(i.I2C_Disable_IRQ)
    I2C_Disable_IRQ                          0x08004d91   Thumb Code    96  stm32h7xx_hal_i2c.o(i.I2C_Disable_IRQ)
    i.I2C_Flush_TXDR                         0x08004df0   Section        0  stm32h7xx_hal_i2c.o(i.I2C_Flush_TXDR)
    I2C_Flush_TXDR                           0x08004df1   Thumb Code    34  stm32h7xx_hal_i2c.o(i.I2C_Flush_TXDR)
    i.I2C_ITAddrCplt                         0x08004e12   Section        0  stm32h7xx_hal_i2c.o(i.I2C_ITAddrCplt)
    I2C_ITAddrCplt                           0x08004e13   Thumb Code   148  stm32h7xx_hal_i2c.o(i.I2C_ITAddrCplt)
    i.I2C_ITError                            0x08004ea8   Section        0  stm32h7xx_hal_i2c.o(i.I2C_ITError)
    I2C_ITError                              0x08004ea9   Thumb Code   234  stm32h7xx_hal_i2c.o(i.I2C_ITError)
    i.I2C_ITListenCplt                       0x08004fa0   Section        0  stm32h7xx_hal_i2c.o(i.I2C_ITListenCplt)
    I2C_ITListenCplt                         0x08004fa1   Thumb Code    96  stm32h7xx_hal_i2c.o(i.I2C_ITListenCplt)
    i.I2C_ITSlaveCplt                        0x08005004   Section        0  stm32h7xx_hal_i2c.o(i.I2C_ITSlaveCplt)
    I2C_ITSlaveCplt                          0x08005005   Thumb Code   414  stm32h7xx_hal_i2c.o(i.I2C_ITSlaveCplt)
    i.I2C_ITSlaveSeqCplt                     0x080051d0   Section        0  stm32h7xx_hal_i2c.o(i.I2C_ITSlaveSeqCplt)
    I2C_ITSlaveSeqCplt                       0x080051d1   Thumb Code   114  stm32h7xx_hal_i2c.o(i.I2C_ITSlaveSeqCplt)
    i.I2C_IsAcknowledgeFailed                0x08005244   Section        0  stm32h7xx_hal_i2c.o(i.I2C_IsAcknowledgeFailed)
    I2C_IsAcknowledgeFailed                  0x08005245   Thumb Code   132  stm32h7xx_hal_i2c.o(i.I2C_IsAcknowledgeFailed)
    i.I2C_Slave_ISR_IT                       0x080052cc   Section        0  stm32h7xx_hal_i2c.o(i.I2C_Slave_ISR_IT)
    I2C_Slave_ISR_IT                         0x080052cd   Thumb Code   284  stm32h7xx_hal_i2c.o(i.I2C_Slave_ISR_IT)
    i.I2C_TransferConfig                     0x080053ec   Section        0  stm32h7xx_hal_i2c.o(i.I2C_TransferConfig)
    I2C_TransferConfig                       0x080053ed   Thumb Code    40  stm32h7xx_hal_i2c.o(i.I2C_TransferConfig)
    i.I2C_TreatErrorCallback                 0x08005418   Section        0  stm32h7xx_hal_i2c.o(i.I2C_TreatErrorCallback)
    I2C_TreatErrorCallback                   0x08005419   Thumb Code    42  stm32h7xx_hal_i2c.o(i.I2C_TreatErrorCallback)
    i.I2C_WaitOnFlagUntilTimeout             0x08005442   Section        0  stm32h7xx_hal_i2c.o(i.I2C_WaitOnFlagUntilTimeout)
    I2C_WaitOnFlagUntilTimeout               0x08005443   Thumb Code    90  stm32h7xx_hal_i2c.o(i.I2C_WaitOnFlagUntilTimeout)
    i.I2C_WaitOnSTOPFlagUntilTimeout         0x0800549c   Section        0  stm32h7xx_hal_i2c.o(i.I2C_WaitOnSTOPFlagUntilTimeout)
    I2C_WaitOnSTOPFlagUntilTimeout           0x0800549d   Thumb Code    78  stm32h7xx_hal_i2c.o(i.I2C_WaitOnSTOPFlagUntilTimeout)
    i.I2C_WaitOnTXISFlagUntilTimeout         0x080054ea   Section        0  stm32h7xx_hal_i2c.o(i.I2C_WaitOnTXISFlagUntilTimeout)
    I2C_WaitOnTXISFlagUntilTimeout           0x080054eb   Thumb Code    82  stm32h7xx_hal_i2c.o(i.I2C_WaitOnTXISFlagUntilTimeout)
    i.KEY_Scan                               0x0800553c   Section        0  sys.o(i.KEY_Scan)
    i.LCD1963ORG                             0x08005618   Section        0  tftlcd.o(i.LCD1963ORG)
    i.LCD5310ORG                             0x0800578e   Section        0  tftlcd.o(i.LCD5310ORG)
    i.LCD5510ORG                             0x08006682   Section        0  tftlcd.o(i.LCD5510ORG)
    i.LCD9341ORG                             0x0800757c   Section        0  tftlcd.o(i.LCD9341ORG)
    i.LCD_MPU_Config                         0x080077aa   Section        0  tftlcd.o(i.LCD_MPU_Config)
    i.LCD_Pow                                0x080077f4   Section        0  tftlcd.o(i.LCD_Pow)
    i.LCD_RD_DATA                            0x08007804   Section        0  tftlcd.o(i.LCD_RD_DATA)
    i.LCD_WR_DATA                            0x08007818   Section        0  tftlcd.o(i.LCD_WR_DATA)
    i.LCD_WR_REG                             0x08007830   Section        0  tftlcd.o(i.LCD_WR_REG)
    i.MX_FMC_Init                            0x08007848   Section        0  fmc.o(i.MX_FMC_Init)
    i.MX_GPIO_Init                           0x0800793c   Section        0  gpio.o(i.MX_GPIO_Init)
    i.MX_I2C2_Init                           0x08007a3c   Section        0  i2c.o(i.MX_I2C2_Init)
    i.MX_QUADSPI_Init                        0x08007a94   Section        0  quadspi.o(i.MX_QUADSPI_Init)
    i.MX_SDMMC1_SD_Init                      0x08007ad0   Section        0  sdmmc.o(i.MX_SDMMC1_SD_Init)
    i.MX_USART1_UART_Init                    0x08007b08   Section        0  usart.o(i.MX_USART1_UART_Init)
    i.MemManage_Handler                      0x08007b70   Section        0  stm32h7xx_it.o(i.MemManage_Handler)
    i.NMI_Handler                            0x08007b72   Section        0  stm32h7xx_it.o(i.NMI_Handler)
    i.PendSV_Handler                         0x08007b74   Section        0  stm32h7xx_it.o(i.PendSV_Handler)
    i.QSPI_Config                            0x08007b76   Section        0  stm32h7xx_hal_qspi.o(i.QSPI_Config)
    QSPI_Config                              0x08007b77   Thumb Code   424  stm32h7xx_hal_qspi.o(i.QSPI_Config)
    i.QSPI_DMAAbortCplt                      0x08007d1e   Section        0  stm32h7xx_hal_qspi.o(i.QSPI_DMAAbortCplt)
    QSPI_DMAAbortCplt                        0x08007d1f   Thumb Code    58  stm32h7xx_hal_qspi.o(i.QSPI_DMAAbortCplt)
    i.QSPI_Receive                           0x08007d58   Section        0  quadspi.o(i.QSPI_Receive)
    i.QSPI_Send_CMD                          0x08007d7c   Section        0  quadspi.o(i.QSPI_Send_CMD)
    i.QSPI_Transmit                          0x08007db4   Section        0  quadspi.o(i.QSPI_Transmit)
    i.QSPI_WaitFlagStateUntilTimeout         0x08007dd8   Section        0  stm32h7xx_hal_qspi.o(i.QSPI_WaitFlagStateUntilTimeout)
    QSPI_WaitFlagStateUntilTimeout           0x08007dd9   Thumb Code    72  stm32h7xx_hal_qspi.o(i.QSPI_WaitFlagStateUntilTimeout)
    i.QUADSPI_IRQHandler                     0x08007e20   Section        0  stm32h7xx_it.o(i.QUADSPI_IRQHandler)
    i.RCCEx_PLL2_Config                      0x08007e2c   Section        0  stm32h7xx_hal_rcc_ex.o(i.RCCEx_PLL2_Config)
    RCCEx_PLL2_Config                        0x08007e2d   Thumb Code   284  stm32h7xx_hal_rcc_ex.o(i.RCCEx_PLL2_Config)
    i.RCCEx_PLL3_Config                      0x08007f4c   Section        0  stm32h7xx_hal_rcc_ex.o(i.RCCEx_PLL3_Config)
    RCCEx_PLL3_Config                        0x08007f4d   Thumb Code   284  stm32h7xx_hal_rcc_ex.o(i.RCCEx_PLL3_Config)
    i.SDMMC1_IRQHandler                      0x0800806c   Section        0  stm32h7xx_it.o(i.SDMMC1_IRQHandler)
    i.SDMMC_CmdAppCommand                    0x08008078   Section        0  stm32h7xx_ll_sdmmc.o(i.SDMMC_CmdAppCommand)
    i.SDMMC_CmdAppOperCommand                0x080080ac   Section        0  stm32h7xx_ll_sdmmc.o(i.SDMMC_CmdAppOperCommand)
    i.SDMMC_CmdBlockLength                   0x080080da   Section        0  stm32h7xx_ll_sdmmc.o(i.SDMMC_CmdBlockLength)
    i.SDMMC_CmdBusWidth                      0x0800810c   Section        0  stm32h7xx_ll_sdmmc.o(i.SDMMC_CmdBusWidth)
    i.SDMMC_CmdGoIdleState                   0x08008140   Section        0  stm32h7xx_ll_sdmmc.o(i.SDMMC_CmdGoIdleState)
    i.SDMMC_CmdOperCond                      0x08008194   Section        0  stm32h7xx_ll_sdmmc.o(i.SDMMC_CmdOperCond)
    i.SDMMC_CmdSelDesel                      0x080081bc   Section        0  stm32h7xx_ll_sdmmc.o(i.SDMMC_CmdSelDesel)
    i.SDMMC_CmdSendCID                       0x080081f0   Section        0  stm32h7xx_ll_sdmmc.o(i.SDMMC_CmdSendCID)
    i.SDMMC_CmdSendCSD                       0x0800821c   Section        0  stm32h7xx_ll_sdmmc.o(i.SDMMC_CmdSendCSD)
    i.SDMMC_CmdSendSCR                       0x0800824c   Section        0  stm32h7xx_ll_sdmmc.o(i.SDMMC_CmdSendSCR)
    i.SDMMC_CmdSendStatus                    0x0800827e   Section        0  stm32h7xx_ll_sdmmc.o(i.SDMMC_CmdSendStatus)
    i.SDMMC_CmdSetRelAdd                     0x080082b2   Section        0  stm32h7xx_ll_sdmmc.o(i.SDMMC_CmdSetRelAdd)
    i.SDMMC_CmdStatusRegister                0x080082e4   Section        0  stm32h7xx_ll_sdmmc.o(i.SDMMC_CmdStatusRegister)
    i.SDMMC_CmdStopTransfer                  0x08008318   Section        0  stm32h7xx_ll_sdmmc.o(i.SDMMC_CmdStopTransfer)
    i.SDMMC_CmdVoltageSwitch                 0x0800836c   Section        0  stm32h7xx_ll_sdmmc.o(i.SDMMC_CmdVoltageSwitch)
    i.SDMMC_ConfigData                       0x0800839e   Section        0  stm32h7xx_ll_sdmmc.o(i.SDMMC_ConfigData)
    i.SDMMC_GetCmdResp1                      0x080083c4   Section        0  stm32h7xx_ll_sdmmc.o(i.SDMMC_GetCmdResp1)
    i.SDMMC_GetCmdResp2                      0x080084e8   Section        0  stm32h7xx_ll_sdmmc.o(i.SDMMC_GetCmdResp2)
    i.SDMMC_GetCmdResp3                      0x0800853c   Section        0  stm32h7xx_ll_sdmmc.o(i.SDMMC_GetCmdResp3)
    i.SDMMC_GetCmdResp6                      0x08008584   Section        0  stm32h7xx_ll_sdmmc.o(i.SDMMC_GetCmdResp6)
    i.SDMMC_GetCmdResp7                      0x08008610   Section        0  stm32h7xx_ll_sdmmc.o(i.SDMMC_GetCmdResp7)
    i.SDMMC_GetPowerState                    0x08008668   Section        0  stm32h7xx_ll_sdmmc.o(i.SDMMC_GetPowerState)
    i.SDMMC_GetResponse                      0x08008670   Section        0  stm32h7xx_ll_sdmmc.o(i.SDMMC_GetResponse)
    i.SDMMC_Init                             0x08008678   Section        0  stm32h7xx_ll_sdmmc.o(i.SDMMC_Init)
    i.SDMMC_PowerState_ON                    0x08008698   Section        0  stm32h7xx_ll_sdmmc.o(i.SDMMC_PowerState_ON)
    i.SDMMC_ReadFIFO                         0x080086a4   Section        0  stm32h7xx_ll_sdmmc.o(i.SDMMC_ReadFIFO)
    i.SDMMC_SendCommand                      0x080086ac   Section        0  stm32h7xx_ll_sdmmc.o(i.SDMMC_SendCommand)
    i.SDMMC_WriteFIFO                        0x080086d4   Section        0  stm32h7xx_ll_sdmmc.o(i.SDMMC_WriteFIFO)
    i.SDRAM_Send_Cmd                         0x080086e0   Section        0  sdram.o(i.SDRAM_Send_Cmd)
    i.SD_FindSCR                             0x08008718   Section        0  stm32h7xx_hal_sd.o(i.SD_FindSCR)
    SD_FindSCR                               0x08008719   Thumb Code   224  stm32h7xx_hal_sd.o(i.SD_FindSCR)
    i.SD_InitCard                            0x080087fc   Section        0  stm32h7xx_hal_sd.o(i.SD_InitCard)
    SD_InitCard                              0x080087fd   Thumb Code   210  stm32h7xx_hal_sd.o(i.SD_InitCard)
    i.SD_PowerON                             0x080088d0   Section        0  stm32h7xx_hal_sd.o(i.SD_PowerON)
    SD_PowerON                               0x080088d1   Thumb Code   320  stm32h7xx_hal_sd.o(i.SD_PowerON)
    i.SD_SendSDStatus                        0x08008a14   Section        0  stm32h7xx_hal_sd.o(i.SD_SendSDStatus)
    SD_SendSDStatus                          0x08008a15   Thumb Code   222  stm32h7xx_hal_sd.o(i.SD_SendSDStatus)
    i.SVC_Handler                            0x08008af8   Section        0  stm32h7xx_it.o(i.SVC_Handler)
    i.SysTick_Handler                        0x08008afa   Section        0  stm32h7xx_it.o(i.SysTick_Handler)
    i.SystemClock_Config                     0x08008afc   Section        0  main.o(i.SystemClock_Config)
    i.SystemInit                             0x08008ba4   Section        0  system_stm32h7xx.o(i.SystemInit)
    i.TFTLCD_Clear                           0x08008c88   Section        0  tftlcd.o(i.TFTLCD_Clear)
    i.TFTLCD_Display_Dir                     0x08008cbc   Section        0  tftlcd.o(i.TFTLCD_Display_Dir)
    i.TFTLCD_FDrawPoint                      0x08008da0   Section        0  tftlcd.o(i.TFTLCD_FDrawPoint)
    i.TFTLCD_Init                            0x08008e84   Section        0  tftlcd.o(i.TFTLCD_Init)
    i.TFTLCD_SSD_BackLightSet                0x08009014   Section        0  tftlcd.o(i.TFTLCD_SSD_BackLightSet)
    i.TFTLCD_Scan_Dir                        0x08009068   Section        0  tftlcd.o(i.TFTLCD_Scan_Dir)
    i.TFTLCD_SetCursor                       0x08009220   Section        0  tftlcd.o(i.TFTLCD_SetCursor)
    i.TFTLCD_ShowChar                        0x08009324   Section        0  tftlcd.o(i.TFTLCD_ShowChar)
    i.TFTLCD_ShowStr                         0x08009408   Section        0  tftlcd.o(i.TFTLCD_ShowStr)
    i.TFTLCD_ShowxNum                        0x0800945c   Section        0  tftlcd.o(i.TFTLCD_ShowxNum)
    i.TFTLCD_WriteRAM_Prepare                0x080094e4   Section        0  tftlcd.o(i.TFTLCD_WriteRAM_Prepare)
    i.TFTLCD_WriteReg                        0x080094f8   Section        0  tftlcd.o(i.TFTLCD_WriteReg)
    i.TIM6_DAC_IRQHandler                    0x08009508   Section        0  stm32h7xx_it.o(i.TIM6_DAC_IRQHandler)
    i.TIM_Base_SetConfig                     0x08009514   Section        0  stm32h7xx_hal_tim.o(i.TIM_Base_SetConfig)
    i.UARTEx_SetNbDataToProcess              0x080095d8   Section        0  stm32h7xx_hal_uart_ex.o(i.UARTEx_SetNbDataToProcess)
    UARTEx_SetNbDataToProcess                0x080095d9   Thumb Code    62  stm32h7xx_hal_uart_ex.o(i.UARTEx_SetNbDataToProcess)
    i.UART_AdvFeatureConfig                  0x0800961c   Section        0  stm32h7xx_hal_uart.o(i.UART_AdvFeatureConfig)
    i.UART_CheckIdleState                    0x080096e4   Section        0  stm32h7xx_hal_uart.o(i.UART_CheckIdleState)
    i.UART_DMAAbortOnError                   0x08009744   Section        0  stm32h7xx_hal_uart.o(i.UART_DMAAbortOnError)
    UART_DMAAbortOnError                     0x08009745   Thumb Code    20  stm32h7xx_hal_uart.o(i.UART_DMAAbortOnError)
    i.UART_EndRxTransfer                     0x08009758   Section        0  stm32h7xx_hal_uart.o(i.UART_EndRxTransfer)
    UART_EndRxTransfer                       0x08009759   Thumb Code    50  stm32h7xx_hal_uart.o(i.UART_EndRxTransfer)
    i.UART_SetConfig                         0x08009790   Section        0  stm32h7xx_hal_uart.o(i.UART_SetConfig)
    i.UART_WaitOnFlagUntilTimeout            0x08009b3c   Section        0  stm32h7xx_hal_uart.o(i.UART_WaitOnFlagUntilTimeout)
    i.USART1_IRQHandler                      0x08009be0   Section        0  stm32h7xx_it.o(i.USART1_IRQHandler)
    i.UsageFault_Handler                     0x08009bec   Section        0  stm32h7xx_it.o(i.UsageFault_Handler)
    i.W25Q256_Erase_Sector                   0x08009bee   Section        0  w25q256.o(i.W25Q256_Erase_Sector)
    i.W25Q256_Init                           0x08009c18   Section        0  w25q256.o(i.W25Q256_Init)
    i.W25Q256_Qspi_Enable                    0x08009c88   Section        0  w25q256.o(i.W25Q256_Qspi_Enable)
    i.W25Q256_Read                           0x08009cc8   Section        0  w25q256.o(i.W25Q256_Read)
    i.W25Q256_ReadID                         0x08009cf4   Section        0  w25q256.o(i.W25Q256_ReadID)
    i.W25Q256_ReadSR                         0x08009d3c   Section        0  w25q256.o(i.W25Q256_ReadSR)
    i.W25Q256_Wait_Busy                      0x08009d94   Section        0  w25q256.o(i.W25Q256_Wait_Busy)
    i.W25Q256_Write                          0x08009da4   Section        0  w25q256.o(i.W25Q256_Write)
    i.W25Q256_Write_Enable                   0x08009e48   Section        0  w25q256.o(i.W25Q256_Write_Enable)
    i.W25Q256_Write_NoCheck                  0x08009e74   Section        0  w25q256.o(i.W25Q256_Write_NoCheck)
    i.W25Q256_Write_Page                     0x08009eb4   Section        0  w25q256.o(i.W25Q256_Write_Page)
    i.W25Q256_Write_SR                       0x08009ee8   Section        0  w25q256.o(i.W25Q256_Write_SR)
    i.W8925_Init                             0x08009f38   Section        0  sdram.o(i.W8925_Init)
    i.__NVIC_SetPriority                     0x08009f88   Section        0  stm32h7xx_hal_cortex.o(i.__NVIC_SetPriority)
    __NVIC_SetPriority                       0x08009f89   Thumb Code    34  stm32h7xx_hal_cortex.o(i.__NVIC_SetPriority)
    i._is_digit                              0x08009faa   Section        0  __printf_wp.o(i._is_digit)
    i._sys_exit                              0x08009fb8   Section        0  usart.o(i._sys_exit)
    i.beep                                   0x08009fbc   Section        0  sys.o(i.beep)
    i.fputc                                  0x08009fe8   Section        0  usart.o(i.fputc)
    i.fsmc_sdram_test                        0x0800a000   Section        0  main.o(i.fsmc_sdram_test)
    i.main                                   0x0800a0d8   Section        0  main.o(i.main)
    x$fpl$fpinit                             0x0800a6c0   Section       10  fpinit.o(x$fpl$fpinit)
    $v0                                      0x0800a6c0   Number         0  fpinit.o(x$fpl$fpinit)
    .constdata                               0x0800a6ca   Section       25  main.o(.constdata)
    .constdata                               0x0800a6e4   Section       24  stm32h7xx_hal_uart.o(.constdata)
    .constdata                               0x0800a6fc   Section       16  stm32h7xx_hal_uart_ex.o(.constdata)
    numerator                                0x0800a6fc   Data           8  stm32h7xx_hal_uart_ex.o(.constdata)
    denominator                              0x0800a704   Data           8  stm32h7xx_hal_uart_ex.o(.constdata)
    .constdata                               0x0800a70c   Section       16  system_stm32h7xx.o(.constdata)
    .constdata                               0x0800a71c   Section    18240  tftlcd.o(.constdata)
    .constdata                               0x0800ee5c   Section       40  _printf_hex_int.o(.constdata)
    uc_hextab                                0x0800ee5c   Data          20  _printf_hex_int.o(.constdata)
    lc_hextab                                0x0800ee70   Data          20  _printf_hex_int.o(.constdata)
    .constdata                               0x0800ee84   Section       17  __printf_flags_wp.o(.constdata)
    maptable                                 0x0800ee84   Data          17  __printf_flags_wp.o(.constdata)
    .data                                    0x24000000   Section        8  fmc.o(.data)
    FMC_Initialized                          0x24000000   Data           4  fmc.o(.data)
    FMC_DeInitialized                        0x24000004   Data           4  fmc.o(.data)
    .data                                    0x24000008   Section        4  usart.o(.data)
    .data                                    0x2400000c   Section       12  stm32h7xx_hal.o(.data)
    .data                                    0x24000018   Section        8  system_stm32h7xx.o(.data)
    .data                                    0x24000020   Section        1  sys.o(.data)
    key_up                                   0x24000020   Data           1  sys.o(.data)
    .data                                    0x24000024   Section        8  tftlcd.o(.data)
    .data                                    0x2400002c   Section        4  w25q256.o(.data)
    .bss                                     0x24000030   Section       36  main.o(.bss)
    .bss                                     0x24000054   Section      128  fmc.o(.bss)
    .bss                                     0x240000d4   Section       76  i2c.o(.bss)
    .bss                                     0x24000120   Section       76  quadspi.o(.bss)
    .bss                                     0x2400016c   Section      128  sdmmc.o(.bss)
    .bss                                     0x240001ec   Section      144  usart.o(.bss)
    .bss                                     0x2400027c   Section       76  stm32h7xx_hal_timebase_tim.o(.bss)
    .bss                                     0x240002c8   Section       14  tftlcd.o(.bss)
    .bss                                     0x240002d6   Section     4096  w25q256.o(.bss)
    .bss                                     0x240012d8   Section       96  libspace.o(.bss)
    HEAP                                     0x24001338   Section      512  startup_stm32h743xx.o(HEAP)
    Heap_Mem                                 0x24001338   Data         512  startup_stm32h743xx.o(HEAP)
    STACK                                    0x24001538   Section     1024  startup_stm32h743xx.o(STACK)
    Stack_Mem                                0x24001538   Data        1024  startup_stm32h743xx.o(STACK)
    __initial_sp                             0x24001938   Data           0  startup_stm32h743xx.o(STACK)
    .ARM.__AT_0xC0000000                     0xc0000000   Section    500000  main.o(.ARM.__AT_0xC0000000)

    Global Symbols

    Symbol Name                              Value     Ov Type        Size  Object(Section)

    BuildAttributes$$THM_ISAv4$E$P$D$K$B$S$7EM$VFPv5_D16$PE$PLD8$A:L22UL41UL21$X:L11$S22US41US21$IEEE1$IW$USESV6$~STKCKD$USESV7$~SHL$OSPACE$ROPI$EBA8$UX$STANDARDLIB$REQ8$PRES8$EABIv2 0x00000000   Number         0  anon$$obj.o ABSOLUTE
    __ARM_use_no_argv                        0x00000000   Number         0  main.o ABSOLUTE
    _printf_flags                            0x00000000   Number         0  printf_stubs.o ABSOLUTE
    _printf_return_value                     0x00000000   Number         0  printf_stubs.o ABSOLUTE
    _printf_sizespec                         0x00000000   Number         0  printf_stubs.o ABSOLUTE
    _printf_widthprec                        0x00000000   Number         0  printf_stubs.o ABSOLUTE
    __ARM_exceptions_init                     - Undefined Weak Reference
    __alloca_initialize                       - Undefined Weak Reference
    __arm_fini_                               - Undefined Weak Reference
    __arm_preinit_                            - Undefined Weak Reference
    __cpp_initialize__aeabi_                  - Undefined Weak Reference
    __cxa_finalize                            - Undefined Weak Reference
    __rt_locale                               - Undefined Weak Reference
    __sigvec_lookup                           - Undefined Weak Reference
    _atexit_init                              - Undefined Weak Reference
    _call_atexit_fns                          - Undefined Weak Reference
    _clock_init                               - Undefined Weak Reference
    _fp_trap_init                             - Undefined Weak Reference
    _fp_trap_shutdown                         - Undefined Weak Reference
    _get_lc_collate                           - Undefined Weak Reference
    _get_lc_ctype                             - Undefined Weak Reference
    _get_lc_monetary                          - Undefined Weak Reference
    _get_lc_numeric                           - Undefined Weak Reference
    _get_lc_time                              - Undefined Weak Reference
    _getenv_init                              - Undefined Weak Reference
    _handle_redirection                       - Undefined Weak Reference
    _init_alloc                               - Undefined Weak Reference
    _init_user_alloc                          - Undefined Weak Reference
    _initio                                   - Undefined Weak Reference
    _mutex_acquire                            - Undefined Weak Reference
    _mutex_release                            - Undefined Weak Reference
    _printf_mbtowc                            - Undefined Weak Reference
    _printf_truncate_signed                   - Undefined Weak Reference
    _printf_truncate_unsigned                 - Undefined Weak Reference
    _rand_init                                - Undefined Weak Reference
    _signal_finish                            - Undefined Weak Reference
    _signal_init                              - Undefined Weak Reference
    _terminate_alloc                          - Undefined Weak Reference
    _terminate_user_alloc                     - Undefined Weak Reference
    _terminateio                              - Undefined Weak Reference
    __Vectors_Size                           0x00000298   Number         0  startup_stm32h743xx.o ABSOLUTE
    __Vectors                                0x08000000   Data           4  startup_stm32h743xx.o(RESET)
    __Vectors_End                            0x08000298   Data           0  startup_stm32h743xx.o(RESET)
    __main                                   0x08000299   Thumb Code     8  __main.o(!!!main)
    __scatterload                            0x080002a1   Thumb Code     0  __scatter.o(!!!scatter)
    __scatterload_rt2                        0x080002a1   Thumb Code    44  __scatter.o(!!!scatter)
    __scatterload_rt2_thumb_only             0x080002a1   Thumb Code     0  __scatter.o(!!!scatter)
    __scatterload_null                       0x080002af   Thumb Code     0  __scatter.o(!!!scatter)
    __scatterload_copy                       0x080002d5   Thumb Code    26  __scatter_copy.o(!!handler_copy)
    __scatterload_zeroinit                   0x080002f1   Thumb Code    28  __scatter_zi.o(!!handler_zi)
    _printf_d                                0x0800030d   Thumb Code     0  _printf_d.o(.ARM.Collect$$_printf_percent$$00000009)
    _printf_percent                          0x0800030d   Thumb Code     0  _printf_percent.o(.ARM.Collect$$_printf_percent$$00000000)
    _printf_x                                0x08000313   Thumb Code     0  _printf_x.o(.ARM.Collect$$_printf_percent$$0000000C)
    _printf_s                                0x08000319   Thumb Code     0  _printf_s.o(.ARM.Collect$$_printf_percent$$00000014)
    _printf_percent_end                      0x0800031f   Thumb Code     0  _printf_percent_end.o(.ARM.Collect$$_printf_percent$$00000017)
    __rt_lib_init                            0x08000323   Thumb Code     0  libinit.o(.ARM.Collect$$libinit$$00000000)
    __rt_lib_init_fp_1                       0x08000325   Thumb Code     0  libinit2.o(.ARM.Collect$$libinit$$00000001)
    __rt_lib_init_alloca_1                   0x08000329   Thumb Code     0  libinit2.o(.ARM.Collect$$libinit$$0000002E)
    __rt_lib_init_argv_1                     0x08000329   Thumb Code     0  libinit2.o(.ARM.Collect$$libinit$$0000002C)
    __rt_lib_init_atexit_1                   0x08000329   Thumb Code     0  libinit2.o(.ARM.Collect$$libinit$$0000001B)
    __rt_lib_init_clock_1                    0x08000329   Thumb Code     0  libinit2.o(.ARM.Collect$$libinit$$00000021)
    __rt_lib_init_cpp_1                      0x08000329   Thumb Code     0  libinit2.o(.ARM.Collect$$libinit$$00000032)
    __rt_lib_init_exceptions_1               0x08000329   Thumb Code     0  libinit2.o(.ARM.Collect$$libinit$$00000030)
    __rt_lib_init_fp_trap_1                  0x08000329   Thumb Code     0  libinit2.o(.ARM.Collect$$libinit$$0000001F)
    __rt_lib_init_getenv_1                   0x08000329   Thumb Code     0  libinit2.o(.ARM.Collect$$libinit$$00000023)
    __rt_lib_init_heap_1                     0x08000329   Thumb Code     0  libinit2.o(.ARM.Collect$$libinit$$0000000A)
    __rt_lib_init_lc_collate_1               0x08000329   Thumb Code     0  libinit2.o(.ARM.Collect$$libinit$$00000011)
    __rt_lib_init_lc_ctype_1                 0x08000329   Thumb Code     0  libinit2.o(.ARM.Collect$$libinit$$00000013)
    __rt_lib_init_lc_monetary_1              0x08000329   Thumb Code     0  libinit2.o(.ARM.Collect$$libinit$$00000015)
    __rt_lib_init_lc_numeric_1               0x08000329   Thumb Code     0  libinit2.o(.ARM.Collect$$libinit$$00000017)
    __rt_lib_init_lc_time_1                  0x08000329   Thumb Code     0  libinit2.o(.ARM.Collect$$libinit$$00000019)
    __rt_lib_init_preinit_1                  0x08000329   Thumb Code     0  libinit2.o(.ARM.Collect$$libinit$$00000004)
    __rt_lib_init_rand_1                     0x08000329   Thumb Code     0  libinit2.o(.ARM.Collect$$libinit$$0000000E)
    __rt_lib_init_return                     0x08000329   Thumb Code     0  libinit2.o(.ARM.Collect$$libinit$$00000033)
    __rt_lib_init_signal_1                   0x08000329   Thumb Code     0  libinit2.o(.ARM.Collect$$libinit$$0000001D)
    __rt_lib_init_stdio_1                    0x08000329   Thumb Code     0  libinit2.o(.ARM.Collect$$libinit$$00000025)
    __rt_lib_init_user_alloc_1               0x08000329   Thumb Code     0  libinit2.o(.ARM.Collect$$libinit$$0000000C)
    __rt_lib_shutdown                        0x0800032b   Thumb Code     0  libshutdown.o(.ARM.Collect$$libshutdown$$00000000)
    __rt_lib_shutdown_cpp_1                  0x0800032d   Thumb Code     0  libshutdown2.o(.ARM.Collect$$libshutdown$$00000004)
    __rt_lib_shutdown_fini_1                 0x0800032d   Thumb Code     0  libshutdown2.o(.ARM.Collect$$libshutdown$$00000002)
    __rt_lib_shutdown_fp_trap_1              0x0800032d   Thumb Code     0  libshutdown2.o(.ARM.Collect$$libshutdown$$00000009)
    __rt_lib_shutdown_heap_1                 0x0800032d   Thumb Code     0  libshutdown2.o(.ARM.Collect$$libshutdown$$00000011)
    __rt_lib_shutdown_return                 0x0800032d   Thumb Code     0  libshutdown2.o(.ARM.Collect$$libshutdown$$00000012)
    __rt_lib_shutdown_signal_1               0x0800032d   Thumb Code     0  libshutdown2.o(.ARM.Collect$$libshutdown$$0000000C)
    __rt_lib_shutdown_stdio_1                0x0800032d   Thumb Code     0  libshutdown2.o(.ARM.Collect$$libshutdown$$00000006)
    __rt_lib_shutdown_user_alloc_1           0x0800032d   Thumb Code     0  libshutdown2.o(.ARM.Collect$$libshutdown$$0000000E)
    __rt_entry                               0x0800032f   Thumb Code     0  __rtentry.o(.ARM.Collect$$rtentry$$00000000)
    __rt_entry_presh_1                       0x0800032f   Thumb Code     0  __rtentry2.o(.ARM.Collect$$rtentry$$00000002)
    __rt_entry_sh                            0x0800032f   Thumb Code     0  __rtentry4.o(.ARM.Collect$$rtentry$$00000004)
    __rt_entry_li                            0x08000335   Thumb Code     0  __rtentry2.o(.ARM.Collect$$rtentry$$0000000A)
    __rt_entry_postsh_1                      0x08000335   Thumb Code     0  __rtentry2.o(.ARM.Collect$$rtentry$$00000009)
    __rt_entry_main                          0x08000339   Thumb Code     0  __rtentry2.o(.ARM.Collect$$rtentry$$0000000D)
    __rt_entry_postli_1                      0x08000339   Thumb Code     0  __rtentry2.o(.ARM.Collect$$rtentry$$0000000C)
    __rt_exit                                0x08000341   Thumb Code     0  rtexit.o(.ARM.Collect$$rtexit$$00000000)
    __rt_exit_ls                             0x08000343   Thumb Code     0  rtexit2.o(.ARM.Collect$$rtexit$$00000003)
    __rt_exit_prels_1                        0x08000343   Thumb Code     0  rtexit2.o(.ARM.Collect$$rtexit$$00000002)
    __rt_exit_exit                           0x08000347   Thumb Code     0  rtexit2.o(.ARM.Collect$$rtexit$$00000004)
    Reset_Handler                            0x0800034d   Thumb Code     8  startup_stm32h743xx.o(.text)
    ADC3_IRQHandler                          0x08000367   Thumb Code     0  startup_stm32h743xx.o(.text)
    ADC_IRQHandler                           0x08000367   Thumb Code     0  startup_stm32h743xx.o(.text)
    BDMA_Channel0_IRQHandler                 0x08000367   Thumb Code     0  startup_stm32h743xx.o(.text)
    BDMA_Channel1_IRQHandler                 0x08000367   Thumb Code     0  startup_stm32h743xx.o(.text)
    BDMA_Channel2_IRQHandler                 0x08000367   Thumb Code     0  startup_stm32h743xx.o(.text)
    BDMA_Channel3_IRQHandler                 0x08000367   Thumb Code     0  startup_stm32h743xx.o(.text)
    BDMA_Channel4_IRQHandler                 0x08000367   Thumb Code     0  startup_stm32h743xx.o(.text)
    BDMA_Channel5_IRQHandler                 0x08000367   Thumb Code     0  startup_stm32h743xx.o(.text)
    BDMA_Channel6_IRQHandler                 0x08000367   Thumb Code     0  startup_stm32h743xx.o(.text)
    BDMA_Channel7_IRQHandler                 0x08000367   Thumb Code     0  startup_stm32h743xx.o(.text)
    CEC_IRQHandler                           0x08000367   Thumb Code     0  startup_stm32h743xx.o(.text)
    COMP1_IRQHandler                         0x08000367   Thumb Code     0  startup_stm32h743xx.o(.text)
    CRS_IRQHandler                           0x08000367   Thumb Code     0  startup_stm32h743xx.o(.text)
    DCMI_IRQHandler                          0x08000367   Thumb Code     0  startup_stm32h743xx.o(.text)
    DFSDM1_FLT0_IRQHandler                   0x08000367   Thumb Code     0  startup_stm32h743xx.o(.text)
    DFSDM1_FLT1_IRQHandler                   0x08000367   Thumb Code     0  startup_stm32h743xx.o(.text)
    DFSDM1_FLT2_IRQHandler                   0x08000367   Thumb Code     0  startup_stm32h743xx.o(.text)
    DFSDM1_FLT3_IRQHandler                   0x08000367   Thumb Code     0  startup_stm32h743xx.o(.text)
    DMA1_Stream0_IRQHandler                  0x08000367   Thumb Code     0  startup_stm32h743xx.o(.text)
    DMA1_Stream1_IRQHandler                  0x08000367   Thumb Code     0  startup_stm32h743xx.o(.text)
    DMA1_Stream2_IRQHandler                  0x08000367   Thumb Code     0  startup_stm32h743xx.o(.text)
    DMA1_Stream3_IRQHandler                  0x08000367   Thumb Code     0  startup_stm32h743xx.o(.text)
    DMA1_Stream4_IRQHandler                  0x08000367   Thumb Code     0  startup_stm32h743xx.o(.text)
    DMA1_Stream5_IRQHandler                  0x08000367   Thumb Code     0  startup_stm32h743xx.o(.text)
    DMA1_Stream6_IRQHandler                  0x08000367   Thumb Code     0  startup_stm32h743xx.o(.text)
    DMA1_Stream7_IRQHandler                  0x08000367   Thumb Code     0  startup_stm32h743xx.o(.text)
    DMA2D_IRQHandler                         0x08000367   Thumb Code     0  startup_stm32h743xx.o(.text)
    DMA2_Stream0_IRQHandler                  0x08000367   Thumb Code     0  startup_stm32h743xx.o(.text)
    DMA2_Stream1_IRQHandler                  0x08000367   Thumb Code     0  startup_stm32h743xx.o(.text)
    DMA2_Stream2_IRQHandler                  0x08000367   Thumb Code     0  startup_stm32h743xx.o(.text)
    DMA2_Stream3_IRQHandler                  0x08000367   Thumb Code     0  startup_stm32h743xx.o(.text)
    DMA2_Stream4_IRQHandler                  0x08000367   Thumb Code     0  startup_stm32h743xx.o(.text)
    DMA2_Stream5_IRQHandler                  0x08000367   Thumb Code     0  startup_stm32h743xx.o(.text)
    DMA2_Stream6_IRQHandler                  0x08000367   Thumb Code     0  startup_stm32h743xx.o(.text)
    DMA2_Stream7_IRQHandler                  0x08000367   Thumb Code     0  startup_stm32h743xx.o(.text)
    DMAMUX1_OVR_IRQHandler                   0x08000367   Thumb Code     0  startup_stm32h743xx.o(.text)
    DMAMUX2_OVR_IRQHandler                   0x08000367   Thumb Code     0  startup_stm32h743xx.o(.text)
    ECC_IRQHandler                           0x08000367   Thumb Code     0  startup_stm32h743xx.o(.text)
    ETH_IRQHandler                           0x08000367   Thumb Code     0  startup_stm32h743xx.o(.text)
    ETH_WKUP_IRQHandler                      0x08000367   Thumb Code     0  startup_stm32h743xx.o(.text)
    EXTI15_10_IRQHandler                     0x08000367   Thumb Code     0  startup_stm32h743xx.o(.text)
    EXTI1_IRQHandler                         0x08000367   Thumb Code     0  startup_stm32h743xx.o(.text)
    EXTI2_IRQHandler                         0x08000367   Thumb Code     0  startup_stm32h743xx.o(.text)
    EXTI3_IRQHandler                         0x08000367   Thumb Code     0  startup_stm32h743xx.o(.text)
    EXTI4_IRQHandler                         0x08000367   Thumb Code     0  startup_stm32h743xx.o(.text)
    EXTI9_5_IRQHandler                       0x08000367   Thumb Code     0  startup_stm32h743xx.o(.text)
    FDCAN1_IT0_IRQHandler                    0x08000367   Thumb Code     0  startup_stm32h743xx.o(.text)
    FDCAN1_IT1_IRQHandler                    0x08000367   Thumb Code     0  startup_stm32h743xx.o(.text)
    FDCAN2_IT0_IRQHandler                    0x08000367   Thumb Code     0  startup_stm32h743xx.o(.text)
    FDCAN2_IT1_IRQHandler                    0x08000367   Thumb Code     0  startup_stm32h743xx.o(.text)
    FDCAN_CAL_IRQHandler                     0x08000367   Thumb Code     0  startup_stm32h743xx.o(.text)
    FLASH_IRQHandler                         0x08000367   Thumb Code     0  startup_stm32h743xx.o(.text)
    FPU_IRQHandler                           0x08000367   Thumb Code     0  startup_stm32h743xx.o(.text)
    HRTIM1_FLT_IRQHandler                    0x08000367   Thumb Code     0  startup_stm32h743xx.o(.text)
    HRTIM1_Master_IRQHandler                 0x08000367   Thumb Code     0  startup_stm32h743xx.o(.text)
    HRTIM1_TIMA_IRQHandler                   0x08000367   Thumb Code     0  startup_stm32h743xx.o(.text)
    HRTIM1_TIMB_IRQHandler                   0x08000367   Thumb Code     0  startup_stm32h743xx.o(.text)
    HRTIM1_TIMC_IRQHandler                   0x08000367   Thumb Code     0  startup_stm32h743xx.o(.text)
    HRTIM1_TIMD_IRQHandler                   0x08000367   Thumb Code     0  startup_stm32h743xx.o(.text)
    HRTIM1_TIME_IRQHandler                   0x08000367   Thumb Code     0  startup_stm32h743xx.o(.text)
    HSEM1_IRQHandler                         0x08000367   Thumb Code     0  startup_stm32h743xx.o(.text)
    I2C1_ER_IRQHandler                       0x08000367   Thumb Code     0  startup_stm32h743xx.o(.text)
    I2C1_EV_IRQHandler                       0x08000367   Thumb Code     0  startup_stm32h743xx.o(.text)
    I2C3_ER_IRQHandler                       0x08000367   Thumb Code     0  startup_stm32h743xx.o(.text)
    I2C3_EV_IRQHandler                       0x08000367   Thumb Code     0  startup_stm32h743xx.o(.text)
    I2C4_ER_IRQHandler                       0x08000367   Thumb Code     0  startup_stm32h743xx.o(.text)
    I2C4_EV_IRQHandler                       0x08000367   Thumb Code     0  startup_stm32h743xx.o(.text)
    JPEG_IRQHandler                          0x08000367   Thumb Code     0  startup_stm32h743xx.o(.text)
    LPTIM1_IRQHandler                        0x08000367   Thumb Code     0  startup_stm32h743xx.o(.text)
    LPTIM2_IRQHandler                        0x08000367   Thumb Code     0  startup_stm32h743xx.o(.text)
    LPTIM3_IRQHandler                        0x08000367   Thumb Code     0  startup_stm32h743xx.o(.text)
    LPTIM4_IRQHandler                        0x08000367   Thumb Code     0  startup_stm32h743xx.o(.text)
    LPTIM5_IRQHandler                        0x08000367   Thumb Code     0  startup_stm32h743xx.o(.text)
    LPUART1_IRQHandler                       0x08000367   Thumb Code     0  startup_stm32h743xx.o(.text)
    LTDC_ER_IRQHandler                       0x08000367   Thumb Code     0  startup_stm32h743xx.o(.text)
    LTDC_IRQHandler                          0x08000367   Thumb Code     0  startup_stm32h743xx.o(.text)
    MDIOS_IRQHandler                         0x08000367   Thumb Code     0  startup_stm32h743xx.o(.text)
    MDIOS_WKUP_IRQHandler                    0x08000367   Thumb Code     0  startup_stm32h743xx.o(.text)
    MDMA_IRQHandler                          0x08000367   Thumb Code     0  startup_stm32h743xx.o(.text)
    OTG_FS_EP1_IN_IRQHandler                 0x08000367   Thumb Code     0  startup_stm32h743xx.o(.text)
    OTG_FS_EP1_OUT_IRQHandler                0x08000367   Thumb Code     0  startup_stm32h743xx.o(.text)
    OTG_FS_IRQHandler                        0x08000367   Thumb Code     0  startup_stm32h743xx.o(.text)
    OTG_FS_WKUP_IRQHandler                   0x08000367   Thumb Code     0  startup_stm32h743xx.o(.text)
    OTG_HS_EP1_IN_IRQHandler                 0x08000367   Thumb Code     0  startup_stm32h743xx.o(.text)
    OTG_HS_EP1_OUT_IRQHandler                0x08000367   Thumb Code     0  startup_stm32h743xx.o(.text)
    OTG_HS_IRQHandler                        0x08000367   Thumb Code     0  startup_stm32h743xx.o(.text)
    OTG_HS_WKUP_IRQHandler                   0x08000367   Thumb Code     0  startup_stm32h743xx.o(.text)
    PVD_AVD_IRQHandler                       0x08000367   Thumb Code     0  startup_stm32h743xx.o(.text)
    RCC_IRQHandler                           0x08000367   Thumb Code     0  startup_stm32h743xx.o(.text)
    RNG_IRQHandler                           0x08000367   Thumb Code     0  startup_stm32h743xx.o(.text)
    RTC_Alarm_IRQHandler                     0x08000367   Thumb Code     0  startup_stm32h743xx.o(.text)
    RTC_WKUP_IRQHandler                      0x08000367   Thumb Code     0  startup_stm32h743xx.o(.text)
    SAI1_IRQHandler                          0x08000367   Thumb Code     0  startup_stm32h743xx.o(.text)
    SAI2_IRQHandler                          0x08000367   Thumb Code     0  startup_stm32h743xx.o(.text)
    SAI3_IRQHandler                          0x08000367   Thumb Code     0  startup_stm32h743xx.o(.text)
    SAI4_IRQHandler                          0x08000367   Thumb Code     0  startup_stm32h743xx.o(.text)
    SDMMC2_IRQHandler                        0x08000367   Thumb Code     0  startup_stm32h743xx.o(.text)
    SPDIF_RX_IRQHandler                      0x08000367   Thumb Code     0  startup_stm32h743xx.o(.text)
    SPI1_IRQHandler                          0x08000367   Thumb Code     0  startup_stm32h743xx.o(.text)
    SPI2_IRQHandler                          0x08000367   Thumb Code     0  startup_stm32h743xx.o(.text)
    SPI3_IRQHandler                          0x08000367   Thumb Code     0  startup_stm32h743xx.o(.text)
    SPI4_IRQHandler                          0x08000367   Thumb Code     0  startup_stm32h743xx.o(.text)
    SPI5_IRQHandler                          0x08000367   Thumb Code     0  startup_stm32h743xx.o(.text)
    SPI6_IRQHandler                          0x08000367   Thumb Code     0  startup_stm32h743xx.o(.text)
    SWPMI1_IRQHandler                        0x08000367   Thumb Code     0  startup_stm32h743xx.o(.text)
    TAMP_STAMP_IRQHandler                    0x08000367   Thumb Code     0  startup_stm32h743xx.o(.text)
    TIM15_IRQHandler                         0x08000367   Thumb Code     0  startup_stm32h743xx.o(.text)
    TIM16_IRQHandler                         0x08000367   Thumb Code     0  startup_stm32h743xx.o(.text)
    TIM17_IRQHandler                         0x08000367   Thumb Code     0  startup_stm32h743xx.o(.text)
    TIM1_BRK_IRQHandler                      0x08000367   Thumb Code     0  startup_stm32h743xx.o(.text)
    TIM1_CC_IRQHandler                       0x08000367   Thumb Code     0  startup_stm32h743xx.o(.text)
    TIM1_TRG_COM_IRQHandler                  0x08000367   Thumb Code     0  startup_stm32h743xx.o(.text)
    TIM1_UP_IRQHandler                       0x08000367   Thumb Code     0  startup_stm32h743xx.o(.text)
    TIM2_IRQHandler                          0x08000367   Thumb Code     0  startup_stm32h743xx.o(.text)
    TIM3_IRQHandler                          0x08000367   Thumb Code     0  startup_stm32h743xx.o(.text)
    TIM4_IRQHandler                          0x08000367   Thumb Code     0  startup_stm32h743xx.o(.text)
    TIM5_IRQHandler                          0x08000367   Thumb Code     0  startup_stm32h743xx.o(.text)
    TIM7_IRQHandler                          0x08000367   Thumb Code     0  startup_stm32h743xx.o(.text)
    TIM8_BRK_TIM12_IRQHandler                0x08000367   Thumb Code     0  startup_stm32h743xx.o(.text)
    TIM8_CC_IRQHandler                       0x08000367   Thumb Code     0  startup_stm32h743xx.o(.text)
    TIM8_TRG_COM_TIM14_IRQHandler            0x08000367   Thumb Code     0  startup_stm32h743xx.o(.text)
    TIM8_UP_TIM13_IRQHandler                 0x08000367   Thumb Code     0  startup_stm32h743xx.o(.text)
    UART4_IRQHandler                         0x08000367   Thumb Code     0  startup_stm32h743xx.o(.text)
    UART5_IRQHandler                         0x08000367   Thumb Code     0  startup_stm32h743xx.o(.text)
    UART7_IRQHandler                         0x08000367   Thumb Code     0  startup_stm32h743xx.o(.text)
    UART8_IRQHandler                         0x08000367   Thumb Code     0  startup_stm32h743xx.o(.text)
    USART2_IRQHandler                        0x08000367   Thumb Code     0  startup_stm32h743xx.o(.text)
    USART3_IRQHandler                        0x08000367   Thumb Code     0  startup_stm32h743xx.o(.text)
    USART6_IRQHandler                        0x08000367   Thumb Code     0  startup_stm32h743xx.o(.text)
    WAKEUP_PIN_IRQHandler                    0x08000367   Thumb Code     0  startup_stm32h743xx.o(.text)
    WWDG_IRQHandler                          0x08000367   Thumb Code     0  startup_stm32h743xx.o(.text)
    __user_initial_stackheap                 0x08000369   Thumb Code     0  startup_stm32h743xx.o(.text)
    __use_no_semihosting                     0x0800038d   Thumb Code     2  use_no_semi_2.o(.text)
    __aeabi_uldivmod                         0x0800038f   Thumb Code     0  lludivv7m.o(.text)
    _ll_udiv                                 0x0800038f   Thumb Code   238  lludivv7m.o(.text)
    __2printf                                0x0800047d   Thumb Code    20  noretval__2printf.o(.text)
    __2sprintf                               0x08000495   Thumb Code    34  noretval__2sprintf.o(.text)
    _printf_pre_padding                      0x080004bd   Thumb Code    44  _printf_pad.o(.text)
    _printf_post_padding                     0x080004e9   Thumb Code    34  _printf_pad.o(.text)
    _printf_str                              0x0800050b   Thumb Code    82  _printf_str.o(.text)
    _printf_int_dec                          0x0800055d   Thumb Code   104  _printf_dec.o(.text)
    _printf_int_hex                          0x080005d5   Thumb Code    84  _printf_hex_int.o(.text)
    _printf_longlong_hex                     0x080005d5   Thumb Code     0  _printf_hex_int.o(.text)
    __printf                                 0x0800062d   Thumb Code   308  __printf_flags_wp.o(.text)
    __aeabi_memclr4                          0x08000765   Thumb Code     0  rt_memclr_w.o(.text)
    __aeabi_memclr8                          0x08000765   Thumb Code     0  rt_memclr_w.o(.text)
    __rt_memclr_w                            0x08000765   Thumb Code    78  rt_memclr_w.o(.text)
    _memset_w                                0x08000769   Thumb Code     0  rt_memclr_w.o(.text)
    __use_two_region_memory                  0x080007b3   Thumb Code     2  heapauxi.o(.text)
    __rt_heap_escrow$2region                 0x080007b5   Thumb Code     2  heapauxi.o(.text)
    __rt_heap_expand$2region                 0x080007b7   Thumb Code     2  heapauxi.o(.text)
    __I$use$semihosting                      0x080007b9   Thumb Code     0  use_no_semi.o(.text)
    __use_no_semihosting_swi                 0x080007b9   Thumb Code     2  use_no_semi.o(.text)
    _printf_int_common                       0x080007bb   Thumb Code   178  _printf_intcommon.o(.text)
    _printf_char_common                      0x08000877   Thumb Code    32  _printf_char_common.o(.text)
    _sputc                                   0x0800089d   Thumb Code    10  _sputc.o(.text)
    _printf_cs_common                        0x080008a7   Thumb Code    20  _printf_char.o(.text)
    _printf_char                             0x080008bb   Thumb Code    16  _printf_char.o(.text)
    _printf_string                           0x080008cb   Thumb Code     8  _printf_char.o(.text)
    _printf_char_file                        0x080008d5   Thumb Code    32  _printf_char_file.o(.text)
    ferror                                   0x080008f9   Thumb Code     8  ferror.o(.text)
    __user_setup_stackheap                   0x08000901   Thumb Code    74  sys_stackheap_outer.o(.text)
    exit                                     0x0800094b   Thumb Code    18  exit.o(.text)
    __user_libspace                          0x0800095d   Thumb Code     8  libspace.o(.text)
    __user_perproc_libspace                  0x0800095d   Thumb Code     0  libspace.o(.text)
    __user_perthread_libspace                0x0800095d   Thumb Code     0  libspace.o(.text)
    BusFault_Handler                         0x08000965   Thumb Code     2  stm32h7xx_it.o(i.BusFault_Handler)
    DebugMon_Handler                         0x08000967   Thumb Code     2  stm32h7xx_it.o(i.DebugMon_Handler)
    EXTI0_IRQHandler                         0x08000969   Thumb Code    56  stm32h7xx_it.o(i.EXTI0_IRQHandler)
    Error_Handler                            0x080009c5   Thumb Code     4  main.o(i.Error_Handler)
    FMC_IRQHandler                           0x080009c9   Thumb Code     6  stm32h7xx_it.o(i.FMC_IRQHandler)
    FMC_NORSRAM_Extended_Timing_Init         0x080009d5   Thumb Code    58  stm32h7xx_ll_fmc.o(i.FMC_NORSRAM_Extended_Timing_Init)
    FMC_NORSRAM_Init                         0x08000a15   Thumb Code   144  stm32h7xx_ll_fmc.o(i.FMC_NORSRAM_Init)
    FMC_NORSRAM_Timing_Init                  0x08000aa9   Thumb Code   100  stm32h7xx_ll_fmc.o(i.FMC_NORSRAM_Timing_Init)
    FMC_SDRAM_Init                           0x08000b11   Thumb Code   106  stm32h7xx_ll_fmc.o(i.FMC_SDRAM_Init)
    FMC_SDRAM_ProgramRefreshRate             0x08000b7b   Thumb Code    18  stm32h7xx_ll_fmc.o(i.FMC_SDRAM_ProgramRefreshRate)
    FMC_SDRAM_SendCommand                    0x08000b8d   Thumb Code    38  stm32h7xx_ll_fmc.o(i.FMC_SDRAM_SendCommand)
    FMC_SDRAM_Timing_Init                    0x08000bb5   Thumb Code   164  stm32h7xx_ll_fmc.o(i.FMC_SDRAM_Timing_Init)
    HAL_DMA_Abort                            0x08000c65   Thumb Code   840  stm32h7xx_hal_dma.o(i.HAL_DMA_Abort)
    HAL_DMA_Abort_IT                         0x08000fc9   Thumb Code   602  stm32h7xx_hal_dma.o(i.HAL_DMA_Abort_IT)
    HAL_DMA_GetState                         0x0800124d   Thumb Code     6  stm32h7xx_hal_dma.o(i.HAL_DMA_GetState)
    HAL_Delay                                0x08001255   Thumb Code    32  stm32h7xx_hal.o(i.HAL_Delay)
    HAL_Delay_us                             0x08001279   Thumb Code    44  sys.o(i.HAL_Delay_us)
    HAL_GPIO_EXTI_Callback                   0x08001395   Thumb Code     2  stm32h7xx_hal_gpio.o(i.HAL_GPIO_EXTI_Callback)
    HAL_GPIO_EXTI_IRQHandler                 0x08001397   Thumb Code    24  stm32h7xx_hal_gpio.o(i.HAL_GPIO_EXTI_IRQHandler)
    HAL_GPIO_Init                            0x080013b1   Thumb Code   510  stm32h7xx_hal_gpio.o(i.HAL_GPIO_Init)
    HAL_GPIO_ReadPin                         0x080015e1   Thumb Code    10  stm32h7xx_hal_gpio.o(i.HAL_GPIO_ReadPin)
    HAL_GPIO_TogglePin                       0x080015eb   Thumb Code    16  stm32h7xx_hal_gpio.o(i.HAL_GPIO_TogglePin)
    HAL_GPIO_WritePin                        0x080015fb   Thumb Code    10  stm32h7xx_hal_gpio.o(i.HAL_GPIO_WritePin)
    HAL_GetREVID                             0x08001605   Thumb Code     8  stm32h7xx_hal.o(i.HAL_GetREVID)
    HAL_GetTick                              0x08001611   Thumb Code     6  stm32h7xx_hal.o(i.HAL_GetTick)
    HAL_I2CEx_ConfigAnalogFilter             0x0800161d   Thumb Code    88  stm32h7xx_hal_i2c_ex.o(i.HAL_I2CEx_ConfigAnalogFilter)
    HAL_I2CEx_ConfigDigitalFilter            0x08001675   Thumb Code    84  stm32h7xx_hal_i2c_ex.o(i.HAL_I2CEx_ConfigDigitalFilter)
    HAL_I2C_AbortCpltCallback                0x080016c9   Thumb Code     2  stm32h7xx_hal_i2c.o(i.HAL_I2C_AbortCpltCallback)
    HAL_I2C_AddrCallback                     0x080016cb   Thumb Code     2  stm32h7xx_hal_i2c.o(i.HAL_I2C_AddrCallback)
    HAL_I2C_ER_IRQHandler                    0x080016cd   Thumb Code   104  stm32h7xx_hal_i2c.o(i.HAL_I2C_ER_IRQHandler)
    HAL_I2C_EV_IRQHandler                    0x08001735   Thumb Code    16  stm32h7xx_hal_i2c.o(i.HAL_I2C_EV_IRQHandler)
    HAL_I2C_ErrorCallback                    0x08001745   Thumb Code     2  stm32h7xx_hal_i2c.o(i.HAL_I2C_ErrorCallback)
    HAL_I2C_Init                             0x08001749   Thumb Code   180  stm32h7xx_hal_i2c.o(i.HAL_I2C_Init)
    HAL_I2C_ListenCpltCallback               0x08001801   Thumb Code     2  stm32h7xx_hal_i2c.o(i.HAL_I2C_ListenCpltCallback)
    HAL_I2C_Master_Transmit                  0x08001805   Thumb Code   282  stm32h7xx_hal_i2c.o(i.HAL_I2C_Master_Transmit)
    HAL_I2C_MspInit                          0x08001929   Thumb Code   148  i2c.o(i.HAL_I2C_MspInit)
    HAL_I2C_SlaveRxCpltCallback              0x080019c9   Thumb Code     2  stm32h7xx_hal_i2c.o(i.HAL_I2C_SlaveRxCpltCallback)
    HAL_I2C_SlaveTxCpltCallback              0x080019cb   Thumb Code     2  stm32h7xx_hal_i2c.o(i.HAL_I2C_SlaveTxCpltCallback)
    HAL_IncTick                              0x080019cd   Thumb Code    12  stm32h7xx_hal.o(i.HAL_IncTick)
    HAL_Init                                 0x080019dd   Thumb Code    74  stm32h7xx_hal.o(i.HAL_Init)
    HAL_InitTick                             0x08001a39   Thumb Code   120  stm32h7xx_hal_timebase_tim.o(i.HAL_InitTick)
    HAL_MDMA_Abort_IT                        0x08001ac5   Thumb Code    38  stm32h7xx_hal_mdma.o(i.HAL_MDMA_Abort_IT)
    HAL_MPU_ConfigRegion                     0x08001aed   Thumb Code    86  stm32h7xx_hal_cortex.o(i.HAL_MPU_ConfigRegion)
    HAL_MPU_Disable                          0x08001b49   Thumb Code    24  stm32h7xx_hal_cortex.o(i.HAL_MPU_Disable)
    HAL_MPU_Enable                           0x08001b65   Thumb Code    30  stm32h7xx_hal_cortex.o(i.HAL_MPU_Enable)
    HAL_MspInit                              0x08001b89   Thumb Code    22  stm32h7xx_hal_msp.o(i.HAL_MspInit)
    HAL_NVIC_EnableIRQ                       0x08001ba5   Thumb Code    26  stm32h7xx_hal_cortex.o(i.HAL_NVIC_EnableIRQ)
    HAL_NVIC_SetPriority                     0x08001bc1   Thumb Code    60  stm32h7xx_hal_cortex.o(i.HAL_NVIC_SetPriority)
    HAL_NVIC_SetPriorityGrouping             0x08001c01   Thumb Code    28  stm32h7xx_hal_cortex.o(i.HAL_NVIC_SetPriorityGrouping)
    HAL_PWREx_ConfigSupply                   0x08001c25   Thumb Code    78  stm32h7xx_hal_pwr_ex.o(i.HAL_PWREx_ConfigSupply)
    HAL_PWR_EnterSTOPMode                    0x08001c79   Thumb Code    72  stm32h7xx_hal_pwr.o(i.HAL_PWR_EnterSTOPMode)
    HAL_QSPI_AbortCpltCallback               0x08001cc9   Thumb Code     2  stm32h7xx_hal_qspi.o(i.HAL_QSPI_AbortCpltCallback)
    HAL_QSPI_CmdCpltCallback                 0x08001ccb   Thumb Code     2  stm32h7xx_hal_qspi.o(i.HAL_QSPI_CmdCpltCallback)
    HAL_QSPI_Command                         0x08001ccd   Thumb Code   134  stm32h7xx_hal_qspi.o(i.HAL_QSPI_Command)
    HAL_QSPI_ErrorCallback                   0x08001d53   Thumb Code     2  stm32h7xx_hal_qspi.o(i.HAL_QSPI_ErrorCallback)
    HAL_QSPI_FifoThresholdCallback           0x08001d55   Thumb Code     2  stm32h7xx_hal_qspi.o(i.HAL_QSPI_FifoThresholdCallback)
    HAL_QSPI_IRQHandler                      0x08001d59   Thumb Code   480  stm32h7xx_hal_qspi.o(i.HAL_QSPI_IRQHandler)
    HAL_QSPI_Init                            0x08001f3d   Thumb Code   162  stm32h7xx_hal_qspi.o(i.HAL_QSPI_Init)
    HAL_QSPI_MspInit                         0x08001fe9   Thumb Code   228  quadspi.o(i.HAL_QSPI_MspInit)
    HAL_QSPI_Receive                         0x080020dd   Thumb Code   190  stm32h7xx_hal_qspi.o(i.HAL_QSPI_Receive)
    HAL_QSPI_RxCpltCallback                  0x0800219b   Thumb Code     2  stm32h7xx_hal_qspi.o(i.HAL_QSPI_RxCpltCallback)
    HAL_QSPI_StatusMatchCallback             0x0800219d   Thumb Code     2  stm32h7xx_hal_qspi.o(i.HAL_QSPI_StatusMatchCallback)
    HAL_QSPI_TimeOutCallback                 0x0800219f   Thumb Code     2  stm32h7xx_hal_qspi.o(i.HAL_QSPI_TimeOutCallback)
    HAL_QSPI_Transmit                        0x080021a1   Thumb Code   182  stm32h7xx_hal_qspi.o(i.HAL_QSPI_Transmit)
    HAL_QSPI_TxCpltCallback                  0x08002257   Thumb Code     2  stm32h7xx_hal_qspi.o(i.HAL_QSPI_TxCpltCallback)
    HAL_RCCEx_GetD3PCLK1Freq                 0x08002259   Thumb Code    26  stm32h7xx_hal_rcc_ex.o(i.HAL_RCCEx_GetD3PCLK1Freq)
    HAL_RCCEx_GetPLL1ClockFreq               0x0800227d   Thumb Code   298  stm32h7xx_hal_rcc_ex.o(i.HAL_RCCEx_GetPLL1ClockFreq)
    HAL_RCCEx_GetPLL2ClockFreq               0x080023c5   Thumb Code   296  stm32h7xx_hal_rcc_ex.o(i.HAL_RCCEx_GetPLL2ClockFreq)
    HAL_RCCEx_GetPLL3ClockFreq               0x08002509   Thumb Code   296  stm32h7xx_hal_rcc_ex.o(i.HAL_RCCEx_GetPLL3ClockFreq)
    HAL_RCCEx_GetPeriphCLKFreq               0x0800264d   Thumb Code   596  stm32h7xx_hal_rcc_ex.o(i.HAL_RCCEx_GetPeriphCLKFreq)
    HAL_RCCEx_PeriphCLKConfig                0x080028b9   Thumb Code  2258  stm32h7xx_hal_rcc_ex.o(i.HAL_RCCEx_PeriphCLKConfig)
    HAL_RCC_ClockConfig                      0x0800318d   Thumb Code   580  stm32h7xx_hal_rcc.o(i.HAL_RCC_ClockConfig)
    HAL_RCC_GetClockConfig                   0x080033e9   Thumb Code    84  stm32h7xx_hal_rcc.o(i.HAL_RCC_GetClockConfig)
    HAL_RCC_GetHCLKFreq                      0x08003445   Thumb Code    52  stm32h7xx_hal_rcc.o(i.HAL_RCC_GetHCLKFreq)
    HAL_RCC_GetPCLK1Freq                     0x08003489   Thumb Code    26  stm32h7xx_hal_rcc.o(i.HAL_RCC_GetPCLK1Freq)
    HAL_RCC_GetPCLK2Freq                     0x080034ad   Thumb Code    26  stm32h7xx_hal_rcc.o(i.HAL_RCC_GetPCLK2Freq)
    HAL_RCC_GetSysClockFreq                  0x080034d1   Thumb Code   278  stm32h7xx_hal_rcc.o(i.HAL_RCC_GetSysClockFreq)
    HAL_RCC_OscConfig                        0x08003609   Thumb Code  1282  stm32h7xx_hal_rcc.o(i.HAL_RCC_OscConfig)
    HAL_SDEx_Read_DMADoubleBuf0CpltCallback  0x08003b11   Thumb Code     2  stm32h7xx_hal_sd.o(i.HAL_SDEx_Read_DMADoubleBuf0CpltCallback)
    HAL_SDEx_Read_DMADoubleBuf1CpltCallback  0x08003b13   Thumb Code     2  stm32h7xx_hal_sd.o(i.HAL_SDEx_Read_DMADoubleBuf1CpltCallback)
    HAL_SDEx_Write_DMADoubleBuf0CpltCallback 0x08003b15   Thumb Code     2  stm32h7xx_hal_sd.o(i.HAL_SDEx_Write_DMADoubleBuf0CpltCallback)
    HAL_SDEx_Write_DMADoubleBuf1CpltCallback 0x08003b17   Thumb Code     2  stm32h7xx_hal_sd.o(i.HAL_SDEx_Write_DMADoubleBuf1CpltCallback)
    HAL_SDRAM_IRQHandler                     0x08003b19   Thumb Code    30  stm32h7xx_hal_sdram.o(i.HAL_SDRAM_IRQHandler)
    HAL_SDRAM_Init                           0x08003b39   Thumb Code    76  stm32h7xx_hal_sdram.o(i.HAL_SDRAM_Init)
    HAL_SDRAM_MspInit                        0x08003b89   Thumb Code     4  fmc.o(i.HAL_SDRAM_MspInit)
    HAL_SDRAM_ProgramRefreshRate             0x08003b8d   Thumb Code    46  stm32h7xx_hal_sdram.o(i.HAL_SDRAM_ProgramRefreshRate)
    HAL_SDRAM_RefreshErrorCallback           0x08003bbb   Thumb Code     2  stm32h7xx_hal_sdram.o(i.HAL_SDRAM_RefreshErrorCallback)
    HAL_SDRAM_SendCommand                    0x08003bbd   Thumb Code    60  stm32h7xx_hal_sdram.o(i.HAL_SDRAM_SendCommand)
    HAL_SD_ConfigWideBusOperation            0x08003bf9   Thumb Code   384  stm32h7xx_hal_sd.o(i.HAL_SD_ConfigWideBusOperation)
    HAL_SD_DriveTransceiver_1_8V_Callback    0x08003d85   Thumb Code     2  stm32h7xx_hal_sd.o(i.HAL_SD_DriveTransceiver_1_8V_Callback)
    HAL_SD_ErrorCallback                     0x08003d87   Thumb Code     2  stm32h7xx_hal_sd.o(i.HAL_SD_ErrorCallback)
    HAL_SD_GetCardCSD                        0x08003d89   Thumb Code   440  stm32h7xx_hal_sd.o(i.HAL_SD_GetCardCSD)
    HAL_SD_GetCardInfo                       0x08003f45   Thumb Code    36  stm32h7xx_hal_sd.o(i.HAL_SD_GetCardInfo)
    HAL_SD_GetCardState                      0x08003f69   Thumb Code    44  stm32h7xx_hal_sd.o(i.HAL_SD_GetCardState)
    HAL_SD_GetCardStatus                     0x08003f95   Thumb Code   184  stm32h7xx_hal_sd.o(i.HAL_SD_GetCardStatus)
    HAL_SD_IRQHandler                        0x08004051   Thumb Code   570  stm32h7xx_hal_sd.o(i.HAL_SD_IRQHandler)
    HAL_SD_Init                              0x08004291   Thumb Code   162  stm32h7xx_hal_sd.o(i.HAL_SD_Init)
    HAL_SD_InitCard                          0x08004335   Thumb Code   174  stm32h7xx_hal_sd.o(i.HAL_SD_InitCard)
    HAL_SD_MspInit                           0x080043f1   Thumb Code   164  sdmmc.o(i.HAL_SD_MspInit)
    HAL_SD_RxCpltCallback                    0x080044a5   Thumb Code     2  stm32h7xx_hal_sd.o(i.HAL_SD_RxCpltCallback)
    HAL_SD_TxCpltCallback                    0x080044a7   Thumb Code     2  stm32h7xx_hal_sd.o(i.HAL_SD_TxCpltCallback)
    HAL_SRAM_Init                            0x080044a9   Thumb Code   102  stm32h7xx_hal_sram.o(i.HAL_SRAM_Init)
    HAL_SRAM_MspInit                         0x08004515   Thumb Code     4  fmc.o(i.HAL_SRAM_MspInit)
    HAL_SYSTICK_Config                       0x08004519   Thumb Code    38  stm32h7xx_hal_cortex.o(i.HAL_SYSTICK_Config)
    HAL_TIMEx_Break2Callback                 0x0800453f   Thumb Code     2  stm32h7xx_hal_tim_ex.o(i.HAL_TIMEx_Break2Callback)
    HAL_TIMEx_BreakCallback                  0x08004541   Thumb Code     2  stm32h7xx_hal_tim_ex.o(i.HAL_TIMEx_BreakCallback)
    HAL_TIMEx_CommutCallback                 0x08004543   Thumb Code     2  stm32h7xx_hal_tim_ex.o(i.HAL_TIMEx_CommutCallback)
    HAL_TIM_Base_Init                        0x08004545   Thumb Code    98  stm32h7xx_hal_tim.o(i.HAL_TIM_Base_Init)
    HAL_TIM_Base_MspInit                     0x080045a7   Thumb Code     2  stm32h7xx_hal_tim.o(i.HAL_TIM_Base_MspInit)
    HAL_TIM_Base_Start_IT                    0x080045a9   Thumb Code   100  stm32h7xx_hal_tim.o(i.HAL_TIM_Base_Start_IT)
    HAL_TIM_IC_CaptureCallback               0x08004629   Thumb Code     2  stm32h7xx_hal_tim.o(i.HAL_TIM_IC_CaptureCallback)
    HAL_TIM_IRQHandler                       0x0800462b   Thumb Code   386  stm32h7xx_hal_tim.o(i.HAL_TIM_IRQHandler)
    HAL_TIM_OC_DelayElapsedCallback          0x080047ad   Thumb Code     2  stm32h7xx_hal_tim.o(i.HAL_TIM_OC_DelayElapsedCallback)
    HAL_TIM_PWM_PulseFinishedCallback        0x080047af   Thumb Code     2  stm32h7xx_hal_tim.o(i.HAL_TIM_PWM_PulseFinishedCallback)
    HAL_TIM_PeriodElapsedCallback            0x080047b1   Thumb Code    14  main.o(i.HAL_TIM_PeriodElapsedCallback)
    HAL_TIM_TriggerCallback                  0x080047c5   Thumb Code     2  stm32h7xx_hal_tim.o(i.HAL_TIM_TriggerCallback)
    HAL_UARTEx_DisableFifoMode               0x080047c7   Thumb Code    64  stm32h7xx_hal_uart_ex.o(i.HAL_UARTEx_DisableFifoMode)
    HAL_UARTEx_RxEventCallback               0x08004807   Thumb Code     2  stm32h7xx_hal_uart.o(i.HAL_UARTEx_RxEventCallback)
    HAL_UARTEx_RxFifoFullCallback            0x08004809   Thumb Code     2  stm32h7xx_hal_uart_ex.o(i.HAL_UARTEx_RxFifoFullCallback)
    HAL_UARTEx_SetRxFifoThreshold            0x0800480b   Thumb Code    76  stm32h7xx_hal_uart_ex.o(i.HAL_UARTEx_SetRxFifoThreshold)
    HAL_UARTEx_SetTxFifoThreshold            0x08004857   Thumb Code    76  stm32h7xx_hal_uart_ex.o(i.HAL_UARTEx_SetTxFifoThreshold)
    HAL_UARTEx_TxFifoEmptyCallback           0x080048a3   Thumb Code     2  stm32h7xx_hal_uart_ex.o(i.HAL_UARTEx_TxFifoEmptyCallback)
    HAL_UARTEx_WakeupCallback                0x080048a5   Thumb Code     2  stm32h7xx_hal_uart_ex.o(i.HAL_UARTEx_WakeupCallback)
    HAL_UART_ErrorCallback                   0x080048a7   Thumb Code     2  stm32h7xx_hal_uart.o(i.HAL_UART_ErrorCallback)
    HAL_UART_IRQHandler                      0x080048a9   Thumb Code   746  stm32h7xx_hal_uart.o(i.HAL_UART_IRQHandler)
    HAL_UART_Init                            0x08004bad   Thumb Code   106  stm32h7xx_hal_uart.o(i.HAL_UART_Init)
    HAL_UART_MspInit                         0x08004c19   Thumb Code   122  usart.o(i.HAL_UART_MspInit)
    HAL_UART_Transmit                        0x08004ca1   Thumb Code   190  stm32h7xx_hal_uart.o(i.HAL_UART_Transmit)
    HAL_UART_TxCpltCallback                  0x08004d5f   Thumb Code     2  stm32h7xx_hal_uart.o(i.HAL_UART_TxCpltCallback)
    HardFault_Handler                        0x08004d61   Thumb Code     2  stm32h7xx_it.o(i.HardFault_Handler)
    I2C2_ER_IRQHandler                       0x08004d65   Thumb Code     6  stm32h7xx_it.o(i.I2C2_ER_IRQHandler)
    I2C2_EV_IRQHandler                       0x08004d71   Thumb Code     6  stm32h7xx_it.o(i.I2C2_EV_IRQHandler)
    KEY_Scan                                 0x0800553d   Thumb Code   204  sys.o(i.KEY_Scan)
    LCD1963ORG                               0x08005619   Thumb Code   374  tftlcd.o(i.LCD1963ORG)
    LCD5310ORG                               0x0800578f   Thumb Code  3828  tftlcd.o(i.LCD5310ORG)
    LCD5510ORG                               0x08006683   Thumb Code  3834  tftlcd.o(i.LCD5510ORG)
    LCD9341ORG                               0x0800757d   Thumb Code   558  tftlcd.o(i.LCD9341ORG)
    LCD_MPU_Config                           0x080077ab   Thumb Code    74  tftlcd.o(i.LCD_MPU_Config)
    LCD_Pow                                  0x080077f5   Thumb Code    16  tftlcd.o(i.LCD_Pow)
    LCD_RD_DATA                              0x08007805   Thumb Code    16  tftlcd.o(i.LCD_RD_DATA)
    LCD_WR_DATA                              0x08007819   Thumb Code    20  tftlcd.o(i.LCD_WR_DATA)
    LCD_WR_REG                               0x08007831   Thumb Code    20  tftlcd.o(i.LCD_WR_REG)
    MX_FMC_Init                              0x08007849   Thumb Code   232  fmc.o(i.MX_FMC_Init)
    MX_GPIO_Init                             0x0800793d   Thumb Code   232  gpio.o(i.MX_GPIO_Init)
    MX_I2C2_Init                             0x08007a3d   Thumb Code    76  i2c.o(i.MX_I2C2_Init)
    MX_QUADSPI_Init                          0x08007a95   Thumb Code    52  quadspi.o(i.MX_QUADSPI_Init)
    MX_SDMMC1_SD_Init                        0x08007ad1   Thumb Code    46  sdmmc.o(i.MX_SDMMC1_SD_Init)
    MX_USART1_UART_Init                      0x08007b09   Thumb Code    94  usart.o(i.MX_USART1_UART_Init)
    MemManage_Handler                        0x08007b71   Thumb Code     2  stm32h7xx_it.o(i.MemManage_Handler)
    NMI_Handler                              0x08007b73   Thumb Code     2  stm32h7xx_it.o(i.NMI_Handler)
    PendSV_Handler                           0x08007b75   Thumb Code     2  stm32h7xx_it.o(i.PendSV_Handler)
    QSPI_Receive                             0x08007d59   Thumb Code    30  quadspi.o(i.QSPI_Receive)
    QSPI_Send_CMD                            0x08007d7d   Thumb Code    50  quadspi.o(i.QSPI_Send_CMD)
    QSPI_Transmit                            0x08007db5   Thumb Code    30  quadspi.o(i.QSPI_Transmit)
    QUADSPI_IRQHandler                       0x08007e21   Thumb Code     6  stm32h7xx_it.o(i.QUADSPI_IRQHandler)
    SDMMC1_IRQHandler                        0x0800806d   Thumb Code     6  stm32h7xx_it.o(i.SDMMC1_IRQHandler)
    SDMMC_CmdAppCommand                      0x08008079   Thumb Code    52  stm32h7xx_ll_sdmmc.o(i.SDMMC_CmdAppCommand)
    SDMMC_CmdAppOperCommand                  0x080080ad   Thumb Code    46  stm32h7xx_ll_sdmmc.o(i.SDMMC_CmdAppOperCommand)
    SDMMC_CmdBlockLength                     0x080080db   Thumb Code    50  stm32h7xx_ll_sdmmc.o(i.SDMMC_CmdBlockLength)
    SDMMC_CmdBusWidth                        0x0800810d   Thumb Code    52  stm32h7xx_ll_sdmmc.o(i.SDMMC_CmdBusWidth)
    SDMMC_CmdGoIdleState                     0x08008141   Thumb Code    74  stm32h7xx_ll_sdmmc.o(i.SDMMC_CmdGoIdleState)
    SDMMC_CmdOperCond                        0x08008195   Thumb Code    40  stm32h7xx_ll_sdmmc.o(i.SDMMC_CmdOperCond)
    SDMMC_CmdSelDesel                        0x080081bd   Thumb Code    52  stm32h7xx_ll_sdmmc.o(i.SDMMC_CmdSelDesel)
    SDMMC_CmdSendCID                         0x080081f1   Thumb Code    44  stm32h7xx_ll_sdmmc.o(i.SDMMC_CmdSendCID)
    SDMMC_CmdSendCSD                         0x0800821d   Thumb Code    48  stm32h7xx_ll_sdmmc.o(i.SDMMC_CmdSendCSD)
    SDMMC_CmdSendSCR                         0x0800824d   Thumb Code    50  stm32h7xx_ll_sdmmc.o(i.SDMMC_CmdSendSCR)
    SDMMC_CmdSendStatus                      0x0800827f   Thumb Code    52  stm32h7xx_ll_sdmmc.o(i.SDMMC_CmdSendStatus)
    SDMMC_CmdSetRelAdd                       0x080082b3   Thumb Code    50  stm32h7xx_ll_sdmmc.o(i.SDMMC_CmdSetRelAdd)
    SDMMC_CmdStatusRegister                  0x080082e5   Thumb Code    50  stm32h7xx_ll_sdmmc.o(i.SDMMC_CmdStatusRegister)
    SDMMC_CmdStopTransfer                    0x08008319   Thumb Code    78  stm32h7xx_ll_sdmmc.o(i.SDMMC_CmdStopTransfer)
    SDMMC_CmdVoltageSwitch                   0x0800836d   Thumb Code    50  stm32h7xx_ll_sdmmc.o(i.SDMMC_CmdVoltageSwitch)
    SDMMC_ConfigData                         0x0800839f   Thumb Code    38  stm32h7xx_ll_sdmmc.o(i.SDMMC_ConfigData)
    SDMMC_GetCmdResp1                        0x080083c5   Thumb Code   280  stm32h7xx_ll_sdmmc.o(i.SDMMC_GetCmdResp1)
    SDMMC_GetCmdResp2                        0x080084e9   Thumb Code    76  stm32h7xx_ll_sdmmc.o(i.SDMMC_GetCmdResp2)
    SDMMC_GetCmdResp3                        0x0800853d   Thumb Code    62  stm32h7xx_ll_sdmmc.o(i.SDMMC_GetCmdResp3)
    SDMMC_GetCmdResp6                        0x08008585   Thumb Code   130  stm32h7xx_ll_sdmmc.o(i.SDMMC_GetCmdResp6)
    SDMMC_GetCmdResp7                        0x08008611   Thumb Code    82  stm32h7xx_ll_sdmmc.o(i.SDMMC_GetCmdResp7)
    SDMMC_GetPowerState                      0x08008669   Thumb Code     8  stm32h7xx_ll_sdmmc.o(i.SDMMC_GetPowerState)
    SDMMC_GetResponse                        0x08008671   Thumb Code     6  stm32h7xx_ll_sdmmc.o(i.SDMMC_GetResponse)
    SDMMC_Init                               0x08008679   Thumb Code    28  stm32h7xx_ll_sdmmc.o(i.SDMMC_Init)
    SDMMC_PowerState_ON                      0x08008699   Thumb Code    12  stm32h7xx_ll_sdmmc.o(i.SDMMC_PowerState_ON)
    SDMMC_ReadFIFO                           0x080086a5   Thumb Code     6  stm32h7xx_ll_sdmmc.o(i.SDMMC_ReadFIFO)
    SDMMC_SendCommand                        0x080086ad   Thumb Code    34  stm32h7xx_ll_sdmmc.o(i.SDMMC_SendCommand)
    SDMMC_WriteFIFO                          0x080086d5   Thumb Code    10  stm32h7xx_ll_sdmmc.o(i.SDMMC_WriteFIFO)
    SDRAM_Send_Cmd                           0x080086e1   Thumb Code    50  sdram.o(i.SDRAM_Send_Cmd)
    SVC_Handler                              0x08008af9   Thumb Code     2  stm32h7xx_it.o(i.SVC_Handler)
    SysTick_Handler                          0x08008afb   Thumb Code     2  stm32h7xx_it.o(i.SysTick_Handler)
    SystemClock_Config                       0x08008afd   Thumb Code   160  main.o(i.SystemClock_Config)
    SystemInit                               0x08008ba5   Thumb Code   188  system_stm32h7xx.o(i.SystemInit)
    TFTLCD_Clear                             0x08008c89   Thumb Code    42  tftlcd.o(i.TFTLCD_Clear)
    TFTLCD_Display_Dir                       0x08008cbd   Thumb Code   222  tftlcd.o(i.TFTLCD_Display_Dir)
    TFTLCD_FDrawPoint                        0x08008da1   Thumb Code   218  tftlcd.o(i.TFTLCD_FDrawPoint)
    TFTLCD_Init                              0x08008e85   Thumb Code   370  tftlcd.o(i.TFTLCD_Init)
    TFTLCD_SSD_BackLightSet                  0x08009015   Thumb Code    74  tftlcd.o(i.TFTLCD_SSD_BackLightSet)
    TFTLCD_Scan_Dir                          0x08009069   Thumb Code   434  tftlcd.o(i.TFTLCD_Scan_Dir)
    TFTLCD_SetCursor                         0x08009221   Thumb Code   254  tftlcd.o(i.TFTLCD_SetCursor)
    TFTLCD_ShowChar                          0x08009325   Thumb Code   204  tftlcd.o(i.TFTLCD_ShowChar)
    TFTLCD_ShowStr                           0x08009409   Thumb Code    84  tftlcd.o(i.TFTLCD_ShowStr)
    TFTLCD_ShowxNum                          0x0800945d   Thumb Code   134  tftlcd.o(i.TFTLCD_ShowxNum)
    TFTLCD_WriteRAM_Prepare                  0x080094e5   Thumb Code    10  tftlcd.o(i.TFTLCD_WriteRAM_Prepare)
    TFTLCD_WriteReg                          0x080094f9   Thumb Code    10  tftlcd.o(i.TFTLCD_WriteReg)
    TIM6_DAC_IRQHandler                      0x08009509   Thumb Code     6  stm32h7xx_it.o(i.TIM6_DAC_IRQHandler)
    TIM_Base_SetConfig                       0x08009515   Thumb Code   162  stm32h7xx_hal_tim.o(i.TIM_Base_SetConfig)
    UART_AdvFeatureConfig                    0x0800961d   Thumb Code   200  stm32h7xx_hal_uart.o(i.UART_AdvFeatureConfig)
    UART_CheckIdleState                      0x080096e5   Thumb Code    96  stm32h7xx_hal_uart.o(i.UART_CheckIdleState)
    UART_SetConfig                           0x08009791   Thumb Code   876  stm32h7xx_hal_uart.o(i.UART_SetConfig)
    UART_WaitOnFlagUntilTimeout              0x08009b3d   Thumb Code   164  stm32h7xx_hal_uart.o(i.UART_WaitOnFlagUntilTimeout)
    USART1_IRQHandler                        0x08009be1   Thumb Code     6  stm32h7xx_it.o(i.USART1_IRQHandler)
    UsageFault_Handler                       0x08009bed   Thumb Code     2  stm32h7xx_it.o(i.UsageFault_Handler)
    W25Q256_Erase_Sector                     0x08009bef   Thumb Code    42  w25q256.o(i.W25Q256_Erase_Sector)
    W25Q256_Init                             0x08009c19   Thumb Code   106  w25q256.o(i.W25Q256_Init)
    W25Q256_Qspi_Enable                      0x08009c89   Thumb Code    58  w25q256.o(i.W25Q256_Qspi_Enable)
    W25Q256_Read                             0x08009cc9   Thumb Code    42  w25q256.o(i.W25Q256_Read)
    W25Q256_ReadID                           0x08009cf5   Thumb Code    66  w25q256.o(i.W25Q256_ReadID)
    W25Q256_ReadSR                           0x08009d3d   Thumb Code    82  w25q256.o(i.W25Q256_ReadSR)
    W25Q256_Wait_Busy                        0x08009d95   Thumb Code    14  w25q256.o(i.W25Q256_Wait_Busy)
    W25Q256_Write                            0x08009da5   Thumb Code   158  w25q256.o(i.W25Q256_Write)
    W25Q256_Write_Enable                     0x08009e49   Thumb Code    38  w25q256.o(i.W25Q256_Write_Enable)
    W25Q256_Write_NoCheck                    0x08009e75   Thumb Code    64  w25q256.o(i.W25Q256_Write_NoCheck)
    W25Q256_Write_Page                       0x08009eb5   Thumb Code    52  w25q256.o(i.W25Q256_Write_Page)
    W25Q256_Write_SR                         0x08009ee9   Thumb Code    76  w25q256.o(i.W25Q256_Write_SR)
    W8925_Init                               0x08009f39   Thumb Code    74  sdram.o(i.W8925_Init)
    _is_digit                                0x08009fab   Thumb Code    14  __printf_wp.o(i._is_digit)
    _sys_exit                                0x08009fb9   Thumb Code     2  usart.o(i._sys_exit)
    beep                                     0x08009fbd   Thumb Code    38  sys.o(i.beep)
    fputc                                    0x08009fe9   Thumb Code    20  usart.o(i.fputc)
    fsmc_sdram_test                          0x0800a001   Thumb Code   168  main.o(i.fsmc_sdram_test)
    main                                     0x0800a0d9   Thumb Code   892  main.o(i.main)
    _fp_init                                 0x0800a6c1   Thumb Code    10  fpinit.o(x$fpl$fpinit)
    __fplib_config_fpu_vfp                   0x0800a6c9   Thumb Code     0  fpinit.o(x$fpl$fpinit)
    __fplib_config_pureend_doubles           0x0800a6c9   Thumb Code     0  fpinit.o(x$fpl$fpinit)
    TEXT_Buffer                              0x0800a6ca   Data          25  main.o(.constdata)
    UARTPrescTable                           0x0800a6e4   Data          24  stm32h7xx_hal_uart.o(.constdata)
    D1CorePrescTable                         0x0800a70c   Data          16  system_stm32h7xx.o(.constdata)
    asc2_1206                                0x0800a71c   Data        1140  tftlcd.o(.constdata)
    asc2_1608                                0x0800ab90   Data        1520  tftlcd.o(.constdata)
    asc2_2412                                0x0800b180   Data        3420  tftlcd.o(.constdata)
    asc2_3216                                0x0800bedc   Data       12160  tftlcd.o(.constdata)
    Region$$Table$$Base                      0x0800ee98   Number         0  anon$$obj.o(Region$$Table)
    Region$$Table$$Limit                     0x0800eeb8   Number         0  anon$$obj.o(Region$$Table)
    __stdout                                 0x24000008   Data           4  usart.o(.data)
    uwTickFreq                               0x2400000c   Data           1  stm32h7xx_hal.o(.data)
    uwTickPrio                               0x24000010   Data           4  stm32h7xx_hal.o(.data)
    uwTick                                   0x24000014   Data           4  stm32h7xx_hal.o(.data)
    SystemCoreClock                          0x24000018   Data           4  system_stm32h7xx.o(.data)
    SystemD2Clock                            0x2400001c   Data           4  system_stm32h7xx.o(.data)
    POINT_COLOR                              0x24000024   Data           4  tftlcd.o(.data)
    BACK_COLOR                               0x24000028   Data           4  tftlcd.o(.data)
    W25Q256_QPI_MODE                         0x2400002c   Data           1  w25q256.o(.data)
    W25Q256_TYPE                             0x2400002e   Data           2  w25q256.o(.data)
    SDCardInfo                               0x24000030   Data          36  main.o(.bss)
    hsram1                                   0x24000054   Data          76  fmc.o(.bss)
    hsdram1                                  0x240000a0   Data          52  fmc.o(.bss)
    hi2c2                                    0x240000d4   Data          76  i2c.o(.bss)
    hqspi                                    0x24000120   Data          76  quadspi.o(.bss)
    hsd1                                     0x2400016c   Data         128  sdmmc.o(.bss)
    huart1                                   0x240001ec   Data         144  usart.o(.bss)
    htim6                                    0x2400027c   Data          76  stm32h7xx_hal_timebase_tim.o(.bss)
    lcddev                                   0x240002c8   Data          14  tftlcd.o(.bss)
    W25Q256_BUFFER                           0x240002d6   Data        4096  w25q256.o(.bss)
    __libspace_start                         0x240012d8   Data          96  libspace.o(.bss)
    __temporary_stack_top$libspace           0x24001338   Data           0  libspace.o(.bss)
    testsram                                 0xc0000000   Data       500000  main.o(.ARM.__AT_0xC0000000)



==============================================================================

Memory Map of the image

  Image Entry point : 0x08000299

  Load Region LR_IROM1 (Base: 0x08000000, Size: 0x0000eee8, Max: 0x00200000, ABSOLUTE)

    Execution Region ER_IROM1 (Exec base: 0x08000000, Load base: 0x08000000, Size: 0x0000eeb8, Max: 0x00200000, ABSOLUTE)

    Exec Addr    Load Addr    Size         Type   Attr      Idx    E Section Name        Object

    0x08000000   0x08000000   0x00000298   Data   RO            3    RESET               startup_stm32h743xx.o
    0x08000298   0x08000298   0x00000008   Code   RO         6525  * !!!main             c_w.l(__main.o)
    0x080002a0   0x080002a0   0x00000034   Code   RO         6709    !!!scatter          c_w.l(__scatter.o)
    0x080002d4   0x080002d4   0x0000001a   Code   RO         6711    !!handler_copy      c_w.l(__scatter_copy.o)
    0x080002ee   0x080002ee   0x00000002   PAD
    0x080002f0   0x080002f0   0x0000001c   Code   RO         6713    !!handler_zi        c_w.l(__scatter_zi.o)
    0x0800030c   0x0800030c   0x00000000   Code   RO         6520    .ARM.Collect$$_printf_percent$$00000000  c_w.l(_printf_percent.o)
    0x0800030c   0x0800030c   0x00000006   Code   RO         6519    .ARM.Collect$$_printf_percent$$00000009  c_w.l(_printf_d.o)
    0x08000312   0x08000312   0x00000006   Code   RO         6518    .ARM.Collect$$_printf_percent$$0000000C  c_w.l(_printf_x.o)
    0x08000318   0x08000318   0x00000006   Code   RO         6517    .ARM.Collect$$_printf_percent$$00000014  c_w.l(_printf_s.o)
    0x0800031e   0x0800031e   0x00000004   Code   RO         6544    .ARM.Collect$$_printf_percent$$00000017  c_w.l(_printf_percent_end.o)
    0x08000322   0x08000322   0x00000002   Code   RO         6581    .ARM.Collect$$libinit$$00000000  c_w.l(libinit.o)
    0x08000324   0x08000324   0x00000004   Code   RO         6593    .ARM.Collect$$libinit$$00000001  c_w.l(libinit2.o)
    0x08000328   0x08000328   0x00000000   Code   RO         6596    .ARM.Collect$$libinit$$00000004  c_w.l(libinit2.o)
    0x08000328   0x08000328   0x00000000   Code   RO         6599    .ARM.Collect$$libinit$$0000000A  c_w.l(libinit2.o)
    0x08000328   0x08000328   0x00000000   Code   RO         6601    .ARM.Collect$$libinit$$0000000C  c_w.l(libinit2.o)
    0x08000328   0x08000328   0x00000000   Code   RO         6603    .ARM.Collect$$libinit$$0000000E  c_w.l(libinit2.o)
    0x08000328   0x08000328   0x00000000   Code   RO         6606    .ARM.Collect$$libinit$$00000011  c_w.l(libinit2.o)
    0x08000328   0x08000328   0x00000000   Code   RO         6608    .ARM.Collect$$libinit$$00000013  c_w.l(libinit2.o)
    0x08000328   0x08000328   0x00000000   Code   RO         6610    .ARM.Collect$$libinit$$00000015  c_w.l(libinit2.o)
    0x08000328   0x08000328   0x00000000   Code   RO         6612    .ARM.Collect$$libinit$$00000017  c_w.l(libinit2.o)
    0x08000328   0x08000328   0x00000000   Code   RO         6614    .ARM.Collect$$libinit$$00000019  c_w.l(libinit2.o)
    0x08000328   0x08000328   0x00000000   Code   RO         6616    .ARM.Collect$$libinit$$0000001B  c_w.l(libinit2.o)
    0x08000328   0x08000328   0x00000000   Code   RO         6618    .ARM.Collect$$libinit$$0000001D  c_w.l(libinit2.o)
    0x08000328   0x08000328   0x00000000   Code   RO         6620    .ARM.Collect$$libinit$$0000001F  c_w.l(libinit2.o)
    0x08000328   0x08000328   0x00000000   Code   RO         6622    .ARM.Collect$$libinit$$00000021  c_w.l(libinit2.o)
    0x08000328   0x08000328   0x00000000   Code   RO         6624    .ARM.Collect$$libinit$$00000023  c_w.l(libinit2.o)
    0x08000328   0x08000328   0x00000000   Code   RO         6626    .ARM.Collect$$libinit$$00000025  c_w.l(libinit2.o)
    0x08000328   0x08000328   0x00000000   Code   RO         6630    .ARM.Collect$$libinit$$0000002C  c_w.l(libinit2.o)
    0x08000328   0x08000328   0x00000000   Code   RO         6632    .ARM.Collect$$libinit$$0000002E  c_w.l(libinit2.o)
    0x08000328   0x08000328   0x00000000   Code   RO         6634    .ARM.Collect$$libinit$$00000030  c_w.l(libinit2.o)
    0x08000328   0x08000328   0x00000000   Code   RO         6636    .ARM.Collect$$libinit$$00000032  c_w.l(libinit2.o)
    0x08000328   0x08000328   0x00000002   Code   RO         6637    .ARM.Collect$$libinit$$00000033  c_w.l(libinit2.o)
    0x0800032a   0x0800032a   0x00000002   Code   RO         6663    .ARM.Collect$$libshutdown$$00000000  c_w.l(libshutdown.o)
    0x0800032c   0x0800032c   0x00000000   Code   RO         6690    .ARM.Collect$$libshutdown$$00000002  c_w.l(libshutdown2.o)
    0x0800032c   0x0800032c   0x00000000   Code   RO         6692    .ARM.Collect$$libshutdown$$00000004  c_w.l(libshutdown2.o)
    0x0800032c   0x0800032c   0x00000000   Code   RO         6694    .ARM.Collect$$libshutdown$$00000006  c_w.l(libshutdown2.o)
    0x0800032c   0x0800032c   0x00000000   Code   RO         6697    .ARM.Collect$$libshutdown$$00000009  c_w.l(libshutdown2.o)
    0x0800032c   0x0800032c   0x00000000   Code   RO         6700    .ARM.Collect$$libshutdown$$0000000C  c_w.l(libshutdown2.o)
    0x0800032c   0x0800032c   0x00000000   Code   RO         6702    .ARM.Collect$$libshutdown$$0000000E  c_w.l(libshutdown2.o)
    0x0800032c   0x0800032c   0x00000000   Code   RO         6705    .ARM.Collect$$libshutdown$$00000011  c_w.l(libshutdown2.o)
    0x0800032c   0x0800032c   0x00000002   Code   RO         6706    .ARM.Collect$$libshutdown$$00000012  c_w.l(libshutdown2.o)
    0x0800032e   0x0800032e   0x00000000   Code   RO         6529    .ARM.Collect$$rtentry$$00000000  c_w.l(__rtentry.o)
    0x0800032e   0x0800032e   0x00000000   Code   RO         6546    .ARM.Collect$$rtentry$$00000002  c_w.l(__rtentry2.o)
    0x0800032e   0x0800032e   0x00000006   Code   RO         6558    .ARM.Collect$$rtentry$$00000004  c_w.l(__rtentry4.o)
    0x08000334   0x08000334   0x00000000   Code   RO         6548    .ARM.Collect$$rtentry$$00000009  c_w.l(__rtentry2.o)
    0x08000334   0x08000334   0x00000004   Code   RO         6549    .ARM.Collect$$rtentry$$0000000A  c_w.l(__rtentry2.o)
    0x08000338   0x08000338   0x00000000   Code   RO         6551    .ARM.Collect$$rtentry$$0000000C  c_w.l(__rtentry2.o)
    0x08000338   0x08000338   0x00000008   Code   RO         6552    .ARM.Collect$$rtentry$$0000000D  c_w.l(__rtentry2.o)
    0x08000340   0x08000340   0x00000002   Code   RO         6585    .ARM.Collect$$rtexit$$00000000  c_w.l(rtexit.o)
    0x08000342   0x08000342   0x00000000   Code   RO         6639    .ARM.Collect$$rtexit$$00000002  c_w.l(rtexit2.o)
    0x08000342   0x08000342   0x00000004   Code   RO         6640    .ARM.Collect$$rtexit$$00000003  c_w.l(rtexit2.o)
    0x08000346   0x08000346   0x00000006   Code   RO         6641    .ARM.Collect$$rtexit$$00000004  c_w.l(rtexit2.o)
    0x0800034c   0x0800034c   0x00000040   Code   RO            4    .text               startup_stm32h743xx.o
    0x0800038c   0x0800038c   0x00000002   Code   RO         6456    .text               c_w.l(use_no_semi_2.o)
    0x0800038e   0x0800038e   0x000000ee   Code   RO         6458    .text               c_w.l(lludivv7m.o)
    0x0800047c   0x0800047c   0x00000018   Code   RO         6464    .text               c_w.l(noretval__2printf.o)
    0x08000494   0x08000494   0x00000028   Code   RO         6466    .text               c_w.l(noretval__2sprintf.o)
    0x080004bc   0x080004bc   0x0000004e   Code   RO         6470    .text               c_w.l(_printf_pad.o)
    0x0800050a   0x0800050a   0x00000052   Code   RO         6472    .text               c_w.l(_printf_str.o)
    0x0800055c   0x0800055c   0x00000078   Code   RO         6474    .text               c_w.l(_printf_dec.o)
    0x080005d4   0x080005d4   0x00000058   Code   RO         6479    .text               c_w.l(_printf_hex_int.o)
    0x0800062c   0x0800062c   0x00000138   Code   RO         6509    .text               c_w.l(__printf_flags_wp.o)
    0x08000764   0x08000764   0x0000004e   Code   RO         6521    .text               c_w.l(rt_memclr_w.o)
    0x080007b2   0x080007b2   0x00000006   Code   RO         6523    .text               c_w.l(heapauxi.o)
    0x080007b8   0x080007b8   0x00000002   Code   RO         6527    .text               c_w.l(use_no_semi.o)
    0x080007ba   0x080007ba   0x000000b2   Code   RO         6534    .text               c_w.l(_printf_intcommon.o)
    0x0800086c   0x0800086c   0x00000030   Code   RO         6536    .text               c_w.l(_printf_char_common.o)
    0x0800089c   0x0800089c   0x0000000a   Code   RO         6538    .text               c_w.l(_sputc.o)
    0x080008a6   0x080008a6   0x0000002c   Code   RO         6540    .text               c_w.l(_printf_char.o)
    0x080008d2   0x080008d2   0x00000002   PAD
    0x080008d4   0x080008d4   0x00000024   Code   RO         6542    .text               c_w.l(_printf_char_file.o)
    0x080008f8   0x080008f8   0x00000008   Code   RO         6564    .text               c_w.l(ferror.o)
    0x08000900   0x08000900   0x0000004a   Code   RO         6568    .text               c_w.l(sys_stackheap_outer.o)
    0x0800094a   0x0800094a   0x00000012   Code   RO         6570    .text               c_w.l(exit.o)
    0x0800095c   0x0800095c   0x00000008   Code   RO         6582    .text               c_w.l(libspace.o)
    0x08000964   0x08000964   0x00000002   Code   RO          544    i.BusFault_Handler  stm32h7xx_it.o
    0x08000966   0x08000966   0x00000002   Code   RO          545    i.DebugMon_Handler  stm32h7xx_it.o
    0x08000968   0x08000968   0x0000005c   Code   RO          546    i.EXTI0_IRQHandler  stm32h7xx_it.o
    0x080009c4   0x080009c4   0x00000004   Code   RO           13    i.Error_Handler     main.o
    0x080009c8   0x080009c8   0x0000000c   Code   RO          547    i.FMC_IRQHandler    stm32h7xx_it.o
    0x080009d4   0x080009d4   0x00000040   Code   RO         3133    i.FMC_NORSRAM_Extended_Timing_Init  stm32h7xx_ll_fmc.o
    0x08000a14   0x08000a14   0x00000094   Code   RO         3134    i.FMC_NORSRAM_Init  stm32h7xx_ll_fmc.o
    0x08000aa8   0x08000aa8   0x00000068   Code   RO         3135    i.FMC_NORSRAM_Timing_Init  stm32h7xx_ll_fmc.o
    0x08000b10   0x08000b10   0x0000006a   Code   RO         3140    i.FMC_SDRAM_Init    stm32h7xx_ll_fmc.o
    0x08000b7a   0x08000b7a   0x00000012   Code   RO         3141    i.FMC_SDRAM_ProgramRefreshRate  stm32h7xx_ll_fmc.o
    0x08000b8c   0x08000b8c   0x00000026   Code   RO         3142    i.FMC_SDRAM_SendCommand  stm32h7xx_ll_fmc.o
    0x08000bb2   0x08000bb2   0x00000002   PAD
    0x08000bb4   0x08000bb4   0x000000b0   Code   RO         3144    i.FMC_SDRAM_Timing_Init  stm32h7xx_ll_fmc.o
    0x08000c64   0x08000c64   0x00000364   Code   RO         1523    i.HAL_DMA_Abort     stm32h7xx_hal_dma.o
    0x08000fc8   0x08000fc8   0x00000284   Code   RO         1524    i.HAL_DMA_Abort_IT  stm32h7xx_hal_dma.o
    0x0800124c   0x0800124c   0x00000006   Code   RO         1527    i.HAL_DMA_GetState  stm32h7xx_hal_dma.o
    0x08001252   0x08001252   0x00000002   PAD
    0x08001254   0x08001254   0x00000024   Code   RO         2232    i.HAL_Delay         stm32h7xx_hal.o
    0x08001278   0x08001278   0x00000030   Code   RO         6024    i.HAL_Delay_us      sys.o
    0x080012a8   0x080012a8   0x000000ec   Code   RO          277    i.HAL_FMC_MspInit   fmc.o
    0x08001394   0x08001394   0x00000002   Code   RO         1369    i.HAL_GPIO_EXTI_Callback  stm32h7xx_hal_gpio.o
    0x08001396   0x08001396   0x00000018   Code   RO         1370    i.HAL_GPIO_EXTI_IRQHandler  stm32h7xx_hal_gpio.o
    0x080013ae   0x080013ae   0x00000002   PAD
    0x080013b0   0x080013b0   0x00000230   Code   RO         1371    i.HAL_GPIO_Init     stm32h7xx_hal_gpio.o
    0x080015e0   0x080015e0   0x0000000a   Code   RO         1373    i.HAL_GPIO_ReadPin  stm32h7xx_hal_gpio.o
    0x080015ea   0x080015ea   0x00000010   Code   RO         1374    i.HAL_GPIO_TogglePin  stm32h7xx_hal_gpio.o
    0x080015fa   0x080015fa   0x0000000a   Code   RO         1375    i.HAL_GPIO_WritePin  stm32h7xx_hal_gpio.o
    0x08001604   0x08001604   0x0000000c   Code   RO         2243    i.HAL_GetREVID      stm32h7xx_hal.o
    0x08001610   0x08001610   0x0000000c   Code   RO         2244    i.HAL_GetTick       stm32h7xx_hal.o
    0x0800161c   0x0800161c   0x00000058   Code   RO         2999    i.HAL_I2CEx_ConfigAnalogFilter  stm32h7xx_hal_i2c_ex.o
    0x08001674   0x08001674   0x00000054   Code   RO         3000    i.HAL_I2CEx_ConfigDigitalFilter  stm32h7xx_hal_i2c_ex.o
    0x080016c8   0x080016c8   0x00000002   Code   RO         2537    i.HAL_I2C_AbortCpltCallback  stm32h7xx_hal_i2c.o
    0x080016ca   0x080016ca   0x00000002   Code   RO         2538    i.HAL_I2C_AddrCallback  stm32h7xx_hal_i2c.o
    0x080016cc   0x080016cc   0x00000068   Code   RO         2541    i.HAL_I2C_ER_IRQHandler  stm32h7xx_hal_i2c.o
    0x08001734   0x08001734   0x00000010   Code   RO         2542    i.HAL_I2C_EV_IRQHandler  stm32h7xx_hal_i2c.o
    0x08001744   0x08001744   0x00000002   Code   RO         2544    i.HAL_I2C_ErrorCallback  stm32h7xx_hal_i2c.o
    0x08001746   0x08001746   0x00000002   PAD
    0x08001748   0x08001748   0x000000b8   Code   RO         2548    i.HAL_I2C_Init      stm32h7xx_hal_i2c.o
    0x08001800   0x08001800   0x00000002   Code   RO         2550    i.HAL_I2C_ListenCpltCallback  stm32h7xx_hal_i2c.o
    0x08001802   0x08001802   0x00000002   PAD
    0x08001804   0x08001804   0x00000124   Code   RO         2561    i.HAL_I2C_Master_Transmit  stm32h7xx_hal_i2c.o
    0x08001928   0x08001928   0x000000a0   Code   RO          342    i.HAL_I2C_MspInit   i2c.o
    0x080019c8   0x080019c8   0x00000002   Code   RO         2574    i.HAL_I2C_SlaveRxCpltCallback  stm32h7xx_hal_i2c.o
    0x080019ca   0x080019ca   0x00000002   Code   RO         2575    i.HAL_I2C_SlaveTxCpltCallback  stm32h7xx_hal_i2c.o
    0x080019cc   0x080019cc   0x00000010   Code   RO         2250    i.HAL_IncTick       stm32h7xx_hal.o
    0x080019dc   0x080019dc   0x0000005c   Code   RO         2251    i.HAL_Init          stm32h7xx_hal.o
    0x08001a38   0x08001a38   0x0000008c   Code   RO          696    i.HAL_InitTick      stm32h7xx_hal_timebase_tim.o
    0x08001ac4   0x08001ac4   0x00000026   Code   RO         1706    i.HAL_MDMA_Abort_IT  stm32h7xx_hal_mdma.o
    0x08001aea   0x08001aea   0x00000002   PAD
    0x08001aec   0x08001aec   0x0000005c   Code   RO          736    i.HAL_MPU_ConfigRegion  stm32h7xx_hal_cortex.o
    0x08001b48   0x08001b48   0x0000001c   Code   RO          737    i.HAL_MPU_Disable   stm32h7xx_hal_cortex.o
    0x08001b64   0x08001b64   0x00000024   Code   RO          738    i.HAL_MPU_Enable    stm32h7xx_hal_cortex.o
    0x08001b88   0x08001b88   0x0000001c   Code   RO          672    i.HAL_MspInit       stm32h7xx_hal_msp.o
    0x08001ba4   0x08001ba4   0x0000001a   Code   RO          741    i.HAL_NVIC_EnableIRQ  stm32h7xx_hal_cortex.o
    0x08001bbe   0x08001bbe   0x00000002   PAD
    0x08001bc0   0x08001bc0   0x00000040   Code   RO          747    i.HAL_NVIC_SetPriority  stm32h7xx_hal_cortex.o
    0x08001c00   0x08001c00   0x00000024   Code   RO          748    i.HAL_NVIC_SetPriorityGrouping  stm32h7xx_hal_cortex.o
    0x08001c24   0x08001c24   0x00000054   Code   RO         1972    i.HAL_PWREx_ConfigSupply  stm32h7xx_hal_pwr_ex.o
    0x08001c78   0x08001c78   0x00000050   Code   RO         1861    i.HAL_PWR_EnterSTOPMode  stm32h7xx_hal_pwr.o
    0x08001cc8   0x08001cc8   0x00000002   Code   RO         3582    i.HAL_QSPI_AbortCpltCallback  stm32h7xx_hal_qspi.o
    0x08001cca   0x08001cca   0x00000002   Code   RO         3586    i.HAL_QSPI_CmdCpltCallback  stm32h7xx_hal_qspi.o
    0x08001ccc   0x08001ccc   0x00000086   Code   RO         3587    i.HAL_QSPI_Command  stm32h7xx_hal_qspi.o
    0x08001d52   0x08001d52   0x00000002   Code   RO         3590    i.HAL_QSPI_ErrorCallback  stm32h7xx_hal_qspi.o
    0x08001d54   0x08001d54   0x00000002   Code   RO         3591    i.HAL_QSPI_FifoThresholdCallback  stm32h7xx_hal_qspi.o
    0x08001d56   0x08001d56   0x00000002   PAD
    0x08001d58   0x08001d58   0x000001e4   Code   RO         3595    i.HAL_QSPI_IRQHandler  stm32h7xx_hal_qspi.o
    0x08001f3c   0x08001f3c   0x000000ac   Code   RO         3596    i.HAL_QSPI_Init     stm32h7xx_hal_qspi.o
    0x08001fe8   0x08001fe8   0x000000f4   Code   RO          384    i.HAL_QSPI_MspInit  quadspi.o
    0x080020dc   0x080020dc   0x000000be   Code   RO         3600    i.HAL_QSPI_Receive  stm32h7xx_hal_qspi.o
    0x0800219a   0x0800219a   0x00000002   Code   RO         3603    i.HAL_QSPI_RxCpltCallback  stm32h7xx_hal_qspi.o
    0x0800219c   0x0800219c   0x00000002   Code   RO         3607    i.HAL_QSPI_StatusMatchCallback  stm32h7xx_hal_qspi.o
    0x0800219e   0x0800219e   0x00000002   Code   RO         3608    i.HAL_QSPI_TimeOutCallback  stm32h7xx_hal_qspi.o
    0x080021a0   0x080021a0   0x000000b6   Code   RO         3609    i.HAL_QSPI_Transmit  stm32h7xx_hal_qspi.o
    0x08002256   0x08002256   0x00000002   Code   RO         3612    i.HAL_QSPI_TxCpltCallback  stm32h7xx_hal_qspi.o
    0x08002258   0x08002258   0x00000024   Code   RO          992    i.HAL_RCCEx_GetD3PCLK1Freq  stm32h7xx_hal_rcc_ex.o
    0x0800227c   0x0800227c   0x00000148   Code   RO          993    i.HAL_RCCEx_GetPLL1ClockFreq  stm32h7xx_hal_rcc_ex.o
    0x080023c4   0x080023c4   0x00000144   Code   RO          994    i.HAL_RCCEx_GetPLL2ClockFreq  stm32h7xx_hal_rcc_ex.o
    0x08002508   0x08002508   0x00000144   Code   RO          995    i.HAL_RCCEx_GetPLL3ClockFreq  stm32h7xx_hal_rcc_ex.o
    0x0800264c   0x0800264c   0x0000026c   Code   RO          997    i.HAL_RCCEx_GetPeriphCLKFreq  stm32h7xx_hal_rcc_ex.o
    0x080028b8   0x080028b8   0x000008d2   Code   RO         1001    i.HAL_RCCEx_PeriphCLKConfig  stm32h7xx_hal_rcc_ex.o
    0x0800318a   0x0800318a   0x00000002   PAD
    0x0800318c   0x0800318c   0x0000025c   Code   RO          877    i.HAL_RCC_ClockConfig  stm32h7xx_hal_rcc.o
    0x080033e8   0x080033e8   0x0000005c   Code   RO          881    i.HAL_RCC_GetClockConfig  stm32h7xx_hal_rcc.o
    0x08003444   0x08003444   0x00000044   Code   RO          882    i.HAL_RCC_GetHCLKFreq  stm32h7xx_hal_rcc.o
    0x08003488   0x08003488   0x00000024   Code   RO          884    i.HAL_RCC_GetPCLK1Freq  stm32h7xx_hal_rcc.o
    0x080034ac   0x080034ac   0x00000024   Code   RO          885    i.HAL_RCC_GetPCLK2Freq  stm32h7xx_hal_rcc.o
    0x080034d0   0x080034d0   0x00000138   Code   RO          886    i.HAL_RCC_GetSysClockFreq  stm32h7xx_hal_rcc.o
    0x08003608   0x08003608   0x00000508   Code   RO          889    i.HAL_RCC_OscConfig  stm32h7xx_hal_rcc.o
    0x08003b10   0x08003b10   0x00000002   Code   RO         4155    i.HAL_SDEx_Read_DMADoubleBuf0CpltCallback  stm32h7xx_hal_sd.o
    0x08003b12   0x08003b12   0x00000002   Code   RO         4156    i.HAL_SDEx_Read_DMADoubleBuf1CpltCallback  stm32h7xx_hal_sd.o
    0x08003b14   0x08003b14   0x00000002   Code   RO         4157    i.HAL_SDEx_Write_DMADoubleBuf0CpltCallback  stm32h7xx_hal_sd.o
    0x08003b16   0x08003b16   0x00000002   Code   RO         4158    i.HAL_SDEx_Write_DMADoubleBuf1CpltCallback  stm32h7xx_hal_sd.o
    0x08003b18   0x08003b18   0x0000001e   Code   RO         3415    i.HAL_SDRAM_IRQHandler  stm32h7xx_hal_sdram.o
    0x08003b36   0x08003b36   0x00000002   PAD
    0x08003b38   0x08003b38   0x00000050   Code   RO         3416    i.HAL_SDRAM_Init    stm32h7xx_hal_sdram.o
    0x08003b88   0x08003b88   0x00000004   Code   RO          279    i.HAL_SDRAM_MspInit  fmc.o
    0x08003b8c   0x08003b8c   0x0000002e   Code   RO         3419    i.HAL_SDRAM_ProgramRefreshRate  stm32h7xx_hal_sdram.o
    0x08003bba   0x08003bba   0x00000002   Code   RO         3424    i.HAL_SDRAM_RefreshErrorCallback  stm32h7xx_hal_sdram.o
    0x08003bbc   0x08003bbc   0x0000003c   Code   RO         3425    i.HAL_SDRAM_SendCommand  stm32h7xx_hal_sdram.o
    0x08003bf8   0x08003bf8   0x0000018c   Code   RO         4163    i.HAL_SD_ConfigWideBusOperation  stm32h7xx_hal_sd.o
    0x08003d84   0x08003d84   0x00000002   Code   RO         4165    i.HAL_SD_DriveTransceiver_1_8V_Callback  stm32h7xx_hal_sd.o
    0x08003d86   0x08003d86   0x00000002   Code   RO         4167    i.HAL_SD_ErrorCallback  stm32h7xx_hal_sd.o
    0x08003d88   0x08003d88   0x000001bc   Code   RO         4169    i.HAL_SD_GetCardCSD  stm32h7xx_hal_sd.o
    0x08003f44   0x08003f44   0x00000024   Code   RO         4170    i.HAL_SD_GetCardInfo  stm32h7xx_hal_sd.o
    0x08003f68   0x08003f68   0x0000002c   Code   RO         4171    i.HAL_SD_GetCardState  stm32h7xx_hal_sd.o
    0x08003f94   0x08003f94   0x000000bc   Code   RO         4172    i.HAL_SD_GetCardStatus  stm32h7xx_hal_sd.o
    0x08004050   0x08004050   0x00000240   Code   RO         4175    i.HAL_SD_IRQHandler  stm32h7xx_hal_sd.o
    0x08004290   0x08004290   0x000000a2   Code   RO         4176    i.HAL_SD_Init       stm32h7xx_hal_sd.o
    0x08004332   0x08004332   0x00000002   PAD
    0x08004334   0x08004334   0x000000bc   Code   RO         4177    i.HAL_SD_InitCard   stm32h7xx_hal_sd.o
    0x080043f0   0x080043f0   0x000000b4   Code   RO          444    i.HAL_SD_MspInit    sdmmc.o
    0x080044a4   0x080044a4   0x00000002   Code   RO         4183    i.HAL_SD_RxCpltCallback  stm32h7xx_hal_sd.o
    0x080044a6   0x080044a6   0x00000002   Code   RO         4184    i.HAL_SD_TxCpltCallback  stm32h7xx_hal_sd.o
    0x080044a8   0x080044a8   0x0000006c   Code   RO         3279    i.HAL_SRAM_Init     stm32h7xx_hal_sram.o
    0x08004514   0x08004514   0x00000004   Code   RO          281    i.HAL_SRAM_MspInit  fmc.o
    0x08004518   0x08004518   0x00000026   Code   RO          752    i.HAL_SYSTICK_Config  stm32h7xx_hal_cortex.o
    0x0800453e   0x0800453e   0x00000002   Code   RO         5164    i.HAL_TIMEx_Break2Callback  stm32h7xx_hal_tim_ex.o
    0x08004540   0x08004540   0x00000002   Code   RO         5165    i.HAL_TIMEx_BreakCallback  stm32h7xx_hal_tim_ex.o
    0x08004542   0x08004542   0x00000002   Code   RO         5166    i.HAL_TIMEx_CommutCallback  stm32h7xx_hal_tim_ex.o
    0x08004544   0x08004544   0x00000062   Code   RO         4450    i.HAL_TIM_Base_Init  stm32h7xx_hal_tim.o
    0x080045a6   0x080045a6   0x00000002   Code   RO         4452    i.HAL_TIM_Base_MspInit  stm32h7xx_hal_tim.o
    0x080045a8   0x080045a8   0x00000080   Code   RO         4455    i.HAL_TIM_Base_Start_IT  stm32h7xx_hal_tim.o
    0x08004628   0x08004628   0x00000002   Code   RO         4484    i.HAL_TIM_IC_CaptureCallback  stm32h7xx_hal_tim.o
    0x0800462a   0x0800462a   0x00000182   Code   RO         4498    i.HAL_TIM_IRQHandler  stm32h7xx_hal_tim.o
    0x080047ac   0x080047ac   0x00000002   Code   RO         4501    i.HAL_TIM_OC_DelayElapsedCallback  stm32h7xx_hal_tim.o
    0x080047ae   0x080047ae   0x00000002   Code   RO         4528    i.HAL_TIM_PWM_PulseFinishedCallback  stm32h7xx_hal_tim.o
    0x080047b0   0x080047b0   0x00000014   Code   RO           14    i.HAL_TIM_PeriodElapsedCallback  main.o
    0x080047c4   0x080047c4   0x00000002   Code   RO         4541    i.HAL_TIM_TriggerCallback  stm32h7xx_hal_tim.o
    0x080047c6   0x080047c6   0x00000040   Code   RO         5875    i.HAL_UARTEx_DisableFifoMode  stm32h7xx_hal_uart_ex.o
    0x08004806   0x08004806   0x00000002   Code   RO         5464    i.HAL_UARTEx_RxEventCallback  stm32h7xx_hal_uart.o
    0x08004808   0x08004808   0x00000002   Code   RO         5882    i.HAL_UARTEx_RxFifoFullCallback  stm32h7xx_hal_uart_ex.o
    0x0800480a   0x0800480a   0x0000004c   Code   RO         5883    i.HAL_UARTEx_SetRxFifoThreshold  stm32h7xx_hal_uart_ex.o
    0x08004856   0x08004856   0x0000004c   Code   RO         5884    i.HAL_UARTEx_SetTxFifoThreshold  stm32h7xx_hal_uart_ex.o
    0x080048a2   0x080048a2   0x00000002   Code   RO         5886    i.HAL_UARTEx_TxFifoEmptyCallback  stm32h7xx_hal_uart_ex.o
    0x080048a4   0x080048a4   0x00000002   Code   RO         5887    i.HAL_UARTEx_WakeupCallback  stm32h7xx_hal_uart_ex.o
    0x080048a6   0x080048a6   0x00000002   Code   RO         5480    i.HAL_UART_ErrorCallback  stm32h7xx_hal_uart.o
    0x080048a8   0x080048a8   0x00000304   Code   RO         5483    i.HAL_UART_IRQHandler  stm32h7xx_hal_uart.o
    0x08004bac   0x08004bac   0x0000006a   Code   RO         5484    i.HAL_UART_Init     stm32h7xx_hal_uart.o
    0x08004c16   0x08004c16   0x00000002   PAD
    0x08004c18   0x08004c18   0x00000088   Code   RO          486    i.HAL_UART_MspInit  usart.o
    0x08004ca0   0x08004ca0   0x000000be   Code   RO         5493    i.HAL_UART_Transmit  stm32h7xx_hal_uart.o
    0x08004d5e   0x08004d5e   0x00000002   Code   RO         5496    i.HAL_UART_TxCpltCallback  stm32h7xx_hal_uart.o
    0x08004d60   0x08004d60   0x00000002   Code   RO          548    i.HardFault_Handler  stm32h7xx_it.o
    0x08004d62   0x08004d62   0x00000002   PAD
    0x08004d64   0x08004d64   0x0000000c   Code   RO          549    i.I2C2_ER_IRQHandler  stm32h7xx_it.o
    0x08004d70   0x08004d70   0x0000000c   Code   RO          550    i.I2C2_EV_IRQHandler  stm32h7xx_it.o
    0x08004d7c   0x08004d7c   0x00000014   Code   RO         2587    i.I2C_DMAAbort      stm32h7xx_hal_i2c.o
    0x08004d90   0x08004d90   0x00000060   Code   RO         2593    i.I2C_Disable_IRQ   stm32h7xx_hal_i2c.o
    0x08004df0   0x08004df0   0x00000022   Code   RO         2595    i.I2C_Flush_TXDR    stm32h7xx_hal_i2c.o
    0x08004e12   0x08004e12   0x00000094   Code   RO         2596    i.I2C_ITAddrCplt    stm32h7xx_hal_i2c.o
    0x08004ea6   0x08004ea6   0x00000002   PAD
    0x08004ea8   0x08004ea8   0x000000f8   Code   RO         2597    i.I2C_ITError       stm32h7xx_hal_i2c.o
    0x08004fa0   0x08004fa0   0x00000064   Code   RO         2598    i.I2C_ITListenCplt  stm32h7xx_hal_i2c.o
    0x08005004   0x08005004   0x000001cc   Code   RO         2601    i.I2C_ITSlaveCplt   stm32h7xx_hal_i2c.o
    0x080051d0   0x080051d0   0x00000072   Code   RO         2602    i.I2C_ITSlaveSeqCplt  stm32h7xx_hal_i2c.o
    0x08005242   0x08005242   0x00000002   PAD
    0x08005244   0x08005244   0x00000088   Code   RO         2603    i.I2C_IsAcknowledgeFailed  stm32h7xx_hal_i2c.o
    0x080052cc   0x080052cc   0x00000120   Code   RO         2609    i.I2C_Slave_ISR_IT  stm32h7xx_hal_i2c.o
    0x080053ec   0x080053ec   0x0000002c   Code   RO         2610    i.I2C_TransferConfig  stm32h7xx_hal_i2c.o
    0x08005418   0x08005418   0x0000002a   Code   RO         2611    i.I2C_TreatErrorCallback  stm32h7xx_hal_i2c.o
    0x08005442   0x08005442   0x0000005a   Code   RO         2612    i.I2C_WaitOnFlagUntilTimeout  stm32h7xx_hal_i2c.o
    0x0800549c   0x0800549c   0x0000004e   Code   RO         2614    i.I2C_WaitOnSTOPFlagUntilTimeout  stm32h7xx_hal_i2c.o
    0x080054ea   0x080054ea   0x00000052   Code   RO         2615    i.I2C_WaitOnTXISFlagUntilTimeout  stm32h7xx_hal_i2c.o
    0x0800553c   0x0800553c   0x000000dc   Code   RO         6025    i.KEY_Scan          sys.o
    0x08005618   0x08005618   0x00000176   Code   RO         6062    i.LCD1963ORG        tftlcd.o
    0x0800578e   0x0800578e   0x00000ef4   Code   RO         6063    i.LCD5310ORG        tftlcd.o
    0x08006682   0x08006682   0x00000efa   Code   RO         6064    i.LCD5510ORG        tftlcd.o
    0x0800757c   0x0800757c   0x0000022e   Code   RO         6065    i.LCD9341ORG        tftlcd.o
    0x080077aa   0x080077aa   0x0000004a   Code   RO         6068    i.LCD_MPU_Config    tftlcd.o
    0x080077f4   0x080077f4   0x00000010   Code   RO         6069    i.LCD_Pow           tftlcd.o
    0x08007804   0x08007804   0x00000014   Code   RO         6070    i.LCD_RD_DATA       tftlcd.o
    0x08007818   0x08007818   0x00000018   Code   RO         6071    i.LCD_WR_DATA       tftlcd.o
    0x08007830   0x08007830   0x00000018   Code   RO         6072    i.LCD_WR_REG        tftlcd.o
    0x08007848   0x08007848   0x000000f4   Code   RO          282    i.MX_FMC_Init       fmc.o
    0x0800793c   0x0800793c   0x00000100   Code   RO          252    i.MX_GPIO_Init      gpio.o
    0x08007a3c   0x08007a3c   0x00000058   Code   RO          343    i.MX_I2C2_Init      i2c.o
    0x08007a94   0x08007a94   0x0000003c   Code   RO          385    i.MX_QUADSPI_Init   quadspi.o
    0x08007ad0   0x08007ad0   0x00000038   Code   RO          445    i.MX_SDMMC1_SD_Init  sdmmc.o
    0x08007b08   0x08007b08   0x00000068   Code   RO          487    i.MX_USART1_UART_Init  usart.o
    0x08007b70   0x08007b70   0x00000002   Code   RO          551    i.MemManage_Handler  stm32h7xx_it.o
    0x08007b72   0x08007b72   0x00000002   Code   RO          552    i.NMI_Handler       stm32h7xx_it.o
    0x08007b74   0x08007b74   0x00000002   Code   RO          553    i.PendSV_Handler    stm32h7xx_it.o
    0x08007b76   0x08007b76   0x000001a8   Code   RO         3613    i.QSPI_Config       stm32h7xx_hal_qspi.o
    0x08007d1e   0x08007d1e   0x0000003a   Code   RO         3614    i.QSPI_DMAAbortCplt  stm32h7xx_hal_qspi.o
    0x08007d58   0x08007d58   0x00000024   Code   RO          386    i.QSPI_Receive      quadspi.o
    0x08007d7c   0x08007d7c   0x00000038   Code   RO          387    i.QSPI_Send_CMD     quadspi.o
    0x08007db4   0x08007db4   0x00000024   Code   RO          388    i.QSPI_Transmit     quadspi.o
    0x08007dd8   0x08007dd8   0x00000048   Code   RO         3618    i.QSPI_WaitFlagStateUntilTimeout  stm32h7xx_hal_qspi.o
    0x08007e20   0x08007e20   0x0000000c   Code   RO          554    i.QUADSPI_IRQHandler  stm32h7xx_it.o
    0x08007e2c   0x08007e2c   0x00000120   Code   RO         1004    i.RCCEx_PLL2_Config  stm32h7xx_hal_rcc_ex.o
    0x08007f4c   0x08007f4c   0x00000120   Code   RO         1005    i.RCCEx_PLL3_Config  stm32h7xx_hal_rcc_ex.o
    0x0800806c   0x0800806c   0x0000000c   Code   RO          555    i.SDMMC1_IRQHandler  stm32h7xx_it.o
    0x08008078   0x08008078   0x00000034   Code   RO         3821    i.SDMMC_CmdAppCommand  stm32h7xx_ll_sdmmc.o
    0x080080ac   0x080080ac   0x0000002e   Code   RO         3822    i.SDMMC_CmdAppOperCommand  stm32h7xx_ll_sdmmc.o
    0x080080da   0x080080da   0x00000032   Code   RO         3823    i.SDMMC_CmdBlockLength  stm32h7xx_ll_sdmmc.o
    0x0800810c   0x0800810c   0x00000034   Code   RO         3824    i.SDMMC_CmdBusWidth  stm32h7xx_ll_sdmmc.o
    0x08008140   0x08008140   0x00000054   Code   RO         3828    i.SDMMC_CmdGoIdleState  stm32h7xx_ll_sdmmc.o
    0x08008194   0x08008194   0x00000028   Code   RO         3830    i.SDMMC_CmdOperCond  stm32h7xx_ll_sdmmc.o
    0x080081bc   0x080081bc   0x00000034   Code   RO         3835    i.SDMMC_CmdSelDesel  stm32h7xx_ll_sdmmc.o
    0x080081f0   0x080081f0   0x0000002c   Code   RO         3836    i.SDMMC_CmdSendCID  stm32h7xx_ll_sdmmc.o
    0x0800821c   0x0800821c   0x00000030   Code   RO         3837    i.SDMMC_CmdSendCSD  stm32h7xx_ll_sdmmc.o
    0x0800824c   0x0800824c   0x00000032   Code   RO         3839    i.SDMMC_CmdSendSCR  stm32h7xx_ll_sdmmc.o
    0x0800827e   0x0800827e   0x00000034   Code   RO         3840    i.SDMMC_CmdSendStatus  stm32h7xx_ll_sdmmc.o
    0x080082b2   0x080082b2   0x00000032   Code   RO         3841    i.SDMMC_CmdSetRelAdd  stm32h7xx_ll_sdmmc.o
    0x080082e4   0x080082e4   0x00000032   Code   RO         3843    i.SDMMC_CmdStatusRegister  stm32h7xx_ll_sdmmc.o
    0x08008316   0x08008316   0x00000002   PAD
    0x08008318   0x08008318   0x00000054   Code   RO         3844    i.SDMMC_CmdStopTransfer  stm32h7xx_ll_sdmmc.o
    0x0800836c   0x0800836c   0x00000032   Code   RO         3846    i.SDMMC_CmdVoltageSwitch  stm32h7xx_ll_sdmmc.o
    0x0800839e   0x0800839e   0x00000026   Code   RO         3849    i.SDMMC_ConfigData  stm32h7xx_ll_sdmmc.o
    0x080083c4   0x080083c4   0x00000124   Code   RO         3850    i.SDMMC_GetCmdResp1  stm32h7xx_ll_sdmmc.o
    0x080084e8   0x080084e8   0x00000054   Code   RO         3851    i.SDMMC_GetCmdResp2  stm32h7xx_ll_sdmmc.o
    0x0800853c   0x0800853c   0x00000048   Code   RO         3852    i.SDMMC_GetCmdResp3  stm32h7xx_ll_sdmmc.o
    0x08008584   0x08008584   0x0000008c   Code   RO         3853    i.SDMMC_GetCmdResp6  stm32h7xx_ll_sdmmc.o
    0x08008610   0x08008610   0x00000058   Code   RO         3854    i.SDMMC_GetCmdResp7  stm32h7xx_ll_sdmmc.o
    0x08008668   0x08008668   0x00000008   Code   RO         3858    i.SDMMC_GetPowerState  stm32h7xx_ll_sdmmc.o
    0x08008670   0x08008670   0x00000006   Code   RO         3859    i.SDMMC_GetResponse  stm32h7xx_ll_sdmmc.o
    0x08008676   0x08008676   0x00000002   PAD
    0x08008678   0x08008678   0x00000020   Code   RO         3860    i.SDMMC_Init        stm32h7xx_ll_sdmmc.o
    0x08008698   0x08008698   0x0000000c   Code   RO         3863    i.SDMMC_PowerState_ON  stm32h7xx_ll_sdmmc.o
    0x080086a4   0x080086a4   0x00000006   Code   RO         3864    i.SDMMC_ReadFIFO    stm32h7xx_ll_sdmmc.o
    0x080086aa   0x080086aa   0x00000002   PAD
    0x080086ac   0x080086ac   0x00000028   Code   RO         3865    i.SDMMC_SendCommand  stm32h7xx_ll_sdmmc.o
    0x080086d4   0x080086d4   0x0000000a   Code   RO         3867    i.SDMMC_WriteFIFO   stm32h7xx_ll_sdmmc.o
    0x080086de   0x080086de   0x00000002   PAD
    0x080086e0   0x080086e0   0x00000038   Code   RO         6310    i.SDRAM_Send_Cmd    sdram.o
    0x08008718   0x08008718   0x000000e4   Code   RO         4189    i.SD_FindSCR        stm32h7xx_hal_sd.o
    0x080087fc   0x080087fc   0x000000d2   Code   RO         4191    i.SD_InitCard       stm32h7xx_hal_sd.o
    0x080088ce   0x080088ce   0x00000002   PAD
    0x080088d0   0x080088d0   0x00000144   Code   RO         4192    i.SD_PowerON        stm32h7xx_hal_sd.o
    0x08008a14   0x08008a14   0x000000e4   Code   RO         4193    i.SD_SendSDStatus   stm32h7xx_hal_sd.o
    0x08008af8   0x08008af8   0x00000002   Code   RO          556    i.SVC_Handler       stm32h7xx_it.o
    0x08008afa   0x08008afa   0x00000002   Code   RO          557    i.SysTick_Handler   stm32h7xx_it.o
    0x08008afc   0x08008afc   0x000000a8   Code   RO           15    i.SystemClock_Config  main.o
    0x08008ba4   0x08008ba4   0x000000e4   Code   RO         5988    i.SystemInit        system_stm32h7xx.o
    0x08008c88   0x08008c88   0x00000034   Code   RO         6073    i.TFTLCD_Clear      tftlcd.o
    0x08008cbc   0x08008cbc   0x000000e4   Code   RO         6075    i.TFTLCD_Display_Dir  tftlcd.o
    0x08008da0   0x08008da0   0x000000e4   Code   RO         6079    i.TFTLCD_FDrawPoint  tftlcd.o
    0x08008e84   0x08008e84   0x00000190   Code   RO         6081    i.TFTLCD_Init       tftlcd.o
    0x08009014   0x08009014   0x00000054   Code   RO         6086    i.TFTLCD_SSD_BackLightSet  tftlcd.o
    0x08009068   0x08009068   0x000001b8   Code   RO         6087    i.TFTLCD_Scan_Dir   tftlcd.o
    0x08009220   0x08009220   0x00000104   Code   RO         6088    i.TFTLCD_SetCursor  tftlcd.o
    0x08009324   0x08009324   0x000000e4   Code   RO         6090    i.TFTLCD_ShowChar   tftlcd.o
    0x08009408   0x08009408   0x00000054   Code   RO         6092    i.TFTLCD_ShowStr    tftlcd.o
    0x0800945c   0x0800945c   0x00000086   Code   RO         6093    i.TFTLCD_ShowxNum   tftlcd.o
    0x080094e2   0x080094e2   0x00000002   PAD
    0x080094e4   0x080094e4   0x00000014   Code   RO         6095    i.TFTLCD_WriteRAM_Prepare  tftlcd.o
    0x080094f8   0x080094f8   0x00000010   Code   RO         6096    i.TFTLCD_WriteReg   tftlcd.o
    0x08009508   0x08009508   0x0000000c   Code   RO          558    i.TIM6_DAC_IRQHandler  stm32h7xx_it.o
    0x08009514   0x08009514   0x000000c4   Code   RO         4543    i.TIM_Base_SetConfig  stm32h7xx_hal_tim.o
    0x080095d8   0x080095d8   0x00000044   Code   RO         5888    i.UARTEx_SetNbDataToProcess  stm32h7xx_hal_uart_ex.o
    0x0800961c   0x0800961c   0x000000c8   Code   RO         5498    i.UART_AdvFeatureConfig  stm32h7xx_hal_uart.o
    0x080096e4   0x080096e4   0x00000060   Code   RO         5499    i.UART_CheckIdleState  stm32h7xx_hal_uart.o
    0x08009744   0x08009744   0x00000014   Code   RO         5500    i.UART_DMAAbortOnError  stm32h7xx_hal_uart.o
    0x08009758   0x08009758   0x00000038   Code   RO         5510    i.UART_EndRxTransfer  stm32h7xx_hal_uart.o
    0x08009790   0x08009790   0x000003ac   Code   RO         5516    i.UART_SetConfig    stm32h7xx_hal_uart.o
    0x08009b3c   0x08009b3c   0x000000a4   Code   RO         5523    i.UART_WaitOnFlagUntilTimeout  stm32h7xx_hal_uart.o
    0x08009be0   0x08009be0   0x0000000c   Code   RO          559    i.USART1_IRQHandler  stm32h7xx_it.o
    0x08009bec   0x08009bec   0x00000002   Code   RO          560    i.UsageFault_Handler  stm32h7xx_it.o
    0x08009bee   0x08009bee   0x0000002a   Code   RO         6341    i.W25Q256_Erase_Sector  w25q256.o
    0x08009c18   0x08009c18   0x00000070   Code   RO         6342    i.W25Q256_Init      w25q256.o
    0x08009c88   0x08009c88   0x00000040   Code   RO         6344    i.W25Q256_Qspi_Enable  w25q256.o
    0x08009cc8   0x08009cc8   0x0000002a   Code   RO         6345    i.W25Q256_Read      w25q256.o
    0x08009cf2   0x08009cf2   0x00000002   PAD
    0x08009cf4   0x08009cf4   0x00000048   Code   RO         6346    i.W25Q256_ReadID    w25q256.o
    0x08009d3c   0x08009d3c   0x00000058   Code   RO         6347    i.W25Q256_ReadSR    w25q256.o
    0x08009d94   0x08009d94   0x0000000e   Code   RO         6348    i.W25Q256_Wait_Busy  w25q256.o
    0x08009da2   0x08009da2   0x00000002   PAD
    0x08009da4   0x08009da4   0x000000a4   Code   RO         6349    i.W25Q256_Write     w25q256.o
    0x08009e48   0x08009e48   0x0000002c   Code   RO         6351    i.W25Q256_Write_Enable  w25q256.o
    0x08009e74   0x08009e74   0x00000040   Code   RO         6352    i.W25Q256_Write_NoCheck  w25q256.o
    0x08009eb4   0x08009eb4   0x00000034   Code   RO         6353    i.W25Q256_Write_Page  w25q256.o
    0x08009ee8   0x08009ee8   0x00000050   Code   RO         6354    i.W25Q256_Write_SR  w25q256.o
    0x08009f38   0x08009f38   0x00000050   Code   RO         6311    i.W8925_Init        sdram.o
    0x08009f88   0x08009f88   0x00000022   Code   RO          754    i.__NVIC_SetPriority  stm32h7xx_hal_cortex.o
    0x08009faa   0x08009faa   0x0000000e   Code   RO         6507    i._is_digit         c_w.l(__printf_wp.o)
    0x08009fb8   0x08009fb8   0x00000002   Code   RO          488    i._sys_exit         usart.o
    0x08009fba   0x08009fba   0x00000002   PAD
    0x08009fbc   0x08009fbc   0x0000002c   Code   RO         6026    i.beep              sys.o
    0x08009fe8   0x08009fe8   0x00000018   Code   RO          489    i.fputc             usart.o
    0x0800a000   0x0800a000   0x000000d8   Code   RO           16    i.fsmc_sdram_test   main.o
    0x0800a0d8   0x0800a0d8   0x000005e8   Code   RO           17    i.main              main.o
    0x0800a6c0   0x0800a6c0   0x0000000a   Code   RO         6651    x$fpl$fpinit        fz_wv.l(fpinit.o)
    0x0800a6ca   0x0800a6ca   0x00000019   Data   RO           20    .constdata          main.o
    0x0800a6e3   0x0800a6e3   0x00000001   PAD
    0x0800a6e4   0x0800a6e4   0x00000018   Data   RO         5524    .constdata          stm32h7xx_hal_uart.o
    0x0800a6fc   0x0800a6fc   0x00000010   Data   RO         5889    .constdata          stm32h7xx_hal_uart_ex.o
    0x0800a70c   0x0800a70c   0x00000010   Data   RO         5989    .constdata          system_stm32h7xx.o
    0x0800a71c   0x0800a71c   0x00004740   Data   RO         6099    .constdata          tftlcd.o
    0x0800ee5c   0x0800ee5c   0x00000028   Data   RO         6480    .constdata          c_w.l(_printf_hex_int.o)
    0x0800ee84   0x0800ee84   0x00000011   Data   RO         6510    .constdata          c_w.l(__printf_flags_wp.o)
    0x0800ee95   0x0800ee95   0x00000003   PAD
    0x0800ee98   0x0800ee98   0x00000020   Data   RO         6707    Region$$Table       anon$$obj.o


    Execution Region RW_IRAM1 (Exec base: 0x20000000, Load base: 0x0800eeb8, Size: 0x00000000, Max: 0x00020000, ABSOLUTE)

    **** No section assigned to this execution region ****


    Execution Region RW_IRAM2 (Exec base: 0x24000000, Load base: 0x0800eeb8, Size: 0x00001938, Max: 0x00080000, ABSOLUTE)

    Exec Addr    Load Addr    Size         Type   Attr      Idx    E Section Name        Object

    0x24000000   0x0800eeb8   0x00000008   Data   RW          284    .data               fmc.o
    0x24000008   0x0800eec0   0x00000004   Data   RW          491    .data               usart.o
    0x2400000c   0x0800eec4   0x0000000c   Data   RW         2273    .data               stm32h7xx_hal.o
    0x24000018   0x0800eed0   0x00000008   Data   RW         5990    .data               system_stm32h7xx.o
    0x24000020   0x0800eed8   0x00000001   Data   RW         6027    .data               sys.o
    0x24000021   0x0800eed9   0x00000003   PAD
    0x24000024   0x0800eedc   0x00000008   Data   RW         6100    .data               tftlcd.o
    0x2400002c   0x0800eee4   0x00000004   Data   RW         6356    .data               w25q256.o
    0x24000030        -       0x00000024   Zero   RW           19    .bss                main.o
    0x24000054        -       0x00000080   Zero   RW          283    .bss                fmc.o
    0x240000d4        -       0x0000004c   Zero   RW          344    .bss                i2c.o
    0x24000120        -       0x0000004c   Zero   RW          389    .bss                quadspi.o
    0x2400016c        -       0x00000080   Zero   RW          446    .bss                sdmmc.o
    0x240001ec        -       0x00000090   Zero   RW          490    .bss                usart.o
    0x2400027c        -       0x0000004c   Zero   RW          699    .bss                stm32h7xx_hal_timebase_tim.o
    0x240002c8        -       0x0000000e   Zero   RW         6098    .bss                tftlcd.o
    0x240002d6        -       0x00001000   Zero   RW         6355    .bss                w25q256.o
    0x240012d6   0x0800eee8   0x00000002   PAD
    0x240012d8        -       0x00000060   Zero   RW         6583    .bss                c_w.l(libspace.o)
    0x24001338        -       0x00000200   Zero   RW            2    HEAP                startup_stm32h743xx.o
    0x24001538        -       0x00000400   Zero   RW            1    STACK               startup_stm32h743xx.o



  Load Region LR$$.ARM.__AT_0xC0000000 (Base: 0xc0000000, Size: 0x00000000, Max: 0x0007a120, ABSOLUTE)

    Execution Region ER$$.ARM.__AT_0xC0000000 (Exec base: 0xc0000000, Load base: 0xc0000000, Size: 0x0007a120, Max: 0x0007a120, ABSOLUTE, UNINIT)

    Exec Addr    Load Addr    Size         Type   Attr      Idx    E Section Name        Object

    0xc0000000        -       0x0007a120   Zero   RW           18    .ARM.__AT_0xC0000000  main.o


==============================================================================

Image component sizes


      Code (inc. data)   RO Data    RW Data    ZI Data      Debug   Object Name

       488         42          0          8        128       3194   fmc.o
       256         24          0          0          0       1259   gpio.o
       248         24          0          0         76       1985   i2c.o
      1920        682         25          0     500036    1354592   main.o
       432         42          0          0         76       4016   quadspi.o
       236         26          0          0        128       2016   sdmmc.o
       136         12          0          0          0       1354   sdram.o
        64         26        664          0       1536        872   startup_stm32h743xx.o
       168         36          0         12          0      22961   stm32h7xx_hal.o
       354         28          0          0          0      42205   stm32h7xx_hal_cortex.o
      1518         70          0          0          0       4606   stm32h7xx_hal_dma.o
       622         50          0          0          0       5404   stm32h7xx_hal_gpio.o
      2588         90          0          0          0      21877   stm32h7xx_hal_i2c.o
       172          0          0          0          0       2175   stm32h7xx_hal_i2c_ex.o
        38          0          0          0          0       1276   stm32h7xx_hal_mdma.o
        28          6          0          0          0        966   stm32h7xx_hal_msp.o
        80          8          0          0          0        732   stm32h7xx_hal_pwr.o
        84          6          0          0          0        817   stm32h7xx_hal_pwr_ex.o
      1732         14          0          0          0      13994   stm32h7xx_hal_qspi.o
      2436        116          0          0          0       8069   stm32h7xx_hal_rcc.o
      4466        172          0          0          0      10739   stm32h7xx_hal_rcc_ex.o
      3040         54          0          0          0      18831   stm32h7xx_hal_sd.o
       218          4          0          0          0       4348   stm32h7xx_hal_sdram.o
       108          6          0          0          0       1412   stm32h7xx_hal_sram.o
       818         62          0          0          0       7812   stm32h7xx_hal_tim.o
         6          0          0          0          0       2404   stm32h7xx_hal_tim_ex.o
       140         20          0          0         76       1671   stm32h7xx_hal_timebase_tim.o
      2550        138         24          0          0      31024   stm32h7xx_hal_uart.o
       290          6         16          0          0       5742   stm32h7xx_hal_uart_ex.o
       194         78          0          0          0       8299   stm32h7xx_it.o
       654         26          0          0          0       6940   stm32h7xx_ll_fmc.o
      1632         72          0          0          0      23079   stm32h7xx_ll_sdmmc.o
       312         26          0          1          0       1893   sys.o
       228         40         16          8          0       1618   system_stm32h7xx.o
     10926        146      18240          8         14      24732   tftlcd.o
       266         28          0          4        144       4370   usart.o
       838         40          0          4       4096       8915   w25q256.o

    ----------------------------------------------------------------------
     40334       2220      19018         48     506312    1658199   Object Totals
         0          0         32          0          0          0   (incl. Generated)
        48          0          1          3          2          0   (incl. Padding)

    ----------------------------------------------------------------------

      Code (inc. data)   RO Data    RW Data    ZI Data      Debug   Library Member Name

         8          0          0          0          0         68   __main.o
       312          4         17          0          0         92   __printf_flags_wp.o
        14          0          0          0          0         68   __printf_wp.o
         0          0          0          0          0          0   __rtentry.o
        12          0          0          0          0          0   __rtentry2.o
         6          0          0          0          0          0   __rtentry4.o
        52          8          0          0          0          0   __scatter.o
        26          0          0          0          0          0   __scatter_copy.o
        28          0          0          0          0          0   __scatter_zi.o
        44          0          0          0          0        108   _printf_char.o
        48          6          0          0          0         96   _printf_char_common.o
        36          4          0          0          0         80   _printf_char_file.o
         6          0          0          0          0          0   _printf_d.o
       120         16          0          0          0         92   _printf_dec.o
        88          4         40          0          0         88   _printf_hex_int.o
       178          0          0          0          0         88   _printf_intcommon.o
        78          0          0          0          0        108   _printf_pad.o
         0          0          0          0          0          0   _printf_percent.o
         4          0          0          0          0          0   _printf_percent_end.o
         6          0          0          0          0          0   _printf_s.o
        82          0          0          0          0         80   _printf_str.o
         6          0          0          0          0          0   _printf_x.o
        10          0          0          0          0         68   _sputc.o
        18          0          0          0          0         80   exit.o
         8          0          0          0          0         68   ferror.o
         6          0          0          0          0        152   heapauxi.o
         2          0          0          0          0          0   libinit.o
         6          0          0          0          0          0   libinit2.o
         2          0          0          0          0          0   libshutdown.o
         2          0          0          0          0          0   libshutdown2.o
         8          4          0          0         96         68   libspace.o
       238          0          0          0          0        100   lludivv7m.o
        24          4          0          0          0         84   noretval__2printf.o
        40          6          0          0          0         84   noretval__2sprintf.o
        78          0          0          0          0         80   rt_memclr_w.o
         2          0          0          0          0          0   rtexit.o
        10          0          0          0          0          0   rtexit2.o
        74          0          0          0          0         80   sys_stackheap_outer.o
         2          0          0          0          0         68   use_no_semi.o
         2          0          0          0          0         68   use_no_semi_2.o
        10          0          0          0          0        116   fpinit.o

    ----------------------------------------------------------------------
      1700         56         60          0         96       2084   Library Totals
         4          0          3          0          0          0   (incl. Padding)

    ----------------------------------------------------------------------

      Code (inc. data)   RO Data    RW Data    ZI Data      Debug   Library Name

      1686         56         57          0         96       1968   c_w.l
        10          0          0          0          0        116   fz_wv.l

    ----------------------------------------------------------------------
      1700         56         60          0         96       2084   Library Totals

    ----------------------------------------------------------------------

==============================================================================


      Code (inc. data)   RO Data    RW Data    ZI Data      Debug   

     42034       2276      19078         48     506408    1634895   Grand Totals
     42034       2276      19078         48     506408    1634895   ELF Image Totals
     42034       2276      19078         48          0          0   ROM Totals

==============================================================================

    Total RO  Size (Code + RO Data)                61112 (  59.68kB)
    Total RW  Size (RW Data + ZI Data)            506456 ( 494.59kB)
    Total ROM Size (Code + RO Data + RW Data)      61160 (  59.73kB)

==============================================================================

